:020000040800F2
:10000000E006002029020008DF100008A90E000801
:10001000DD1000081F0400088D110008000000001A
:10002000000000000000000000000000E3100008D5
:100030004904000800000000E1100008E510000875
:10004000430200084302000843020008430200087C
:10005000430200084302000843020008430200086C
:10006000430200084302000843020008430200085C
:10007000430200084302000843020008430200084C
:10008000430200084302000843020008430200083C
:10009000430200084302000843020008430200082C
:1000A000430200084302000843020008430200081C
:1000B000430200084302000843020008430200080C
:1000C00043020008430200084302000843020008FC
:1000D00043020008430200084302000843020008EC
:1000E00043020008430200084302000843020008DC
:1000F00043020008430200084302000843020008CC
:1001000043020008430200084302000843020008BB
:1001100043020008430200084302000843020008AB
:10012000430200084302000843020008430200089B
:10013000430200084302000843020008430200088B
:10014000430200084302000843020008430200087B
:10015000430200084302000843020008430200086B
:10016000430200084302000843020008430200085B
:100170004302000843020008430200080000000098
:10018000430200084302000800F002F800F03CF8C7
:100190000AA090E8000C82448344AAF10107DA45E2
:1001A00001D100F031F8AFF2090EBAE80F0013F0F8
:1001B000010F18BFFB1A43F00103184740730000FA
:1001C00060730000103A24BF78C878C1FAD852078B
:1001D00024BF30C830C144BF04680C6070470000C1
:1001E0000023002400250026103A28BF78C1FBD840
:1001F000520728BF30C148BF0B6070471FB504F0DD
:10020000AFF91FBD10B510BD00F0CFF81146FFF7D4
:10021000F5FF03F0DBFF00F0EDF803B4FFF7F2FFAA
:1002200003BC00F0F5F80000094880470948004782
:10023000FEE7FEE7FEE7FEE7FEE7FEE7FEE7FEE796
:10024000FEE7FEE704480549054A064B70470000F3
:100250007D11000889010008E0000020E006002070
:10026000E0020020E002002053EA020C00F0698066
:100270002DE9F04B4FF00006002B1FBFB3FA83F5BA
:1002800003FA05F424FA05F65E4012BF1643B2FAEB
:1002900082F502FA05F4C5F120051EBF22FA05FC1D
:1002A00044EA0C04203556EA044C4FEA144418BFC3
:1002B000641C4FF000084FF00009904271EB030CF2
:1002C00039D3002919BFB1FA81F701FA07F6B0FA5C
:1002D00080F700FA07F6C7F120071EBF20FA07FCD7
:1002E00046EA0C062037B6FBF4FCA7EB0507103FE7
:1002F00007F01F0BCBF120060CFA0BFB2CFA06F6CD
:1003000044BFB3460026202FA4BF5E464FF0000B2B
:100310005BEA060C08BF4FF0010B19EB0B09ABFBB6
:10032000027C48EB0608C01B06FB02CC0BFB03CC8F
:1003300071EB0C01C1E70B46024641464846BDE859
:10034000F08B13B54FF000004FF00001AFF30080C9
:10035000BDE81C4070474FF0000200B513469446BC
:100360009646203922BFA0E80C50A0E80C50B1F10D
:100370002001BFF4F7AF090728BFA0E80C5048BF21
:100380000CC05DF804EB890028BF40F8042B08BFBF
:10039000704748BF20F8022B11F0804F18BF00F8BB
:1003A000012B7047704770477047754600F02CF876
:1003B000AE4605006946534620F00700854618B052
:1003C00020B5FFF73FFFBDE820404FF000064FF09B
:1003D00000074FF000084FF0000B21F00701AC467A
:1003E000ACE8C009ACE8C009ACE8C009ACE8C00999
:1003F0008D46704710B50446AFF300802046BDE837
:100400001040FFF70ABF0000004870477C00002042
:1004100001491820ABBEFEE7260002007047FEE748
:1004200007480168C90103D4016841F08071016087
:10043000044800214160016841F0010101607047FA
:10044000FCED00E0001000E0704772B6FEE700002F
:1004500030B5B3F5804F05D06FF0704140F82210F1
:10046000002030BD8C690B688D6823434C688989F6
:10047000240144EA0524234343EA014150F8223091
:10048000014C23401943E9E70000F0CF10B50A689A
:1004900050F8223023F0010340F822308C68082CF9
:1004A00023D000234A682243CC681C430B692243B3
:1004B0001A434B690E4C1A43CB691A430B6A1A4311
:1004C0004B6A1A438B6A1A43CB6A1A430B6B1A4363
:1004D0008B691343CA6B09681A4350F82130A34350
:1004E000134340F82130002010BD4023DAE700001C
:1004F0007FFF0F0030B5D1E9003443EA04138C6864
:100500008D89240244EA054423430C8A094D00EBFB
:10051000820005EB045423430C7D6D0105EB04645C
:10052000896923430B43416801F040410B43436019
:10053000002030BD0000F0FF70B5044600F05EF909
:100540000546601C02D004480078044400F056F9C7
:10055000401BA042FAD370BD08000020F0B587B060
:1005600014216846FFF7F7FE1A48016800292FD1C9
:100570000121016018480024016841F00101016077
:100580000068022500F00100059041F20100CDE96C
:10059000000502AA03260C2782E8D00069460F480E
:1005A00000F022F84FF68070CDE9000502AA6946F6
:1005B00082E8D0000A4800F017F84CF23370CDE919
:1005C000000502AA694682E8D000064800F00CF84F
:1005D00007B0F0BD0000002038380240001802408B
:1005E00000100240000C02402DE9F84FDFF8BCA1DA
:1005F0000022012503264FF00F090AF1040BAAF18E
:10060000040E00BF0B6805FA02F42340A34270D128
:100610000F7907F00307012F01D0022F16D1876849
:100620004FEA420806FA08FC27EA0C07D1F80CC08A
:100630000CFA08FC4CEA070CC0F808C04768A7434E
:100640000C79C4F3001494403C4344600C79E443B7
:10065000A4070AD0C4684FEA420C06FA0CF7BC4360
:100660008F6807FA0CF72743C7600C7904F003047E
:10067000022C12D1D40800EB840CDCF82040570780
:10068000FF0E09FA07F824EA0804D1F8108008FAE6
:1006900007F848EA0408CCF8208004684FEA420CC6
:1006A00006FA0CF7BC430F7907F0030707FA0CF7BB
:1006B000274307604C6814F4403F70D03C4C2768D7
:1006C00047F480472760246822F0030704F480443D
:1006D0000094384C07EB040CDCF8084897074FEA05
:1006E000177809FA08F7BC43334FB84202D1002704
:1006F00024E054E0314FB84201D101271EE0304FD1
:10070000B84201D1022719E02E4FB84201D1032788
:1007100014E02D4FB84201D104270FE02B4FB8420F
:1007200001D105270AE02A4FB84201D1062705E08A
:10073000284FB84201D1072700E0082707FA08F739
:100740002743CCF80878DAF800405746D1F804C0BF
:100750009C435FEACC2C00D51C433C60DBF8004096
:100760005F46D1F804C09C435FEA8C2C00D51C4343
:100770003C60DEF800407746D1F804C09C435FEA55
:100780008C3C00D51C433C60084F083F3C68D1F8C6
:1007900004C09C435FEACC3C00D51C433C60521C27
:1007A000102AFFF42FAFBDE8F88F0000083C01408D
:1007B0004438024000300140000002400004024082
:1007C00000080240000C02400010024000140240E9
:1007D00000180240001C02400069084000D00120BF
:1007E0007047426921EA02030A4043EA02418161FB
:1007F00070470AB1816170470904FBE701488068CE
:100800007047000008000020024881680278114407
:1008100081607047080000200B4810B5016841F462
:1008200000710160016841F480610160016841F478
:1008300080710160032000F061F80F2000F006F8DD
:1008400000F024F8002010BD003C024070B50D4DB2
:1008500004464FF47A712878B1FBF0F00A49096830
:10086000B1FBF0F000F00CFB48B9102C07D20022CD
:100870002146501E00F022F800206C6070BD01205F
:1008800070BD000008000020140000200A4808B5D0
:10089000016841F480410160006800F480400090EC
:1008A0000548001F016841F080510160006800F0B8
:1008B0008050009008BD000044380240F0B40E4B58
:1008C0001B680C46C3F30223C3F10705042D00D9AE
:1008D0000425191D072901D2002300E0DB1E012693
:1008E00006FA05F1491E214099409E40761E1640A9
:1008F0003143F0BC00F04BBC0CED00E0064900F0C9
:10090000070208684FF6FF03184040EA0220034A36
:1009100010430860704700000CED00E00000FA058D
:100920002DE9F0470E46050065D0DFF81481D8F8B0
:100930000000F7B200F00700B04207D288F800705C
:10094000D8F8000000F00700B04254D128683D4CB0
:10095000810712D5400703D5206840F4E05020609D
:100960002878000703D5206840F4604020602068A4
:10097000A96820F0F000084320602878C0072DD037
:10098000304968680839012812D0022813D003289A
:1009900011D00968890700292DDA216821F00301A7
:1009A00001432160FFF72AFF814641F2883A0EE0B9
:1009B00009688903EFE709688901ECE7FFF71EFF83
:1009C000A0EB0901514502D90320BDE8F08720685A
:1009D000696800F00C00B0EB810FEFD1D8F800107F
:1009E000404601F00701B14207D90770006800F0E6
:1009F0000700B04201D00120E7E72878400705D57D
:100A00002068E96820F4E050084320602878000757
:100A100006D52068296920F4604040EAC1002060C2
:100A200000F018F82168084AC1F30311515CC8406E
:100A30000649086006480068FFF708FF0020C4E781
:100A4000003C0240083802406A45000814000020BB
:100A50000C000020154810B5006810F00C02144876
:100A600013D04110042A0FD0082A0ED10F4C241F96
:100A70002268236802F03F025B0207D52068C0F3BA
:100A80008810A0FB010106E0084610BD2168C1F3F3
:100A90008811A1FB00010023FFF7E6FB2168C1F3E9
:100AA0000141491C4900B0FBF1F010BD083802407B
:100AB0000024F4002DE9F84F04006ED02078DFF810
:100AC0004C93C007A9F104054AD009F1040001685C
:100AD000C1F38101012908D00068C0F38100022818
:100AE0000AD1D9F80000400206D52868800337D51E
:100AF00060680028E1D033E06068B0F5803F10D036
:100B0000B0F5A02F286810D020F480302860286825
:100B100020F4802028606068A8B1FFF76FFE0646C9
:100B20000DE0286840F48030F4E740F4802028602D
:100B3000F7E700BFFFF762FE801B642873D82868C0
:100B40008003F7D50CE0FFF759FE064605E000BF2D
:100B5000FFF754FE801B6428F0D828688003F7D480
:100B60002078DFF8AC8280074FF0000A3ED5A74816
:100B7000001D016811F00C0F08D00068C0F381005F
:100B800002280BD1D9F80000400207D4286880075A
:100B900016D5E068012800D112E033E1E068B8B171
:100BA0000120C8F80000FFF729FE064605E000BF57
:100BB000FFF724FE801B0228C0D828688007F7D5DD
:100BC0002868216920F0F80040EAC10028600DE0A3
:100BD000C8F800A0FFF712FE064604E0FFF70EFE7D
:100BE000801B02281FD828688007F7D420780007C8
:100BF00022D5864F87486169703771B10121016044
:100C0000FFF7FCFD064604E0FFF7F8FD801B022815
:100C100009D838688007F7D50EE0C0F800A0FFF7C4
:100C2000EDFD064605E082E0FFF7E8FD801B0228A7
:100C30007DD838688007F7D42078400768D5DFF87A
:100C4000CCB100270BF13C0BDBF80000C0000BD44B
:100C5000DBF8001041F08051CBF80010DBF8000009
:100C6000012700F0805000906B4E3068C00510D412
:100C7000306840F480703060FFF7C0FD009005E000
:100C8000FFF7BCFD0099401A022850D83068C00513
:100C9000F6D55E4EA0686C3601280FD00528306866
:100CA00010D020F001003060306820F00400306087
:100CB000A068B8B1FFF7A2FD00900FE0306840F0E7
:100CC0000100F4E740F004003060F7E7FFF796FD1D
:100CD0000099411A41F28830814266D83068800715
:100CE000F4D50EE0FFF78AFD009007E0FFF786FDE0
:100CF0000099411A41F28830814256D83068800705
:100D0000F4D42FB1DBF8001021F08051CBF80010A3
:100D1000A069C8B33D49091D0968C1F381010229D1
:100D20004AD00228504607D0C8F8600000E03CE0F6
:100D3000FFF764FD04463BE04746C8F86000FFF754
:100D40005DFD064605E000BFFFF758FD801B022849
:100D50002BD828688001F7D4D4E907010843A16A99
:100D60002E4A490802EB0141626A41EA82110843B6
:100D700094F82C1040EA0161C9F80010012038668F
:100D8000FFF73CFD044606E03EE000BFFFF736FDFE
:100D9000001B022809D828688001F7D534E000BF7D
:100DA000FFF72CFD001B022802D90320BDE8F88FB5
:100DB00028688001F4D427E00128F7D0D9F8000092
:100DC000E26900F4800191421CD1226A00F03F01E7
:100DD000914217D147F6C071626A0140B1EB821FA0
:100DE00010D1A26A4FF0FF3300F4403103EB5202FE
:100DF000B1EB024F06D194F82C1000F07060B0EB0C
:100E0000016F01D00120D1E70020CFE70438024074
:100E100000004742800E4742007000400000FFFF84
:100E200070B515460E46040003D094F8490010B181
:100E300007E0012070BD002084F84800204600F043
:100E40001DF804F108012068FFF720FB3146A26875
:100E50002068FFF74FFBD4E901022946236BFFF717
:100E6000F7FA2168A06851F8202042F0010241F809
:100E70002020012084F84900002070BDFFF76EBBE0
:100E800010B5401EB0F1807F01D3012010BD4FF09E
:100E9000E02460610F21601700F079F90020A06163
:100EA00007202061002010BDFEE70000054808B5BE
:100EB000016841F010010160006800F0100000902E
:100EC00008BD00003038024010B5214C04212046F6
:100ED000FFF782FC50B108212046FFF77DFCA8B146
:100EE00010212046FFF778FC00B327E00A20FFF727
:100EF00023FB04212046FFF76FFCF8B904212046AC
:100F0000FFF76AFC0028F9D0012010BD0A20FFF786
:100F100013FB08212046FFF75FFC78B90821204623
:100F2000FFF75AFC0028F9D0022010BD0A20FFF775
:100F300003FB10212046FFF74FFC08B1042010BD31
:100F400010212046FFF748FC0028F9D0032010BDEF
:100F500000100240054808B5016841F01001016029
:100F6000006800F01000009008BD0000303802401A
:100F7000054A28B1012805D102211046FFF731BCEE
:100F80000121FAE7704700000010024000B58FB061
:100F90001C216846FFF7DFF91C2107A8FFF7DBF9E2
:100FA0001B484FF02041102201601A494160062180
:100FB00081600021C160C0E904128161C161130236
:100FC0000162C0E909139302C0E90B134163816315
:100FD0004164022000900F200523CDE901030DF1AB
:100FE0000C0C11238CE80E000691CDE907100DF1D1
:100FF000240CFF208CE80F000D9107AA69460448D5
:10100000FFF70EFF002801D0FFF71FFA0FB000BD59
:101010001C000020040100A02DE9F04186B014213D
:101020006846FFF798F92A480024016841F010014A
:101030000160016801F010010591016841F0800133
:101040000160016801F080010591016841F04001F3
:101050000160016801F040010591016841F008015B
:101060000160016801F008010591016841F001018A
:1010700001600068174F00F001004FF40076059002
:10108000002231463846FFF7B4FBDFF84C800122DE
:1010900003214046FFF7ADFB1C2001258DE8310000
:1010A00069464046FFF7A0FA0096CDE9015469462B
:1010B00038460394FFF798FA03200090CDE90154D5
:1010C000694640460394FFF78FFA06B0BDE8F08109
:1010D00030380240001C024000100240FEE7FEE7EC
:1010E00070477047FFF790BB30B593B0302168462A
:1010F000FFF731F914210CA8FFF72DF91D48002541
:10110000016841F080510160006800F0805011904A
:101110001948016841F4804101600068022400F42C
:1011200080401190012003901020049000940694B8
:101130000820CDE90750A820CDE9090404200B9030
:101140006846FFF7B7FC08B172B6FEE70CA90F209E
:1011500081E831004FF4A0500F904FF48050109070
:1011600005210CA8FFF7DCFB002801D072B6FEE7D2
:1011700013B030BD403802400070004002480168A2
:1011800041F470010160704788ED00E0FEE7090757
:10119000090E002804DB00F1E02080F800147047FD
:1011A00000F00F0000F1E02080F8141D70470000EF
:1011B000074A10B553680749074C0968B1FBF4F1B9
:1011C000414300E000BF5068C01A8842FAD310BD06
:1011D000001000E01400002040420F0070B50949E3
:1011E0000646002408884D8821464543204602F0E3
:1011F00087FE02F0D9FF044801E00680641CAC427F
:10120000FBD370BD6C0000200008006C2DE9F04F8E
:1012100038492C260A46887192884FF4305A4FF488
:10122000285B41F6631E2B274FF02A0C4FF0F00885
:1012300045F210594FF448754FF4A0744FF4F07311
:1012400058B10C80A1F802804A4530D1A1F808A01D
:10125000A1F80AB03802888141E0A1F800804C80F2
:101260004A4507D1A1F808A0A1F80AB04FF42C50C4
:10127000888105E072450E8105D14F81A1F80CC02F
:101280000B804D8002E0A1F80AC08F81A2F5A64034
:10129000103803D0A2F5EE40963801D10C804B8077
:1012A000A2F5184006381FD10B804D801CE0724516
:1012B00011D0A2F5184006380DD00E81A1F80AC051
:1012C000A1F80C70A2F5A64010380BD0A2F5EE40A4
:1012D000963807D008E00E81A1F80AC08F810D80F2
:1012E0004B80EFE70B804C80BDE8F04F032002F00D
:1012F00045BD00006C00002010B5144602F000FE51
:1013000002F052FF0148048010BD00000008006C8C
:1013100010B5CF2002F03CFF002002F02DFFC120CD
:1013200002F02AFF302002F027FFED2002F030FF0C
:10133000642002F021FF032002F01EFF122002F0C1
:101340001BFF812002F018FFE82002F021FF85201A
:1013500002F012FF102002F00FFF7A2002F00CFFC3
:10136000CB2002F015FF392002F006FF2C2002F0FE
:1013700003FF002002F000FF342002F0FDFE0220F7
:1013800002F0FAFEF72002F003FF202002F0F4FE44
:10139000EA2002F0FDFE002002F0EEFE002002F046
:1013A000EBFEC02002F0F4FE1B2002F0E5FEC1209F
:1013B00002F0EEFE012002F0DFFEC52002F0E8FEA2
:1013C000302002F0D9FE302002F0D6FEC72002F015
:1013D000DFFEB72002F0D0FE362002F0D9FE482012
:1013E00002F0CAFE3A2002F0D3FE552002F0C4FEFD
:1013F000B12002F0CDFE002002F0BEFE1A2002F065
:10140000BBFEB62002F0C4FE0A2002F0B5FEA22008
:1014100002F0B2FEF22002F0BBFE002002F0ACFEB1
:10142000262002F0B5FE012002F0A6FEE02002F028
:10143000AFFE0F2002F0A0FE2A2002F09DFE282021
:1014400002F09AFE082002F097FE0E2002F094FEB1
:10145000082002F091FE542002F08EFEA92002F036
:101460008BFE432002F088FE0A2002F085FE0F204A
:1014700002F082FE002002F07FFE002002F07CFEDF
:10148000002002F079FE002002F076FEE12002F05A
:101490007FFE002002F070FE152002F06DFE172086
:1014A00002F06AFE072002F067FE112002F064FEDF
:1014B000062002F061FE2B2002F05EFE562002F0B4
:1014C0005BFE3C2002F058FE052002F055FE102085
:1014D00002F052FE0F2002F04FFE3F2002F04CFEC1
:1014E0003F2002F049FE0F2002F046FE2B2002F0C2
:1014F0004FFE002002F040FE002002F03DFE0120E1
:1015000002F03AFE3F2002F037FE2A2002F040FEB1
:10151000002002F031FE002002F02EFE002002F03A
:101520002BFEEF2002F028FE112002F031FE782081
:10153000FFF702F8BDE81040292002F029BE10B5DF
:10154000FF2002F025FEFF2002F016FE982002F098
:1015500013FE062002F010FEBC2002F019FE01204E
:1015600002F00AFE0F2002F007FE612002F004FEE6
:10157000FF2002F001FE012002F0FEFD012002F03A
:10158000FBFD0B2002F0F8FD102002F0F5FD3720E6
:1015900002F0F2FD632002F0EFFDFF2002F0ECFD0F
:1015A000FF2002F0E9FD012002F0E6FD012002F03B
:1015B000E3FD002002F0E0FD002002F0DDFDFF2051
:1015C00002F0DAFD522002F0D7FD012002F0D4FD36
:1015D000002002F0D1FD402002F0CEFDBD2002F03F
:1015E000D7FD012002F0C8FD232002F0C5FD4520F3
:1015F00002F0C2FD672002F0BFFD012002F0BCFD39
:10160000232002F0B9FD452002F0B6FD672002F06C
:10161000B3FDBE2002F0BCFD002002F0ADFD0120B4
:1016200002F0AAFDAB2002F0A7FD602002F0A4FDAD
:10163000222002F0A1FD222002F09EFD222002F0D5
:101640009BFD222002F098FD222002F095FDC7208C
:1016500002F09EFD362002F08FFDED2002F098FD95
:101660007F2002F089FD0F2002F086FDC02002F0ED
:101670008FFD0F2002F080FD0B2002F07DFD0A207F
:1016800002F07AFDFC2002F083FD082002F074FDD8
:10169000DF2002F07DFD002002F06EFD002002F050
:1016A0006BFD002002F068FD002002F065FD0020C7
:1016B00002F062FD202002F05FFDF32002F068FDE1
:1016C000742002F059FDB42002F062FD002002F007
:1016D00053FD002002F050FD002002F04DFDF720E8
:1016E00002F056FD822002F047FDB12002F050FDCD
:1016F000002002F041FD132002F03EFD132002F015
:101700003BFDF22002F044FD802002F035FD042074
:1017100002F032FD402002F02FFD282002F02CFDC7
:10172000C12002F035FD172002F026FD882002F0CE
:1017300023FD882002F020FD202002F01DFDE02086
:1017400002F026FD002002F017FD0A2002F014FD31
:10175000122002F011FD102002F00EFD0E2002F00A
:101760000BFD202002F008FDCC2002F005FD072033
:1017700002F002FD062002F0FFFC0B2002F0FCFC50
:101780000E2002F0F9FC0F2002F0F6FC0D2002F012
:10179000F3FC152002F0F0FC102002F0EDFC00201C
:1017A00002F0EAFCE12002F0F3FC002002F0E4FC8D
:1017B0000B2002F0E1FC132002F0DEFC0D2002F011
:1017C000DBFC0E2002F0D8FC1B2002F0D5FC7120BF
:1017D00002F0D2FC062002F0CFFC062002F0CCFC86
:1017E0000A2002F0C9FC0F2002F0C6FC0E2002F015
:1017F000C3FC0F2002F0C0FC152002F0BDFC0C2041
:1018000002F0BAFC002002F0B7FC2A2002F0C0FC73
:10181000002002F0B1FC002002F0AEFC012002F03A
:10182000ABFCDF2002F0A8FC2B2002F0B1FC002072
:1018300002F0A2FC002002F09FFC032002F09CFCBE
:101840001F2002F099FC3A2002F0A2FC552002F081
:1018500093FC362002F09CFC002002F08DFC11204D
:1018600002F096FC7820FEF767FE292002F090FC3B
:101870001420FEF761FEBDE810402C2002F088BC69
:1018800010B5ED2002F084FC012002F075FCFE2072
:1018900002F072FCEE2002F07BFCDE2002F06CFC19
:1018A000212002F069FCF12002F072FC012002F01C
:1018B00063FCDF2002F06CFC102002F05DFCC42011
:1018C00002F066FC8F2002F057FCC62002F060FC9C
:1018D000002002F051FCE22002F04EFCE22002F077
:1018E0004BFCE22002F048FCBF2002F051FCAA2091
:1018F00002F042FCB02002F04BFC0D2002F03CFC58
:10190000002002F039FC0D2002F036FC002002F02D
:1019100033FC112002F030FC002002F02DFC1920D5
:1019200002F02AFC002002F027FC212002F024FC17
:10193000002002F021FC2D2002F01EFC002002F00D
:101940001BFC3D2002F018FC002002F015FC5D207D
:1019500002F012FC002002F00FFC5D2002F00CFCF3
:10196000002002F009FCB12002F012FC802002F0FD
:1019700003FC002002F000FC8B2002F0FDFB0020A5
:1019800002F0FAFB962002F0F7FB002002F0F4FBD5
:10199000B22002F0FDFB002002F0EEFB002002F07E
:1019A000EBFB022002F0E8FB002002F0E5FB032045
:1019B00002F0E2FB002002F0DFFBB32002F0E8FBC4
:1019C000002002F0D9FB002002F0D6FB002002F03C
:1019D000D3FB002002F0D0FB002002F0CDFB002062
:1019E00002F0CAFB002002F0C7FB002002F0C4FB9B
:1019F000002002F0C1FB002002F0BEFB002002F03C
:101A0000BBFB002002F0B8FB002002F0B5FB002079
:101A100002F0B2FB002002F0AFFB002002F0ACFBB2
:101A2000002002F0A9FB002002F0A6FB002002F03B
:101A3000A3FB002002F0A0FB002002F09DFB002091
:101A400002F09AFB002002F097FB002002F094FBCA
:101A5000B42002F09DFB8B2002F08EFB002002F0F0
:101A60008BFB962002F088FB002002F085FBA12072
:101A700002F082FB002002F07FFBB52002F088FB21
:101A8000022002F079FB002002F076FB032002F036
:101A900073FB002002F070FB042002F06DFB0020BD
:101AA00002F06AFBB62002F073FB002002F064FB38
:101AB000002002F061FBB72002F06AFB002002F078
:101AC0005BFB002002F058FB3F2002F055FB00209A
:101AD00002F052FB5E2002F04FFB002002F04CFBB4
:101AE000642002F049FB002002F046FB8C2002F04B
:101AF00043FB002002F040FBAC2002F03DFB002045
:101B000002F03AFBDC2002F037FB002002F034FB4D
:101B1000702002F031FB002002F02EFB902002F03A
:101B20002BFB002002F028FBEB2002F025FB00201D
:101B300002F022FBDC2002F01FFB002002F01CFB65
:101B4000B82002F025FB002002F016FB002002F076
:101B500013FB002002F010FB002002F00DFB002020
:101B600002F00AFB002002F007FB002002F004FB59
:101B7000002002F001FBBA2002F00AFB242002F050
:101B8000FBFA002002F0F8FA002002F0F5FA00203B
:101B900002F0F2FAC12002F0FBFA202002F0ECFA87
:101BA000002002F0E9FA542002F0E6FA002002F0E8
:101BB000E3FAFF2002F0E0FA002002F0DDFAC22092
:101BC00002F0E6FA0A2002F0D7FA002002F0D4FA76
:101BD000042002F0D1FA002002F0CEFAC32002F075
:101BE000D7FA3C2002F0C8FA002002F0C5FA3A20E9
:101BF00002F0C2FA002002F0BFFA392002F0BCFA6B
:101C0000002002F0B9FA372002F0B6FA002002F004
:101C1000B3FA3C2002F0B0FA002002F0ADFA362010
:101C200002F0AAFA002002F0A7FA322002F0A4FA89
:101C3000002002F0A1FA2F2002F09EFA002002F00C
:101C40009BFA2C2002F098FA002002F095FA292045
:101C500002F092FA002002F08FFA262002F08CFAAD
:101C6000002002F089FA242002F086FA002002F017
:101C700083FA242002F080FA002002F07DFA23206B
:101C800002F07AFA002002F077FA3C2002F074FAAF
:101C9000002002F071FA362002F06EFA002002F005
:101CA0006BFA322002F068FA002002F065FA2F2069
:101CB00002F062FA002002F05FFA2C2002F05CFAD7
:101CC000002002F059FA292002F056FA002002F012
:101CD00053FA262002F050FA002002F04DFA242098
:101CE00002F04AFA002002F047FA242002F044FAF7
:101CF000002002F041FA232002F03EFA002002F018
:101D00003BFAC42002F044FA622002F035FA0020C7
:101D100002F032FA052002F02FFA002002F02CFA2D
:101D2000842002F029FA002002F026FAF02002F0C6
:101D300023FA002002F020FA182002F01DFA0020F9
:101D400002F01AFAA42002F017FA002002F014FAA6
:101D5000182002F011FA002002F00EFA502002F0D2
:101D60000BFA002002F008FA0C2002F005FA00201D
:101D700002F002FA172002F0FFF9002002F0FCF94D
:101D8000952002F0F9F9002002F0F6F9F32002F0B4
:101D9000F3F9002002F0F0F9E62002F0EDF900205E
:101DA00002F0EAF9C52002F0F3F9322002F0E4F97A
:101DB000002002F0E1F9442002F0DEF9002002F0F8
:101DC000DBF9652002F0D8F9002002F0D5F9762081
:101DD00002F0D2F9002002F0CFF9882002F0CCF90D
:101DE000002002F0C9F9C62002F0D2F9202002F04A
:101DF000C3F9002002F0C0F9172002F0BDF900205D
:101E000002F0BAF9012002F0B7F9002002F0B4F9AB
:101E1000C72002F0BDF9002002F0AEF9002002F068
:101E2000ABF9002002F0A8F9002002F0A5F9C820C3
:101E300002F0AEF9002002F09FF9002002F09CF9B8
:101E4000002002F099F9002002F096F9C92002F072
:101E50009FF9002002F090F9002002F08DF9002097
:101E600002F08AF9002002F087F9002002F084F9DC
:101E7000002002F081F9002002F07EF9002002F03B
:101E80007BF9002002F078F9002002F075F90020BB
:101E900002F072F9002002F06FF9002002F06CF9F4
:101EA000002002F069F9002002F066F9002002F03B
:101EB00063F9E02002F06CF9162002F05DF90020D1
:101EC00002F05AF91C2002F057F9002002F054F9F0
:101ED000212002F051F9002002F04EF9362002F0E4
:101EE0004BF9002002F048F9462002F045F90020A5
:101EF00002F042F9522002F03FF9002002F03CF9D2
:101F0000642002F039F9002002F036F97A2002F05C
:101F100033F9002002F030F98B2002F02DF9002077
:101F200002F02AF9992002F027F9002002F024F9A2
:101F3000A82002F021F9002002F01EF9B92002F0D9
:101F40001BF9002002F018F9C42002F015F9002056
:101F500002F012F9CA2002F00FF9002002F00CF989
:101F6000D22002F009F9002002F006F9D92002F08F
:101F700003F9002002F000F9E02002F0FDF8002053
:101F800002F0FAF8F32002F0F7F8002002F0F4F87B
:101F9000E12002F0FDF8162002F0EEF8002002F039
:101FA000EBF81C2002F0E8F8002002F0E5F822200F
:101FB00002F0E2F8002002F0DFF8362002F0DCF850
:101FC000002002F0D9F8452002F0D6F8002002F0F7
:101FD000D3F8522002F0D0F8002002F0CDF86420AF
:101FE00002F0CAF8002002F0C7F87A2002F0C4F824
:101FF000002002F0C1F88B2002F0BEF8002002F0B1
:10200000BBF8992002F0B8F8002002F0B5F8A8203B
:1020100002F0B2F8002002F0AFF8B92002F0ACF8FC
:10202000002002F0A9F8C42002F0A6F8002002F077
:10203000A3F8CA2002F0A0F8002002F09DF8D220F8
:1020400002F09AF8002002F097F8D82002F094F8F5
:10205000002002F091F8E02002F08EF8002002F05B
:102060008BF8F32002F088F8002002F085F8E220D7
:1020700002F08EF8052002F07FF8002002F07CF8D4
:102080000B2002F079F8002002F076F81B2002F015
:1020900073F8002002F070F8342002F06DF8002090
:1020A00002F06AF8442002F067F8002002F064F8B9
:1020B0004F2002F061F8002002F05EF8612002F08B
:1020C0005BF8002002F058F8792002F055F8002063
:1020D00002F052F8882002F04FF8002002F04CF88D
:1020E000972002F049F8002002F046F8A62002F0FE
:1020F00043F8002002F040F8B72002F03DF800203D
:1021000002F03AF8C22002F037F8002002F034F86A
:10211000C72002F031F8002002F02EF8D12002F0A2
:102120002BF8002002F028F8D62002F025F8002035
:1021300002F022F8DD2002F01FF8002002F01CF867
:10214000F32002F019F8002002F016F8E32002F064
:102150001FF8052002F010F8002002F00DF80A2008
:1021600002F00AF8002002F007F81C2002F004F840
:10217000002002F001F8332001F0FEFF002001F002
:10218000FBFF442001F0F8FF002001F0F5FF502094
:1021900001F0F2FF002001F0EFFF622001F0ECFF00
:1021A000002001F0E9FF782001F0E6FF002001F0B7
:1021B000E3FF882001F0E0FF002001F0DDFF972021
:1021C00001F0DAFF002001F0D7FFA62001F0D4FFD4
:1021D000002001F0D1FFB72001F0CEFF002001F078
:1021E000CBFFC22001F0C8FF002001F0C5FFC720CF
:1021F00001F0C2FF002001F0BFFFD12001F0BCFFC1
:10220000002001F0B9FFD52001F0B6FF002001F059
:10221000B3FFDD2001F0B0FF002001F0ADFFF3209F
:1022200001F0AAFF002001F0A7FFE42001F0B0FFB9
:10223000012001F0A1FF002001F09EFF012001F02C
:102240009BFF002001F098FF022001F095FF002085
:1022500001F092FF2A2001F08FFF002001F08CFF97
:102260003C2001F089FF002001F086FF4B2001F0A7
:1022700083FF002001F080FF5D2001F07DFF002042
:1022800001F07AFF742001F077FF002001F074FF65
:10229000842001F071FF002001F06EFF932001F017
:1022A0006BFF002001F068FFA22001F065FF002015
:1022B00001F062FFB32001F05FFF002001F05CFF3E
:1022C000BE2001F059FF002001F056FFC42001F0AC
:1022D00053FF002001F050FFCD2001F04DFF002002
:1022E00001F04AFFD32001F047FF002001F044FF36
:1022F000DD2001F041FF002001F03EFFF32001F05E
:102300003BFF002001F038FFE52001F041FF0020F5
:1023100001F032FF002001F02FFF002001F02CFF20
:10232000002001F029FF022001F026FF002001F02B
:1023300023FF292001F020FF002001F01DFF3C2099
:1023400001F01AFF002001F017FF4B2001F014FFED
:10235000002001F011FF5D2001F00EFF002001F0D0
:102360000BFF742001F008FF002001F005FF84201E
:1023700001F002FF002001F0FFFE932001F0FCFEBF
:10238000002001F0F9FEA22001F0F6FE002001F08D
:10239000F3FEB32001F0F0FE002001F0EDFEBE20C0
:1023A00001F0EAFE002001F0E7FEC42001F0E4FEA7
:1023B000002001F0E1FECD2001F0DEFE002001F062
:1023C000DBFED32001F0D8FE002001F0D5FEDC209A
:1023D00001F0D2FE002001F0CFFEF32001F0CCFE90
:1023E000002001F0C9FEE62001F0D2FE112001F02C
:1023F000C3FE002001F0C0FE342001F0BDFE00202D
:1024000001F0BAFE562001F0B7FE002001F0B4FE44
:10241000762001F0B1FE002001F0AEFE772001F041
:10242000ABFE002001F0A8FE662001F0A5FE002012
:1024300001F0A2FE882001F09FFE002001F09CFE2A
:10244000992001F099FE002001F096FEBB2001F0DA
:1024500093FE002001F090FE992001F08DFE0020F7
:1024600001F08AFE662001F087FE002001F084FE64
:10247000552001F081FE002001F07EFE552001F084
:102480007BFE002001F078FE452001F075FE002063
:1024900001F072FE432001F06FFE002001F06CFE9F
:1024A000442001F069FE002001F066FEE72001F003
:1024B0006FFE322001F060FE002001F05DFE55202D
:1024C00001F05AFE002001F057FE762001F054FE84
:1024D000002001F051FE662001F04EFE002001F0C8
:1024E0004BFE672001F048FE002001F045FE67200A
:1024F00001F042FE002001F03FFE872001F03CFE8B
:10250000002001F039FE992001F036FE002001F094
:1025100033FEBB2001F030FE002001F02DFE99209B
:1025200001F02AFE002001F027FE772001F024FEB2
:10253000002001F021FE442001F01EFE002001F0E9
:102540001BFE562001F018FE002001F015FE23208E
:1025500001F012FE002001F00FFE332001F00CFE0E
:10256000002001F009FE452001F006FE002001F0E8
:1025700003FEE82001F00CFE002001F0FDFD00202C
:1025800001F0FAFD992001F0F7FD002001F0F4FDC3
:10259000872001F0F1FD002001F0EEFD882001F020
:1025A000EBFD002001F0E8FD772001F0E5FD0020C3
:1025B00001F0E2FD662001F0DFFD002001F0DCFD0E
:1025C000882001F0D9FD002001F0D6FDAA2001F0FD
:1025D000D3FD002001F0D0FDBB2001F0CDFD002097
:1025E00001F0CAFD992001F0C7FD002001F0C4FDF3
:1025F000662001F0C1FD002001F0BEFD552001F074
:10260000BBFD002001F0B8FD552001F0B5FD002014
:1026100001F0B2FD442001F0AFFD002001F0ACFD5F
:10262000442001F0A9FD002001F0A6FD552001F095
:10263000A3FD002001F0A0FDE92001F0A9FDAA20E2
:1026400001F09AFD002001F097FD002001F094FDBB
:10265000002001F091FD002001F09AFDAA2001F078
:102660008BFDCF2001F094FD002001F085FD0020BE
:1026700001F082FD002001F07FFD002001F07CFDD3
:10268000002001F079FD002001F076FD002001F02E
:1026900073FD002001F070FD002001F06DFD0020B1
:1026A00001F06AFD002001F067FD002001F064FDEB
:1026B000002001F061FD002001F05EFD002001F02E
:1026C0005BFD002001F058FD002001F055FDF020D9
:1026D00001F05EFD002001F04FFD502001F04CFDA7
:1026E000002001F049FD002001F046FD002001F02E
:1026F00043FDF32001F04CFD002001F03DFDF920E9
:1027000001F046FD062001F037FD102001F034FDF8
:10271000292001F031FD002001F02EFD3A2001F0CA
:1027200037FD552001F028FD112001F031FD642016
:10273000FDF702FF292001F02BFD352001F028FDD7
:10274000002001F019FD512001F022FDFF2001F0D1
:1027500013FD532001F01CFD2C2001F00DFD552030
:1027600001F016FD822001F007FDBDE810402C208D
:1027700001F00EBD2DE9F05F4FF47043552118466E
:1027800001F01CFD4FF20104AA21204601F016FDC4
:10279000651C5221284601F011FDA61C0821304677
:1027A00001F00CFDE71C0121384601F007FD0D2169
:1027B0004FF4304001F002FD0D214BF2010001F019
:1027C000FDFC0D214BF2020001F0F8FC4FF43648FD
:1027D0003421404601F0F2FC34214BF2016001F05B
:1027E000EDFC34214BF2026001F0E8FC4FF431497A
:1027F0000D21484601F0E2FC4BF2011A0D21504632
:1028000001F0DCFC0D214BF2021001F0D7FC4FF47B
:10281000374B3421584601F0D1FC34214BF2017082
:1028200001F0CCFC34214BF2027001F0C7FC002116
:102830004FF4324001F0C2FC00214BF2012001F0C4
:10284000BDFC00214BF2022001F0B8FC24214FF422
:10285000384001F0B3FC24214BF6010001F0AEFC3E
:1028600024214BF6020001F0A9FC01214FF43F4066
:1028700001F0A4FC0F214FF4334001F09FFC0F2125
:102880004BF2013001F09AFC0F214BF2023001F0C3
:1028900095FC34214FF4394001F090FC34214BF683
:1028A000011001F08BFC34214BF6021001F086FC84
:1028B00008214FF4354001F081FC08214BF2015012
:1028C00001F07CFC08214BF2025001F077FC03215F
:1028D0004FF4424001F072FC24214FF43A4001F0E1
:1028E0006DFC24214BF6012001F068FC24214BF6FD
:1028F000022001F063FC00214FF43C4001F05EFC3B
:1029000078214BF6014001F059FC00214BF60240C2
:1029100001F054FC00214FF43D4001F04FFC7821C0
:102920004BF6015001F04AFC00214BF6025001F039
:1029300045FC00214FF43E4001F040FC64214BF681
:10294000016001F03BFC00214FF4514001F036FCE6
:1029500033214DF2011001F031FC00214DF2021043
:1029600001F02CFC34214DF2031001F027FC002172
:102970004DF2041001F022FC3A214DF2051001F055
:102980001DFC00214DF2061001F018FC4A214DF209
:10299000071001F013FC00214DF2081001F00EFCAD
:1029A0005C214DF2091001F009FC00214DF20A10E2
:1029B00001F004FC81214DF20B1001F0FFFB00211E
:1029C0004DF20C1001F0FAFBA6214DF20D1001F0B2
:1029D000F5FB00214DF20E1001F0F0FBE5214DF268
:1029E0000F1001F0EBFB01214DF2101001F0E6FB9E
:1029F00013214DF2111001F0E1FB01214DF21210F3
:102A000001F0DCFB54214DF2131001F0D7FB012142
:102A10004DF2141001F0D2FB82214DF2151001F09D
:102A2000CDFB01214DF2161001F0C8FBCA214DF279
:102A3000171001F0C3FB02214DF2181001F0BEFB8C
:102A400000214DF2191001F0B9FB02214DF21A10CC
:102A500001F0B4FB01214DF21B1001F0AFFB02218C
:102A60004DF21C1001F0AAFB34214DF21D1001F0B3
:102A7000A5FB02214DF21E1001F0A0FB67214DF2D3
:102A80001F1001F09BFB02214DF2201001F096FB7C
:102A900084214DF2211001F091FB02214DF2221010
:102AA00001F08CFBA4214DF2231001F087FB0221E1
:102AB0004DF2241001F082FBB7214DF2251001F0F8
:102AC0007DFB02214DF2261001F078FBCF214DF263
:102AD000271001F073FB02214DF2281001F06EFB6C
:102AE000DE214DF2291001F069FB02214DF22A107E
:102AF00001F064FBF2214DF22B1001F05FFB02218B
:102B00004DF22C1001F05AFBFE214DF22D1001F078
:102B100055FB03214DF22E1001F050FB10214DF218
:102B20002F1001F04BFB03214DF2301001F046FB5A
:102B300033214DF2311001F041FB03214DF23210EF
:102B400001F03CFB6D214DF2331001F037FB002109
:102B50004FF4524001F032FB33214DF2012001F0DD
:102B60002DFB00214DF2022001F028FB34214DF213
:102B7000032001F023FB00214DF2042001F01EFB95
:102B80003A214DF2052001F019FB00214DF20620FB
:102B900001F014FB4A214DF2072001F00FFB002148
:102BA0004DF2082001F00AFB5C214DF2092001F0F2
:102BB00005FB00214DF20A2001F000FB81214DF2BE
:102BC0000B2001F0FBFA00214DF20C2001F0F6FA87
:102BD000A6214DF20D2001F0F1FA00214DF20E2058
:102BE00001F0ECFAE5214DF20F2001F0E7FA0121A6
:102BF0004DF2102001F0E2FA13214DF2112001F004
:102C0000DDFA01214DF2122001F0D8FA54214DF2E3
:102C1000132001F0D3FA01214DF2142001F0CEFA75
:102C200082214DF2152001F0C9FA01214DF2162042
:102C300001F0C4FACA214DF2172001F0BFFA0221B7
:102C40004DF2182001F0BAFA00214DF2192001F0DE
:102C5000B5FA02214DF21A2001F0B0FA01214DF22D
:102C60001B2001F0ABFA02214DF21C2001F0A6FA64
:102C700034214DF21D2001F0A1FA02214DF21E2057
:102C800001F09CFA67214DF21F2001F097FA022112
:102C90004DF2202001F092FA84214DF2212001F022
:102CA0008DFA02214DF2222001F088FAA4214DF282
:102CB000232001F083FA02214DF2242001F07EFA54
:102CC000B7214DF2252001F079FA02214DF226209C
:102CD00001F074FACF214DF2272001F06FFA0221A2
:102CE0004DF2282001F06AFADE214DF2292001F090
:102CF00065FA02214DF22A2001F060FAF2214DF22C
:102D00002B2001F05BFA02214DF22C2001F056FA43
:102D1000FE214DF22D2001F051FA03214DF22E201B
:102D200001F04CFA10214DF22F2001F047FA032157
:102D30004DF2302001F042FA33214DF2312001F002
:102D40003DFA03214DF2322001F038FA6D214DF2A7
:102D5000332001F033FA00214FF4534001F02EFAF2
:102D600033214DF2013001F029FA00214DF20230F9
:102D700001F024FA34214DF2033001F01FFA002152
:102D80004DF2043001F01AFA3A214DF2053001F00B
:102D900015FA00214DF2063001F010FA4A214DF2E9
:102DA000073001F00BFA00214DF2083001F006FA6D
:102DB0005C214DF2093001F001FA00214DF20A3098
:102DC00001F0FCF981214DF20B3001F0F7F90021FF
:102DD0004DF20C3001F0F2F9A6214DF20D3001F068
:102DE000EDF900214DF20E3001F0E8F9E5214DF248
:102DF0000F3001F0E3F901214DF2103001F0DEF95E
:102E000013214DF2113001F0D9F901214DF21230A8
:102E100001F0D4F954214DF2133001F0CFF9012122
:102E20004DF2143001F0CAF982214DF2153001F053
:102E3000C5F901214DF2163001F0C0F9CA214DF259
:102E4000173001F0BBF902214DF2183001F0B6F94C
:102E500000214DF2193001F0B1F902214DF21A3082
:102E600001F0ACF901214DF21B3001F0A7F902216C
:102E70004DF21C3001F0A2F934214DF21D3001F069
:102E80009DF902214DF21E3001F098F967214DF2B3
:102E90001F3001F093F902214DF2203001F08EF93C
:102EA00084214DF2213001F089F902214DF22230C6
:102EB00001F084F9A4214DF2233001F07FF90221C1
:102EC0004DF2243001F07AF9B7214DF2253001F0AE
:102ED00075F902214DF2263001F070F9CF214DF243
:102EE000273001F06BF902214DF2283001F066F92C
:102EF000DE214DF2293001F061F902214DF22A3034
:102F000001F05CF9F2214DF22B3001F057F902216A
:102F10004DF22C3001F052F9FE214DF22D3001F02E
:102F20004DF903214DF22E3001F048F910214DF2F8
:102F30002F3001F043F903214DF2303001F03EF91A
:102F400033214DF2313001F039F903214DF23230A5
:102F500001F034F96D214DF2333001F02FF90021E9
:102F60004FF4544001F02AF933214DF2014001F0B1
:102F700025F900214DF2024001F020F934214DF2F3
:102F8000034001F01BF900214DF2044001F016F955
:102F90003A214DF2054001F011F900214DF20640B1
:102FA00001F00CF94A214DF2074001F007F9002128
:102FB0004DF2084001F002F95C214DF2094001F0A8
:102FC000FDF800214DF20A4001F0F8F881214DF2A0
:102FD0000B4001F0F3F800214DF20C4001F0EEF847
:102FE000A6214DF20D4001F0E9F800214DF20E400E
:102FF00001F0E4F8E5214DF20F4001F0DFF8012186
:103000004DF2104001F0DAF813214DF2114001F0B9
:10301000D5F801214DF2124001F0D0F854214DF2C3
:10302000134001F0CBF801214DF2144001F0C6F835
:1030300082214DF2154001F0C1F801214DF21640F8
:1030400001F0BCF8CA214DF2174001F0B7F8022197
:103050004DF2184001F0B2F800214DF2194001F094
:10306000ADF802214DF21A4001F0A8F801214DF20D
:103070001B4001F0A3F802214DF21C4001F09EF824
:1030800034214DF21D4001F099F802214DF21E400D
:1030900001F094F867214DF21F4001F08FF80221F2
:1030A0004DF2204001F08AF884214DF2214001F0D8
:1030B00085F802214DF2224001F080F8A4214DF262
:1030C000234001F07BF802214DF2244001F076F814
:1030D000B7214DF2254001F071F802214DF2264052
:1030E00001F06CF8CF214DF2274001F067F8022182
:1030F0004DF2284001F062F8DE214DF2294001F046
:103100005DF802214DF22A4001F058F8F2214DF20B
:103110002B4001F053F802214DF22C4001F04EF803
:10312000FE214DF22D4001F049F803214DF22E40D1
:1031300001F044F810214DF22F4001F03FF8032137
:103140004DF2304001F03AF833214DF2314001F0B8
:1031500035F803214DF2324001F030F86D214DF287
:10316000334001F02BF800214FF4554001F026F8D0
:1031700033214DF2015001F021F800214DF20250AF
:1031800001F01CF834214DF2035001F017F8002132
:103190004DF2045001F012F83A214DF2055001F0C1
:1031A0000DF800214DF2065001F008F84A214DF2C9
:1031B000075001F003F800214DF2085000F0FEFF27
:1031C0005C214DF2095000F0F9FF00214DF20A5048
:1031D00000F0F4FF81214DF20B5000F0EFFF0021D1
:1031E0004DF20C5000F0EAFFA6214DF20D5000F018
:1031F000E5FF00214DF20E5000F0E0FFE5214DF219
:103200000F5000F0DBFF01214DF2105000F0D6FF0F
:1032100013214DF2115000F0D1FF01214DF2125057
:1032200000F0CCFF54214DF2135000F0C7FF0121F4
:103230004DF2145000F0C2FF82214DF2155000F003
:10324000BDFF01214DF2165000F0B8FFCA214DF22A
:10325000175000F0B3FF02214DF2185000F0AEFFFE
:1032600000214DF2195000F0A9FF02214DF21A5031
:1032700000F0A4FF01214DF21B5000F09FFF02213E
:103280004DF21C5000F09AFF34214DF21D5000F019
:1032900095FF02214DF21E5000F090FF67214DF284
:1032A0001F5000F08BFF02214DF2205000F086FFEE
:1032B00084214DF2215000F081FF02214DF2225075
:1032C00000F07CFFA4214DF2235000F077FF022193
:1032D0004DF2245000F072FFB7214DF2255000F05E
:1032E0006DFF02214DF2265000F068FFCF214DF214
:1032F000275000F063FF02214DF2285000F05EFFDE
:10330000DE214DF2295000F059FF02214DF22A50E2
:1033100000F054FFF2214DF22B5000F04FFF02213C
:103320004DF22C5000F04AFFFE214DF22D5000F0DE
:1033300045FF03214DF22E5000F040FF10214DF2C9
:103340002F5000F03BFF03214DF2305000F036FFCC
:1033500033214DF2315000F031FF03214DF2325054
:1033600000F02CFF6D214DF2335000F027FF0021BB
:103370004FF4564000F022FF33214DF2016000F07F
:103380001DFF00214DF2026000F018FF34214DF2C4
:10339000036000F013FF00214DF2046000F00EFF07
:1033A0003A214DF2056000F009FF00214DF2066060
:1033B00000F004FF4A214DF2076000F0FFFE0021FB
:1033C0004DF2086000F0FAFE5C214DF2096000F059
:1033D000F5FE00214DF20A6000F0F0FE81214DF271
:1033E0000B6000F0EBFE00214DF20C6000F0E6FEF9
:1033F000A6214DF20D6000F0E1FE00214DF20E60BD
:1034000000F0DCFEE5214DF20F6000F0D7FE012157
:103410004DF2106000F0D2FE13214DF2116000F069
:10342000CDFE01214DF2126000F0C8FE54214DF294
:10343000136000F0C3FE01214DF2146000F0BEFEE7
:1034400082214DF2156000F0B9FE01214DF21660A7
:1034500000F0B4FECA214DF2176000F0AFFE022169
:103460004DF2186000F0AAFE00214DF2196000F044
:10347000A5FE02214DF21A6000F0A0FE01214DF2DE
:103480001B6000F09BFE02214DF21C6000F096FED6
:1034900034214DF21D6000F091FE02214DF21E60BC
:1034A00000F08CFE67214DF21F6000F087FE0221C4
:1034B0004DF2206000F082FE84214DF2216000F088
:1034C0007DFE02214DF2226000F078FEA4214DF233
:1034D000236000F073FE02214DF2246000F06EFEC6
:1034E000B7214DF2256000F069FE02214DF2266001
:1034F00000F064FECF214DF2276000F05FFE022154
:103500004DF2286000F05AFEDE214DF2296000F0F5
:1035100055FE02214DF22A6000F050FEF2214DF2DC
:103520002B6000F04BFE02214DF22C6000F046FEB5
:10353000FE214DF22D6000F041FE03214DF22E6080
:1035400000F03CFE10214DF22F6000F037FE032109
:103550004DF2306000F032FE33214DF2316000F068
:103560002DFE03214DF2326000F028FE6D214DF258
:10357000336000F023FE5521184600F01FFEAA21FB
:10358000204600F01BFE5221284600F017FE0821BD
:10359000304600F013FE0021384600F00FFECC212B
:1035A000484600F00BFE0021504600F007FE0521C2
:1035B000404600F003FE7021584600F0FFFD7021E8
:1035C0004BF2017000F0FAFD01214FF4384000F099
:1035D000F5FD03214BF6010000F0F0FD03214BF651
:1035E000020000F0EBFD03214BF6030000F0E6FDC6
:1035F00002214FF43C4000F0E1FD00214BF6014078
:1036000000F0DCFD00214BF6024000F0D7FDD02198
:103610004FF4494000F0D2FD02214CF6011000F0B9
:10362000CDFD50214CF6021000F0C8FD50214CF6A3
:10363000031000F0C3FD50214CF6041000F0BEFD55
:1036400000214FF4545000F0B9FD55214FF468505B
:1036500000F0B4FD4FF4885000F09AFD7820FDF79B
:10366000A7FDBDE8F05F4FF4245000F091BD10B508
:10367000E22000F08DFD1D2000F07EFD022000F014
:103680007BFD042000F078FD6420FDF791FDE02033
:1036900000F07EFD012000F06FFD0A20FCF74CFFDA
:1036A000E02000F075FD032000F066FD0C20FCF723
:1036B00043FF012000F06CFD0A20FCF73DFFE620EF
:1036C00000F066FD2F2000F057FDFF2000F054FDB4
:1036D000FF2000F051FDB02000F05AFD202000F046
:1036E0004BFD002000F048FD032000F045FD40F2B6
:1036F0001F3000F041FD012000F03EFD40F2DF10E0
:1037000000F03AFD002000F037FDB42000F040FD4D
:10371000042000F031FD40F21F4000F02DFD00209C
:1037200000F02AFD2E2000F027FD002000F024FDEF
:10373000002000F021FD002000F01EFD002000F020
:103740001BFDB62000F024FD022000F015FD4FF413
:10375000037000F011FD002000F00EFD172000F0B6
:103760000BFD152000F008FD002000F005FD0020F5
:1037700000F002FDF02000F00BFD032000F0FCFC47
:10378000292000F005FDD02000F002FD002000F00F
:10379000F3FCBE2000F0FCFC052000F0EDFCFE2058
:1037A00000F0EAFC012000F0E7FC002000F0E4FC5F
:1037B000002000F0E1FC002000F0DEFCB82000F06A
:1037C000E7FC032000F0D8FC012000F0D5FCBA2073
:1037D00000F0DEFCBDE81040012000F0CDBC10B5CB
:1037E000112000F0D5FC7820FCF7A6FE362000F072
:1037F000CFFC002000F0C0FC3A2000F0C9FC0520FE
:1038000000F0BAFCB22000F0C3FC0C2000F0B4FCC5
:103810000C2000F0B1FC002000F0AEFC332000F0E2
:10382000ABFC332000F0A8FCB72000F0B1FC352041
:1038300000F0A2FCBB2000F0ABFC322000F09CFCAE
:10384000C02000F0A5FC0C2000F096FCC22000F087
:103850009FFC012000F090FCC32000F099FC102098
:1038600000F08AFCC42000F093FC202000F084FCCF
:10387000C62000F08DFC0F2000F07EFCD02000F070
:1038800087FCA42000F078FCA12000F075FCE0206B
:1038900000F07EFCD02000F06FFC002000F06CFCFB
:1038A000022000F069FC072000F066FC0A2000F00E
:1038B00063FC282000F060FC322000F05DFC442016
:1038C00000F05AFC422000F057FC062000F054FCA7
:1038D0000E2000F051FC122000F04EFC142000F0ED
:1038E0004BFC172000F048FCE12000F051FCD020F8
:1038F00000F042FC002000F03FFC022000F03CFC05
:10390000072000F039FC0A2000F036FC282000F0E7
:1039100033FC312000F030FC542000F02DFC472017
:1039200000F02AFC0E2000F027FC1C2000F024FCF4
:10393000172000F021FC1B2000F01EFC1E2000F0D0
:103940001BFC2A2000F024FC002000F015FC0020C5
:1039500000F012FC002000F00FFCEF2000F00CFC47
:103960002B2000F015FC002000F006FC002000F0E9
:1039700003FC012000F000FC3F2000F0FDFBBDE84F
:103980001040292000F004BC10B5112000F000FC0C
:103990007820FCF7D1FD362000F0FAFB482000F03B
:1039A000EBFB3A2000F0F4FB552000F0E5FBF020A3
:1039B00000F0EEFBC32000F0DFFBF02000F0E8FB9E
:1039C000962000F0D9FBB42000F0E2FB012000F0CB
:1039D000D3FBB62000F0DCFB0A2000F0CDFBA220D8
:1039E00000F0CAFBB72000F0D3FBC62000F0C4FBF8
:1039F000B92000F0CDFB022000F0BEFBE02000F07B
:103A0000BBFBC02000F0C4FB802000F0B5FB1620FB
:103A100000F0B2FBC12000F0BBFB192000F0ACFBB2
:103A2000C22000F0B5FBA72000F0A6FBC52000F0E7
:103A3000AFFB162000F0A0FBE82000F0A9FB40201F
:103A400000F09AFB8A2000F097FB002000F094FB26
:103A5000002000F091FB292000F08EFB192000F0DF
:103A60008BFBA52000F088FB332000F085FBE020D5
:103A700000F08EFBF02000F07FFB072000F07CFBC5
:103A80000D2000F079FB042000F076FB052000F00B
:103A900073FB142000F070FB362000F06DFB542007
:103AA00000F06AFB4C2000F067FB382000F064FB5C
:103AB000132000F061FB142000F05EFB2E2000F0CC
:103AC0005BFB342000F058FBE12000F061FBF020AC
:103AD00000F052FB102000F04FFB142000F04CFBD4
:103AE0000E2000F049FB0C2000F046FB082000F0FF
:103AF00043FB352000F040FB442000F03DFB4C2010
:103B000000F03AFB262000F037FB102000F034FBD9
:103B1000122000F031FB2C2000F02EFB322000F0B0
:103B20002BFBF02000F034FB3C2000F025FBF020C4
:103B300000F02EFB692000F01FFB7820FCF7FCFC56
:103B4000BDE81040292000F023BB00002DE9F05F04
:103B5000FDF71CFA3220FCF7EFFCD32000F018FB35
:103B600000F0FEF87C4CA08000F0FAF8A08000F095
:103B7000F7F84FF6FF7505EA0020A08000F0F0F896
:103B8000A18849F241370843A08047F2897645F27F
:103B9000103847F2967945F2105A49F6060BB842AA
:103BA0007DD0042000F0F4FA00F0DAF8A08000F0F4
:103BB000D7F8A08000F0D4F805EA0020A08000F03B
:103BC000CFF8A1880843A0F50541A080523967D0FD
:103BD000B04264D0D42000F0DBFA00F0C1F8A0803D
:103BE00000F0BEF8A08000F0BBF805EA0020A0803D
:103BF00000F0B6F8A1880843A080404571D0D320DA
:103C000000F0C6FA00F0ACF8A08000F0A9F8A0809F
:103C100000F0A6F805EA0020A08000F0A1F8A18835
:103C20000843A08048455CD055214FF4704000F017
:103C3000C5FAAA214FF2010000F0C0FA52214FF25A
:103C4000020000F0BBFA08214FF2030000F0B6FAC0
:103C500001214FF2040000F0B1FA4FF4454000F0AA
:103C600097FA00F07DF805EA0020A0804CF20150A0
:103C700000F08EFA00F074F8A1880843A0800520B7
:103C8000FCF75AFCA18851452BD0D32000F080FAD4
:103C900000F066F8A08000F063F8A08001E020E06A
:103CA00025E000F05DF805EA0020A08000F058F85B
:103CB000A1880843A080584513D0A12000F068FADD
:103CC00000F04EF8A08000F04BF805EA0020A0803C
:103CD00000F046F8A1880843A0F5AE41A080613904
:103CE00007D0A088B04208D1FFF779FD27E0A68071
:103CF000FAE741F66310A0801CE0B84202D1FDF75C
:103D000007FB1CE0404502D1FDF7BAFD17E048452E
:103D100002D1FFF739FE12E0504502D1FEF72AFD2D
:103D20000DE0584502D1FDF70AFC08E0A0F5C851A6
:103D3000633904D1FFF79BFC642000F0F5F9012002
:103D4000FDF764FA012251020448FCF752FD2846AF
:103D5000BDE8F05FFDF742BA6C000020001C024095
:103D600008B50220401EFDD203480088ADF80000CF
:103D7000BDF8000008BD00000008006C70B55F4C85
:103D800000232146A279898841F66316012A01D0D1
:103D90001AB10CE0B14202D109E0B14207D10828C2
:103DA00005D2DFE800F0161812140C19100E0828BE
:103DB00012D2DFE800F0110406080A0C0E1080236E
:103DC0000AE0402308E0C02306E0202304E060234B
:103DD00002E0A02300E0E023362045F21055A9427E
:103DE00000D10002A1F51342413A07D0A1F5EE42FD
:103DF000893A03D0A1F5EE42963A01D143F0080387
:103E0000194600F0DBF9A188B1420AD09806208853
:103E1000628802D5904202D303E0904201D9228009
:103E200060806089A94240D100F0B2F9002000F022
:103E3000A3F96089401C80B200F0AAF9002000F0CC
:103E40009BF96089801C80B200F0A2F92088401E96
:103E5000C0F30F2000F090F96089C01C80B200F020
:103E600097F92078401EC0B200F086F9A08900F0D2
:103E70008FF9002000F080F9A089401C80B200F08A
:103E800087F9002000F078F9A089801C80B200F04A
:103E90007FF96088401EC0F30F2000F06DF9A08903
:103EA000C01C80B200F074F921E000F071F900202C
:103EB00000F062F9002000F05FF92088401EC0F396
:103EC0000F2000F059F92078401EC0B200F054F9DC
:103ED000A08900F05DF9002000F04EF9002000F00C
:103EE0004BF96088401EC0F30F2000F045F9A07820
:103EF000BDE87040401EC0B200F03EB96C0000202A
:103F0000F0B53B4A0D460446060A918810462F0A32
:103F10004089A1F5C853633B16D0A1F5AA43103BD5
:103F20004CD000F035F9304600F026F9E0B200F050
:103F300023F9908900F02CF9384600F01DF9E8B219
:103F4000BDE8F04000F018B9917931B300F020F9E4
:103F5000304600F011F9E0B200F00EF91088401E72
:103F6000C0F30F2000F008F91078401E5FFA80F0CF
:103F700000F002F9908900F00BF9384600F0FCF8E7
:103F8000E8B200F0F9F85088401EC0F30F2000F0AE
:103F9000F3F89078401EC0B2D2E71188091B491E81
:103FA0008CB200F0F5F8002000F0E6F8002000F0F8
:103FB000E3F8200A00F0E0F8E0B2D9E700F0E8F812
:103FC000304600F0D9F85089401C80B200F0E0F88B
:103FD000E0B200F0D1F8908900F0DAF8384600F04D
:103FE000CBF89089401C80B200F0D2F8A7E700001F
:103FF0006C0000202DE9FF4F1D460C468B465807EC
:1040000000D0012000EBD500690810FB01F0203A38
:1040100000F0FF0AD0B20C2D0AD0102D0CD0182DB4
:104020000ED0202D46D1244901EB801600203EE021
:1040300000EB4001214806E0214901EB0016F5E7BD
:1040400000EBC0011F4800EB8106EFE716F808708F
:104050004FF00009380601D50E9A03E00D9828B9F3
:104060001948026821460098FDF746F97806070EC0
:104070001648641CA4B24088A0421BD9A4EB0B00D4
:10408000A8420AD100985C46401C80B200900F48BC
:104090000188009881420DD906E009F1010000F085
:1040A000FF09B9F1080FD5D308F10100C0B280466D
:1040B0005045CBD3BDE8FF8F3A5D00087A45000834
:1040C000EE490008DE4F0008180000206C000020B8
:1040D0002DE9FC4F044600F0FF0910190D46DDE9FB
:1040E0000BB61FFA80F8581987B24FF0000A13E098
:1040F000444503D305EB0B004C4685B2BD4210D2BC
:104100000D985B46CDE900A029462046FFF772FFD7
:1041100004EB5B0084B2761C3278A2F120005E28AA
:10412000E6D9BDE8FC8F000010B50246BE2000F0C5
:104130002FF8052000F020F8104600F000F99FED60
:104140000C1B53EC112B00F00DF900F0CBF880B2F2
:1041500000F012F8012000F00FF8FF2000F00CF83A
:10416000002000F009F8BDE81040002000F004B87D
:10417000666666666666044001B5BDF80000ADF887
:104180000000BDF800000149088008BD0008006C6F
:1041900001B5BDF80000ADF80000BDF80000014910
:1041A000088008BDFE07006C0248034900890880AA
:1041B000704700006C000020FE07006C024A10806F
:1041C000901C018070470000FE07006C0EB5FCF7E4
:1041D00023FBFCF789FFFCF71FFFFCF7D7FEFCF77A
:1041E0001FF9FCF763FEFCF7B5FEFFF7AFFC2020DC
:1041F0004FF4784223A18DE8070003464FF49672EE
:1042000032210A20FFF764FF18251F2422A0009501
:10421000CDE901042B464FF4E17255210A20FFF746
:1042200057FF00BFFCF750FE012814D002281ED013
:104230000328F7D11FA00095CDE901041823C82257
:1042400073210A20FFF744FF0020FCF791FE0120B4
:10425000FCF78EFEE6E71BA00095CDE901041823CC
:10426000C82273210A20FFF733FF0020F0E719A0CE
:104270000095CDE901041823C82273210A20FFF715
:1042800027FFE4E747656E426F747465722D4D6FCA
:10429000746F722D310000004368617030365F4CDE
:1042A00043445F4B45595F4C45445F54656D7050C6
:1042B000726F00006B6579203220707265737365D0
:1042C000642E00006B657920302070726573736511
:1042D000642E00006B657920312070726573736500
:1042E000642E00004FEA1153A3F58063D3F11E033F
:1042F000A8BFD3F1200C08DB4FF0004242EAC122F4
:1043000052EA505232FA03F0704709420BD4102B94
:10431000C4BF0020704703F5787CBCF1FF3F05D097
:104320004FF0FF3070474FF00000704770B500F05D
:10433000C3F800BF4992248000207047F0E7B0FA2C
:1043400080F310FA03F10AD0C3F11D0303F5806373
:104350004FEA41504FEA035202EBD12170474FF030
:1043600000007047DFF848C170B51CEA111E1EBF7F
:104370001CEA13159EEA0C0F95EA0C0F00F06F80F3
:1043800081EA030423EA4C134EEAD47E21EA4C115D
:1043900041F4801143F48013AE44A1FB024CA0FB16
:1043A0000365AEF17F7E361955EB0C05A1FB034C7E
:1043B0004CF10003A0FB021C16EB0C06654153F107
:1043C0000003094218BF46F0010613F4007F0BD129
:1043D0004FEA03314FEA0530340341EA155140EA10
:1043E00016506FF003020AE04FEAC3214FEAC520DE
:1043F000F40241EA555140EA56506FF0020202EBD6
:104400002E4201EB025585EACE710AD05FEA440CD8
:1044100018BF24F0004450F1000041F1000120EAEF
:10442000D47040F2FE7C624500D270BDA84214BF39
:104430004FF080444FF04044002E08BF0024BEF1EE
:10444000806FA8BFA1F1C041BDE8704080F28280BA
:104450004FF0000001F1C04101F0004170479EEAB9
:104460000C0F0CEA131518BF95EA0C0F06D04FF08D
:10447000000081EA030E0EF0004170BD00F01CF850
:104480008900013E00F007B800F009B84FEA430C7C
:104490005FEA5C5C08D081EA030100F05BB84FEA98
:1044A000410C5FEA5C5CF6D14FF0000001497047B7
:1044B0000000FF070000F87F0EF1020E2EF0030E41
:1044C0005EF8046B364205D4012A43EB030515F56B
:1044D000001F12D8012841EB010C1CF5001F0CD85D
:1044E0000ED14FEAD17C15F5001F0CEB4C0C0CF1F2
:1044F000020C08BF4CEBD37C04E04FF0080C01E049
:104500004FEAD37C0CEB4C0526FA05F606F00706BD
:10451000B6F1040C06D20EEB860CBDE870404CF0F0
:10452000010C6047DFE80CF0090B02024FF000417C
:104530004FF00000A1F5002170BD1946104601287A
:1045400051EB010418BFD4F5001484BF002001F022
:10455000004170BD0808A0F500114FEA3101704715
:104560004FF04070E1EE100A7047000000000000BC
:104570000000010203040607080900000000000013
:10458000000000000000000000003F4000000000AC
:104590000000000030004000300040000000090032
:1045A0000BC03D000BC03D00090018C024407FE057
:1045B000224031800000180024C01B000D803240D2
:1045C000018003801C4027401C80074000401000F1
:1045D000600000000000000000000000000000007B
:1045E0001F80204040200000402020401F8000000D
:1045F0000000090006001F800600090000000400FA
:1046000004003F800400040000000010006000006F
:104610000000000000000400040004000400040086
:10462000000000000040000000000000000000202A
:1046300001C006003800400000001F8020402040DC
:1046400020401F800000000010403FC000400000DC
:10465000000018C021402240244018400000108073
:104660002040244024401B80000002000D00110067
:104670003FC0014000003C8024402440244023806F
:1046800000001F802440244034400380000030009C
:10469000200027C03800200000001B802440244058
:1046A00024401B8000001C0022C0224022401F80AA
:1046B00000000000000008400000000000000000B2
:1046C00000000460000000000000000004000A0078
:1046D000110020804040090009000900090009007C
:1046E000000000004040208011000A000400180073
:1046F000200023402400180000001F802040274095
:1047000029401F400000004007C039000F0001C0D1
:10471000004020403FC0244024401B8000001F80F8
:104720002040204020403080000020403FC02040FA
:1047300020401F80000020403FC024402E4030C059
:10474000000020403FC024402E00300000000F0039
:104750001080204022403380020020403FC00400EF
:1047600004003FC02040204020403FC02040204067
:1047700000000060202020203FC0200020002040BA
:104780003FC024400B0030C0204020403FC02040AC
:104790000040004000C03FC03C0003C03C003FC0A0
:1047A000000020403FC00C4023003FC020001F807D
:1047B0002040204020401F80000020403FC0244077
:1047C0002400180000001F802140214020E01FA08D
:1047D000000020403FC02440260019C0004018C0FF
:1047E00024402440224031800000300020403FC05F
:1047F00020403000000020003F80004000403F800B
:10480000200020003E0001C00700380020003800D2
:1048100007C03C0007C038000000204039C0060037
:1048200039C0204000002000384007C03840200038
:104830000000304021C02640384020C00000000069
:1048400000007FE0402040200000000070000C00CD
:104850000380004000000000402040207FE0000076
:1048600000000000200040002000000000000010B8
:1048700000100010001000100010000000004000A8
:10488000000000000000000002800540054003C059
:10489000004020003FC004400440038000000000AE
:1048A00003800440044006400000000003800440F0
:1048B00024403FC000400000038005400540034005
:1048C0000000000004401FC02440244020000000DD
:1048D00002E0055005500650042020403FC004402F
:1048E000040003C000400000044027C00040000056
:1048F000000000100010041027E00000000020401D
:104900003FC00140070004C00440204020403FC099
:1049100000400040000007C0040007C0040003C0BE
:104920000000044007C00440040003C00040000031
:1049300003800440044003800000041007F004508A
:10494000044003800000000003800440045007F08E
:104950000010044007C002400400040000000000F2
:1049600006400540054004C00000000004001F8010
:10497000044000400000040007800040044007C0DD
:1049800000400400070004C0018006000400060087
:1049900001C0070001C006000000044006C001007D
:1049A00006C0044000000410071004E00180060067
:1049B00004000000044005C0064004400000000060
:1049C000000004007BE04020000000000000000028
:1049D000FFF000000000000040207BE00400000029
:1049E0000000400080004000200020004000000047
:1049F00000000000000000000000000000000000B7
:104A0000000000001FCC000C0000000000000000AF
:104A10000800300060000800300060000000022044
:104A200003FC1E20022003FC1E20022000000000C8
:104A30000E1811043FFF10840C78000000000F00D6
:104A400010840F3800C007781884007800000078C0
:104A50000F8410C411240E9800E40084000808009C
:104A6000680070000000000000000000000000006E
:104A70000000000007E018182004400200000000B9
:104A800040022004181807E0000000000000024067
:104A9000024001800FF001800240024000000080CF
:104AA000008000800FF8008000800080000000017E
:104AB000000D000E000000000000000000000000DB
:104AC0000080008000800080008000800080000066
:104AD000000C000C000000000000000000000000BE
:104AE0000006001800600180060018002000000089
:104AF00007F0080810041004080807F00000000080
:104B0000080408041FFC000400040000000000006A
:104B10000E0C10141024104411840E0C0000000020
:104B20000C1810041104110412880C70000000000D
:104B300000E00320042408241FFC002400000000DF
:104B40001F981084110411041088107000000000D8
:104B500007F0088811041104188800700000000094
:104B60001C00100010FC13001C00100000000000CE
:104B70000E3811441084108411440E3800000000D7
:104B80000700088C10441044088807F0000000005B
:104B900000000000030C030C0000000000000000F7
:104BA00000000001010600000000000000000000FD
:104BB00000800140022004100808100400000220B8
:104BC0000220022002200220022002200000000019
:104BD00010040808041002200140008000000000BA
:104BE0000E001200100C106C10800F00000003E08B
:104BF0000C1813E4142417C4082807D0000000047C
:104C0000003C03C41C40074000E4001C00041004E6
:104C10001FFC1104110411040E880070000003E051
:104C20000C1810041004100410081C1000001004CC
:104C30001FFC100410041004080807F00000100402
:104C40001FFC1104110417C41004081800001004FC
:104C50001FFC1104110017C010000800000003E041
:104C60000C181004100410441C78004000001004BC
:104C70001FFC10840080008010841FFC10040000C2
:104C8000100410041FFC10041004000000000003B6
:104C90000001100110011FFE1000100000001004A0
:104CA0001FFC110403801464181C1004000010047D
:104CB0001FFC1004000400040004000C0000100499
:104CC0001FFC1F0000FC1F001FFC1004000010044C
:104CD0001FFC0C04030000E010181FFC100007F07C
:104CE0000808100410041004080807F0000010045D
:104CF0001FFC10841080108010800F00000007F04F
:104D0000081810241024101C080A07F200001004D0
:104D10001FFC1104110011C011300E0C0004000022
:104D20000E1C11041084108410441C38000018005C
:104D3000100010041FFC10041000180000001000E8
:104D40001FF810040004000410041FF810001000E5
:104D50001E0011E0001C007013801C0010001FC01A
:104D6000103C00E01F0000E0103C1FC000001004D9
:104D7000180C163401C001C01634180C10041000B1
:104D80001C00130400FC13041C00100000000804A5
:104D9000101C1064108413041C0410180000000080
:104DA000000000007FFE40024002400200000000C0
:104DB00030000C0003800060001C000300000000B5
:104DC0004002400240027FFE0000000000000000A0
:104DD00000002000400040004000200000000001D2
:104DE00000010001000100010001000100010000BC
:104DF0004000400020000000000000000000000013
:104E00000098012401440144014400FC0004100006
:104E10001FFC0088010401040088007000000000ED
:104E200000700088010401040104008800000000F3
:104E3000007000880104010411081FFC0004000038
:104E400000F8014401440144014400C8000000008E
:104E5000010401040FFC11041104110018000000EA
:104E600000D601290129012901C901060000100409
:104E70001FFC008401000100010400FC000400008C
:104E80000104190419FC00040004000000000000E3
:104E9000000300010101190119FE000000001004C7
:104EA0001FFC0024004001B4010C010400000000BC
:104EB000100410041FFC00040004000000000104A2
:104EC00001FC0104010001FC0104010000FC0104DB
:104ED00001FC008401000100010400FC000400004A
:104EE00000F8010401040104010400F800000101BC
:104EF00001FF00850104010400880070000000002B
:104F00000070008801040104010501FF0001010493
:104F1000010401FC00840104010001800000000084
:104F200000CC012401240124012401980000000088
:104F30000100010007F80104010400000000010065
:104F400001F8000400040004010801FC0004010051
:104F500001800170000C001001600180010001F06F
:104F6000010C003001C00030010C01F00100000014
:104F70000104018C00740170018C01040000010126
:104F800001810171000E0018016001800100000024
:104F90000184010C013401440184010C0000000073
:104FA00000000000000001003EFC40024002000042
:104FB000000000000000FFFF0000000000000000F3
:104FC000400240023EFC0100000000000000000022
:104FD00060008000800040004000200020000000B1
:104FE00000000000000000000000000000000000C1
:104FF00000000000000000000000000000000000B1
:1050000000000000000000000000000000000000A0
:10501000000F80380FFE380F8038000000000000BD
:105020000000000000000000000000000100000679
:1050300000000C00003800003100000600000C00E9
:105040000038000030000000000000000000618017
:105050000067F807F98000618000618000618000CE
:1050600061800067F807F98000618000000000009F
:105070000000000001C0E003E0F00630080418085A
:105080001FFFFE040E080787F00381E00000000008
:10509000000001F000060C00040408060C7001F981
:1050A000C0000E00003BE000EC18070808040C18D4
:1050B0000003E00000000001E00007F003F818041E
:1050C0001C0804170807E1D003C0E00023B0003C2F
:1050D000080020080000100000000000000100008F
:1050E0003100003200001C00000000000000000041
:1050F00000000000000000000000000000000000B0
:1051000000000000000000000000000000007F0020
:1051100001FFC00780F00C001810000420000200FE
:1051200000000000002000021000040C001807809E
:10513000F001FFC0007F0000000000000000000040
:1051400000000000000000000000420000660000B7
:105150006600003C0000180003FFC0001800003C7F
:105160000000660000660000420000000000080029
:1051700000080000080000080000080001FFC0004F
:1051800008000008000008000008000008000000F7
:105190000000000100003100003200001C0000008F
:1051A00000000000000000000000000000000000FF
:1051B00000000000000008000008000008000008CF
:1051C00000000800000800000800000800000800B7
:1051D000000800000000000000000000000038008F
:1051E000003800003800000000000000000000004F
:1051F00000000000000000000000000000000006A9
:1052000000001C000070000180000E00003800004B
:10521000C0000700001C000030000000000000007B
:1052200000007F8001FFE003807006001804000882
:1052300004000806001803807001FFE0007F800072
:10524000000000000000000001000801000801004B
:105250000803FFF807FFF800000800000800000836
:1052600000000000000000000001C03802C0580427
:105270000098040118040218040418061C1803F806
:105280001801E0F800000000000000000001C0E08C
:1052900003C0F004000804080804080806180803FE
:1052A000F41801E7F00001E0000000000000000039
:1052B00000000300000D00001100006100008108E3
:1052C00003010807FFF80FFFF800010800010800BC
:1052D00000000000000000E007FCD00608080610EF
:1052E00008061008061008061838060FF00607C052
:1052F000000000000000000000003F8001FFE0030C
:105300008430020818041008041008041008071854
:1053100010030FF00007C0000000000000000000B4
:1053200003C0000700000600000600F80607F806A4
:10533000180006E000070000060000000000000062
:105340000001E1E003F7F00634100418080418081F
:10535000040C08040C0806161803F3F001C1E00061
:10536000000000000000F80003FC300306380402CF
:10537000080402080402080404100308F001FFC036
:10538000007F00000000000000000000000000009E
:105390000000000000007038007038007038000015
:1053A00000000000000000000000000000000000FD
:1053B00000000000000000000000301A00301C0057
:1053C00000000000000000000000000000000000DD
:1053D000000000000008000014000022000041004E
:1053E0000080800100400200200400100800080036
:1053F0000000000000002100002100002100002129
:1054000000002100002100002100002100002100F7
:105410000021000000000000000000000800080457
:1054200000100200200100400080800041000022A6
:105430000000140000080000000000000003C0008D
:1054400004C000040000080038080F3808083808B5
:1054500010000C300007E00003C000000000000056
:1054600000003F8000FFE0038070020F100670888C
:1054700004C088048308047F8802C09003012000D0
:10548000FE400000080000180001F8003E0801C2BC
:105490000007020007E20000FE00001FC80001F83C
:1054A00000003800000804000807FFF807FFF804B0
:1054B000080804080804080804080806180803F483
:1054C0001801E7F00001E0000000000000003F804C
:1054D00001FFE003807002001804000804000804C3
:1054E00000080400100600200780C000000004002F
:1054F0000807FFF807FFF804000804000804000884
:1055000004001802001003807001FFE0007F80009B
:10551000000004000807FFF807FFF8040808040863
:1055200008040808040808043E08040008060018D7
:1055300001006000000004000807FFF807FFF804FE
:105540000808040800040800040800043E000600DF
:1055500000060000018000000000000000003F8005
:1055600001FFE0038070060018040008040208042C
:1055700002080203F00783F00002000002000400AA
:105580000807FFF807FFF8040808000800000800F3
:1055900000080000080004080807FFF807FFF804E7
:1055A00000080000000000000400080400080400D7
:1055B0000807FFF807FFF8040008040008040008C3
:1055C00000000000000000000000000600000700CE
:1055D000000104000104000104000307FFFE07FFAF
:1055E000FC04000004000004000004000807FFF8A9
:1055F00007FFF8040C08001800003E0004C78005EF
:1056000003C80600F804003804001800000804006D
:105610000807FFF807FFF80400080000080000086A
:1056200000000800000800000800001800006000EA
:10563000000004000807FFF807800807FC00007F4F
:10564000C00003F80007C000780007800807FFF8D3
:1056500007FFF804000804000807FFF80700080324
:10566000C00000E000003800001E0000070000013C
:10567000C00400F007FFF8040000000000007F8075
:1056800001FFE0038070060018040008040008060B
:10569000001803003001FFE0007F800000000400DC
:1056A0000807FFF807FFF8040408040400040400D6
:1056B000040400040400060C0003F80001F00000DC
:1056C0000000000000007F8001FFE0038070060002
:1056D000880400880400C806003C03003E01FFE681
:1056E000007F8400000004000807FFF807FFF804AB
:1056F0000808040800040C00040F00040BC0061086
:10570000F003F03801E00800000800000001E0F8B4
:1057100003F030063010041808041808040C0804BC
:105720000C080206180207F00781E0000000018063
:105730000006000004000004000004000807FFF851
:1057400007FFF80400080400000400000600000140
:10575000800004000007FFE007FFF00400180000CD
:1057600008000008000008000008000008040010FD
:1057700007FFE004000004000006000007E0000747
:10578000FE00041FE00001F80000380001E0043EC4
:105790000007C00006000004000004000007E0004D
:1057A00007FFC0041FF80007C007F80007FF8004C8
:1057B0003FF80007C004F8000700000400000000E4
:1057C0000004000806001807C07805F1C8003E0074
:1057D000001F800463E80780F80600180400080032
:1057E000000004000006000007800007E008047CB9
:1057F00008001FF80007F800180804E00807000078
:105800000600000400000000000100080600380443
:1058100000F80403E8040F08047C0805F00807C03A
:1058200008070018040060000000000000000000ED
:105830000000000000000000003FFFFE20000220EA
:1058400000022000022000022000020000000000F0
:105850000000000008000007000000C00000380041
:105860000006000001C000003000000E0000010032
:1058700000000000000000002000022000022000C4
:10588000022000022000023FFFFE00000000000096
:105890000000000000000000000000000000000800
:1058A0000000100000300000200000300000100058
:1058B00000080000000000000000000001000001DE
:1058C00000000100000100000100000100000100D3
:1058D00000010000010000010000010000010000C3
:1058E0000000000000000020000020000010000068
:1058F0001000000000000000000000000000000098
:1059000000000000000000F00019F8001B18002241
:1059100008002608002408002410003FF8001FF8A3
:1059200000000800001800000004000007FFF80F46
:10593000FFF00018180010080020080020080030B0
:1059400018001FF0000FC00000000000000007C09A
:10595000001FF00018300020080020080020080078
:105960003C08001C10000060000000000000000067
:10597000000007C0001FF0003818002008002008B1
:1059800000200804101007FFF80FFFF000001000BF
:1059900000000000000000000007C0001FF000121F
:1059A00030002218002208002208003208001E10D1
:1059B000000E200000000000000020000020080071
:1059C000200801FFF803FFF806200804200804203F
:1059D0000807200003000000000000000000000E87
:1059E000000E6E001FF30031B10020B10020B100A5
:1059F0003191001F13002E1E00200E003000000009
:105A00000004000807FFF80FFFF80010080020004E
:105A1000002000002008003FF8001FF800000800E8
:105A20000000000000000000002008002008002006
:105A300008063FF8063FF8000008000008000008CC
:105A40000000000000000000000000000000030053
:105A50000003002001002001002003063FFE063F56
:105A6000FC0000000000000000000000000400082E
:105A700007FFF80FFFF8000188000300002FC000A7
:105A800038F800203800200800000800000000005E
:105A90000000000004000804000804000807FFF8E4
:105AA0000FFFF800000800000800000800000000D8
:105AB0000000002008003FF8003FF8001008002018
:105AC00000003FF8003FF8001008002000003FF8F9
:105AD000003FF8000008000000002008003FF80028
