:020000040800F2
:10000000600B0020A10100089B310008312C000882
:10001000993100083D0D0008B736000800000000C7
:100020000000000000000000000000009F310008F8
:10003000190E0008000000009D310008A1310008E1
:10004000BB010008BB010008BB010008BB010008A0
:10005000BB010008BB010008BB010008BB01000890
:10006000BB010008BB010008BB010008BB01000880
:10007000BB010008BB010008BB010008BB01000870
:10008000BB010008BB01000829080008BB010008EB
:10009000BB010008BB010008BB010008BB01000850
:1000A000BB010008BB010008BB010008BB01000840
:1000B000BB01000849320008BB010008BB01000871
:1000C000BB010008BB010008BB010008BB01000820
:1000D000BB010008BB010008BB010008BB01000810
:1000E000BB010008BB010008BB010008BB01000800
:1000F000BB010008BB010008BB010008BB010008F0
:10010000BB010008BB010008BB010008BB010008DF
:10011000BB010008BB01000855320008BB01000804
:10012000410D0008BB010008BB010008BB0100082D
:10013000BB010008BB010008BB010008BB010008AF
:10014000BB010008BB010008BB010008BB0100089F
:10015000BB010008BB010008BB010008BB0100088F
:10016000BB010008BB010008BB010008BB0100087F
:10017000BB010008BB010008BB0100080000000033
:10018000BB010008BB010008DFF810D000F0E0FA66
:100190000048004741700008AFF30080600B00206A
:1001A0000648804706480047FEE7FEE7FEE7FEE711
:1001B000FEE7FEE7FEE7FEE7FEE7FEE7393200086E
:1001C000890100082DE9F05F0546002092469B4614
:1001D00088460646814640241BE02846414647465D
:1001E000224600F002F953465A46C01A914110D3F4
:1001F00011461846224600F0E9F82D1A67EB01086F
:100200004F4622460120002100F0E0F817EB0009DC
:100210004E41201EA4F10104DFDC484631462A4647
:100220004346BDE8F09FD2B201E000F8012B491E21
:10023000FBD270470022F6E710B513460A46044683
:100240001946FFF7F0FF204610BD2DE9FE4F81EA69
:10025000030404F0004421F0004100944FF0000B2F
:1002600023F0004350EA01045ED052EA03045BD05D
:10027000C3F30A54C1F30A552C44A4F2F334019495
:10028000A0FB0254C1F3130141F48011C3F3130323
:1002900043F4801301FB024400FB034E840A970AD7
:1002A00044EA815447EA8357A4FB076802958D0A04
:1002B00005FB07854FEA932C04FB0C542705029D90
:1002C0004FEA065847EA1637B5EB08056EEB070C00
:1002D000870E920E47EA811742EA8312A7FB0201BA
:1002E000B6EB0B0164EB00042B0D43EA0C335E18F4
:1002F00044EB1C50DA465146E7FB0201C5F31304F8
:100300004FEA0B3343EA14534FEA0432019C43EAA9
:100310000603A4F10C040294009CCDE900B400F0A3
:1003200083F803B0BDE8F08F00200146F9E70EB571
:1003300040F2334102910021CDE900110A460B46FB
:1003400000F072F803B000BDC1F30A5210B5C1F35A
:10035000130140F2FF3341F480119A4201DA002088
:1003600010BD40F233439A42A2F2334203DC5242C0
:1003700000F03BF810BD904010BD00F0004230F09E
:1003800000400AD0C10D01F56071C0F3160042EAC9
:100390000151C208400711437047002001467047D1
:1003A00030B50B46014600202022012409E021FA45
:1003B00002F59D4205D303FA02F5491B04FA02F542
:1003C0002844151EA2F10102F1DC30BD202A04DB15
:1003D000203A00FA02F1002070479140C2F1200358
:1003E00020FA03F3194390407047202A04DB203A97
:1003F00021FA02F00021704721FA02F3D040C2F145
:100400002002914008431946704710B5141E73F13D
:10041000000408DA401C41F1000192185B411A43C4
:1004200001D120F0010010BD2DE9F04D92469B4610
:1004300011B1B1FA81F202E0B0FA80F220329046B6
:10044000FFF7C4FF04460F4640EA0A0041EA0B01E9
:1004500053465A46084313D0114653EA010019D0B7
:10046000C8F140025046FFF7C0FF05460E46504611
:1004700059464246FFF7AAFF084305D0012004E091
:1004800020463946BDE8F08D0020054346EAE07677
:100490002C4337430A986305E40AA0EB08000022C6
:1004A000FD0A44EA47540A3002D500200146E9E734
:1004B000010510196941DDE9084500196941BDE8E8
:1004C000F04DA2E72DE9FE4F804681EA0300C00F00
:1004D0000C46009021F0004123F00045B8EB0200EB
:1004E000A94105D24046214690461C460B4602468D
:1004F00023F00040104347D0270DC7F30A00C3F391
:100500000A510290401A019040286BDAC3F313009D
:1005100040F4801B0098924620B10023D2EB030ADE
:1005200063EB0B0B01985946C0F140025046FFF7B0
:100530004DFF06460D4650465946019A00F01AF9FD
:1005400010EB08006141002487EA115284EAE77346
:100550001A4340D0009A62B3019A012A4FEA075227
:1005600015DC001B61EB02014FF0004202EA07526A
:10057000CDE90042001C41F5801132462B46FFF7C1
:1005800053FF03B0BDE8F08F40462146F9E7001B5A
:1005900061EB0201001C41F5801300185B4120183B
:1005A000A2F5001747EB030140EAD570B6196D417B
:1005B00011E06D084FEA360645EAC0754FEA07526A
:1005C000001B61EB0201001C41F5801149084FEA54
:1005D00030000019514132462B4603B0BDE8F04FC0
:1005E000FFF713BF0098012240000023D0EB020266
:1005F00063EBE073009821464FEAE074B8EB00002B
:1006000061EB0401E9E783F000435BE781F000411F
:1006100058E72DE9F04D81EA030404F0004B21F086
:10062000004514464FF0000A23F0004150EA05024D
:1006300020D054EA01021DD0C5F30A570246C5F383
:100640001303C1F31300C1F30A5640F4801543F4B9
:100650008013A7EB0608101BD64608F2FD3873EB93
:10066000050002D308F1010801E092185B41B8F1DE
:10067000000F03DA00200146BDE8F08D00204FF4A2
:100680008011064684460EE0171B73EB050705D361
:10069000121B63EB050306434CEA010C49084FEAC1
:1006A000300092185B4150EA0107EDD152EA030095
:1006B00012D082EA040083EA0501084305D0101B2A
:1006C000AB4106D20122002306E000224FF0004396
:1006D00002E06FF0010253101AEB06004CEB0851D8
:1006E00010EB0A0041EB0B01BDE8F04DFFF78DBEAA
:1006F000C1F30A52C1F3130140F2FF3341F48011F8
:100700009A4202DA00200146704740F233439A428F
:10071000A2F2334202DC5242FFF767BEFFF756BE39
:1007200030B5041E71F1000404DB4FF00044404278
:1007300064EB0101141E73F1000405DB1C464FF04D
:100740000043524263EB0403994208BF904230BD1C
:10075000064C074D06E0E06840F0010394E807000E
:1007600098471034AC42F6D3FFF712FDD8A3000827
:10077000F8A30008202A06DBCB17203A41FA02F042
:1007800043EAE07306E041FA02F3D040C2F12002EE
:10079000914008431946704710B50146806B026CC2
:1007A00012F0500F05D0026CD20626D500F05DFC89
:1007B00010BD016C41F40071016401688A6812F097
:1007C000405F17D1027EAAB9CA6A12F4700F02D034
:1007D0008A6852050ED44A6822F020024A60016CF1
:1007E00021F480710164016CC90403D4016C41F0EF
:1007F0000101016400F02CFC10BD806BC26CBDE8EF
:1008000010400846104710B5806B40210164416CD0
:1008100041F00401416400F028FC10BD10B5806B6C
:1008200000F022FC10BD0000014800F01FBC0000D9
:1008300030040020464910B54A6822F440324A602C
:100840004A6843681A434A6001684A6822F4807221
:100850004A6001684A68036942EA03224A60016803
:100860004A6822F040724A6001684A6883681A4305
:100870004A6001688A6822F400628A6001688A68B6
:10088000C3681A438A60816A6FF07062D14201685E
:100890008A6822F070628A6001688A680CD0836A74
:1008A0001A438A6001688A6822F040528A600168AF
:1008B0008A68C36A1A4301E022F040528A600168E4
:1008C0008A6822F002028A6001688A68037E42EA2E
:1008D00043028A6090F82010002901684A680FD00E
:1008E00042F400624A6001684A6822F460424A6049
:1008F00001684A68174C436A04EB43331A4301E02A
:1009000022F400624A600168CA6A22F47002CA6274
:100910000168CA6A838B104C04EB03531A43CA6202
:1009200001688A6822F400728A6001688A6890F817
:10093000303042EA43228A6001688A6822F4806289
:100940008A6001688A68406942EA8020886010BD38
:100950000023014000E0FFFF0000F0FF70B50E4DE6
:1009600000242DED028B9FED0B8A012000F0B4FED8
:1009700095ED000A641CE4B230EE088A0A2CF4D328
:10098000B2EE040A0548C8EE000AC0ED000ABDEC4C
:10099000028B70BD00000000180000203C00002009
:1009A000014890ED000A704718000020014890EDC2
:1009B000010A70473C000020014890ED000A704792
:1009C0003C00002010B54FF4FA720549054800F0CC
:1009D00065FC002803D0BDE8104000F01EBA10BD31
:1009E0004800002030040020074890ED000A074826
:1009F000D0ED000A30EE600ADFED050A20EE200A95
:100A000080ED010A70470000180000203C00002023
:100A100017D9D640012812D80A4900EB400201EB51
:100A2000C200437C5BB1037C3BB140690068406A13
:100A300031F8321000EB01407047806870470020A9
:100A40007047000030070020012807D8054900EB57
:100A5000400001EBC00090ED030A70479FED020AD1
:100A600070470000300700200000000030B5134937
:100A7000002200BF02EB420301EBC304657CBDB161
:100A8000257CADB1646905682468AC4210D102EBE5
:100A9000420001EBC000406900680068C00651F8E0
:100AA000330001D5401E00E0401C41F8330030BD4A
:100AB000521CD2B2012ADDD930BD0000300700201F
:100AC00070B5114C0F482DED028B606102F0B1F84A
:100AD000607400252574A56065609FED0C8A256013
:100AE00084ED038A0A48E06202F0A3F884F8290042
:100AF00084F828502562E561A56184ED098ABDEC82
:100B0000028B70BD7005002030070020000000003F
:100B1000E8060020012806D8044900EB400001EB5C
:100B2000C000007C704700207047000030070020A4
:100B300010B5012818D800EB40010C4800EBC104A7
:100B4000607C002810D0207C00280DD13C216069F9
:100B500001F0C8FC002807D160690068C16841F055
:100B60000101C1600120207410BD00003007002089
:100B700010B5012819D80D4900EB400201EBC20461
:100B8000617C002911D0217C00290ED0FFF742FFA3
:100B9000A0603C21606901F0ECFC60690068C168FC
:100BA00021F00101C1600020207410BD3007002039
:100BB00070B5164E9FED160A002400BF04EB4400EA
:100BC00006EBC005687CD0B1287CC0B12046FFF799
:100BD00021FF6968411A0ED000EE901A9FED0D1AA0
:100BE000F8EEE00A60EE810A9FED0B1AC0EE811A62
:100BF000C5ED031A01E085ED030A686001E085EDAB
:100C0000030A641CE4B2012CD8D970BD300700205F
:100C100000000000000016440000C34406480168BC
:100C2000002908D0C868002805D0098A002902D008
:100C3000012200F0AEBE704738000020002803D02B
:100C40000249086000F04CB87047000038000020EE
:100C500010B5114C2268002A1CD038B101280FD0E1
:100C6000022817D1BDE8104000F03AB8D2E90001DF
:100C700001F06AFE206803C8BDE8104001F0E6BA42
:100C8000D2E9000101F0C4FE206803C8BDE81040AD
:100C900001F07CBA10BD0000380000200F4909683F
:100CA000002910D0642800D964208A686423B2FB2C
:100CB000F3F24243486838B1042809D0082808688C
:100CC000006809D002647047086800684263704792
:100CD0000868006882637047C2637047380000206C
:100CE00010B5154C216800291BD0C868002818D001
:100CF000098A002915D0002200F04BFE206803C8A5
:100D000001F086FE206803C801F0A0FA20680021E7
:100D100042683AB1042A09D00068082A006809D05C
:100D2000016410BD00680068416310BD0068006880
:100D3000816310BDC16310BD38000020FEE70000D4
:100D4000014800F057BB0000780400200168182318
:100D5000CAB2103AB2FBF3F2054B6FF30901032A52
:100D60009B5CC36500D9091D81650846704700007A
:100D70003874000810B5014600208B698A6A4FF06C
:100D8000C07453B1B3F5005F15D072B1012A0CD015
:100D9000022A0AD0032A09D104E01AB1012A06D096
:100DA000022A03D1C96AC90100D5012010BDC96A50
:100DB000A142FAD010BD002AF7D0012AF2D0022AAF
:100DC000F3D0032AF3D010BD30B50468256825F4AC
:100DD00080252560046863608368402B036803D026
:100DE00099600068C26030BD9A600068C16030BD23
:100DF00007480168C90103D4016841F080710160AE
:100E0000044800214160016841F001010160704720
:100E1000FCED00E0001000E0704772B6FEE7000055
:100E200030B5B3F5804F05D06FF0704140F8221017
:100E3000002030BD8C690B688D6823434C6889891C
:100E4000240144EA0524234343EA014150F82230B7
:100E5000014C23401943E9E70000F0CF10B50A68C0
:100E600050F8223023F0010340F822308C68082C1F
:100E700023D000234A682243CC681C430B692243D9
:100E80001A434B690E4C1A43CB691A430B6A1A4337
:100E90004B6A1A438B6A1A43CB6A1A430B6B1A4389
:100EA0008B691343CA6B09681A4350F82130A34376
:100EB000134340F82130002010BD4023DAE7000042
:100EC0007FFF0F0030B5D1E9003443EA04138C688A
:100ED0008D89240244EA054423430C8A074D00EB24
:100EE000820005EB045423430C7D6D0105EB046483
:100EF000896923430B434360002030BD0000F0FFAD
:100F00007047000078B50024009490F83C20012A36
:100F100019D0012280F83C200A6807230568092AB5
:100F200013D9EE680A3A02EB420293409E43EE6008
:100F30000B788A680A3B03EB43039A400368DD6839
:100F40002A43DA6010E0022078BD2E6902EB4202EB
:100F500093409E432E610B788A6803EB43039A40CB
:100F600003681D692A431A614A681F23072A13D29E
:100F700005686E6B521E02EB820293409E436E63C5
:100F80000B790A885B1E92B203EB83039A400368D5
:100F90005D6B2A435A6327E005680D2A12D22E6B37
:100FA000D21F02EB820293409E432E630B790A8884
:100FB000DB1F92B203EB83039A4003681D6B2A4345
:100FC0001A6311E0EE6A0D3A02EB820293409E43EF
:100FD000EE620B790A880D3B92B203EB83039A40D1
:100FE0000368DD6A2A43DA62164B0568144A9D429B
:100FF00006D10D68122D03D1556845F48005556062
:1010000005689D4218D10B68102B01D0112B13D10C
:10101000536843F400035360096810290CD10A494E
:101020000A4A0968B1FBF2F101EB8101490000E0D5
:10103000491E00910029FBD180F83C40002078BD7A
:1010400000230140002001403000002040420F00FA
:1010500000680349884202D1024802F0BBBF7047D2
:1010600000200140180000207047704770B504460A
:1010700000680668456816F0020F05F020012AD0C6
:1010800049B3216CC90603D4216C41F40071216479
:10109000816811F0405F17D1217EA9B9C16A11F4AE
:1010A000700F02D0816849050ED4416821F02001FB
:1010B0004160206C20F480702064206CC00403D454
:1010C000206C40F0010020642046FFF7C1FF21683A
:1010D0006FF01200086016F0040F05F0800132D0A6
:1010E00089B3206CC00603D4206C40F40050206407
:1010F0002068816811F4401F1ED1816B11F4401FDC
:1011000002D08168490517D44168490514D4816823
:1011100011F0405F10D1217E71B9416821F080014A
:101120004160206C20F480502064206CC00503D402
:10113000206C40F0010020642046FFF7E1FE2168AA
:101140006FF00C00086016F0010F05F040010FD0A1
:1011500071B120680068C0070AD0206C40F480306C
:101160002064204600F043F821686FF00100086019
:1011700016F0200F05F080610ED000290CD0606CB5
:1011800040F00200606420686FF020050560204692
:10119000FFF76BFF2068056070BD70B504004FF06D
:1011A000000503D0206C002610B107E0012070BDBF
:1011B000204600F01DF8666484F83C60206CC00690
:1011C00010D4206C20F4885040F0020020642046A7
:1011D000FFF730FB6664206C20F0020040F0010055
:1011E000206400E0012584F83C60284670BD70470B
:1011F00070B586B0064614216846FFF71BF82249F1
:10120000306888423DD121480025016841F4807151
:101210000160006800F4807005901C481438016873
:1012200041F0020101600068694600F0020005908B
:10123000012000900320CDE90105154800F0A4FA33
:10124000154C1448C4E900050015A560C4E9035015
:10125000400060618000A0614011E0610002C4E9CB
:101260000805204600F096F908B1FFF7D6FDB463F3
:10127000002202211220A66300F0FEFB122000F0E3
:10128000EDFB06B070BD0000002001404438024074
:10129000000402401064024078040020F8B50E46B5
:1012A00000210446009190F83C0013460A460128AC
:1012B00007D0012084F83C0020688568ED0702D043
:1012C00011E00220F8BD856845F0010585604048C1
:1012D000404D0068B0FBF5F000EB400000E0401E20
:1012E00000900028FBD120688568ED0503D585684E
:1012F00025F48075856020688568ED075DD0226CD7
:1013000040F20165AA4342F48072226440684005BD
:1013100005D5206C20F4005040F480502064206CEF
:10132000C00404D5606C20F00600606400E06164D5
:1013300084F83C10A16B2948274DC863A16B28484D
:101340000864A16B2748C86421686FF02200086018
:101350002068416841F0806141602068816841F403
:1013600080718160216832464C31A06B00F07CF9BD
:10137000024668681C49C006206806D0884224D10D
:10138000816811F0405F13D01FE08842F8D0174BFE
:10139000984203D1D1F80433DB06F1D0144B9842C4
:1013A00013D1D1F8041301F01F011029E8D30CE088
:1013B000816841F08041816007E0206C40F01000BE
:1013C0002064606C40F0010060641046F8BD0000CD
:1013D0003000002040420F00002301409907000820
:1013E0001D080008070800080020014000210140F6
:1013F000002201402DE9F84304464FF00009CDF8E2
:10140000009063484FF41651A56D0068B0FBF1F7EA
:101410002E6894F85C10082000FA01F131420FD0D8
:1014200021680A6852070BD50A6822F004020A6094
:1014300094F85C108840A860606D40F00100606521
:1014400094F85C104FF0010808FA01F0304208D01F
:1014500021684969090604D5A860606D40F0020062
:10146000606594F85C1004208840304208D0216800
:101470000968890704D5A860606D40F004006065C4
:1014800094F85C1010208840304218D02168096818
:10149000090714D5A86020680168490304D50068CD
:1014A000000308D5A16C07E00168C90503D40168F1
:1014B00021F008010160216C09B12046884794F8A9
:1014C0005C1020208840304231D021680968C9066C
:1014D0002DD5A86094F8350005282068016806D04D
:1014E000490347D5006800031DD4616C1CE021F05E
:1014F000160101602068416921F080014161206C82
:1015000008B9A06C20B12068016821F008010160D1
:1015100094F85C103F208840A86084F8358084F8F7
:101520003490216D1FE0E16B09B120468847606D62
:1015300000282BD0606DC00714D0052084F835003A
:101540002068016821F0010101600098401C0090B2
:10155000B84203D820680068C007F6D184F8358007
:1015600084F83490E16C002910D001B02046BDE829
:10157000F04308470168C905D5D4016821F010017E
:10158000016084F8358084F83490CCE7BDE8F883B6
:10159000300000202DE9F041044600F0FFF9064636
:1015A0005CB1022084F83500002584F834502068AE
:1015B000016821F0010101600DE00120BDE8F0812A
:1015C00000F0ECF9801B052805D920206065032078
:1015D00084F83500F2E720680068C007F0D122687F
:1015E000116820480140D4E901031843D4E90336C7
:1015F0003343184363691843A3691843E3691843E5
:10160000236A18430843616A042903D1D4E90B1300
:1016100019430843106020684069666A20F007019A
:1016200030460E43012704280CD1A06A0643E06A25
:1016300040B12046FFF79EFB20B14020606584F852
:101640003570BAE7206846612046FFF77FFB94F8C3
:101650005C203F2191408160656584F835700020F1
:10166000ACE700003F8010F02DE9F0410446866DA4
:1016700090F83400002501280DD0012084F83400B2
:1016800094F835700020012F07D084F8340002252B
:101690002846BDE8F0810220FBE7022784F8357078
:1016A00060652046FFF790FB94F85C103F2088406F
:1016B000B0602068016841F016010160206C20B123
:1016C0002068016841F0080101602068016841F06C
:1016D00001010160DCE7000070B5044600F05EF92E
:1016E0000546601C02D004480078044400F056F916
:1016F000401BA042FAD370BD24000020F0B587B093
:1017000014216846FEF796FD1A48016800292FD17A
:101710000121016018480024016841F001010160C5
:101720000068022500F00100059041F20100CDE9BA
:10173000000502AA03260C2782E8D00069460F485C
:1017400000F022F84FF68070CDE9000502AA694644
:1017500082E8D0000A4800F017F84CF23370CDE967
:10176000000502AA694682E8D000064800F00CF89D
:1017700007B0F0BD1C0000203838024000180240BD
:1017800000100240000C02402DE9F84FDFF8BCA128
:101790000022012503264FF00F090AF1040BAAF1DC
:1017A000040E00BF0B6805FA02F42340A34270D177
:1017B0000F7907F00307012F01D0022F16D1876898
:1017C0004FEA420806FA08FC27EA0C07D1F80CC0D9
:1017D0000CFA08FC4CEA070CC0F808C04768A7439D
:1017E0000C79C4F3001494403C4344600C79E44306
:1017F000A4070AD0C4684FEA420C06FA0CF7BC43AF
:101800008F6807FA0CF72743C7600C7904F00304CC
:10181000022C12D1D40800EB840CDCF820405707CE
:10182000FF0E09FA07F824EA0804D1F8108008FA34
:1018300007F848EA0408CCF8208004684FEA420C14
:1018400006FA0CF7BC430F7907F0030707FA0CF709
:10185000274307604C6814F4403F70D03C4C276825
:1018600047F480472760246822F0030704F480448B
:101870000094384C07EB040CDCF8084897074FEA53
:10188000177809FA08F7BC43334FB84202D1002752
:1018900024E054E0314FB84201D101271EE0304F1F
:1018A000B84201D1022719E02E4FB84201D10327D7
:1018B00014E02D4FB84201D104270FE02B4FB8425E
:1018C00001D105270AE02A4FB84201D1062705E0D9
:1018D000284FB84201D1072700E0082707FA08F788
:1018E0002743CCF80878DAF800405746D1F804C00E
:1018F0009C435FEACC2C00D51C433C60DBF80040E5
:101900005F46D1F804C09C435FEA8C2C00D51C4391
:101910003C60DEF800407746D1F804C09C435FEAA3
:101920008C3C00D51C433C60084F083F3C68D1F814
:1019300004C09C435FEACC3C00D51C433C60521C75
:10194000102AFFF42FAFBDE8F88F0000083C0140DB
:1019500044380240003001400000024000040240D0
:1019600000080240000C0240001002400014024037
:1019700000180240001C02400069084000D001200D
:101980007047426921EA02030A4043EA0241816149
:1019900070470AB1816170470904FBE7014880681C
:1019A000704700002400002002488168027811443A
:1019B00081607047240000200B4810B5016841F495
:1019C00000710160016841F480610160016841F4C7
:1019D00080710160032000F06FF80F2000F006F81E
:1019E00000F024F8002010BD003C024070B50D4D01
:1019F00004464FF47A712878B1FBF0F00A4909687F
:101A0000B1FBF0F000F03AFB48B9102C07D20022ED
:101A10002146501E00F030F800206C6070BD01209F
:101A200070BD000024000020300000200A4808B5E6
:101A3000016841F480410160006800F4804000903A
:101A40000548001F016841F080510160006800F006
:101A50008050009008BD000044380240002809DB97
:101A600000F01F02012191404009800000F1E020B8
:101A7000C0F8001170470000F0B40E4B1B680C4614
:101A8000C3F30223C3F10705042D00D90425191D52
:101A9000072901D2002300E0DB1E012606FA05F12A
:101AA000491E214099409E40761E16403143F0BCAD
:101AB00001F026BE0CED00E0064900F007020868C0
:101AC0004FF6FF03184040EA0220034A1043086023
:101AD000704700000CED00E00000FA052DE9F0472A
:101AE0000E46050065D0DFF81481D8F80000F7B283
:101AF00000F00700B04207D288F80070D8F8000064
:101B000000F00700B04254D128683D4C810712D53F
:101B1000400703D5206840F4E05020602878000793
:101B200003D5206840F4604020602068A96820F058
:101B3000F000084320602878C0072DD0304968683D
:101B40000839012812D0022813D0032811D00968BF
:101B5000890700292DDA216821F003010143216062
:101B6000FFF71CFF814641F2883A0EE009688903BD
:101B7000EFE709688901ECE7FFF710FFA0EB090127
:101B8000514502D90320BDE8F0872068696800F05C
:101B90000C00B0EB810FEFD1D8F80010404601F0F7
:101BA0000701B14207D90770006800F00700B04292
:101BB00001D00120E7E72878400705D52068E968CB
:101BC00020F4E050084320602878000706D52068FC
:101BD000296920F4604040EAC100206000F038F834
:101BE0002168084AC1F30311515CC84006490860E6
:101BF00006480068FFF7FAFE0020C4E7003C0240F8
:101C000008380240407400083000002028000020FE
:101C10000448054900680968044AC1F38221515CFF
:101C2000C840704730000020083802405074000857
:101C30000448054900680968044AC1F34231515C0F
:101C4000C840704730000020083802405074000837
:101C5000154810B5006810F00C02144813D041105C
:101C6000042A0FD0082A0ED10F4C241F22682368A3
:101C700002F03F025B0207D52068C0F38810A0FB8A
:101C8000010106E0084610BD2168C1F38811A1FBDF
:101C900000010023FEF796FA2168C1F30141491CB7
:101CA0004900B0FBF1F010BD083802400024F400F8
:101CB0002DE9F84F04006ED02078DFF84C93C00770
:101CC000A9F104054AD009F104000168C1F38101BA
:101CD000012908D00068C0F3810002280AD1D9F890
:101CE0000000400206D52868800337D560680028C8
:101CF000E1D033E06068B0F5803F10D0B0F5A02FA0
:101D0000286810D020F480302860286820F48020D3
:101D100028606068A8B1FFF741FE06460DE028681C
:101D200040F48030F4E740F480202860F7E700BFFB
:101D3000FFF734FE801B642873D828688003F7D52A
:101D40000CE0FFF72BFE064605E000BFFFF726FE7E
:101D5000801B6428F0D828688003F7D42078DFF847
:101D6000AC8280074FF0000A3ED5A748001D0168ED
:101D700011F00C0F08D00068C0F3810002280BD1CD
:101D8000D9F80000400207D42868800716D5E0681B
:101D9000012800D112E033E1E068B8B10120C8F8B1
:101DA0000000FFF7FBFD064605E000BFFFF7F6FD6C
:101DB000801B0228C0D828688007F7D528682169C9
:101DC00020F0F80040EAC10028600DE0C8F800A04B
:101DD000FFF7E4FD064604E0FFF7E0FD801B022864
:101DE0001FD828688007F7D42078000722D5864FAF
:101DF00087486169703771B101210160FFF7CEFD3D
:101E0000064604E0FFF7CAFD801B022809D838689F
:101E10008007F7D50EE0C0F800A0FFF7BFFD06462B
:101E200005E082E0FFF7BAFD801B02287DD8386804
:101E30008007F7D42078400768D5DFF8CCB10027B9
:101E40000BF13C0BDBF80000C0000BD4DBF80010FA
:101E500041F08051CBF80010DBF80000012700F0C2
:101E6000805000906B4E3068C00510D4306840F44C
:101E700080703060FFF792FD009005E0FFF78EFD67
:101E80000099401A022850D83068C005F6D55E4E39
:101E9000A0686C3601280FD00528306810D020F0DB
:101EA00001003060306820F004003060A068B8B1F4
:101EB000FFF774FD00900FE0306840F00100F4E798
:101EC00040F004003060F7E7FFF768FD0099411A21
:101ED00041F28830814266D830688007F4D50EE040
:101EE000FFF75CFD009007E0FFF758FD0099411AED
:101EF00041F28830814256D830688007F4D42FB13F
:101F0000DBF8001021F08051CBF80010A069C8B3B5
:101F10003D49091D0968C1F3810102294AD00228FF
:101F2000504607D0C8F8600000E03CE0FFF736FDFF
:101F300004463BE04746C8F86000FFF72FFD064621
:101F400005E000BFFFF72AFD801B02282BD8286878
:101F50008001F7D4D4E907010843A16A2E4A490851
:101F600002EB0141626A41EA8211084394F82C10A5
:101F700040EA0161C9F8001001203866FFF70EFD44
:101F8000044606E03EE000BFFFF708FD001B022804
:101F900009D828688001F7D534E000BFFFF7FEFCC0
:101FA000001B022802D90320BDE8F88F28688001B1
:101FB000F4D427E00128F7D0D9F80000E26900F452
:101FC000800191421CD1226A00F03F01914217D159
:101FD00047F6C071626A0140B1EB821F10D1A26A5C
:101FE0004FF0FF3300F4403103EB5202B1EB024FEC
:101FF00006D194F82C1000F07060B0EB016F01D0A6
:102000000120D1E70020CFE704380240000047421A
:10201000800E4742007000400000FFFF70B515467B
:102020000E46040003D094F8490010B107E00120E7
:1020300070BD002084F84800204600F01DF804F12F
:1020400008012068FEF70AFF3146A2682068FEF703
:1020500039FFD4E901022946236BFEF7E1FE21682E
:10206000A06851F8202042F0010241F82020012010
:1020700084F84900002070BDFFF740BB10B5401E3A
:10208000B0F1807F01D3012010BD4FF0E0246061EA
:102090000F21601701F034FB0020A06107202061B0
:1020A000002010BD7047704710B590F83C20012A01
:1020B00022D0012280F83C20CA688C6822F4407249
:1020C00022434C6822F4806222430C6822F40062AE
:1020D00022430C6922F4805222434C6922F40052BC
:1020E0002243C969002322F480420A4301684A64FA
:1020F00080F83C30002010BD022010BD70B590F873
:102100003C20012A32D0012480F83C40022280F891
:102110003D2003685A689D6822F070060A683243C1
:102120005A60134B02689A4214D0B2F1804F11D01A
:10213000104B9A420ED0104B9A420BD00F4B9A4242
:1021400008D00F4B9A4205D00E4B9A4202D00E4B4C
:102150009A4204D1496825F080031943916080F8C0
:102160003D40002180F83C10084670BD022070BD43
:10217000000001400004004000080040000C004046
:1021800000040140004001400018004010B5044622
:10219000022249B104290ED0082913D094F8450031
:1021A000012816D0012010BD94F842000128F9D171
:1021B00084F842200FE094F843000128F2D184F81B
:1021C000432008E094F844000128EBD184F844202F
:1021D00001E084F845200422206801F0B6F8206868
:1021E000416C41F40041416411492068884214D097
:1021F000B0F1804F11D00F4988420ED00E4988426D
:102200000BD00E49884208D00D49884205D00D49AF
:10221000884202D00C49884204D1816801F007014C
:10222000062903D0016841F001010160002010BDC2
:10223000000001400004004000080040000C004085
:1022400000040140004001400018004070B5044601
:102250000D460068002201F078F82068036A41F218
:1022600011110B4240F2444206D1036A134203D1DA
:10227000436C23F4004343642068036A0B4206D195
:10228000016A114203D1016821F0010101600120BE
:102290003DB1042D08D0082D09D084F84500002058
:1022A00070BD84F84200FAE784F84300F7E784F849
:1022B0004400F4E710B5040003D094F83D0010B1D9
:1022C00007E0012010BD002084F83C00204600F00B
:1022D0001FF8022084F83D00211D206800F0C0FF97
:1022E000012084F8460084F83E0084F83F0084F81A
:1022F000400084F8410084F8420084F8430084F8E8
:10230000440084F8450084F83D00002010BD000022
:1023100008B500680B49884212D10B48016841F0AA
:10232000100101600068002200F0100000900321FD
:102330003620FFF7A1FBBDE808403620FFF78EBB33
:1023400008BD0000001000404038024090F83D10E9
:10235000012901D001207047022180F83D10016859
:10236000CA6842F00102CA6000681149884214D06C
:10237000B0F1804F11D00F4988420ED00E498842EB
:102380000BD00E49884208D00D49884205D00D492E
:10239000884202D00C49884204D1816801F00701CB
:1023A000062903D0016841F0010101600020704757
:1023B000000001400004004000080040000C004004
:1023C0000004014000400140001800402DE9F041A8
:1023D0000D46040003D094F83D0018B108E0012038
:1023E000BDE8F081002084F83C00204600F040F871
:1023F000022084F83D002068816844F2070291437E
:102400008160211D206800F02BFF2268906891698F
:10241000166A2B68AF69034340F20330814341EAF7
:102420000721A868EF6908434FF6FC418843E96833
:1024300040EA0720014328692F6A000140EA07307B
:10244000084369686D6926F0AA0646EA051529431E
:1024500093602268906154F8460B0162012004F8F1
:102460001F09E0752076E0762077A0750020B7E799
:1024700010B586B0044614216846FDF7DBFE164908
:102480002068884226D115480021026842F00202E5
:102490000260006800F002000590104810380268E1
:1024A00042F004020260006800F004000590C020C1
:1024B00000900220CDE9010103900490694608488C
:1024C000FFF762F9002202211D20FFF7D5FA1D2037
:1024D000FFF7C4FA06B010BD0004004040380240C7
:1024E0000008024070B590F83E60044690F83F50F6
:1024F00090F8423090F84320022021B104290ED0F8
:10250000012E1BD114E0012E18D1012B16D184F815
:102510003E0084F8420001220021206820E0012DC5
:102520000CD1012A0AD184F83F0084F8430014E05A
:10253000012D03D1012B01D1012A01D0012070BD51
:1025400084F83E0084F83F0084F8420084F8430099
:1025500001220021206800F0EBFE01220421206806
:1025600000F0E6FE2068016841F0010101600020F2
:1025700070BD30B5044600680D0023D0042D04D092
:102580000022114600F0D4FE20680022042100F051
:10259000CFFE2068016A41F21112114207D1016A8F
:1025A0009210114203D1016821F001010160012064
:1025B0005DB1042D0DD004F83E0F60702071607184
:1025C000002030BD00221146E1E704F83E0F2071E3
:1025D000F6E704F83F0FFAE770472DE9F0410446AB
:1025E0000068C66805694FF00007A90713D5B10751
:1025F00011D5F91E016101202077206880698007CC
:10260000204602D0FFF7E8FF04E000F0E7F820469C
:1026100000F098F92777680716D5700714D5216858
:102620006FF004000861022020772068806910F4B0
:10263000407F204602D0FFF7CFFF04E000F0CEF845
:10264000204600F07FF92777280715D5300713D5E6
:1026500021686FF008000861042020772068C069B5
:102660008007204602D0FFF7B7FF04E000F0B6F87D
:10267000204600F067F92777E80616D5F00614D54E
:1026800021686FF010000861082020772068C06979
:1026900010F4407F204602D0FFF79EFF04E000F0D8
:1026A0009DF8204600F04EF92777E80708D0F0079C
:1026B00006D021686FF001000861204600F0E6F9BD
:1026C000280608D5300606D521686FF0800008611D
:1026D0002046FFF7E7FC680608D5700606D5216896
:1026E0006FF040000861204600F0EAF9A8060AD51C
:1026F000B00608D521686FF0200008612046BDE8CB
:10270000F041FFF7D0BCBDE8F081000070B586B0A5
:10271000044614216846FDF78DFD294B22680024EC
:102720002848591402259A4220D1026842F0020238
:102730000260026802F002020592026842F00102A1
:10274000026000680091CDE9015400F0010001260B
:10275000CDE90460694603941B48FFF715F8E801CA
:102760000090CDE901546946184822E0184B9A427E
:1027700023D1026842F080020260026802F0800207
:102780000592026842F48072026000680091CDE90F
:10279000015400F480700326CDE904606946039477
:1027A0000C48FEF7F1FF20200090CDE901540A48C3
:1027B0006946CDE90346FEF7E7FF06B070BD0000AD
:1027C0000000014030380240000402400000024096
:1027D00000040140001C024000200240704770B518
:1027E000044690F83C0000260D4601280FD0012039
:1027F00084F83C006AB1042A1DD0082A2FD00C2A84
:102800003FD00126002084F83C00304670BD0220F5
:1028100070BD206800F0A6FD2068816941F00801C4
:1028200081612068816921F00401816120688169EA
:102830002A69114311E0206800F0C4FD2068816915
:1028400041F4006181612068816921F480618161C6
:10285000206881692A6941EA02218161D2E7206802
:1028600000F0E6FD2068C16941F00801C1612068FF
:10287000C16921F00401C1612068C1692A6911435D
:1028800011E0206800F008FE2068C16941F4006191
:10289000C1612068C16921F48061C1612068C1699A
:1028A0002A6941EA0221C161ACE710B5040003D0F6
:1028B00094F83D0010B107E0012010BD002084F81D
:1028C0003C00204600F01EF8022084F83D00211D47
:1028D000206800F0C5FC012084F8460084F83E0022
:1028E00084F83F0084F8400084F8410084F84200F6
:1028F00084F8430084F8440084F8450084F83D00DF
:10290000002010BD08B50C4A01680C48914207D15F
:10291000016841F001010160006800F0010009E078
:10292000074A914207D1016841F002010160006845
:1029300000F00200009008BD000001404438024051
:10294000000401407047000010B50446022249B15E
:1029500004290ED0082913D094F84100012816D07C
:10296000012010BD94F83E000128F9D184F83E20E2
:102970000FE094F83F000128F2D184F83F2008E0EE
:1029800094F840000128EBD184F8402001E084F85D
:1029900041200122206800F0CBFC16492068164A2D
:1029A000884201D0904203D1436C43F40043436416
:1029B0002068884213D0B0F1804F10D00F49884270
:1029C0000DD00F4988420AD00E49884207D0904264
:1029D00005D00D49884202D00C49884204D1816853
:1029E00001F00701062903D0016841F001010160EF
:1029F000002010BD00000140000401400004004020
:102A000000080040000C0040004001400018004059
:102A100030B504460D460068002200F089FC194BD1
:102A200041F2111120688A10984202D0164B984248
:102A300009D1036A0B4206D1036A134203D1436CE6
:102A400023F4004343642068036A0B4206D1016A01
:102A5000114203D1016821F00101016001203DB163
:102A6000042D08D0082D09D084F84100002030BD85
:102A700084F83E00FAE784F83F00F7E784F8400066
:102A8000F4E70000000001400004014010B50A4ACC
:102A9000016891420BD0B1F1804F08D007488142C4
:102AA00009D1FEF785F8BDE81040FDF79DBFBDE8F0
:102AB0001040FDF7DBBF10BD0004004000100040D7
:102AC000704770B5040004D094F84100002510B19F
:102AD00006E0012070BD84F84050204600F024F844
:102AE000242084F841002068C16821F40051C160AD
:102AF000204600F021FD2068016921F49041016128
:102B00002068416921F02A0141612068C16841F4CF
:102B10000051C1606564202084F8410084F84200BF
:102B20006563002070BD000010B586B00446142116
:102B30006846FDF77FFB13492068884220D1124880
:102B40000021026842F010020260006800F01000EC
:102B500005900D481438026842F0020202600068D5
:102B600000F002000590C02000900220CDE9010194
:102B7000032003900720049069460448FEF704FEF2
:102B800006B010BD0010014044380240000402406D
:102B90002DE9F843044690F84100984616460D4644
:102BA000202802D00220BDE8F88385B17EB1002044
:102BB0006064212084F84100FEF7F0FEA68481467F
:102BC000E684A0682027B0F5805F02D003E00120F2
:102BD000E9E7206910B12E4600250EE000260CE042
:102BE0008021204600F02EFDA8B9C6B116F8010BD1
:102BF00021684860E08C401EE084E08C4B464FF03A
:102C00000002CDF800800028EAD14FF040012046B4
:102C100000F018FD40B184F841700320C3E735F897
:102C2000020BC0F30800E3E784F841700020BAE724
:102C3000FEE718B1006808B1012070470020704716
:102C4000054808B5016841F010010160006800F016
:102C50001000009008BD00003038024010B5214C33
:102C600004212046FEF788FE50B108212046FEF7D9
:102C700083FEA8B110212046FEF77EFE00B327E0B8
:102C80000A20FEF729FD04212046FEF775FEF8B95B
:102C900004212046FEF770FE0028F9D0012010BD67
:102CA0000A20FEF719FD08212046FEF765FE78B9D7
:102CB00008212046FEF760FE0028F9D0022010BD52
:102CC0000A20FEF709FD10212046FEF755FE08B147
:102CD000042010BD10212046FEF74EFE0028F9D03A
:102CE000032010BD00100240054808B5016841F0FE
:102CF00010010160006800F01000009008BD0000A5
:102D000030380240054A28B1012805D10221104679
:102D1000FEF737BE0121FAE77047000000100240BD
:102D20001FB500211648009101910291134A0391A9
:102D3000026001244FF480320461C0E9012104766D
:102D400080F820100F4AC0E90A21C461C16080F8F0
:102D500030404461FEF721FA08B1FEF75EF8082022
:102D6000CDE900040720029069460548FEF7CAF83D
:102D7000002801D0FEF751F81FBD000000200140DF
:102D8000300400200100000F094808B5016841F433
:102D9000800101600068002200F48000009011466C
:102DA0003820FEF769FEBDE808403820FEF756BE21
:102DB0003038024000B58FB01C216846FDF73AFA62
:102DC0001C2107A8FDF736FA1B484FF020411022BE
:102DD00001601A494160062181600021C160C0E99B
:102DE00004128161C16113020162C0E909139302F7
:102DF000C0E90B13416381634164022000900F20FE
:102E00000523CDE901030DF10C0C11238CE80E0014
:102E10000691CDE907100DF1240CFF208CE80F007E
:102E20000D9107AA69460448FFF7F8F8002801D079
:102E3000FDF7F3FF0FB000BDD8040020040100A08F
:102E40002DE9F04786B014216846FDF7F3F94348B1
:102E50000024016841F010010160016801F01001D7
:102E60000591016841F020010160016801F0200135
:102E70000591016841F080010160016801F0800165
:102E80000591016841F002010160016801F0020151
:102E90000591016841F040010160016801F04001C5
:102EA0000591016841F008010160016801F0080125
:102EB0000591016841F004010160016801F004011D
:102EC0000591016841F001010160016801F0010113
:102ED0000591016841F4807101600068DFF880802D
:102EE00000F4807040F204460590002231464046CE
:102EF000FEF74FFDDFF86C904FF400770022394663
:102F00004846FEF746FDDFF860A001220321504647
:102F1000FEF73FFD1C2001258DE831006946504633
:102F2000FEF732FC0096CDE9015469464046039411
:102F3000FEF72AFC0097CDE9015469464846039400
:102F4000FEF722FC03200090CDE90154694650466B
:102F50000394FEF719FC06B0BDE8F0873038024054
:102F600000140240001C02400010024010B592B054
:102F700000240F941C2108A81094FDF75BF9202170
:102F80006846FDF757F920481E490160A721C0E9AE
:102F9000011440F2E731C0E9031444618461FFF792
:102FA00084FC08B1FDF739FF0F940FA9164810945F
:102FB000FFF7A4F808B1FDF730FF6020CDE9080461
:102FC0000A940B940C940D94002208A90E480E94B8
:102FD000FFF705FC08B1FDF720FF00944FF4005007
:102FE000CDE904400294019403946946064807948D
:102FF000FFF75AF808B1FDF710FF0348FFF786FB0B
:1030000012B010BD000001402805002010B58CB0A2
:1030100024216846FDF70EF9002416480994144946
:103020000A94C0E900144FF6FF71C0E9024104613F
:1030300084610320CDE900040120CDE90204049459
:10304000CDE90540079469460A480894FFF7BEF9A0
:1030500008B1FDF7E2FE099409A906480A94FFF7B2
:103060004DF8002801D0FDF7D8FE0CB010BD0000CF
:1030700000040040700500201CB500240F48009497
:103080000D490194016042F2CF01C0E9011440F200
:10309000E7318461C160FFF70DF908B1FDF7BDFEAE
:1030A0000094694605480194FFF728F8002801D0EC
:1030B000FDF7B3FE1CBD000000100040B805002065
:1030C00010B592B000240F941C2108A81094FDF7AD
:1030D000B1F820216846FDF7ADF820481E4901608F
:1030E000A721C0E9011440F2E731C0E903144461AB
:1030F0008461FFF7DAFB08B1FDF78FFE0F940FA98B
:1031000016481094FEF7FAFF08B1FDF786FE60201E
:10311000CDE908040A940B940C940D94002208A99C
:103120000E480E94FFF75BFB08B1FDF776FE0094A6
:103130004FF40050CDE90440029401940394694691
:1031400006480794FEF7B0FF08B1FDF766FE034896
:10315000FFF7DCFA12B010BD0004014000060020A9
:103160000C4810B50A4901604FF4E131416000217B
:1031700081600C22C160C0E904128161C161FFF766
:10318000A0FC002803D0BDE81040FDF746BE10BDEE
:103190000010014048060020FEE7FEE77047704738
:1031A000FEF702BC30B593B030216846FDF742F817
:1031B00014210CA8FDF73EF81D480025016841F0D8
:1031C00080510160006800F080501190194801683A
:1031D00041F4804101600068022400F480401190B5
:1031E0000120039010200490009406940820CDE95B
:1031F0000750A820CDE9090404200B906846FEF78B
:1032000057FD08B172B6FEE70CA90F2081E8310026
:103210004FF4A0500F904FF48050109005210CA84F
:10322000FEF75CFC002801D072B6FEE713B030BD9B
:1032300040380240007000400248016841F47001CB
:103240000160704788ED00E00148FFF7C6B9000053
:10325000700500200148FFF7C0B90000B805002044
:10326000F0B50268274B284D284E294F294C4FF0C6
:10327000804C984209D0604507D0A84205D0B042A2
:1032800003D0B84201D0A04204D122F0700E4A68A7
:1032900042EA0E0298421BD0604519D0A84217D0CE
:1032A000B04215D0B84213D0A04211D01A4DA84256
:1032B0000ED01A4DA8420BD0194DA84208D0194D76
:1032C000A84205D0184DA84202D0184DA84203D1FB
:1032D00022F44075CA682A434D6922F080022A43CD
:1032E0008D68C5620D688562984201D0A04201D107
:1032F00009690163016841F0040101600121416134
:103300000260F0BD000001400004004000080040E1
:10331000000C004000040140004001400044014016
:103320000048014000180040001C00400020004000
:1033300010B501F01F030121046A99408C43046217
:10334000016A9A401143016210BD10B501F00F03EC
:103350000421046A99408C430462016A9A40114333
:10336000016210BDF0B5036A026A22F00102026236
:1033700042688469124E24F073050C682C4323F0D4
:1033800002058B682B430D4DA84201D0B04205D1F8
:1033900023F00807CB683B4323F00403A84201D085
:1033A000B04205D14D6922F4407215438A692A431F
:1033B00042608461496841630362F0BD00000140DE
:1033C00000040140F0B5026A036A23F010030362AF
:1033D000436884690D6824F4E64444EA05248D6852
:1033E00022F0200242EA05120F4D104EA84201D0F1
:1033F000B04206D1CF6822F0800242EA071222F0E2
:103400004002A84201D0B04207D14D6923F4406385
:1034100043EA85038D6943EA850343608461496813
:1034200081630262F0BD0000000001400004014021
:10343000F0B5026A036A23F4807303624368C469C7
:1034400022F4007224F073050C68124E2C438D6830
:1034500042EA05220E4DA84201D0B04206D1CF6803
:1034600022F4006242EA072222F48062A84201D0DC
:10347000B04207D14D6923F4405343EA05138D69E7
:1034800043EA05134360C4614968C1630262F0BD49
:10349000000001400004014030B5046A026A22F4D1
:1034A000805202624268C3690D6823F4E64343EA2E
:1034B00005238D6824F4005444EA0534084DA842DD
:1034C00002D0084DA84204D14D6922F4804242EA5C
:1034D00085124260C36149680164046230BD000026
:1034E000000001400004014001680C3151E8002F48
:1034F00022F4907241E80023002BF5D101681431C9
:1035000051E8002F22F0010241E80023002BF5D101
:10351000016B012909D101680C3151E8002F22F01B
:10352000100241E80023002BF5D1202180F8421041
:10353000002101637047000070B50446006801690E
:10354000E26821F44051114301612169A068E269F8
:1035500008436169114308432168CA6849F20C6352
:103560009A430243CA6020684169A26921F440710C
:103570001143416131492068884202D03049884274
:1035800002D1FEF755FB01E0FEF742FBE2690023A2
:10359000192164253226B2F5004F626828D0A0FBBD
:1035A0000101930F9200FCF70DFE0146B0FBF5F010
:1035B0006FF01802504301EB800006EB0010B0FBE7
:1035C000F5F000F0F002B1FBF5F002EB0012B1FBF8
:1035D000F5F06FF01803584301EB800006EB001084
:1035E000B0FBF5F000F00F0021681044886070BD5A
:1035F000A0FB010192185B41FCF7E4FD0146B0FB22
:10360000F5F00201B1FBF5F06FF01803584301EB40
:10361000800006EBC000B0FBF5F000F0F80002EB14
:103620004002B1FBF5F0584301EB800006EBC0000F
:10363000B0FBF5F000F00700D6E7000000100140F5
:10364000001401402DE9F843984617460D460446FC
:10365000089E24E0701C22D0FEF7A0F9A0EB080021
:10366000B0421AD8CEB12068C168490717D5802D5D
:1036700015D0402D13D00168C94309070FD4016844
:103680000025406800902046FFF72EFF0820606468
:1036900084F840500120BDE8F8830320FBE7206850
:1036A000006835EA000004D00020B842D2D00020E3
:1036B000F1E70120F9E7FEE70FB4054B10B503A9C8
:1036C000044A029800F0FEF810BC5DF814FB0000FC
:1036D00039400008440000200FB4084B10B504A97D
:1036E00002AA039800F0EEF8044602A9002000F0B8
:1036F0006CFC204610BC5DF814FB0000CB3F0008BA
:103700000907090E002804DB00F1E02080F800140E
:10371000704700F00F0000F1E02080F8141D7047A2
:1037200002E008C8121F08C1002AFAD1704770478A
:10373000002001E001C1121F002AFBD170470000E8
:103740002DE9FF5F82B00021DDE90430020DDDF8D4
:1037500040B0034318D044F61050A2F2FF32424367
:103760001514119801281FD0A5EB0B00401C5FEA2F
:10377000000A4FF000064E4FDFF83891B046504631
:1037800015D5CAF1000413E0119801244AA30128B9
:1037900001D16FEA0B010298119AC0E90031C0E92A
:1037A000024206B0BDE8F09FCBF10000DFE704461F
:1037B0000021404A491842EB0450CDE9001012E0C4
:1037C000E00707D032463B4640464946FCF73DFD00
:1037D0008046894632463B4610461946FCF735FD81
:1037E00006460F466410002CEAD1DDE90401DDE94C
:1037F0000023BAF1000F06DAFCF727FD42464B46DC
:10380000FCF723FD05E0FCF704FF42464B46FCF7BE
:1038100000FF04460E460022284BFCF781FF03D828
:103820004FF0FF30014607E00022254B204631468D
:10383000FCF748FEFCF75CFF102409E0002C0ADBD3
:103840000A220023FCF7BEFC039B30321A55641E8B
:1038500050EA0102F2D1641C039AC4F1110314442A
:10386000119A012A03D0012208430DD10AE008432E
:1038700004D000204FF0110B119072E7A3EB0B0561
:103880006D1E0DE05B4504DD4FF0000205F1010502
:1038900004E003DA4FF00002A5F10105002AECD0A4
:1038A00002981199C0E90231C0E9004579E70000AA
:1038B000000014400000F03F300000000000F04322
:1038C0000000E03F2DE9FF4F95B09A468846064636
:1038D0000025EEE1252877D100242746F94A012169
:1038E000039400E0044316F8013F203B01FA03F083
:1038F0001042F7D130782A2811D06FF02F0330789A
:10390000A0F13002092A16D8039A44F0020402EB0F
:10391000820203EB42021044761C0390EFE758F852
:10392000042B0392002A03DA504244F4005403901B
:1039300044F00204761C30782E2816D116F8010FB8
:1039400044F004042A280DD06FF02F023078A0F143
:103950003003092B09D807EB870302EB4303C71891
:10396000761CF3E758F8047B761C30786C280FD06F
:1039700006DC4C2817D068280DD06A2814D104E042
:10398000742810D07A280FD10DE044F400140AE016
:1039900044F4801401E044F440147278824202D16D
:1039A00004F58014761C761C307866280BD013DC66
:1039B000582877D009DC002875D04528F6D046284D
:1039C000F4D047281AD193E118E0632835D0642851
:1039D00079D0652812D18BE1702873D008DC672874
:1039E000F1D069286FD06E280DD06F2806D1ACE0D9
:1039F00073282CD0752874D0782853D05246179944
:103A000090476D1C54E1C4F30250022809D00328EA
:103A10000DD0D8F8001004280DD00D6008F104086E
:103A200046E1D8F80010EA17C1E90052F6E7D8F8E5
:103A300000100D80F2E70D70F0E718F8041B8DF808
:103A4000001000208DF80100EB46012003E058F83B
:103A500004BB4FF0FF3061074FF0000102D40DE0CE
:103A600009F101018946B9420FDA8145F8DB1BF8FB
:103A700009100029F4D108E009F1010189468142C9
:103A8000FADB1BF809100029F6D103985346A0EB86
:103A9000090721463846179A00F080FA284400EBBF
:103AA000090507E044E008E10DE01BF8010B524670
:103AB00017999047B9F10109F7D253462146384684
:103AC000179AF2E039E00A21C4F302524FF0000BDA
:103AD0000091022A06D058F8040BC117032A09D016
:103AE0000AE023E008F1070020F00702F2E80201F3
:103AF000904605E000B2C117042A01D140B2C117B7
:103B0000002906DA0A460021404261EB02012D221B
:103B100002E0220504D52B228DF80420012203E0C7
:103B2000E20701D02022F7E7914657E00A2100E0A2
:103B300010214FF0000B00910BE010214FF0000B13
:103B400044F004040827009103E008204FF0000B24
:103B50000090C4F30252022A05D058F8040B002149
:103B6000032A08D008E008F1070020F00702F2E875
:103B70000201904603E080B2042A00D1C0B24FF0A7
:103B8000000922072AD53278702A07D0DDF800C054
:103B90008CF0100C5CEA0B0C05D00EE040228DF886
:103BA0000420012208E050EA010306D030238DF8FA
:103BB00004308DF8052002229146009B83F0080313
:103BC00053EA0B030AD150EA010201D1620705D57D
:103BD00030228DF804204FF001097F1E3278582AD8
:103BE00004D039A20C920CAA02920BE03BA2F9E796
:103BF0005B46009AFCF7E6FA0C9B9B5C029A521E0D
:103C00000292137050EA0102F2D1029804A9081A34
:103C100000F1200B600702D524F4803400E0012776
:103C20005F4502DDA7EB0B0000E0002000EB0B017D
:103C3000009003984944401A0390E00306D4534689
:103C40002146179A039800F0A9F90544002706E0D9
:103C500001A85246C05D179990476D1C7F1C4F45C7
:103C6000F6DBE0030CD553462146179A039800F083
:103C700095F9054404E030205246179990476D1C91
:103C80000099481E00900029F5DC08E0029802998E
:103C900052460078491C0291179990476D1CBBF160
:103CA0000001ABF1010BF1DC5BE100F065F90544CB
:103CB000761C307800287FF40DAE19B02846BDE898
:103CC000F08F0000092801003031323334353637A7
:103CD0003839616263646566000000003031323358
:103CE00034353637383941424344454600000000F8
:103CF000600700D4062708F1070020F00700F0E86D
:103D00000223804603F0004C5FEA0C0001D097A02C
:103D100009E0200501D596A005E0E00701D095A0B7
:103D200001E0AFF24C001390307823F00043652897
:103D30000CD006DC452809D046281DD047287FD165
:103D40003BE0662818D067287AD136E00021112F91
:103D500001DB112000E0781CCDE9000104A90CA8CA
:103D6000FFF7EEFCDDE90D010C9A4FF0000B07F1B7
:103D70000109109200914EE04FF000400097CDE90C
:103D8000011004A90CA8FFF7DBFCDDE90D020C9B78
:103D90000F994FF0000B91461093009211B9791CC6
:103DA00000EB0109B7EB090003D4C0F1FF3B07F1B9
:103DB0000109A9EB0700019042E0012F00DA012779
:103DC0000021112F01DD112000E03846CDE900016E
:103DD00004A90CA8FFF7B4FCDDE90D010C9A0091D1
:103DE0004FF0000BB946109221070FD4009A4A45B4
:103DF00003DA914601E0A9F10109B9F1010F05DDEE
:103E0000109AA9F10101515C3029F4D0B84202DACC
:103E100010F1040F03DA0121CDE9011010E00028B0
:103E200003DC8344A9EB000102E0411C494500DDAD
:103E30008946A0EB0B00401C01904FF0004002901F
:103E4000200705D40198484502DB4FF0FF30019070
:103E500000208DF84B0002980DF14B07B0F1004F98
:103E600025D002200C902B200D90029800280CDA0F
:103E7000404202902D200D9007E00A210298FCF7A5
:103E80008FFA3031029007F8011D0C99481E0C90F2
:103E90000029F2DC02980028EFD1791E0D980870F5
:103EA000307800F0200040F0450007F8020D11A81E
:103EB000C01BC01D02901398007800B1012000EBD8
:103EC0000901019801EBE071029801440398401A3E
:103ED000401E0390E00306D453462146179A0398E8
:103EE00000F05CF805441398007818B15246179911
:103EF00090476D1CE00323D553462146179A03983B
:103F000000F04CF805441BE0BBF1000F07DB009804
:103F1000584504DD1098179910F80B0001E0179927
:103F200030205246904701980BF1010B401E05F1DD
:103F30000105019004D12E205246179990476D1C1F
:103F4000B9F10001A9F10109DEDC05E017F8010B68
:103F50005246179990476D1C0299481E02900029FD
:103F6000F4DC53462146179A03989EE62D00000084
:103F70002B000000200000002DE9F0410446002540
:103F80001E461746880404D405E039462020B04771
:103F90006D1C641EF9D52846BDE8F0812DE9F0417D
:103FA000044600251E469046C80301D5302700E090
:103FB0002027880404D505E041463846B0476D1CEB
:103FC000641EF9D52846BDE8F0810A68531C0B60D1
:103FD0001070704730B500220A4B11464FF4FA7446
:103FE00033F81150491C2A44A142F9DB00EE102A93
:103FF000DFED050AB8EE400A80EE201A80ED001AC7
:1040000030BD0000480000200000FA43074A10B508
:1040100053680749074C0968B1FBF4F1414300E0DC
:1040200000BF5068C01A8842FAD310BD001000E0EB
:104030003000002040420F0013B54FF6FF730122FD
:1040400069460248FEF7A4FD00981CBD4806002002
:1040500070B509490646002408884D882146454325
:10406000204602F087FE02F0D9FF044801E00680F6
:10407000641CAC42FBD370BD900600200008006CAD
:104080002DE9F04F38492C260A46887192884FF462
:10409000305A4FF4285B41F6631E2B274FF02A0C51
:1040A0004FF0F00845F210594FF448754FF4A074E2
:1040B0004FF4F07358B10C80A1F802804A4530D11A
:1040C000A1F808A0A1F80AB03802888141E0A1F85F
:1040D00000804C804A4507D1A1F808A0A1F80AB099
:1040E0004FF42C50888105E072450E8105D14F8137
:1040F000A1F80CC00B804D8002E0A1F80AC08F81AE
:10410000A2F5A640103803D0A2F5EE40963801D1B2
:104110000C804B80A2F5184006381FD10B804D80D3
:104120001CE0724511D0A2F5184006380DD00E8162
:10413000A1F80AC0A1F80C70A2F5A64010380BD067
:10414000A2F5EE40963807D008E00E81A1F80AC02B
:104150008F810D804B80EFE70B804C80BDE8F04FE6
:10416000032002F045BD00009006002010B5144663
:1041700002F000FE02F052FF0148048010BD000072
:104180000008006C10B5CF2002F03CFF002002F0C8
:104190002DFFC12002F02AFF302002F027FFED2082
:1041A00002F030FF642002F021FF032002F01EFF26
:1041B000122002F01BFF812002F018FFE82002F01D
:1041C00021FF852002F012FF102002F00FFF7A205D
:1041D00002F00CFFCB2002F015FF392002F006FFA1
:1041E0002C2002F003FF002002F000FF342002F038
:1041F000FDFE022002F0FAFEF72002F003FF20206D
:1042000002F0F4FEEA2002F0FDFE002002F0EEFED5
:10421000002002F0EBFEC02002F0F4FE1B2002F0B2
:10422000E5FEC12002F0EEFE012002F0DFFEC52017
:1042300002F0E8FE302002F0D9FE302002F0D6FE77
:10424000C72002F0DFFEB72002F0D0FE362002F0D9
:10425000D9FE482002F0CAFE3A2002F0D3FE5520D3
:1042600002F0C4FEB12002F0CDFE002002F0BEFE3E
:104270001A2002F0BBFEB62002F0C4FE0A2002F0B3
:10428000B5FEA22002F0B2FEF22002F0BBFE00203A
:1042900002F0ACFE262002F0B5FE012002F0A6FEE0
:1042A000E02002F0AFFE0F2002F0A0FE2A2002F074
:1042B0009DFE282002F09AFE082002F097FE0E20B4
:1042C00002F094FE082002F091FE542002F08EFECF
:1042D000A92002F08BFE432002F088FE0A2002F0A3
:1042E00085FE0F2002F082FE002002F07FFE0020FB
:1042F00002F07CFE002002F079FE002002F076FE43
:10430000E12002F07FFE002002F070FE152002F096
:104310006DFE172002F06AFE072002F067FE1120F2
:1043200002F064FE062002F061FE2B2002F05EFE29
:10433000562002F05BFE3C2002F058FE052002F001
:1043400055FE102002F052FE0F2002F04FFE3F20DB
:1043500002F04CFE3F2002F049FE0F2002F046FE24
:104360002B2002F04FFE002002F040FE002002F061
:104370003DFE012002F03AFE3F2002F037FE2A20E7
:1043800002F040FE002002F031FE002002F02EFE7E
:10439000002002F02BFEEF2002F028FE112002F098
:1043A00031FE7820FDF798F9BDE81040292002F091
:1043B00029BE10B5FF2002F025FEFF2002F016FEF8
:1043C000982002F013FE062002F010FEBC2002F03E
:1043D00019FE012002F00AFE0F2002F007FE612004
:1043E00002F004FEFF2002F001FE012002F0FEFDBB
:1043F000012002F0FBFD0B2002F0F8FD102002F07E
:10440000F5FD372002F0F2FD632002F0EFFDFF2002
:1044100002F0ECFDFF2002F0E9FD012002F0E6FDD4
:10442000012002F0E3FD002002F0E0FD002002F098
:10443000DDFDFF2002F0DAFD522002F0D7FD012061
:1044400002F0D4FD002002F0D1FD402002F0CEFDAC
:10445000BD2002F0D7FD012002F0C8FD232002F0AC
:10446000C5FD452002F0C2FD672002F0BFFD01201E
:1044700002F0BCFD232002F0B9FD452002F0B6FD9C
:10448000672002F0B3FDBE2002F0BCFD002002F068
:10449000ADFD012002F0AAFDAB2002F0A7FD6020D7
:1044A00002F0A4FD222002F0A1FD222002F09EFDD8
:1044B000222002F09BFD222002F098FD222002F033
:1044C00095FDC72002F09EFD362002F08FFDED2005
:1044D00002F098FD7F2002F089FD0F2002F086FD9A
:1044E000C02002F08FFD0F2002F080FD0B2002F0B3
:1044F0007DFD0A2002F07AFDFC2002F083FD0820F9
:1045000002F074FDDF2002F07DFD002002F06EFD60
:10451000002002F06BFD002002F068FD002002F098
:1045200065FD002002F062FD202002F05FFDF32017
:1045300002F068FD742002F059FDB42002F062FD23
:10454000002002F053FD002002F050FD002002F098
:104550004DFDF72002F056FD822002F047FDB1200C
:1045600002F050FD002002F041FD132002F03EFD5C
:10457000132002F03BFDF22002F044FD802002F007
:1045800035FD042002F032FD402002F02FFD2820EE
:1045900002F02CFDC12002F035FD172002F026FDAF
:1045A000882002F023FD882002F020FD202002F068
:1045B0001DFDE02002F026FD002002F017FD0A207C
:1045C00002F014FD122002F011FD102002F00EFD89
:1045D0000E2002F00BFD202002F008FDCC2002F09E
:1045E00005FD072002F002FD062002F0FFFC0B2073
:1045F00002F0FCFC0E2002F0F9FC0F2002F0F6FCA9
:104600000D2002F0F3FC152002F0F0FC102002F067
:10461000EDFC002002F0EAFCE12002F0F3FC0020B7
:1046200002F0E4FC0B2002F0E1FC132002F0DEFCBF
:104630000D2002F0DBFC0E2002F0D8FC1B2002F063
:10464000D5FC712002F0D2FC062002F0CFFC06203F
:1046500002F0CCFC0A2002F0C9FC0F2002F0C6FCDC
:104660000E2002F0C3FC0F2002F0C0FC152002F067
:10467000BDFC0C2002F0BAFC002002F0B7FC2A209E
:1046800002F0C0FC002002F0B1FC002002F0AEFC01
:10469000012002F0ABFCDF2002F0A8FC2B2002F08E
:1046A000B1FC002002F0A2FC002002F09FFC0320DD
:1046B00002F09CFC1F2002F099FC3A2002F0A2FCC0
:1046C000552002F093FC362002F09CFC002002F002
:1046D0008DFC112002F096FC7820FCF7FDFF2920CC
:1046E00002F090FC1420FCF7F7FFBDE810402C20EE
:1046F00002F088BC10B5ED2002F084FC012002F02D
:1047000075FCFE2002F072FCEE2002F07BFCDE2045
:1047100002F06CFC212002F069FCF12002F072FC36
:10472000012002F063FCDF2002F06CFC102002F09C
:104730005DFCC42002F066FC8F2002F057FCC6200E
:1047400002F060FC002002F051FCE22002F04EFC7E
:10475000E22002F04BFCE22002F048FCBF2002F015
:1047600051FCAA2002F042FCB02002F04BFC0D20CC
:1047700002F03CFC002002F039FC0D2002F036FC77
:10478000002002F033FC112002F030FC002002F087
:104790002DFC192002F02AFC002002F027FC212029
:1047A00002F024FC002002F021FC2D2002F01EFC6F
:1047B000002002F01BFC3D2002F018FC002002F05B
:1047C00015FC5D2002F012FC002002F00FFC5D20C1
:1047D00002F00CFC002002F009FCB12002F012FCF7
:1047E000802002F003FC002002F000FC8B2002F08D
:1047F000FDFB002002F0FAFB962002F0F7FB002000
:1048000002F0F4FBB22002F0FDFB002002F0EEFB10
:10481000002002F0EBFB022002F0E8FB002002F097
:10482000E5FB032002F0E2FB002002F0DFFBB320F7
:1048300002F0E8FB002002F0D9FB002002F0D6FBDA
:10484000002002F0D3FB002002F0D0FB002002F099
:10485000CDFB002002F0CAFB002002F0C7FB0020C5
:1048600002F0C4FB002002F0C1FB002002F0BEFBFE
:10487000002002F0BBFB002002F0B8FB002002F099
:10488000B5FB002002F0B2FB002002F0AFFB0020DD
:1048900002F0ACFB002002F0A9FB002002F0A6FB16
:1048A000002002F0A3FB002002F0A0FB002002F099
:1048B0009DFB002002F09AFB002002F097FB0020F5
:1048C00002F094FBB42002F09DFB8B2002F08EFBE3
:1048D000002002F08BFB962002F088FB002002F003
:1048E00085FBA12002F082FB002002F07FFBB520B7
:1048F00002F088FB022002F079FB002002F076FB38
:10490000032002F073FB002002F070FB042002F091
:104910006DFB002002F06AFBB62002F073FB002062
:1049200002F064FB002002F061FBB72002F06AFB9A
:10493000002002F05BFB002002F058FB3F2002F059
:1049400055FB002002F052FB5E2002F04FFB0020DE
:1049500002F04CFB642002F049FB002002F046FB11
:104960008C2002F043FB002002F040FBAC2002F060
:104970003DFB002002F03AFBDC2002F037FB002078
:1049800002F034FB702002F031FB002002F02EFB1D
:10499000902002F02BFB002002F028FBEB2002F01D
:1049A00025FB002002F022FBDC2002F01FFB002090
:1049B00002F01CFBB82002F025FB002002F016FBE1
:1049C000002002F013FB002002F010FB002002F098
:1049D0000DFB002002F00AFB002002F007FB002084
:1049E00002F004FB002002F001FBBA2002F00AFBF7
:1049F000242002F0FBFA002002F0F8FA002002F076
:104A0000F5FA002002F0F2FAC12002F0FBFA2020B1
:104A100002F0ECFA002002F0E9FA542002F0E6FA83
:104A2000002002F0E3FAFF2002F0E0FA002002F09A
:104A3000DDFAC22002F0E6FA0A2002F0D7FA0020DE
:104A400002F0D4FA042002F0D1FA002002F0CEFAEB
:104A5000C32002F0D7FA3C2002F0C8FA002002F08E
:104A6000C5FA3A2002F0C2FA002002F0BFFA39205B
:104A700002F0BCFA002002F0B9FA372002F0B6FAD0
:104A8000002002F0B3FA3C2002F0B0FA002002F05D
:104A9000ADFA362002F0AAFA002002F0A7FA32207E
:104AA00002F0A4FA002002F0A1FA2F2002F09EFAF0
:104AB000002002F09BFA2C2002F098FA002002F06D
:104AC00095FA292002F092FA002002F08FFA2620AF
:104AD00002F08CFA002002F089FA242002F086FA13
:104AE000002002F083FA242002F080FA002002F075
:104AF0007DFA232002F07AFA002002F077FA3C20B7
:104B000002F074FA002002F071FA362002F06EFA18
:104B1000002002F06BFA322002F068FA002002F066
:104B200065FA2F2002F062FA002002F05FFA2C20D2
:104B300002F05CFA002002F059FA292002F056FA3D
:104B4000002002F053FA262002F050FA002002F072
:104B50004DFA242002F04AFA002002F047FA2420FD
:104B600002F044FA002002F041FA232002F03EFA5B
:104B7000002002F03BFAC42002F044FA622002F066
:104B800035FA002002F032FA052002F02FFA002058
:104B900002F02CFA842002F029FA002002F026FA12
:104BA000F02002F023FA002002F020FA182002F090
:104BB0001DFA002002F01AFAA42002F017FA0020D1
:104BC00002F014FA182002F011FA002002F00EFA96
:104BD000502002F00BFA002002F008FA0C2002F03C
:104BE00005FA002002F002FA172002F0FFF9002077
:104BF00002F0FCF9952002F0F9F9002002F0F6F934
:104C0000F32002F0F3F9002002F0F0F9E62002F0C0
:104C1000EDF9002002F0EAF9C52002F0F3F93220A4
:104C200002F0E4F9002002F0E1F9442002F0DEF99C
:104C3000002002F0DBF9652002F0D8F9002002F034
:104C4000D5F9762002F0D2F9002002F0CFF98820C1
:104C500002F0CCF9002002F0C9F9C62002F0D2F926
:104C6000202002F0C3F9002002F0C0F9172002F062
:104C7000BDF9002002F0BAF9012002F0B7F90020D6
:104C800002F0B4F9C72002F0BDF9002002F0AEF93D
:104C9000002002F0ABF9002002F0A8F9002002F099
:104CA000A5F9C82002F0AEF9002002F09FF900201B
:104CB00002F09CF9002002F099F9002002F096F928
:104CC000C92002F09FF9002002F090F9002002F0C4
:104CD0008DF9002002F08AF9002002F087F9002007
:104CE00002F084F9002002F081F9002002F07EF940
:104CF000002002F07BF9002002F078F9002002F099
:104D000075F9002002F072F9002002F06FF900201E
:104D100002F06CF9002002F069F9002002F066F957
:104D2000002002F063F9E02002F06CF9162002F096
:104D30005DF9002002F05AF91C2002F057F900201A
:104D400002F054F9212002F051F9002002F04EF94E
:104D5000362002F04BF9002002F048F9462002F01C
:104D600045F9002002F042F9522002F03FF90020FC
:104D700002F03CF9642002F039F9002002F036F923
:104D80007A2002F033F9002002F030F98B2002F093
:104D90002DF9002002F02AF9992002F027F90020CD
:104DA00002F024F9A82002F021F9002002F01EF9F7
:104DB000B92002F01BF9002002F018F9C42002F01B
:104DC00015F9002002F012F9CA2002F00FF90020B4
:104DD00002F00CF9D22002F009F9002002F006F9E5
:104DE000D92002F003F9002002F000F9E02002F0DF
:104DF000FDF8002002F0FAF8F32002F0F7F80020A6
:104E000002F0F4F8E12002F0FDF8162002F0EEF8CE
:104E1000002002F0EBF81C2002F0E8F8002002F07D
:104E2000E5F8222002F0E2F8002002F0DFF8362058
:104E300002F0DCF8002002F0D9F8452002F0D6F8A4
:104E4000002002F0D3F8522002F0D0F8002002F047
:104E5000CDF8642002F0CAF8002002F0C7F87A20EA
:104E600002F0C4F8002002F0C1F88B2002F0BEF876
:104E7000002002F0BBF8992002F0B8F8002002F000
:104E8000B5F8A82002F0B2F8002002F0AFF8B9207F
:104E900002F0ACF8002002F0A9F8C42002F0A6F855
:104EA000002002F0A3F8CA2002F0A0F8002002F0CF
:104EB0009DF8D22002F09AF8002002F097F8D8204E
:104EC00002F094F8002002F091F8E02002F08EF851
:104ED000002002F08BF8F32002F088F8002002F0A6
:104EE00085F8E22002F08EF8052002F07FF800201D
:104EF00002F07CF80B2002F079F8002002F076F83E
:104F00001B2002F073F8002002F070F8342002F049
:104F10006DF8002002F06AF8442002F067F80020E3
:104F200002F064F84F2002F061F8002002F05EF811
:104F3000612002F05BF8002002F058F8792002F0BE
:104F400055F8002002F052F8882002F04FF80020B7
:104F500002F04CF8972002F049F8002002F046F8E1
:104F6000A62002F043F8002002F040F8B72002F03B
:104F70003DF8002002F03AF8C22002F037F8002095
:104F800002F034F8C72002F031F8002002F02EF8C9
:104F9000D12002F02BF8002002F028F8D62002F0F1
:104FA00025F8002002F022F8DD2002F01FF8002092
:104FB00002F01CF8F32002F019F8002002F016F8B5
:104FC000E32002F01FF8052002F010F8002002F0A4
:104FD0000DF80A2002F00AF8002002F007F81C2061
:104FE00002F004F8002002F001F8332001F0FEFF87
:104FF000002001F0FBFF442001F0F8FF002001F049
:10500000F5FF502001F0F2FF002001F0EFFF6220D9
:1050100001F0ECFF002001F0E9FF782001F0E6FF4D
:10502000002001F0E3FF882001F0E0FF002001F004
:10503000DDFF972001F0DAFF002001F0D7FFA62066
:1050400001F0D4FF002001F0D1FFB72001F0CEFF26
:10505000002001F0CBFFC22001F0C8FF002001F0CA
:10506000C5FFC72001F0C2FF002001F0BFFFD12023
:1050700001F0BCFF002001F0B9FFD52001F0B6FF20
:10508000002001F0B3FFDD2001F0B0FF002001F0AF
:10509000ADFFF32001F0AAFF002001F0A7FFE420FC
:1050A00001F0B0FF012001F0A1FF002001F09EFF00
:1050B000012001F09BFF002001F098FF022001F089
:1050C00095FF002001F092FF2A2001F08FFF0020C1
:1050D00001F08CFF3C2001F089FF002001F086FFE9
:1050E0004B2001F083FF002001F080FF5D2001F0E4
:1050F0007DFF002001F07AFF742001F077FF00208F
:1051000001F074FF842001F071FF002001F06EFFB8
:10511000932001F06BFF002001F068FFA22001F056
:1051200065FF002001F062FFB32001F05FFF002067
:1051300001F05CFFBE2001F059FF002001F056FF96
:10514000C42001F053FF002001F050FFCD2001F0FA
:105150004DFF002001F04AFFD32001F047FF00205F
:1051600001F044FFDD2001F041FF002001F03EFF8F
:10517000F32001F03BFF002001F038FFE52001F0B3
:1051800041FF002001F032FF002001F02FFF00203E
:1051900001F02CFF002001F029FF022001F026FF82
:1051A000002001F023FF292001F020FF002001F062
:1051B0001DFF3C2001F01AFF002001F017FF4B20DB
:1051C00001F014FF002001F011FF5D2001F00EFF3F
:1051D000002001F00BFF742001F008FF002001F017
:1051E00005FF842001F002FF002001F0FFFE932064
:1051F00001F0FCFE002001F0F9FEA22001F0F6FE15
:10520000002001F0F3FEB32001F0F0FE002001F0D9
:10521000EDFEBE2001F0EAFE002001F0E7FEC42012
:1052200001F0E4FE002001F0E1FECD2001F0DEFE01
:10523000002001F0DBFED32001F0D8FE002001F0B9
:10524000D5FEDC2001F0D2FE002001F0CFFEF320DD
:1052500001F0CCFE002001F0C9FEE62001F0D2FEF4
:10526000112001F0C3FE002001F0C0FE342001F047
:10527000BDFE002001F0BAFE562001F0B7FE00206E
:1052800001F0B4FE762001F0B1FE002001F0AEFE88
:10529000772001F0ABFE002001F0A8FE662001F0AF
:1052A000A5FE002001F0A2FE882001F09FFE002054
:1052B00001F09CFE992001F099FE002001F096FE7D
:1052C000BB2001F093FE002001F090FE992001F038
:1052D0008DFE002001F08AFE662001F087FE00208E
:1052E00001F084FE552001F081FE002001F07EFED9
:1052F000552001F07BFE002001F078FE452001F0F2
:1053000075FE002001F072FE432001F06FFE0020C8
:1053100001F06CFE442001F069FE002001F066FE01
:10532000E72001F06FFE322001F060FE002001F066
:105330005DFE552001F05AFE002001F057FE762058
:1053400001F054FE002001F051FE662001F04EFEF7
:10535000002001F04BFE672001F048FE002001F024
:1053600045FE672001F042FE002001F03FFE87204D
:1053700001F03CFE002001F039FE992001F036FEDC
:10538000002001F033FEBB2001F030FE002001F0D0
:105390002DFE992001F02AFE002001F027FE772043
:1053A00001F024FE002001F021FE442001F01EFE49
:1053B000002001F01BFE562001F018FE002001F035
:1053C00015FE232001F012FE002001F00FFE332015
:1053D00001F00CFE002001F009FE452001F006FE60
:1053E000002001F003FEE82001F00CFE002001F097
:1053F000FDFD002001F0FAFD992001F0F7FD0020ED
:1054000001F0F4FD872001F0F1FD002001F0EEFD38
:10541000882001F0EBFD002001F0E8FD772001F08D
:10542000E5FD002001F0E2FD662001F0DFFD002037
:1054300001F0DCFD882001F0D9FD002001F0D6FD4F
:10544000AA2001F0D3FD002001F0D0FDBB2001F027
:10545000CDFD002001F0CAFD992001F0C7FD00201C
:1054600001F0C4FD662001F0C1FD002001F0BEFD89
:10547000552001F0BBFD002001F0B8FD552001F0E2
:10548000B5FD002001F0B2FD442001F0AFFD002089
:1054900001F0ACFD442001F0A9FD002001F0A6FDC3
:1054A000552001F0A3FD002001F0A0FDE92001F04E
:1054B000A9FDAA2001F09AFD002001F097FD00202F
:1054C00001F094FD002001F091FD002001F09AFD13
:1054D000AA2001F08BFDCF2001F094FD002001F007
:1054E00085FD002001F082FD002001F07FFD0020FD
:1054F00001F07CFD002001F079FD002001F076FD37
:10550000002001F073FD002001F070FD002001F08B
:105510006DFD002001F06AFD002001F067FD002014
:1055200001F064FD002001F061FD002001F05EFD4E
:10553000002001F05BFD002001F058FD002001F08B
:1055400055FDF02001F05EFD002001F04FFD5020E0
:1055500001F04CFD002001F049FD002001F046FD66
:10556000002001F043FDF32001F04CFD002001F08C
:105570003DFDF92001F046FD062001F037FD102029
:1055800001F034FD292001F031FD002001F02EFD55
:105590003A2001F037FD552001F028FD112001F0DF
:1055A00031FD6420FCF798F8292001F02BFD35200F
:1055B00001F028FD002001F019FD512001F022FD2D
:1055C000FF2001F013FD532001F01CFD2C2001F001
:1055D0000DFD552001F016FD822001F007FDBDE80C
:1055E00010402C2001F00EBD2DE9F05F4FF4704308
:1055F0005521184601F01CFD4FF20104AA21204656
:1056000001F016FD651C5221284601F011FDA61C73
:105610000821304601F00CFDE71C0121384601F05D
:1056200007FD0D214FF4304001F002FD0D214BF23A
:10563000010001F0FDFC0D214BF2020001F0F8FC2D
:105640004FF436483421404601F0F2FC34214BF24D
:10565000016001F0EDFC34214BF2026001F0E8FC46
:105660004FF431490D21484601F0E2FC4BF2011A9A
:105670000D21504601F0DCFC0D214BF2021001F02F
:10568000D7FC4FF4374B3421584601F0D1FC34217C
:105690004BF2017001F0CCFC34214BF2027001F0AE
:1056A000C7FC00214FF4324001F0C2FC00214BF254
:1056B000012001F0BDFC00214BF2022001F0B8FCFA
:1056C00024214FF4384001F0B3FC24214BF60100B3
:1056D00001F0AEFC24214BF6020001F0A9FC0121EF
:1056E0004FF43F4001F0A4FC0F214FF4334001F090
:1056F0009FFC0F214BF2013001F09AFC0F214BF27D
:10570000023001F095FC34214FF4394001F090FC57
:1057100034214BF6011001F08BFC34214BF60210C2
:1057200001F086FC08214FF4354001F081FC08218E
:105730004BF2015001F07CFC08214BF2025001F0C9
:1057400077FC03214FF4424001F072FC24214FF416
:105750003A4001F06DFC24214BF6012001F068FC79
:1057600024214BF6022001F063FC00214FF43C4061
:1057700001F05EFC78214BF6014001F059FC00215C
:105780004BF6024001F054FC00214FF43D4001F083
:105790004FFC78214BF6015001F04AFC00214BF6FA
:1057A000025001F045FC00214FF43E4001F040FC66
:1057B00064214BF6016001F03BFC00214FF45140A5
:1057C00001F036FC33214DF2011001F031FC0021D3
:1057D0004DF2021001F02CFC34214DF2031001F0C7
:1057E00027FC00214DF2041001F022FC3A214DF279
:1057F000051001F01DFC00214DF2061001F018FC0F
:105800004A214DF2071001F013FC00214DF208105F
:1058100001F00EFC5C214DF2091001F009FC0021A1
:105820004DF20A1001F004FC81214DF20B1001F041
:10583000FFFB00214DF20C1001F0FAFBA6214DF206
:105840000D1001F0F5FB00214DF20E1001F0F0FB00
:10585000E5214DF20F1001F0EBFB01214DF210108C
:1058600001F0E6FB13214DF2111001F0E1FB0121E3
:105870004DF2121001F0DCFB54214DF2131001F037
:10588000D7FB01214DF2141001F0D2FB82214DF221
:10589000151001F0CDFB01214DF2161001F0C8FBEF
:1058A000CA214DF2171001F0C3FB02214DF218106E
:1058B00001F0BEFB00214DF2191001F0B9FB0221ED
:1058C0004DF21A1001F0B4FB01214DF21B1001F052
:1058D000AFFB02214DF21C1001F0AAFB34214DF266
:1058E0001D1001F0A5FB02214DF21E1001F0A0FBDE
:1058F00067214DF21F1001F09BFB02214DF2201099
:1059000001F096FB84214DF2211001F091FB022160
:105910004DF2221001F08CFBA4214DF2231001F076
:1059200087FB02214DF2241001F082FBB7214DF2DA
:10593000251001F07DFB02214DF2261001F078FBCD
:10594000CF214DF2271001F073FB02214DF22810F8
:1059500001F06EFBDE214DF2291001F069FB0221FE
:105960004DF22A1001F064FBF2214DF22B1001F0F0
:105970005FFB02214DF22C1001F05AFBFE214DF28B
:105980002D1001F055FB03214DF22E1001F050FBBC
:1059900010214DF22F1001F04BFB03214DF230107E
:1059A00001F046FB33214DF2311001F041FB0321A0
:1059B0004DF2321001F03CFB6D214DF2331001F03D
:1059C00037FB00214FF4524001F032FB33214DF2FE
:1059D000012001F02DFB00214DF2022001F028FBF7
:1059E00034214DF2032001F023FB00214DF204206D
:1059F00001F01EFB3A214DF2052001F019FB0021B8
:105A00004DF2062001F014FB4A214DF2072001F06F
:105A10000FFB00214DF2082001F00AFB5C214DF242
:105A2000092001F005FB00214DF20A2001F000FBE6
:105A300081214DF20B2001F0FBFA00214DF20C20E8
:105A400001F0F6FAA6214DF20D2001F0F1FA002145
:105A50004DF20E2001F0ECFAE5214DF20F2001F09D
:105A6000E7FA01214DF2102001F0E2FA13214DF284
:105A7000112001F0DDFA01214DF2122001F0D8FAD7
:105A800054214DF2132001F0D3FA01214DF21420DC
:105A900001F0CEFA82214DF2152001F0C9FA012160
:105AA0004DF2162001F0C4FACA214DF2172001F080
:105AB000BFFA02214DF2182001F0BAFA00214DF28E
:105AC000192001F0B5FA02214DF21A2001F0B0FAC6
:105AD00001214DF21B2001F0ABFA02214DF21C20F6
