:020000040800F2
:10000000D009002049020008C7330008F12E00087B
:10001000C53300089D1800082138000800000000C2
:10002000000000000000000000000000CB330008CA
:10003000C918000800000000C9330008CD330008CB
:1000400063020008630200086302000863020008FC
:1000500063020008630200086302000863020008EC
:1000600063020008630200086302000863020008DC
:1000700063020008630200086302000863020008CC
:1000800063020008630200086302000863020008BC
:1000900063020008630200086302000863020008AC
:1000A000630200086302000863020008630200089C
:1000B0006302000875340008630200086302000848
:1000C000630200086302000863020008630200087C
:1000D000630200086302000863020008630200086C
:1000E000630200086302000863020008630200085C
:1000F000630200086302000863020008630200084C
:10010000630200086302000863020008630200083B
:1001100063020008630200088134000863020008DB
:10012000630200086302000863020008630200081B
:10013000630200086302000863020008630200080B
:1001400063020008630200086302000863020008FB
:1001500063020008630200086302000863020008EB
:1001600063020008630200086302000863020008DB
:100170006302000863020008630200080000000038
:10018000630200086302000800F002F800F04CF877
:100190000AA090E8000C82448344AAF10107DA45E2
:1001A00001D100F041F8AFF2090EBAE80F0013F0E8
:1001B000010F18BFFB1A43F001031847149D0000FC
:1001C000349D0000103A24BF78C878C1FAD852078D
:1001D00024BF30C830C144BF04680C6070470000C1
:1001E0000023002400250026103A28BF78C1FBD840
:1001F000520728BF30C148BF0B607047662906F020
:100200004F86642900F0CC80002070471FB506F0AF
:1002100042FE00F061FC04000020002106F076FCA4
:10022000E0601FBD10B510BD00F056FD1146FFF790
:10023000EDFF06F033FB00F074FD03B4FFF7F2FFAF
:1002400003BC00F0B7FD000009488047094800479B
:10025000FEE7FEE7FEE7FEE7FEE7FEE7FEE7FEE776
:10026000FEE7FEE704480549054A064B70470000D3
:100270006534000889010008D0030020D00900205F
:10028000D0050020D005002053EA020C00F0698060
:100290002DE9F04B4FF00006002B1FBFB3FA83F59A
:1002A00003FA05F424FA05F65E4012BF1643B2FACB
:1002B00082F502FA05F4C5F120051EBF22FA05FCFD
:1002C00044EA0C04203556EA044C4FEA144418BFA3
:1002D000641C4FF000084FF00009904271EB030CD2
:1002E00039D3002919BFB1FA81F701FA07F6B0FA3C
:1002F00080F700FA07F6C7F120071EBF20FA07FCB7
:1003000046EA0C062037B6FBF4FCA7EB0507103FC6
:1003100007F01F0BCBF120060CFA0BFB2CFA06F6AC
:1003200044BFB3460026202FA4BF5E464FF0000B0B
:100330005BEA060C08BF4FF0010B19EB0B09ABFB96
:10034000027C48EB0608C01B06FB02CC0BFB03CC6F
:1003500071EB0C01C1E70B46024641464846BDE839
:10036000F08B13B54FF000004FF00001AFF30080A9
:10037000BDE81C40704700000FB41CB5074B06AA2F
:100380007B4469460090059800F08DFB002069468B
:1003900000F09CFB1CBC5DF814FB0000490700004A
:1003A0002DE9F0410646002410687529314616A54E
:1003B00010D0AFF30080002802DA404213A507E016
:1003C00031688A0701D512A502E0490704D511A5B5
:1003D000012401E0AFF3008000210A2206F1240786
:1003E00009E0B0FBF2FCB0FBF2F302FB1C00303082
:1003F00078541846491C0028F3D123462A46304633
:10040000BDE8F04100F0E2B8000000002D0000005F
:100410002B000000200000002DE9F0474FF0000AFB
:1004200089460446C0F820A02046E1688847002895
:1004300076D0252806D0D4E901219047206A401CB7
:100440002062F1E7E168204600268847C4F81CA036
:1004500005460027C4F818A02A2D09D0284603F025
:1004600008FA38B304EB8708303DC8F8185019E093
:1004700059F8041B204604EB87029161E168884724
:10048000012F054618D1E069002820DA26F0200661
:100490001DE0D8F8180000EB800005EB4000303874
:1004A000C8F818002046E1688847054603F0E1F9DE
:1004B0000028EED1012F0AD02E2D08D12046E16868
:1004C00088477F1C0546022F46F02006C4DBA06942
:1004D000002803DA404246F00106A061F00701D08F
:1004E00026F010066C2D0AD0682D08D04C2D39D07E
:1004F0006A2D35D0742D35D07A2D33D016E0E168D1
:100500002F4620468847B84205460AD16C2F27D08F
:100510004FF48060E168064320468847054605E0C1
:1005200027E06C2F1AD04FF4807006430DB3A5F16D
:100530004100192802D8203546F400664A4629466B
:10054000204626604E46FFF759FE80B101280BD0A9
:10055000F61D26F0070000F1080965E74020E4E7F2
:100560008020D7E70020D5E706F104095CE728469C
:1005700061E7206ABDE8F0874FF0000200B513463E
:1005800094469646203922BFA0E80C50A0E80C50B3
:10059000B1F12001BFF4F7AF090728BFA0E80C5064
:1005A00048BF0CC05DF804EB890028BF40F8042B5D
:1005B00008BF704748BF20F8022B11F0804F18BFCA
:1005C00000F8012B70477047704770472DE9F047DE
:1005D0000D4699469246044600F1240801688806B3
:1005E00004D5E06921F01001216000E00120A8425B
:1005F00001DD471B00E00027A1697A1902EB090021
:10060000081AA0612078C00602D42046AFF300800B
:10061000002608E0D4E901211AF806009047206A74
:10062000401C761C20624E45F4DB2078C0060AD5BB
:100630002046AFF3008006E0D4E901213020904746
:10064000206A401C2062381EA7F10107F4DC07E095
:10065000D4E9012118F805009047206A401C206267
:10066000281EA5F10105F3DC2046AFF300802078B9
:10067000000602D50220BDE8F0870120FBE77047A5
:100680002DE9FF4F0C461E464FF0FF378BB0D2E9E5
:100690000001DDF860800A908A46C1F30A5505B969
:1006A0003D46002108464FF00000BAF1000F00F46B
:1006B000400005DA00EB80004FF4400101EA5000F1
:1006C0004FEA9059B9F1010F00DDB9460A9850EA96
:1006D0004A000ED044F61050A5F2FF3545432F14C2
:1006E000B8F1000F1ED07542291E1EDDC9F10002AF
:1006F0001CE0B8F1010F4FF0000001D0302103E001
:10070000F24305E02154401CB042FBDB304600229E
:10071000002121540B99C1F80880C1E900200FB0D5
:10072000BDE8F08FBD1B6D1CDEE74A4600DA69426A
:1007300006A800F05BFA06AB93E8070003AB83E87A
:10074000070050460A9900F03CFB8DE80700A0F531
:1007500000501F3800900398002D0ADD42F21F015F
:100760004A460844002303A90390684600F0A5FD0B
:1007700009E0A0F500504A461F38002303A9039062
:10078000684600F0AFFD8DE807000004000C03D0C0
:100790004FF0FF30410800E01046B8F1000F03D0E1
:1007A0000022009215461EE0751E05D400F098F94F
:1007B000303262556D1EF9D5B3460122084302D08E
:1007C00000227F1C04E02078302801D100227F1E07
:1007D000002A099784D01DE0112D07DA00F080F976
:1007E000303262556D1C50EA0102F5D1084302D047
:1007F0000098C8B10EE00021681E05E0235C625C31
:1008000063542254401E491C8142F7DBAB46A81BAF
:10081000401E0990002004F80B000B98099AC0F8BC
:100820000880C0E9002B7AE711264FF0000857E74F
:100830002DE9F04F88460446D21D22F0070191B001
:10084000D1E90001CDE90A0102F0EBFF02460B9865
:10085000C00F01D02D2007E02068810701D52B2093
:1008600002E0202101EAC000032A099001D0072AF2
:1008700005DB03464146204600F078F90BE120787D
:10088000800601D5E06900E00620B8F1650F8146D9
:1008900006D0B8F1660F18D0B8F1670F70D131E00B
:1008A0000020B9F1110F009001DB112301E009F1E3
:1008B00001030AAA01A90CA8FFF7E2FEDDE90C700A
:1008C000002609F10105834647E001204B460090D0
:1008D0004FF000470AAA01A90CA8FFF7D1FEDDE9F5
:1008E0000DB00C995D46002610B909F101000D18F4
:1008F000B9EB050003D4C0F1FF3609F10105A5EB02
:1009000009002BE0B9F1010F01DA4FF001090020D5
:10091000B9F1110F0090484601DD112300E00346B4
:100920000AAA01A90CA8FFF7ABFEDDE90C704D4641
:1009300000268346207800070AD4AB4500DA5D46DE
:1009400001A8012D04DD411911F8011C302907D03F
:100950004F4502DA17F1040F04DA012082460FE056
:100960006D1EEEE7002F02DCED1B3E4403E0781C19
:10097000A84200DD7D1CB81B00F1010A4FF00047C2
:100980002078000703D4AA4501DB4FF0FF3A00218D
:10099000B7F1004F0DF143088DF8431024D0022029
:1009A0002B23002F01DA7F422D230A21021EA0F102
:1009B000010000DC5FB197FBF1FC97FBF1F201FB5A
:1009C0001C7C17460CF1300C08F801CDEEE7A8F1BD
:1009D000010003702188090501D5452100E065214A
:1009E000A0F1010800F8011C09980FA9A1EB080764
:1009F000FF1D00B10120411901EBEA70A1693844E3
:100A0000081A401EA0612078C00602D42046AFF329
:100A10000080099828B1D4E901219047206A401C40
:100A200020622078C00622D52046AFF300801EE069
:100A3000002E04DBB34502DD01A8805D00E030201C
:100A4000D4E901219047206A401C2062761CAAF15B
:100A500001005FEA000A0AD100F03EF8C0680168B0
:100A6000405CD4E901219047206A401C2062281E86
:100A7000A5F10105DCDC07E0D4E9012118F8010B40
:100A80009047206A401C2062381EA7F10107F3DC62
:100A90002046AFF30080032011B041E601694A1CF3
:100AA00002610878704700B58FB0CDE901310021AF
:100AB000059105497944CDE9031011466846FFF7D1
:100AC000ABFC0FB000BD0000E5FFFFFF0A6802F8B5
:100AD000010B0A6070470000004870479003002037
:100AE00030B5B0F10A024FEA900E71F100034EEA00
:100AF000817EB0EB0E0061EB91014FEA101E4EEAD1
:100B0000017E10EB0E0041EB11114FEA102E4EEA60
:100B1000016E10EB0E0041EB11214FEA104E4EEA30
:100B2000014E10EB0E0041EB1141401841F1000164
:100B30004FEAD00040EA41704FEAD10110EB800546
:100B40004FEA810444EA907444EB01046D1944EBCC
:100B50000404521BA3414FF0000348BF0A3200D5E2
:100B600030BD401C41F1000130BD00002DE9F041D5
:100B70001F46044603260168072A01F4006004DBCF
:100B800008B116A505E016A503E008B115A500E01B
:100B900015A521F010002060A069C01EA0610FB152
:100BA000401EA0612046AFF300804FB1D4E901217F
:100BB00038469047206A401C2062C01C206206E034
:100BC000206AFAE7D4E9012115F8010B9047761E57
:100BD000F8D22046AFF30080BDE8F0814E414E00D0
:100BE0006E616E00494E4600696E66002DE9F04761
:100BF000814616468AB0354878440DC88DE80D0008
:100C000032487844801C03AC0DC884E80D0041F6DE
:100C10009B300844372190FBF1F290FBF1F5A5F1F0
:100C2000800501FB12041B3C02D56442012000E058
:100C30000020DFF898A080460027FA44AAF1BE0AF7
:100C40000EE0E0070AD03246684607EB4701012371
:100C50000AEB810100F046FB8DE8070064107F1C61
:100C6000002CEED1194F7F44AE3F19E0E80715D0B4
:100C700007EB04100DF1180A90E80E008AE80E0048
:100C8000C068F04201D1981908903246012306A9A4
:100C900003A800F027FB03AB83E807006D10641C7A
:100CA000002DE3D14FF0010332466946B8F1000F41
:100CB00003A802D000F001FB01E000F013FBC9E93A
:100CC0000001C9F808200AB0BDE8F087BC92000016
:100CD00000487047700300207546FFF7F9FFAE46E5
:100CE00005006946534620F00700854618B020B538
:100CF000FFF7B8FABDE820404FF000064FF00007BC
:100D00004FF000084FF0000B21F00701AC46ACE8B3
:100D1000C009ACE8C009ACE8C009ACE8C0098D4620
:100D2000704710B50446AFF300802046BDE8104080
:100D3000FFF783BA4FF0013C50F8042B51F8043B05
:100D40009A4221D1A2EB0C03934313EACC1317D19F
:100D500050F8042B51F8043B9A4215D1A2EB0C0336
:100D6000934313EACC130BD150F8042B51F8043BF6
:100D70009A4209D1A2EB0C03934313EACC13DBD0C4
:100D80004FF00000704700BFD01A01BAB1FA81F1EC
:100D900001F0180122FA01F0CB40C1F12001DBB2D1
:100DA000C0B2C01A2CFA01F3D11A914311EAC3114F
:100DB000E6D1704701491820ABBEFEE726000200CD
:100DC00070475FEA400C08BF91F0000F4FEA8C2398
:100DD0004FEAC12243EA51514FEA1C5018BF00F5B7
:100DE000F0404FEA300018BF41F000415FEA6C5C10
:100DF00000F02980BCF1FF3F08BF40F08040704701
:100E0000130C06BF12044FF0100C4FF0000C130E21
:100E100004BF12020CF1080C130F04BF12010CF1F5
:100E2000040C930F04BF92000CF1020CD30F04BF0B
:100E300052000CF1010C11464FF00002A0F11F000E
:100E4000A0EB0C00704711F0004F08BF704731F065
:100E500000413FF4D5AF0B0C06BF09044FF0100C56
:100E60004FF0000C0B0E04BF09020CF1080C0B0F25
:100E700004BF09010CF1040C8B0F04BF89000CF1B5
:100E8000020CCB0F04BF49000CF1010CCCF1200384
:100E9000A0EB0C0022FA03F302FA0CF241EA030180
:100EA00000F10100704720F07F4C80EA030023F03E
:100EB0007F47ACEB070303F57C5300F0004003F1E0
:100EC000FF032DE980494FEA154B09B44FEA14435B
:100ED00025EA0B4E24EA03480FF2042606EB1327FB
:100EE00049083E785FEA320203FB0667C7F5000750
:100EF00007FB06F64FEA54374FEAD64606F10206DC
:100F000007FB066CCCF1005C4FEA1C472CEA074C4F
:100F100007FB06F40CFB06F504EB15464FEA9616A4
:100F200034BF00204FF000404FEAD13706FB07FCEA
:100F30004FEA1C4C0CFB0BF7D21B03FB0CF761EBCD
:100F400007010CFB0EF7B0EB074072EB17420CFBEE
:100F500008F734BFA2EB0742B2EB074261EB17413F
:100F60004FEA0C444FEA910706FB07FC4FEA1C4C82
:100F70000CFB0BF7B0EBC74072EB573203FB0CF7DF
:100F800034BFA2EBC742B2EBC74261EB57310CFB57
:100F90000EF7B0EBC70072EB57720CFB08F734BFCB
:100FA000A2EBC702B2EBC70261EB5771039F4FEA96
:100FB000816141EA921104EBCC044FEAD1374FEA48
:100FC000826206FB07FC42EA90124FEA80604FEA19
:100FD0001C4C0CFB0BF7D21B03FB0CF761EB07015E
:100FE0000CFB0EF7B0EB074072EB17420CFB08F757
:100FF00034BFA2EB0742B2EB074261EB17414FEA65
:101000008C554FEA910704EB9C2406FB07FC4FEA42
:101010001C4C0CFB0BF7B0EBC74072EB573203FBD9
:101020000CF734BFA2EBC742B2EBC74261EB5731BA
:101030000CFB0EF7B0EBC70072EB57720CFB08F716
:1010400034BFA2EBC702B2EBC70261EB577115EBDD
:101050004C254FEA816141EA92114FEA82624FEAE0
:10106000D13742EA901206FB07FC44F100044FEA34
:1010700080604FEA1C4C0CFB0BF7D21B03FB0CF7F8
:1010800061EB07010CFB0EF7B0EB074072EB174268
:101090000CFB08F734BFA2EB0742B2EB074261EB4F
:1010A000174115EB1C154FEA813141EA92414FEA95
:1010B000823242EA90424FEA80304FEA0C7644F1A5
:1010C000000448EA03434EEA0B484FF0000EB2EB2F
:1010D000080C71EB030724BF624639464EEB0E0E37
:1010E0004FF0000B0018524149414BEB0B0BB2EB98
:1010F000080C71EB03077BF1000B24BF62463946F5
:101100004EEB0E0E4FF0000B0018524149414BEBD5
:101110000B0BB2EB080C71EB03077BF1000B24BF48
:10112000624639464EEB0E0E51EA020718BF46F0F2
:10113000010616EB0E7655F1000254F1000103D5BD
:10114000BDE88901BDE80088BDE88901BDE8004827
:10115000B619524141EB0101A3F1010370478080B0
:101160007F7E7D7C7B7A7978777676757473727101
:1011700071706F6E6E6D6C6C6B6A6A6968686766B9
:1011800066656464636362616160605F5F5E5E5D4B
:101190005D5C5C5B5B5A5A595958585757565655BF
:1011A00055555454535352525251515050504F4F21
:1011B0004F4E4E4D4D4D4C4C4C4B4B4B4A4A4A4971
:1011C00049494848484747474746464645454544B4
:1011D0004444444343434342424242414141002B41
:1011E0009C4630D477002BD01CB54FEA370703B4A8
:1011F0004FF010004FF01001BAF1000F06D0BCF113
:10120000000FDCBF40F0080040F008014FF0000084
:101210000FBCBDE810400BF1010BBBF1010F08BF83
:101220005FEA170722BF12F1010211F101014FF02D
:10123000004143F1000300F0004043EA0000704722
:10124000F9D35708D0E746EA064613F1400F4FEAB4
:1012500016461FDD13F1200FDFBF16430A4600219B
:1012600020335B42BED0C3F1200746EA064602FAAD
:1012700007F74FEA164646EA0706C3F1200722FAA7
:1012800003F201FA07F721FA03F14FF0000342EAF3
:101290000702A7E746EA020646EA06464FEA16466E
:1012A00046EA0106BCBF46EA0646360C4FF000038C
:1012B0004FF000024FF0000194E72DE9804C9A4670
:1012C000934670B491E8380007C831EA400C48BF33
:1012D00034EA430C03D5FFF7E6FDFFF780FFF0BCCF
:1012E000BDE8008C2DE9804C9A46934670B491E895
:1012F000380007C810F0804F08BF13F0804F03D1AB
:1013000000F005F8FFF76BFFF0BCBDE8008C20F0A3
:101310007F4780EA030023F07F4C07EB0C03A3F523
:101320007C5300F00040A3F1FE0392F0000F00F0A8
:10133000B38095F0000F00F077802DE901494FEA66
:1013400011404FEA144621EA004800FB06FC24EA5B
:10135000064708FB06F607FB08F800FB07F718EB43
:1013600006484CEB164C4FEA124B18EB07484FEA75
:1013700015464CEB174022EA0B4E0BFB06FC25EA08
:1013800006470EFB06F607FB0EFE0BFB07F71EEBF0
:10139000064E4CEB164C4FF000061EEB074E4CEB86
:1013A000174B18EB0B0840F1000018EB0E0B58EB35
:1013B000000840F100008F1A4FF000013CBFC94304
:1013C000661B14BFB5EB040C00213CBFC943F61BE0
:1013D0004FEA17444EEA8E0E27EA04454FEA1C47AF
:1013E00004FB07622CEA074C05FB07F70CFB05F62C
:1013F00004FB0CFC16EB074642EB174216EB0C46BF
:1014000042EB1C421BEB060658EB0202414146EA46
:101410009E0601D5BDE80189B619524141EB010193
:10142000A3F10103BDE801894FEA14454FEA1147D2
:1014300024EA054621EA074C05FB07F406FB07F7FB
:101440000CFB06F105FB0CFC11EB074144EB1744C8
:101450004FEA124711EB0C4144EB1C4422EA074CC3
:1014600005FB07F206FB07F70CFB06F605FB0CFC79
:1014700016EB074642EB174216EB0C4642EB1C45B7
:101480006A1854F1000148BF7047B619524141EB48
:101490000101A3F10103704795F0000F37D04FEA27
:1014A00011424FEA144721EA024624EA074C02FBA4
:1014B00007F106FB07F70CFB06F402FB0CFC14EB30
:1014C000074441EB17414FEA154714EB0C4441EB3D
:1014D0001C4125EA074C02FB07F506FB07F70CFB4E
:1014E00006F602FB0CFC16EB074645EB174516EB20
:1014F0000C4645EB1C42121951F1000148BF7047E0
:10150000B619524141EB0101A3F1010370474FEAC3
:1015100014454FEA114724EA054621EA074C05FB2A
:1015200007F106FB07F70CFB06F24FF0000605FB80
:101530000CFC12EB074241EB174112EB0C4251EB52
:101540001C4148BF7047921841EB0101A3F1010310
:1015500070470000012812D80A4900EB400201EB55
:10156000C200437C5BB1037C3BB140690068406AC8
:1015700031F8321000EB014070478068704700205E
:101580007047000040030020012807D8054900EB00
:10159000400001EBC00090ED030A70479FED020A86
:1015A00070470000400300200000000030B51349E0
:1015B000002200BF02EB420301EBC304657CBDB116
:1015C000257CADB1646905682468AC4210D102EB9A
:1015D000420001EBC000406900680068C00651F895
:1015E000330001D5401E00E0401C41F8330030BDFF
:1015F000521CD2B2012ADDD930BD000040030020C8
:1016000070B5184C16482DED028B606101F071FC2D
:10161000607400252574A56065609FED138A2560C0
:1016200084ED038A1148E06201F063FC84F829002C
:1016300084F828502562E5610D48A56184ED098A8A
:10164000002809D00068002806D0BDEC028B0848AD
:10165000BDE8704000F0E6BFBDEC028B70BD00003D
:10166000380100204003002000000000B0020020EC
:1016700080010020012806D8044900EB400001EB5E
:10168000C000007C7047002070470000400300202D
:1016900010B5012818D800EB40010C4800EBC1043C
:1016A000607C002810D0207C00280DD13C2160698E
:1016B00001F084F8002807D160690068C16841F032
:1016C0000101C1600120207410BD00004003002012
:1016D00010B5012819D80D4900EB400201EBC204F6
:1016E000617C002911D0217C00290ED0FFF732FF48
:1016F000A0603C21606901F0A8F860690068C168D9
:1017000021F00101C1600020207410BD40030020C1
:1017100070B5164E9FED160A002400BF04EB44007E
:1017200006EBC005687CD0B1287CC0B12046FFF72D
:1017300011FF6968411A0ED000EE901A9FED0D1A44
:10174000F8EEE00A60EE810A9FED0B1AC0EE811AF6
:10175000C5ED031A01E085ED030A686001E085ED3F
:10176000030A641CE4B2012CD8D970BD40030020E8
:1017700000000000000016440000C3440648016851
:10178000002908D0C868002805D0098A002902D09D
:10179000012200F06ABA704738000020002803D008
:1017A0000249086000F04CB8704700003800002083
:1017B00010B5114C2268002A1CD038B101280FD076
:1017C000022817D1BDE8104000F03AB8D2E9000174
:1017D00001F026FA206803C8BDE8104000F0A2BE60
:1017E000D2E9000101F080FA206803C8BDE810408A
:1017F00000F038BE10BD0000380000200F49096815
:10180000002910D0642800D964208A686423B2FBC0
:10181000F3F24243486838B1042809D00828086820
:10182000006809D002647047086800684263704726
:101830000868006882637047C26370473800002000
:1018400010B5154C216800291BD0C868002818D095
:10185000098A002915D0002200F007FA206803C881
:1018600001F042FA206803C800F05CFE2068002105
:1018700042683AB1042A09D00068082A006809D0F1
:10188000016410BD00680068416310BD0068006815
:10189000816310BDC16310BD38000020FEE7000069
:1018A00007480168C90103D4016841F080710160F3
:1018B000044800214160016841F001010160704766
:1018C000FCED00E0001000E0704772B6FEE700009B
:1018D00030B5B3F5804F05D06FF0704140F822105D
:1018E000002030BD8C690B688D6823434C68898962
:1018F000240144EA0524234343EA014150F82230FD
:10190000014C23401943E9E70000F0CF10B50A6805
:1019100050F8223023F0010340F822308C68082C64
:1019200023D000234A682243CC681C430B6922431E
:101930001A434B690E4C1A43CB691A430B6A1A437C
:101940004B6A1A438B6A1A43CB6A1A430B6B1A43CE
:101950008B691343CA6B09681A4350F82130A343BB
:10196000134340F82130002010BD4023DAE7000087
:101970007FFF0F0030B5D1E9003443EA04138C68CF
:101980008D89240244EA054423430C8A074D00EB69
:10199000820005EB045423430C7D6D0105EB0464C8
:1019A000896923430B434360002030BD0000F0FFF2
:1019B00070B5044600F05EF90546601C02D004488C
:1019C0000078044400F056F9401BA042FAD370BDE1
:1019D00024000020F0B587B014216846FEF7CCFD46
:1019E0001A48016800292FD10121016018480024FC
:1019F000016841F0010101600068022500F001006A
:101A0000059041F20100CDE9000502AA03260C274A
:101A100082E8D00069460F4800F022F84FF6807047
:101A2000CDE9000502AA694682E8D0000A4800F024
:101A300017F84CF23370CDE9000502AA694682E836
:101A4000D000064800F00CF807B0F0BD1C000020E4
:101A5000383802400018024000100240000C0240DA
:101A60002DE9F84FDFF8BCA10022012503264FF035
:101A70000F090AF1040BAAF1040E00BF0B6805FA66
:101A800002F42340A34270D10F7907F00307012F1E
:101A900001D0022F16D187684FEA420806FA08FCE7
:101AA00027EA0C07D1F80CC00CFA08FC4CEA070C2A
:101AB000C0F808C04768A7430C79C4F300149440E9
:101AC0003C4344600C79E443A4070AD0C4684FEA5D
:101AD000420C06FA0CF7BC438F6807FA0CF7274351
:101AE000C7600C7904F00304022C12D1D40800EB77
:101AF000840CDCF820405707FF0E09FA07F824EAA7
:101B00000804D1F8108008FA07F848EA0408CCF86D
:101B1000208004684FEA420C06FA0CF7BC430F79A8
:101B200007F0030707FA0CF7274307604C6814F423
:101B3000403F70D03C4C276847F4804727602468BA
:101B400022F0030704F480440094384C07EB040CA3
:101B5000DCF8084897074FEA177809FA08F7BC43FA
:101B6000334FB84202D1002724E054E0314FB8424D
:101B700001D101271EE0304FB84201D1022719E000
:101B80002E4FB84201D1032714E02D4FB84201D1A6
:101B900004270FE02B4FB84201D105270AE02A4F56
:101BA000B84201D1062705E0284FB84201D10727E6
:101BB00000E0082707FA08F72743CCF80878DAF896
:101BC00000405746D1F804C09C435FEACC2C00D5B6
:101BD0001C433C60DBF800405F46D1F804C09C43E6
:101BE0005FEA8C2C00D51C433C60DEF80040774651
:101BF000D1F804C09C435FEA8C3C00D51C433C6098
:101C0000084F083F3C68D1F804C09C435FEACC3CD5
:101C100000D51C433C60521C102AFFF42FAFBDE8D6
:101C2000F88F0000083C0140443802400030014079
:101C3000000002400004024000080240000C024084
:101C4000001002400014024000180240001C024034
:101C50000069084000D001207047426921EA020370
:101C60000A4043EA0241816170470AB181617047CD
:101C70000904FBE701488068704700002400002049
:101C80000248816802781144816070472400002076
:101C90000B4810B5016841F400710160016841F41E
:101CA00080610160016841F480710160032000F0EF
:101CB0006FF80F2000F006F800F024F8002010BDA7
:101CC000003C024070B50D4D04464FF47A712878FF
:101CD000B1FBF0F00A490968B1FBF0F000F03AFB03
:101CE00048B9102C07D200222146501E00F030F8CF
:101CF00000206C6070BD012070BD00002400002039
:101D0000300000200A4808B5016841F480410160B4
:101D1000006800F4804000900548001F016841F011
:101D200080510160006800F08050009008BD000004
:101D300044380240002809DB00F01F0201219140D5
:101D40004009800000F1E020C0F800117047000059
:101D5000F0B40E4B1B680C46C3F30223C3F1070516
:101D6000042D00D90425191D072901D2002300E004
:101D7000DB1E012606FA05F1491E214099409E40CE
:101D8000761E16403143F0BC01F063BD0CED00E05F
:101D9000064900F0070208684FF6FF03184040EAC2
:101DA0000220034A10430860704700000CED00E079
:101DB0000000FA052DE9F0470E46050065D0DFF872
:101DC0001481D8F80000F7B200F00700B04207D243
:101DD00088F80070D8F8000000F00700B04254D135
:101DE00028683D4C810712D5400703D5206840F490
:101DF000E05020602878000703D5206840F4604058
:101E000020602068A96820F0F0000843206028784E
:101E1000C0072DD0304968680839012812D002283F
:101E200013D0032811D00968890700292DDA216809
:101E300021F0030101432160FFF71CFF814641F2BD
:101E4000883A0EE009688903EFE709688901ECE741
:101E5000FFF710FFA0EB0901514502D90320BDE8AF
:101E6000F0872068696800F00C00B0EB810FEFD1BB
:101E7000D8F80010404601F00701B14207D90770B9
:101E8000006800F00700B04201D00120E7E72878A1
:101E9000400705D52068E96820F4E0500843206039
:101EA0002878000706D52068296920F4604040EAB8
:101EB000C100206000F038F82168084AC1F303111E
:101EC000515CC8400649086006480068FFF7FAFE02
:101ED0000020C4E7003C024008380240A46E00081D
:101EE00030000020280000200448054900680968E7
:101EF000044AC1F38221515CC84070473000002081
:101F000008380240B46E00080448054900680968B2
:101F1000044AC1F34231515CC84070473000002090
:101F200008380240B46E0008154810B5006810F07B
:101F30000C02144813D04110042A0FD0082A0ED1E5
:101F40000F4C241F2268236802F03F025B0207D572
:101F50002068C0F38810A0FB010106E0084610BD10
:101F60002168C1F38811A1FB00010023FEF78CF961
:101F70002168C1F30141491C4900B0FBF1F010BDDB
:101F8000083802400024F4002DE9F84F04006ED018
:101F90002078DFF84C93C007A9F104054AD009F175
:101FA00004000168C1F38101012908D00068C0F371
:101FB000810002280AD1D9F80000400206D528681D
:101FC000800337D560680028E1D033E06068B0F561
:101FD000803F10D0B0F5A02F286810D020F48030BA
:101FE0002860286820F4802028606068A8B1FFF786
:101FF00041FE06460DE0286840F48030F4E740F4E6
:1020000080202860F7E700BFFFF734FE801B6428BC
:1020100073D828688003F7D50CE0FFF72BFE06463F
:1020200005E000BFFFF726FE801B6428F0D8286873
:102030008003F7D42078DFF8AC8280074FF0000AE5
:102040003ED5A748001D016811F00C0F08D00068AC
:10205000C0F3810002280BD1D9F80000400207D458
:102060002868800716D5E068012800D112E033E126
:10207000E068B8B10120C8F80000FFF7FBFD064694
:1020800005E000BFFFF7F6FD801B0228C0D82868D6
:102090008007F7D52868216920F0F80040EAC100E0
:1020A00028600DE0C8F800A0FFF7E4FD064604E054
:1020B000FFF7E0FD801B02281FD828688007F7D4AF
:1020C0002078000722D5864F87486169703771B143
:1020D00001210160FFF7CEFD064604E0FFF7CAFDCF
:1020E000801B022809D838688007F7D50EE0C0F8B1
:1020F00000A0FFF7BFFD064605E082E0FFF7BAFD4E
:10210000801B02287DD838688007F7D420784007E4
:1021100068D5DFF8CCB100270BF13C0BDBF80000F1
:10212000C0000BD4DBF8001041F08051CBF8001058
:10213000DBF80000012700F0805000906B4E306803
:10214000C00510D4306840F480703060FFF792FD15
:10215000009005E0FFF78EFD0099401A022850D844
:102160003068C005F6D55E4EA0686C3601280FD0E9
:102170000528306810D020F001003060306820F071
:1021800004003060A068B8B1FFF774FD00900FE064
:10219000306840F00100F4E740F004003060F7E7F9
:1021A000FFF768FD0099411A41F28830814266D8F4
:1021B00030688007F4D50EE0FFF75CFD009007E083
:1021C000FFF758FD0099411A41F28830814256D8F4
:1021D00030688007F4D42FB1DBF8001021F0805173
:1021E000CBF80010A069C8B33D49091D0968C1F3C7
:1021F000810102294AD00228504607D0C8F8600061
:1022000000E03CE0FFF736FD04463BE04746C8F8F7
:102210006000FFF72FFD064605E000BFFFF72AFD2F
:10222000801B02282BD828688001F7D4D4E9070145
:102230000843A16A2E4A490802EB0141626A41EA59
:102240008211084394F82C1040EA0161C9F800108B
:1022500001203866FFF70EFD044606E03EE000BFB1
:10226000FFF708FD001B022809D828688001F7D570
:1022700034E000BFFFF7FEFC001B022802D9032058
:10228000BDE8F88F28688001F4D427E00128F7D052
:10229000D9F80000E26900F4800191421CD1226A61
:1022A00000F03F01914217D147F6C071626A0140C8
:1022B000B1EB821F10D1A26A4FF0FF3300F440311E
:1022C00003EB5202B1EB024F06D194F82C1000F050
:1022D0007060B0EB016F01D00120D1E70020CFE7A3
:1022E0000438024000004742800E47420070004020
:1022F0000000FFFF70B515460E46040003D094F8A9
:10230000490010B107E0012070BD002084F84800AA
:10231000204600F01DF804F108012068FFF7F6FAE6
:102320003146A2682068FFF725FBD4E9010229465F
:10233000236BFFF7CDFA2168A06851F8202042F006
:10234000010241F82020012084F84900002070BDDE
:10235000FFF740BB10B5401EB0F1807F01D30120D4
:1023600010BD4FF0E02460610F21601701F071FA99
:102370000020A06107202061002010BD7047704739
:1023800010B590F83C20012A22D0012280F83C2090
:10239000CA688C6822F4407222434C6822F480623E
:1023A00022430C6822F4006222430C6922F480521A
:1023B00022434C6922F400522243C969002322F4CB
:1023C00080420A4301684A6480F83C30002010BD16
:1023D000022010BD70B590F83C20012A32D00124B3
:1023E00080F83C40022280F83D2003685A689D68CE
:1023F00022F070060A6832435A60134B02689A4210
:1024000014D0B2F1804F11D0104B9A420ED0104B25
:102410009A420BD00F4B9A4208D00F4B9A4205D0EC
:102420000E4B9A4202D00E4B9A4204D1496825F0D5
:1024300080031943916080F83D40002180F83C10F2
:10244000084670BD022070BD00000140000400403D
:1024500000080040000C0040000401400040014022
:102460000018004010B50446022249B104290ED0DC
:10247000082913D094F84500012816D0012010BD7A
:1024800094F842000128F9D184F842200FE094F832
:1024900043000128F2D184F8432008E094F8440076
:1024A0000128EBD184F8442001E084F8452004227F
:1024B000206801F060F82068416C41F400414164FB
:1024C00011492068884214D0B0F1804F11D00F49D3
:1024D00088420ED00E4988420BD00E49884208D05F
:1024E0000D49884205D00D49884202D00C498842E6
:1024F00004D1816801F00701062903D0016841F089
:1025000001010160002010BD0000014000040040F6
:1025100000080040000C0040000401400040014061
:102520000018004070B504460D460068002201F016
:1025300022F82068036A41F211110B4240F2444232
:1025400006D1036A134203D1436C23F4004343646E
:102550002068036A0B4206D1016A114203D1016867
:1025600021F00101016001203DB1042D08D0082DAA
:1025700009D084F84500002070BD84F84200FAE7D5
:1025800084F84300F7E784F84400F4E710B504004A
:1025900003D094F83D0010B107E0012010BD0020E9
:1025A00084F83C00204600F01FF8022084F83D002B
:1025B000211D206800F06AFF012084F8460084F89D
:1025C0003E0084F83F0084F8400084F8410084F81D
:1025D000420084F8430084F8440084F8450084F8FD
:1025E0003D00002010BD000008B500680B4988427E
:1025F00012D10B48016841F010010160006800220F
:1026000000F01000009003213620FFF7A1FBBDE889
:1026100008403620FFF78EBB08BD000000100040C8
:102620004038024090F83D10012901D00120704748
:10263000022180F83D100168CA6842F00102CA60B8
:1026400000681149884214D0B0F1804F11D00F4971
:1026500088420ED00E4988420BD00E49884208D0DD
:102660000D49884205D00D49884202D00C49884264
:1026700004D1816801F00701062903D0016841F007
:10268000010101600020704700000140000400408B
:1026900000080040000C00400004014000400140E0
:1026A000001800402DE9F0410D46040003D094F8D5
:1026B0003D0018B108E00120BDE8F081002084F859
:1026C0003C00204600F040F8022084F83D002068DD
:1026D000816844F2070291438160211D206800F067
:1026E000D5FE226890689169166A2B68AF6903432A
:1026F00040F20330814341EA0721A868EF690843AB
:102700004FF6FC418843E96840EA07200143286905
:102710002F6A000140EA0730084369686D6926F0B6
:10272000AA0646EA0515294393602268906154F889
:10273000460B0162012004F81F09E0752076E0765F
:102740002077A0750020B7E710B586B004461421A5
:102750006846FDF711FF16492068884226D11548C2
:102760000021026842F002020260006800F00200EC
:10277000059010481038026842F0040202600068B8
:1027800000F004000590C02000900220CDE9010176
:102790000390049069460848FFF762F9002202217D
:1027A0001D20FFF7D5FA1D20FFF7C4FA06B010BDB3
:1027B00000040040403802400008024070B590F824
:1027C0003E60044690F83F5090F8423090F8432025
:1027D000022021B104290ED0012E1BD114E0012EBC
:1027E00018D1012B16D184F83E0084F84200012252
:1027F0000021206820E0012D0CD1012A0AD184F8A3
:102800003F0084F8430014E0012D03D1012B01D1D6
:10281000012A01D0012070BD84F83E0084F83F00F9
:1028200084F8420084F8430001220021206800F06F
:1028300095FE01220421206800F090FE20680168C6
:1028400041F001010160002070BD30B50446006810
:102850000D0023D0042D04D00022114600F07EFE8E
:1028600020680022042100F079FE2068016A41F20C
:102870001112114207D1016A9210114203D101686D
:1028800021F00101016001205DB1042D0DD004F89B
:102890003E0F607020716071002030BD0022114633
:1028A000E1E704F83E0F2071F6E704F83F0FFAE77E
:1028B00070472DE9F04104460068C66805694FF08D
:1028C0000007A90713D5B10711D5F91E0161012031
:1028D0002077206880698007204602D0FFF7E8FF54
:1028E00004E000F0E7F8204600F098F92777680741
:1028F00016D5700714D521686FF004000861022016
:1029000020772068806910F4407F204602D0FFF7CE
:10291000CFFF04E000F0CEF8204600F07FF92777E3
:10292000280715D5300713D521686FF00800086116
:10293000042020772068C0698007204602D0FFF776
:10294000B7FF04E000F0B6F8204600F067F92777FB
:10295000E80616D5F00614D521686FF0100008615E
:10296000082020772068C06910F4407F204602D0FC
:10297000FFF79EFF04E000F09DF8204600F04EF9BE
:102980002777E80708D0F00706D021686FF001002C
:102990000861204600F0E6F9280608D5300606D57D
:1029A00021686FF0800008612046FFF7E7FC6806A9
:1029B00008D5700606D521686FF0400008612046F2
:1029C00000F02CFAA8060AD5B00608D521686FF0E9
:1029D000200008612046BDE8F041FFF7D0BCBDE80B
:1029E000F081000070B586B0044614216846FDF7FA
:1029F000C3FD294B226800242848591402259A4215
:102A000020D1026842F002020260026802F0020273
:102A10000592026842F00102026000680091CDE96F
:102A2000015400F001000126CDE9046069460394D9
:102A30001B48FFF715F8E8010090CDE901546946FD
:102A4000184822E0184B9A4223D1026842F08002D3
:102A50000260026802F080020592026842F480720D
:102A6000026000680091CDE9015400F480700326F3
:102A7000CDE90460694603940C48FEF7F1FF20207D
:102A80000090CDE901540A486946CDE90346FEF7B6
:102A9000E7FF06B070BD0000000001403038024082
:102AA000000402400000024000040140001C0240FB
:102AB00000200240704770B5044690F83C000026A4
:102AC0000D4601280FD0012084F83C006AB1042A89
:102AD0001DD0082A2FD00C2A3FD00126002084F8D0
:102AE0003C00304670BD022070BD206800F050FDF3
:102AF0002068816941F0080181612068816921F0C5
:102B000004018161206881692A69114311E020680C
:102B100000F06EFD2068816941F4006181612068E8
:102B2000816921F480618161206881692A6941EAB3
:102B300002218161D2E7206800F090FD2068C16920
:102B400041F00801C1612068C16921F00401C1613F
:102B50002068C1692A69114311E0206800F0B2FDC4
:102B60002068C16941F40061C1612068C16921F434
:102B70008061C1612068C1692A6941EA0221C1619D
:102B8000ACE710B5040003D094F83D0010B107E0A5
:102B9000012010BD002084F83C00204600F01EF803
:102BA000022084F83D00211D206800F06FFC012008
:102BB00084F8460084F83E0084F83F0084F8400022
:102BC00084F8410084F8420084F8430084F844000B
:102BD00084F8450084F83D00002010BD08B50C4A7B
:102BE00001680C48914207D1016841F00101016080
:102BF000006800F0010009E0074A914207D101682E
:102C000041F002010160006800F00200009008BD80
:102C100000000140443802400004014070470000B9
:102C200010B50446022249B104290ED0082913D058
:102C300094F84100012816D0012010BD94F83E0000
:102C40000128F9D184F83E200FE094F83F000128D4
:102C5000F2D184F83F2008E094F840000128EBD13D
:102C600084F8402001E084F841200122206800F02F
:102C700075FC16492068164A884201D0904203D15B
:102C8000436C43F4004343642068884213D0B0F19E
:102C9000804F10D00F4988420DD00F4988420AD08A
:102CA0000E49884207D0904205D00D49884202D093
:102CB0000C49884204D1816801F00701062903D03C
:102CC000016841F001010160002010BD00000140D9
:102CD000000401400004004000080040000C0040D7
:102CE000004001400018004030B504460D46006821
:102CF000002200F033FC194B41F2111120688A10B8
:102D0000984202D0164B984209D1036A0B4206D171
:102D1000036A134203D1436C23F4004343642068E5
:102D2000036A0B4206D1016A114203D1016821F006
:102D30000101016001203DB1042D08D0082D09D00A
:102D400084F84100002030BD84F83E00FAE784F8A2
:102D50003F00F7E784F84000F4E70000000001407E
:102D600000040140FEB504461E4A01681E481F25A6
:102D700018264FF4C87791421AD0B1F1804F17D07E
:102D80001A4A91422CD1426819A1521C42601D4836
:102D9000FDF7F2FA1B480096CDE9010518233A46E3
:102DA000DC210A2003F0FCFCBDE8FE40FEF7B0BCCD
:102DB000026815A1521C026012483238FDF7DCFA95
:102DC000104800963238CDE9010518233A46B4215F
:102DD0000A2003F0E5FC2046BDE8FE40FEF7E6BB16
:102DE000FEBD000000040040000000200010004074
:102DF00054494D20436F756E74323A20256420206B
:102E0000200000006E00002054494D20436F756E75
:102E100074313A202564202020000000704770B5EE
:102E2000040004D094F84100002510B106E0012010
:102E300070BD84F84050204600F024F8242084F827
:102E400041002068C16821F40051C160204600F0B3
:102E500061FC2068016921F49041016120684169A9
:102E600021F02A0141612068C16841F40051C1602C
:102E70006564202084F8410084F8420065630020E6
:102E800070BD000010B586B0044614216846FDF7F9
:102E900073FB14492068884221D11348002102683D
:102EA00042F010020260006800F0100005900E4829
:102EB0001438026842F001020260006800F001006C
:102EC00005904FF4C06000900220CDE9010103207D
:102ED00003900720049069460448FEF7C1FD06B040
:102EE00010BD0000001001404438024000000240C4
:102EF000FEE718B1006808B1012070470020704754
:102F0000054808B5016841F010010160006800F053
:102F10001000009008BD00003038024010B5214C70
:102F200004212046FEF794FE50B108212046FEF70A
:102F30008FFEA8B110212046FEF78AFE00B327E0DD
:102F40000A20FEF735FD04212046FEF781FEF8B980
:102F500004212046FEF77CFE0028F9D0012010BD98
:102F60000A20FEF725FD08212046FEF771FE78B9FC
:102F700008212046FEF76CFE0028F9D0022010BD83
:102F80000A20FEF715FD10212046FEF761FE08B16C
:102F9000042010BD10212046FEF75AFE0028F9D06B
:102FA000032010BD00100240054808B5016841F03B
:102FB00010010160006800F01000009008BD0000E2
:102FC00030380240054A28B1012805D102211046B7
:102FD000FEF743BE0121FAE77047000000100240EF
:102FE00000B58FB01C216846FDF7C6FA1C2107A862
:102FF000FDF7C2FA1B484FF02041102201601A4928
:103000004160062181600021C160C0E90412816134
:10301000C16113020162C0E909139302C0E90B13F5
:10302000416381634164022000900F200523CDE9B4
:1030300001030DF10C0C11238CE80E000691CDE973
:1030400007100DF1240CFF208CE80F000D9107AA4A
:1030500069460448FFF74EF9002801D0FEF735FC19
:103060000FB000BDA0000020040100A02DE9F04732
:1030700086B014216846FDF77FFA434800240168B2
:1030800041F010010160016801F010010591016833
:1030900041F020010160016801F020010591016803
:1030A00041F080010160016801F080010591016833
:1030B00041F040010160016801F0400105910168A3
:1030C00041F002010160016801F00201059101680F
:1030D00041F008010160016801F0080105910168F3
:1030E00041F004010160016801F0040105910168EB
:1030F00041F001010160016801F0010105910168E1
:1031000041F4807101600068DFF8808000F4807015
:1031100040F204460590002231464046FEF7A5FDE8
:10312000DFF86C904FF40077002239464846FEF7EE
:103130009CFDDFF860A0012203215046FEF795FDBB
:103140001C2001258DE8310069465046FEF788FCB9
:103150000096CDE90154694640460394FEF780FC91
:103160000097CDE90154694648460394FEF778FC80
:1031700003200090CDE90154694650460394FEF7C0
:103180006FFC06B0BDE8F087303802400014024002
:10319000001C02400010024010B592B000240F94B1
:1031A0001C2108A81094FDF7E7F920216846FDF7D7
:1031B000E3F920481E490160A721C0E9011440F24B
:1031C000E731C0E9031444618461FFF7DAFC08B118
:1031D000FEF77BFB0F940FA916481094FFF7FAF83F
:1031E00008B1FEF772FB6020CDE908040A940B9445
:1031F0000C940D94002208A90E480E94FFF75BFC76
:1032000008B1FEF762FB00944FF40050CDE9044092
:10321000029401940394694606480794FFF7B0F8B6
:1032200008B1FEF752FB0348FFF7DCFB12B010BDFC
:1032300000000140F000002010B58CB02421684649
:10324000FDF79AF900241648099414490A94C0E934
:1032500000144FF6FF71C0E902410461846103204C
:10326000CDE900040120CDE902040494CDE9054034
:10327000079469460A480894FFF714FA08B1FEF764
:1032800024FB099409A906480A94FFF7A3F800282B
:1032900001D0FEF71AFB0CB010BD00000004004086
:1032A000380100201CB500240F4800940D490194FA
:1032B000016042F2CF01C0E9011440F2E7318461BC
:1032C000C160FFF763F908B1FEF7FFFA00946946A1
:1032D00005480194FFF77EF8002801D0FEF7F5FAC3
:1032E0001CBD0000001000408001002010B592B00D
:1032F00000240F941C2108A81094FDF73DF920210B
:103300006846FDF739F920481E490160A721C0E948
:10331000011440F2E731C0E9031444618461FFF70E
:1033200030FC08B1FEF7D1FA0F940FA9164810949B
:10333000FFF750F808B1FEF7C8FA6020CDE908049D
:103340000A940B940C940D94002208A90E480E9434
:10335000FFF7B1FB08B1FEF7B8FA00944FF4005044
:10336000CDE9044002940194039469460648079409
:10337000FFF706F808B1FEF7A8FA0348FFF732FB9B
:1033800012B010BD00040140C80100200C4810B567
:103390000A4901604FF4E1314160002181600C2253
:1033A000C160C0E904128161C161FFF738FD0028E6
:1033B00003D0BDE81040FEF788BA10BD00100140F0
:1033C00010020020FEE7FEE770477047FEF758BC8A
:1033D00030B593B030216846FDF7CEF814210CA823
:1033E000FDF7CAF81D480025016841F080510160D1
:1033F000006800F0805011901948016841F4804144
:1034000001600068022400F48040119001200390C4
:1034100010200490009406940820CDE90750A820BD
:10342000CDE9090404200B906846FEF7ADFD08B114
:1034300072B6FEE70CA90F2081E831004FF4A050CE
:103440000F904FF48050109005210CA8FEF7B2FCAD
:10345000002801D072B6FEE713B030BD40380240FC
:10346000007000400248016841F47001016070473B
:1034700088ED00E00148FFF71CBA00003801002089
:103480000148FFF716BA000080010020F0B502687D
:10349000274B284D284E294F294C4FF0804C9842FD
:1034A00009D0604507D0A84205D0B04203D0B84249
:1034B00001D0A04204D122F0700E4A6842EA0E0206
:1034C00098421BD0604519D0A84217D0B04215D001
:1034D000B84213D0A04211D01A4DA8420ED01A4DB6
:1034E000A8420BD0194DA84208D0194DA84205D0CA
:1034F000184DA84202D0184DA84203D122F44075BD
:10350000CA682A434D6922F080022A438D68C56249
:103510000D688562984201D0A04201D1096901631A
:10352000016841F004010160012141610260F0BDC8
:10353000000001400004004000080040000C004072
:1035400000040140004001400044014000480140A7
:1035500000180040001C00400020004010B501F0A1
:103560001F030121046A99408C430462016A9A4056
:103570001143016210BD10B501F00F030421046A6C
:1035800099408C430462016A9A401143016210BD64
:10359000F0B5036A026A22F001020262426884699D
:1035A000124E24F073050C682C4323F002058B683F
:1035B0002B430D4DA84201D0B04205D123F008079E
:1035C000CB683B4323F00403A84201D0B04205D1AD
:1035D0004D6922F4407215438A692A43426084612E
:1035E000496841630362F0BD0000014000040140EE
:1035F000F0B5026A036A23F010030362436884692A
:103600000D6824F4E64444EA05248D6822F0200283
:1036100042EA05120F4D104EA84201D0B04206D129
:10362000CF6822F0800242EA071222F04002A8424C
:1036300001D0B04207D14D6923F4406343EA8503CA
:103640008D6943EA8503436084614968816302624E
:10365000F0BD00000000014000040140F0B5026A26
:10366000036A23F4807303624368C46922F400721E
:1036700024F073050C68124E2C438D6842EA052233
:103680000E4DA84201D0B04206D1CF6822F40062AC
:1036900042EA072222F48062A84201D0B04207D158
:1036A0004D6923F4405343EA05138D6943EA05133A
:1036B0004360C4614968C1630262F0BD000001401B
:1036C0000004014030B5046A026A22F480520262AA
:1036D0004268C3690D6823F4E64343EA05238D6815
:1036E00024F4005444EA0534084DA84202D0084DA1
:1036F000A84204D14D6922F4804242EA8512426018
:10370000C36149680164046230BD000000000140EB
:103710000004014070B5044600680169E26821F4C4
:103720004051114301612169A068E2690843616960
:10373000114308432168CA6849F20C639A43024363
:10374000CA6020684169A26921F440711143416156
:1037500031492068884202D03049884202D1FEF7C0
:10376000D3FB01E0FEF7C0FBE269002319216425C9
:103770003226B2F5004F626828D0A0FB0101930FFA
:103780009200FCF781FD0146B0FBF5F06FF01802E6
:10379000504301EB800006EB0010B0FBF5F000F0A9
:1037A000F002B1FBF5F002EB0012B1FBF5F06FF0A7
:1037B0001803584301EB800006EB0010B0FBF5F056
:1037C00000F00F0021681044886070BDA0FB01016B
:1037D00092185B41FCF758FD0146B0FBF5F0020181
:1037E000B1FBF5F06FF01803584301EB800006EBD6
:1037F000C000B0FBF5F000F0F80002EB4002B1FBB6
:10380000F5F0584301EB800006EBC000B0FBF5F08B
:1038100000F00700D6E7000000100140001401404E
:10382000FEE703B401984100009850EAC12018BF98
:1038300004204A0D18BF40F0010040F2FF72B2EBC5
:10384000515F08BF40F00200012808BF052002B008
:1038500070470907090E002804DB00F1E02080F81A
:103860000014704700F00F0000F1E02080F8141DF4
:10387000704730380A2801D2012070470020704775
:10388000074A10B553680749074C0968B1FBF4F1C2
:10389000414300E000BF5068C01A8842FAD310BD0F
:1038A000001000E03000002040420F0070B50949D0
:1038B0000646002408884D8821464543204602F0EC
:1038C00087FE02F0D9FF044801E00680641CAC4288
:1038D000FBD370BD580200200008006C2DE9F04FAA
:1038E00038492C260A46887192884FF4305A4FF492
:1038F000285B41F6631E2B274FF02A0C4FF0F0088F
:1039000045F210594FF448754FF4A0744FF4F0731A
:1039100058B10C80A1F802804A4530D1A1F808A026
:10392000A1F80AB03802888141E0A1F800804C80FB
:103930004A4507D1A1F808A0A1F80AB04FF42C50CD
:10394000888105E072450E8105D14F81A1F80CC038
:103950000B804D8002E0A1F80AC08F81A2F5A6403D
:10396000103803D0A2F5EE40963801D10C804B8080
:10397000A2F5184006381FD10B804D801CE072451F
:1039800011D0A2F5184006380DD00E81A1F80AC05A
:10399000A1F80C70A2F5A64010380BD0A2F5EE40AD
:1039A000963807D008E00E81A1F80AC08F810D80FB
:1039B0004B80EFE70B804C80BDE8F04F032002F016
:1039C00045BD00005802002010B5144602F000FE6C
:1039D00002F052FF0148048010BD00000008006C96
:1039E00010B5CF2002F03CFF002002F02DFFC120D7
:1039F00002F02AFF302002F027FFED2002F030FF16
:103A0000642002F021FF032002F01EFF122002F0CA
:103A10001BFF812002F018FFE82002F021FF852023
:103A200002F012FF102002F00FFF7A2002F00CFFCC
:103A3000CB2002F015FF392002F006FF2C2002F007
:103A400003FF002002F000FF342002F0FDFE022000
:103A500002F0FAFEF72002F003FF202002F0F4FE4D
:103A6000EA2002F0FDFE002002F0EEFE002002F04F
:103A7000EBFEC02002F0F4FE1B2002F0E5FEC120A8
:103A800002F0EEFE012002F0DFFEC52002F0E8FEAB
:103A9000302002F0D9FE302002F0D6FEC72002F01E
:103AA000DFFEB72002F0D0FE362002F0D9FE48201B
:103AB00002F0CAFE3A2002F0D3FE552002F0C4FE06
:103AC000B12002F0CDFE002002F0BEFE1A2002F06E
:103AD000BBFEB62002F0C4FE0A2002F0B5FEA22012
:103AE00002F0B2FEF22002F0BBFE002002F0ACFEBB
:103AF000262002F0B5FE012002F0A6FEE02002F032
:103B0000AFFE0F2002F0A0FE2A2002F09DFE28202A
:103B100002F09AFE082002F097FE0E2002F094FEBA
:103B2000082002F091FE542002F08EFEA92002F03F
:103B30008BFE432002F088FE0A2002F085FE0F2053
:103B400002F082FE002002F07FFE002002F07CFEE8
:103B5000002002F079FE002002F076FEE12002F063
:103B60007FFE002002F070FE152002F06DFE17208F
:103B700002F06AFE072002F067FE112002F064FEE8
:103B8000062002F061FE2B2002F05EFE562002F0BD
:103B90005BFE3C2002F058FE052002F055FE10208E
:103BA00002F052FE0F2002F04FFE3F2002F04CFECA
:103BB0003F2002F049FE0F2002F046FE2B2002F0CB
:103BC0004FFE002002F040FE002002F03DFE0120EA
:103BD00002F03AFE3F2002F037FE2A2002F040FEBB
:103BE000002002F031FE002002F02EFE002002F044
:103BF0002BFEEF2002F028FE112002F031FE78208B
:103C0000FDF7D6FEBDE81040292002F029BE10B510
:103C1000FF2002F025FEFF2002F016FE982002F0A1
:103C200013FE062002F010FEBC2002F019FE012057
:103C300002F00AFE0F2002F007FE612002F004FEEF
:103C4000FF2002F001FE012002F0FEFD012002F043
:103C5000FBFD0B2002F0F8FD102002F0F5FD3720EF
:103C600002F0F2FD632002F0EFFDFF2002F0ECFD18
:103C7000FF2002F0E9FD012002F0E6FD012002F044
:103C8000E3FD002002F0E0FD002002F0DDFDFF205A
:103C900002F0DAFD522002F0D7FD012002F0D4FD3F
:103CA000002002F0D1FD402002F0CEFDBD2002F048
:103CB000D7FD012002F0C8FD232002F0C5FD4520FC
:103CC00002F0C2FD672002F0BFFD012002F0BCFD42
:103CD000232002F0B9FD452002F0B6FD672002F076
:103CE000B3FDBE2002F0BCFD002002F0ADFD0120BE
:103CF00002F0AAFDAB2002F0A7FD602002F0A4FDB7
:103D0000222002F0A1FD222002F09EFD222002F0DE
:103D10009BFD222002F098FD222002F095FDC72095
:103D200002F09EFD362002F08FFDED2002F098FD9E
:103D30007F2002F089FD0F2002F086FDC02002F0F6
:103D40008FFD0F2002F080FD0B2002F07DFD0A2088
:103D500002F07AFDFC2002F083FD082002F074FDE1
:103D6000DF2002F07DFD002002F06EFD002002F059
:103D70006BFD002002F068FD002002F065FD0020D0
:103D800002F062FD202002F05FFDF32002F068FDEA
:103D9000742002F059FDB42002F062FD002002F010
:103DA00053FD002002F050FD002002F04DFDF720F1
:103DB00002F056FD822002F047FDB12002F050FDD6
:103DC000002002F041FD132002F03EFD132002F01E
:103DD0003BFDF22002F044FD802002F035FD04207E
:103DE00002F032FD402002F02FFD282002F02CFDD1
:103DF000C12002F035FD172002F026FD882002F0D8
:103E000023FD882002F020FD202002F01DFDE0208F
:103E100002F026FD002002F017FD0A2002F014FD3A
:103E2000122002F011FD102002F00EFD0E2002F013
:103E30000BFD202002F008FDCC2002F005FD07203C
:103E400002F002FD062002F0FFFC0B2002F0FCFC59
:103E50000E2002F0F9FC0F2002F0F6FC0D2002F01B
:103E6000F3FC152002F0F0FC102002F0EDFC002025
:103E700002F0EAFCE12002F0F3FC002002F0E4FC96
:103E80000B2002F0E1FC132002F0DEFC0D2002F01A
:103E9000DBFC0E2002F0D8FC1B2002F0D5FC7120C8
:103EA00002F0D2FC062002F0CFFC062002F0CCFC8F
:103EB0000A2002F0C9FC0F2002F0C6FC0E2002F01E
:103EC000C3FC0F2002F0C0FC152002F0BDFC0C204A
:103ED00002F0BAFC002002F0B7FC2A2002F0C0FC7D
:103EE000002002F0B1FC002002F0AEFC012002F044
:103EF000ABFCDF2002F0A8FC2B2002F0B1FC00207C
:103F000002F0A2FC002002F09FFC032002F09CFCC7
:103F10001F2002F099FC3A2002F0A2FC552002F08A
:103F200093FC362002F09CFC002002F08DFC112056
:103F300002F096FC7820FDF73BFD292002F090FC72
:103F40001420FDF735FDBDE810402C2002F088BCA0
:103F500010B5ED2002F084FC012002F075FCFE207B
:103F600002F072FCEE2002F07BFCDE2002F06CFC22
:103F7000212002F069FCF12002F072FC012002F025
:103F800063FCDF2002F06CFC102002F05DFCC4201A
:103F900002F066FC8F2002F057FCC62002F060FCA5
:103FA000002002F051FCE22002F04EFCE22002F080
:103FB0004BFCE22002F048FCBF2002F051FCAA209A
:103FC00002F042FCB02002F04BFC0D2002F03CFC61
:103FD000002002F039FC0D2002F036FC002002F037
:103FE00033FC112002F030FC002002F02DFC1920DF
:103FF00002F02AFC002002F027FC212002F024FC21
:10400000002002F021FC2D2002F01EFC002002F016
:104010001BFC3D2002F018FC002002F015FC5D2086
:1040200002F012FC002002F00FFC5D2002F00CFCFC
:10403000002002F009FCB12002F012FC802002F006
:1040400003FC002002F000FC8B2002F0FDFB0020AE
:1040500002F0FAFB962002F0F7FB002002F0F4FBDE
:10406000B22002F0FDFB002002F0EEFB002002F087
:10407000EBFB022002F0E8FB002002F0E5FB03204E
:1040800002F0E2FB002002F0DFFBB32002F0E8FBCD
:10409000002002F0D9FB002002F0D6FB002002F045
:1040A000D3FB002002F0D0FB002002F0CDFB00206B
:1040B00002F0CAFB002002F0C7FB002002F0C4FBA4
:1040C000002002F0C1FB002002F0BEFB002002F045
:1040D000BBFB002002F0B8FB002002F0B5FB002083
:1040E00002F0B2FB002002F0AFFB002002F0ACFBBC
:1040F000002002F0A9FB002002F0A6FB002002F045
:10410000A3FB002002F0A0FB002002F09DFB00209A
:1041100002F09AFB002002F097FB002002F094FBD3
:10412000B42002F09DFB8B2002F08EFB002002F0F9
:104130008BFB962002F088FB002002F085FBA1207B
:1041400002F082FB002002F07FFBB52002F088FB2A
:10415000022002F079FB002002F076FB032002F03F
:1041600073FB002002F070FB042002F06DFB0020C6
:1041700002F06AFBB62002F073FB002002F064FB41
:10418000002002F061FBB72002F06AFB002002F081
:104190005BFB002002F058FB3F2002F055FB0020A3
:1041A00002F052FB5E2002F04FFB002002F04CFBBD
:1041B000642002F049FB002002F046FB8C2002F054
:1041C00043FB002002F040FBAC2002F03DFB00204E
:1041D00002F03AFBDC2002F037FB002002F034FB57
:1041E000702002F031FB002002F02EFB902002F044
:1041F0002BFB002002F028FBEB2002F025FB002027
:1042000002F022FBDC2002F01FFB002002F01CFB6E
:10421000B82002F025FB002002F016FB002002F07F
:1042200013FB002002F010FB002002F00DFB002029
:1042300002F00AFB002002F007FB002002F004FB62
:10424000002002F001FBBA2002F00AFB242002F059
:10425000FBFA002002F0F8FA002002F0F5FA002044
:1042600002F0F2FAC12002F0FBFA202002F0ECFA90
:10427000002002F0E9FA542002F0E6FA002002F0F1
:10428000E3FAFF2002F0E0FA002002F0DDFAC2209B
:1042900002F0E6FA0A2002F0D7FA002002F0D4FA7F
:1042A000042002F0D1FA002002F0CEFAC32002F07E
:1042B000D7FA3C2002F0C8FA002002F0C5FA3A20F2
:1042C00002F0C2FA002002F0BFFA392002F0BCFA74
:1042D000002002F0B9FA372002F0B6FA002002F00E
:1042E000B3FA3C2002F0B0FA002002F0ADFA36201A
:1042F00002F0AAFA002002F0A7FA322002F0A4FA93
:10430000002002F0A1FA2F2002F09EFA002002F015
:104310009BFA2C2002F098FA002002F095FA29204E
:1043200002F092FA002002F08FFA262002F08CFAB6
:10433000002002F089FA242002F086FA002002F020
:1043400083FA242002F080FA002002F07DFA232074
:1043500002F07AFA002002F077FA3C2002F074FAB8
:10436000002002F071FA362002F06EFA002002F00E
:104370006BFA322002F068FA002002F065FA2F2072
:1043800002F062FA002002F05FFA2C2002F05CFAE0
:10439000002002F059FA292002F056FA002002F01B
:1043A00053FA262002F050FA002002F04DFA2420A1
:1043B00002F04AFA002002F047FA242002F044FA00
:1043C000002002F041FA232002F03EFA002002F021
:1043D0003BFAC42002F044FA622002F035FA0020D1
:1043E00002F032FA052002F02FFA002002F02CFA37
:1043F000842002F029FA002002F026FAF02002F0D0
:1044000023FA002002F020FA182002F01DFA002002
:1044100002F01AFAA42002F017FA002002F014FAAF
:10442000182002F011FA002002F00EFA502002F0DB
:104430000BFA002002F008FA0C2002F005FA002026
:1044400002F002FA172002F0FFF9002002F0FCF956
:10445000952002F0F9F9002002F0F6F9F32002F0BD
:10446000F3F9002002F0F0F9E62002F0EDF9002067
:1044700002F0EAF9C52002F0F3F9322002F0E4F983
:10448000002002F0E1F9442002F0DEF9002002F001
:10449000DBF9652002F0D8F9002002F0D5F976208A
:1044A00002F0D2F9002002F0CFF9882002F0CCF916
:1044B000002002F0C9F9C62002F0D2F9202002F053
:1044C000C3F9002002F0C0F9172002F0BDF9002066
:1044D00002F0BAF9012002F0B7F9002002F0B4F9B5
:1044E000C72002F0BDF9002002F0AEF9002002F072
:1044F000ABF9002002F0A8F9002002F0A5F9C820CD
:1045000002F0AEF9002002F09FF9002002F09CF9C1
:10451000002002F099F9002002F096F9C92002F07B
:104520009FF9002002F090F9002002F08DF90020A0
:1045300002F08AF9002002F087F9002002F084F9E5
:10454000002002F081F9002002F07EF9002002F044
:104550007BF9002002F078F9002002F075F90020C4
:1045600002F072F9002002F06FF9002002F06CF9FD
:10457000002002F069F9002002F066F9002002F044
:1045800063F9E02002F06CF9162002F05DF90020DA
:1045900002F05AF91C2002F057F9002002F054F9F9
:1045A000212002F051F9002002F04EF9362002F0ED
:1045B0004BF9002002F048F9462002F045F90020AE
:1045C00002F042F9522002F03FF9002002F03CF9DB
:1045D000642002F039F9002002F036F97A2002F066
:1045E00033F9002002F030F98B2002F02DF9002081
:1045F00002F02AF9992002F027F9002002F024F9AC
:10460000A82002F021F9002002F01EF9B92002F0E2
:104610001BF9002002F018F9C42002F015F900205F
:1046200002F012F9CA2002F00FF9002002F00CF992
:10463000D22002F009F9002002F006F9D92002F098
:1046400003F9002002F000F9E02002F0FDF800205C
:1046500002F0FAF8F32002F0F7F8002002F0F4F884
:10466000E12002F0FDF8162002F0EEF8002002F042
:10467000EBF81C2002F0E8F8002002F0E5F8222018
:1046800002F0E2F8002002F0DFF8362002F0DCF859
:10469000002002F0D9F8452002F0D6F8002002F000
:1046A000D3F8522002F0D0F8002002F0CDF86420B8
:1046B00002F0CAF8002002F0C7F87A2002F0C4F82D
:1046C000002002F0C1F88B2002F0BEF8002002F0BA
:1046D000BBF8992002F0B8F8002002F0B5F8A82045
:1046E00002F0B2F8002002F0AFF8B92002F0ACF806
:1046F000002002F0A9F8C42002F0A6F8002002F081
:10470000A3F8CA2002F0A0F8002002F09DF8D22001
:1047100002F09AF8002002F097F8D82002F094F8FE
:10472000002002F091F8E02002F08EF8002002F064
:104730008BF8F32002F088F8002002F085F8E220E0
:1047400002F08EF8052002F07FF8002002F07CF8DD
:104750000B2002F079F8002002F076F81B2002F01E
:1047600073F8002002F070F8342002F06DF8002099
:1047700002F06AF8442002F067F8002002F064F8C2
:104780004F2002F061F8002002F05EF8612002F094
:104790005BF8002002F058F8792002F055F800206C
:1047A00002F052F8882002F04FF8002002F04CF896
:1047B000972002F049F8002002F046F8A62002F007
:1047C00043F8002002F040F8B72002F03DF8002046
:1047D00002F03AF8C22002F037F8002002F034F874
:1047E000C72002F031F8002002F02EF8D12002F0AC
:1047F0002BF8002002F028F8D62002F025F800203F
:1048000002F022F8DD2002F01FF8002002F01CF870
:10481000F32002F019F8002002F016F8E32002F06D
:104820001FF8052002F010F8002002F00DF80A2011
:1048300002F00AF8002002F007F81C2002F004F849
:10484000002002F001F8332001F0FEFF002001F00B
:10485000FBFF442001F0F8FF002001F0F5FF50209D
:1048600001F0F2FF002001F0EFFF622001F0ECFF09
:10487000002001F0E9FF782001F0E6FF002001F0C0
:10488000E3FF882001F0E0FF002001F0DDFF97202A
:1048900001F0DAFF002001F0D7FFA62001F0D4FFDD
:1048A000002001F0D1FFB72001F0CEFF002001F081
:1048B000CBFFC22001F0C8FF002001F0C5FFC720D8
:1048C00001F0C2FF002001F0BFFFD12001F0BCFFCA
:1048D000002001F0B9FFD52001F0B6FF002001F063
:1048E000B3FFDD2001F0B0FF002001F0ADFFF320A9
:1048F00001F0AAFF002001F0A7FFE42001F0B0FFC3
:10490000012001F0A1FF002001F09EFF012001F035
:104910009BFF002001F098FF022001F095FF00208E
:1049200001F092FF2A2001F08FFF002001F08CFFA0
:104930003C2001F089FF002001F086FF4B2001F0B0
:1049400083FF002001F080FF5D2001F07DFF00204B
:1049500001F07AFF742001F077FF002001F074FF6E
:10496000842001F071FF002001F06EFF932001F020
:104970006BFF002001F068FFA22001F065FF00201E
:1049800001F062FFB32001F05FFF002001F05CFF47
:10499000BE2001F059FF002001F056FFC42001F0B5
:1049A00053FF002001F050FFCD2001F04DFF00200B
:1049B00001F04AFFD32001F047FF002001F044FF3F
:1049C000DD2001F041FF002001F03EFFF32001F067
:1049D0003BFF002001F038FFE52001F041FF0020FF
:1049E00001F032FF002001F02FFF002001F02CFF2A
:1049F000002001F029FF022001F026FF002001F035
:104A000023FF292001F020FF002001F01DFF3C20A2
:104A100001F01AFF002001F017FF4B2001F014FFF6
:104A2000002001F011FF5D2001F00EFF002001F0D9
:104A30000BFF742001F008FF002001F005FF842027
:104A400001F002FF002001F0FFFE932001F0FCFEC8
:104A5000002001F0F9FEA22001F0F6FE002001F096
:104A6000F3FEB32001F0F0FE002001F0EDFEBE20C9
:104A700001F0EAFE002001F0E7FEC42001F0E4FEB0
:104A8000002001F0E1FECD2001F0DEFE002001F06B
:104A9000DBFED32001F0D8FE002001F0D5FEDC20A3
:104AA00001F0D2FE002001F0CFFEF32001F0CCFE99
:104AB000002001F0C9FEE62001F0D2FE112001F035
:104AC000C3FE002001F0C0FE342001F0BDFE002036
:104AD00001F0BAFE562001F0B7FE002001F0B4FE4E
:104AE000762001F0B1FE002001F0AEFE772001F04B
:104AF000ABFE002001F0A8FE662001F0A5FE00201C
:104B000001F0A2FE882001F09FFE002001F09CFE33
:104B1000992001F099FE002001F096FEBB2001F0E3
:104B200093FE002001F090FE992001F08DFE002000
:104B300001F08AFE662001F087FE002001F084FE6D
:104B4000552001F081FE002001F07EFE552001F08D
:104B50007BFE002001F078FE452001F075FE00206C
:104B600001F072FE432001F06FFE002001F06CFEA8
:104B7000442001F069FE002001F066FEE72001F00C
:104B80006FFE322001F060FE002001F05DFE552036
:104B900001F05AFE002001F057FE762001F054FE8D
:104BA000002001F051FE662001F04EFE002001F0D1
:104BB0004BFE672001F048FE002001F045FE672013
:104BC00001F042FE002001F03FFE872001F03CFE94
:104BD000002001F039FE992001F036FE002001F09E
:104BE00033FEBB2001F030FE002001F02DFE9920A5
:104BF00001F02AFE002001F027FE772001F024FEBC
:104C0000002001F021FE442001F01EFE002001F0F2
:104C10001BFE562001F018FE002001F015FE232097
:104C200001F012FE002001F00FFE332001F00CFE17
:104C3000002001F009FE452001F006FE002001F0F1
:104C400003FEE82001F00CFE002001F0FDFD002035
:104C500001F0FAFD992001F0F7FD002001F0F4FDCC
:104C6000872001F0F1FD002001F0EEFD882001F029
:104C7000EBFD002001F0E8FD772001F0E5FD0020CC
:104C800001F0E2FD662001F0DFFD002001F0DCFD17
:104C9000882001F0D9FD002001F0D6FDAA2001F006
:104CA000D3FD002001F0D0FDBB2001F0CDFD0020A0
:104CB00001F0CAFD992001F0C7FD002001F0C4FDFC
:104CC000662001F0C1FD002001F0BEFD552001F07D
:104CD000BBFD002001F0B8FD552001F0B5FD00201E
:104CE00001F0B2FD442001F0AFFD002001F0ACFD69
:104CF000442001F0A9FD002001F0A6FD552001F09F
:104D0000A3FD002001F0A0FDE92001F0A9FDAA20EB
:104D100001F09AFD002001F097FD002001F094FDC4
:104D2000002001F091FD002001F09AFDAA2001F081
:104D30008BFDCF2001F094FD002001F085FD0020C7
:104D400001F082FD002001F07FFD002001F07CFDDC
:104D5000002001F079FD002001F076FD002001F037
:104D600073FD002001F070FD002001F06DFD0020BA
:104D700001F06AFD002001F067FD002001F064FDF4
:104D8000002001F061FD002001F05EFD002001F037
:104D90005BFD002001F058FD002001F055FDF020E2
:104DA00001F05EFD002001F04FFD502001F04CFDB0
:104DB000002001F049FD002001F046FD002001F037
:104DC00043FDF32001F04CFD002001F03DFDF920F2
:104DD00001F046FD062001F037FD102001F034FD02
:104DE000292001F031FD002001F02EFD3A2001F0D4
:104DF00037FD552001F028FD112001F031FD642020
:104E0000FCF7D6FD292001F02BFD352001F028FD0F
:104E1000002001F019FD512001F022FDFF2001F0DA
:104E200013FD532001F01CFD2C2001F00DFD552039
:104E300001F016FD822001F007FDBDE810402C2096
:104E400001F00EBD2DE9F05F4FF470435521184677
:104E500001F01CFD4FF20104AA21204601F016FDCD
:104E6000651C5221284601F011FDA61C0821304680
:104E700001F00CFDE71C0121384601F007FD0D2172
:104E80004FF4304001F002FD0D214BF2010001F022
:104E9000FDFC0D214BF2020001F0F8FC4FF4364806
:104EA0003421404601F0F2FC34214BF2016001F064
:104EB000EDFC34214BF2026001F0E8FC4FF4314983
:104EC0000D21484601F0E2FC4BF2011A0D2150463B
:104ED00001F0DCFC0D214BF2021001F0D7FC4FF485
:104EE000374B3421584601F0D1FC34214BF201708C
:104EF00001F0CCFC34214BF2027001F0C7FC002120
:104F00004FF4324001F0C2FC00214BF2012001F0CD
:104F1000BDFC00214BF2022001F0B8FC24214FF42B
:104F2000384001F0B3FC24214BF6010001F0AEFC47
:104F300024214BF6020001F0A9FC01214FF43F406F
:104F400001F0A4FC0F214FF4334001F09FFC0F212E
:104F50004BF2013001F09AFC0F214BF2023001F0CC
:104F600095FC34214FF4394001F090FC34214BF68C
:104F7000011001F08BFC34214BF6021001F086FC8D
:104F800008214FF4354001F081FC08214BF201501B
:104F900001F07CFC08214BF2025001F077FC032168
:104FA0004FF4424001F072FC24214FF43A4001F0EA
:104FB0006DFC24214BF6012001F068FC24214BF606
:104FC000022001F063FC00214FF43C4001F05EFC44
:104FD00078214BF6014001F059FC00214BF60240CC
:104FE00001F054FC00214FF43D4001F04FFC7821CA
:104FF0004BF6015001F04AFC00214BF6025001F043
:1050000045FC00214FF43E4001F040FC64214BF68A
:10501000016001F03BFC00214FF4514001F036FCEF
:1050200033214DF2011001F031FC00214DF202104C
:1050300001F02CFC34214DF2031001F027FC00217B
:105040004DF2041001F022FC3A214DF2051001F05E
:105050001DFC00214DF2061001F018FC4A214DF212
:10506000071001F013FC00214DF2081001F00EFCB6
:105070005C214DF2091001F009FC00214DF20A10EB
:1050800001F004FC81214DF20B1001F0FFFB002127
:105090004DF20C1001F0FAFBA6214DF20D1001F0BB
:1050A000F5FB00214DF20E1001F0F0FBE5214DF271
:1050B0000F1001F0EBFB01214DF2101001F0E6FBA7
:1050C00013214DF2111001F0E1FB01214DF21210FC
:1050D00001F0DCFB54214DF2131001F0D7FB01214C
:1050E0004DF2141001F0D2FB82214DF2151001F0A7
:1050F000CDFB01214DF2161001F0C8FBCA214DF283
:10510000171001F0C3FB02214DF2181001F0BEFB95
:1051100000214DF2191001F0B9FB02214DF21A10D5
:1051200001F0B4FB01214DF21B1001F0AFFB022195
:105130004DF21C1001F0AAFB34214DF21D1001F0BC
:10514000A5FB02214DF21E1001F0A0FB67214DF2DC
:105150001F1001F09BFB02214DF2201001F096FB85
:1051600084214DF2211001F091FB02214DF2221019
:1051700001F08CFBA4214DF2231001F087FB0221EA
:105180004DF2241001F082FBB7214DF2251001F001
:105190007DFB02214DF2261001F078FBCF214DF26C
:1051A000271001F073FB02214DF2281001F06EFB75
:1051B000DE214DF2291001F069FB02214DF22A1087
:1051C00001F064FBF2214DF22B1001F05FFB022194
:1051D0004DF22C1001F05AFBFE214DF22D1001F082
:1051E00055FB03214DF22E1001F050FB10214DF222
:1051F0002F1001F04BFB03214DF2301001F046FB64
:1052000033214DF2311001F041FB03214DF23210F8
:1052100001F03CFB6D214DF2331001F037FB002112
:105220004FF4524001F032FB33214DF2012001F0E6
:105230002DFB00214DF2022001F028FB34214DF21C
:10524000032001F023FB00214DF2042001F01EFB9E
:105250003A214DF2052001F019FB00214DF2062004
:1052600001F014FB4A214DF2072001F00FFB002151
:105270004DF2082001F00AFB5C214DF2092001F0FB
:1052800005FB00214DF20A2001F000FB81214DF2C7
:105290000B2001F0FBFA00214DF20C2001F0F6FA90
:1052A000A6214DF20D2001F0F1FA00214DF20E2061
:1052B00001F0ECFAE5214DF20F2001F0E7FA0121AF
:1052C0004DF2102001F0E2FA13214DF2112001F00D
:1052D000DDFA01214DF2122001F0D8FA54214DF2ED
:1052E000132001F0D3FA01214DF2142001F0CEFA7F
:1052F00082214DF2152001F0C9FA01214DF216204C
:1053000001F0C4FACA214DF2172001F0BFFA0221C0
:105310004DF2182001F0BAFA00214DF2192001F0E7
:10532000B5FA02214DF21A2001F0B0FA01214DF236
:105330001B2001F0ABFA02214DF21C2001F0A6FA6D
:1053400034214DF21D2001F0A1FA02214DF21E2060
:1053500001F09CFA67214DF21F2001F097FA02211B
:105360004DF2202001F092FA84214DF2212001F02B
:105370008DFA02214DF2222001F088FAA4214DF28B
:10538000232001F083FA02214DF2242001F07EFA5D
:10539000B7214DF2252001F079FA02214DF22620A5
:1053A00001F074FACF214DF2272001F06FFA0221AB
:1053B0004DF2282001F06AFADE214DF2292001F099
:1053C00065FA02214DF22A2001F060FAF2214DF235
:1053D0002B2001F05BFA02214DF22C2001F056FA4D
:1053E000FE214DF22D2001F051FA03214DF22E2025
:1053F00001F04CFA10214DF22F2001F047FA032161
:105400004DF2302001F042FA33214DF2312001F00B
:105410003DFA03214DF2322001F038FA6D214DF2B0
:10542000332001F033FA00214FF4534001F02EFAFB
:1054300033214DF2013001F029FA00214DF2023002
:1054400001F024FA34214DF2033001F01FFA00215B
:105450004DF2043001F01AFA3A214DF2053001F014
:1054600015FA00214DF2063001F010FA4A214DF2F2
:10547000073001F00BFA00214DF2083001F006FA76
:105480005C214DF2093001F001FA00214DF20A30A1
:1054900001F0FCF981214DF20B3001F0F7F9002108
:1054A0004DF20C3001F0F2F9A6214DF20D3001F071
:1054B000EDF900214DF20E3001F0E8F9E5214DF251
:1054C0000F3001F0E3F901214DF2103001F0DEF967
:1054D00013214DF2113001F0D9F901214DF21230B2
:1054E00001F0D4F954214DF2133001F0CFF901212C
:1054F0004DF2143001F0CAF982214DF2153001F05D
:10550000C5F901214DF2163001F0C0F9CA214DF262
:10551000173001F0BBF902214DF2183001F0B6F955
:1055200000214DF2193001F0B1F902214DF21A308B
:1055300001F0ACF901214DF21B3001F0A7F9022175
:105540004DF21C3001F0A2F934214DF21D3001F072
:105550009DF902214DF21E3001F098F967214DF2BC
:105560001F3001F093F902214DF2203001F08EF945
:1055700084214DF2213001F089F902214DF22230CF
:1055800001F084F9A4214DF2233001F07FF90221CA
:105590004DF2243001F07AF9B7214DF2253001F0B7
:1055A00075F902214DF2263001F070F9CF214DF24C
:1055B000273001F06BF902214DF2283001F066F935
:1055C000DE214DF2293001F061F902214DF22A303D
:1055D00001F05CF9F2214DF22B3001F057F9022174
:1055E0004DF22C3001F052F9FE214DF22D3001F038
:1055F0004DF903214DF22E3001F048F910214DF202
:105600002F3001F043F903214DF2303001F03EF923
:1056100033214DF2313001F039F903214DF23230AE
:1056200001F034F96D214DF2333001F02FF90021F2
:105630004FF4544001F02AF933214DF2014001F0BA
:1056400025F900214DF2024001F020F934214DF2FC
:10565000034001F01BF900214DF2044001F016F95E
:105660003A214DF2054001F011F900214DF20640BA
:1056700001F00CF94A214DF2074001F007F9002131
:105680004DF2084001F002F95C214DF2094001F0B1
:10569000FDF800214DF20A4001F0F8F881214DF2A9
:1056A0000B4001F0F3F800214DF20C4001F0EEF850
:1056B000A6214DF20D4001F0E9F800214DF20E4017
:1056C00001F0E4F8E5214DF20F4001F0DFF801218F
:1056D0004DF2104001F0DAF813214DF2114001F0C3
:1056E000D5F801214DF2124001F0D0F854214DF2CD
:1056F000134001F0CBF801214DF2144001F0C6F83F
:1057000082214DF2154001F0C1F801214DF2164001
:1057100001F0BCF8CA214DF2174001F0B7F80221A0
:105720004DF2184001F0B2F800214DF2194001F09D
:10573000ADF802214DF21A4001F0A8F801214DF216
:105740001B4001F0A3F802214DF21C4001F09EF82D
:1057500034214DF21D4001F099F802214DF21E4016
:1057600001F094F867214DF21F4001F08FF80221FB
:105770004DF2204001F08AF884214DF2214001F0E1
:1057800085F802214DF2224001F080F8A4214DF26B
:10579000234001F07BF802214DF2244001F076F81D
:1057A000B7214DF2254001F071F802214DF226405B
:1057B00001F06CF8CF214DF2274001F067F802218B
:1057C0004DF2284001F062F8DE214DF2294001F04F
:1057D0005DF802214DF22A4001F058F8F2214DF215
:1057E0002B4001F053F802214DF22C4001F04EF80D
:1057F000FE214DF22D4001F049F803214DF22E40DB
:1058000001F044F810214DF22F4001F03FF8032140
:105810004DF2304001F03AF833214DF2314001F0C1
:1058200035F803214DF2324001F030F86D214DF290
:10583000334001F02BF800214FF4554001F026F8D9
:1058400033214DF2015001F021F800214DF20250B8
:1058500001F01CF834214DF2035001F017F800213B
:105860004DF2045001F012F83A214DF2055001F0CA
:105870000DF800214DF2065001F008F84A214DF2D2
:10588000075001F003F800214DF2085000F0FEFF30
:105890005C214DF2095000F0F9FF00214DF20A5051
:1058A00000F0F4FF81214DF20B5000F0EFFF0021DA
:1058B0004DF20C5000F0EAFFA6214DF20D5000F021
:1058C000E5FF00214DF20E5000F0E0FFE5214DF222
:1058D0000F5000F0DBFF01214DF2105000F0D6FF19
:1058E00013214DF2115000F0D1FF01214DF2125061
:1058F00000F0CCFF54214DF2135000F0C7FF0121FE
:105900004DF2145000F0C2FF82214DF2155000F00C
:10591000BDFF01214DF2165000F0B8FFCA214DF233
:10592000175000F0B3FF02214DF2185000F0AEFF07
:1059300000214DF2195000F0A9FF02214DF21A503A
:1059400000F0A4FF01214DF21B5000F09FFF022147
:105950004DF21C5000F09AFF34214DF21D5000F022
:1059600095FF02214DF21E5000F090FF67214DF28D
:105970001F5000F08BFF02214DF2205000F086FFF7
:1059800084214DF2215000F081FF02214DF222507E
:1059900000F07CFFA4214DF2235000F077FF02219C
:1059A0004DF2245000F072FFB7214DF2255000F067
:1059B0006DFF02214DF2265000F068FFCF214DF21D
:1059C000275000F063FF02214DF2285000F05EFFE7
:1059D000DE214DF2295000F059FF02214DF22A50EC
:1059E00000F054FFF2214DF22B5000F04FFF022146
:1059F0004DF22C5000F04AFFFE214DF22D5000F0E8
:105A000045FF03214DF22E5000F040FF10214DF2D2
:105A10002F5000F03BFF03214DF2305000F036FFD5
:105A200033214DF2315000F031FF03214DF232505D
:105A300000F02CFF6D214DF2335000F027FF0021C4
:105A40004FF4564000F022FF33214DF2016000F088
:105A50001DFF00214DF2026000F018FF34214DF2CD
:105A6000036000F013FF00214DF2046000F00EFF10
:105A70003A214DF2056000F009FF00214DF2066069
:105A800000F004FF4A214DF2076000F0FFFE002104
:105A90004DF2086000F0FAFE5C214DF2096000F062
:105AA000F5FE00214DF20A6000F0F0FE81214DF27A
:105AB0000B6000F0EBFE00214DF20C6000F0E6FE02
:105AC000A6214DF20D6000F0E1FE00214DF20E60C6
:105AD00000F0DCFEE5214DF20F6000F0D7FE012161
