:020000040800F2
:1000000088070020290200081B1900084D15000868
:100010001919000841050008511C000800000000E3
:100020000000000000000000000000001F19000890
:100030006D050008000000001D19000821190008C6
:10004000430200084302000843020008430200087C
:10005000430200084302000843020008430200086C
:10006000430200084302000843020008430200085C
:10007000430200084302000843020008430200084C
:10008000430200084302000843020008430200083C
:10009000430200084302000843020008430200082C
:1000A000430200084302000843020008430200081C
:1000B000430200084302000843020008430200080C
:1000C00043020008430200084302000843020008FC
:1000D00043020008430200084302000843020008EC
:1000E00043020008430200084302000843020008DC
:1000F00043020008430200084302000843020008CC
:1001000043020008430200084302000843020008BB
:1001100043020008430200084302000843020008AB
:10012000430200084302000843020008430200089B
:10013000430200084302000843020008430200088B
:10014000430200084302000843020008430200087B
:10015000430200084302000843020008430200086B
:10016000430200084302000843020008430200085B
:100170004302000843020008430200080000000098
:10018000430200084302000800F002F800F03CF8C7
:100190000AA090E8000C82448344AAF10107DA45E2
:1001A00001D100F031F8AFF2090EBAE80F0013F0F8
:1001B000010F18BFFB1A43F001031847F87E000037
:1001C000187F0000103A24BF78C878C1FAD85207C7
:1001D00024BF30C830C144BF04680C6070470000C1
:1001E0000023002400250026103A28BF78C1FBD840
:1001F000520728BF30C148BF0B6070471FB504F0DD
:100200008BFF1FBD10B510BD00F0CFF81146FFF7F2
:10021000F5FF04F07DFD00F0EDF803B4FFF7F2FF09
:1002200003BC00F0F5F80000094880470948004782
:10023000FEE7FEE7FEE7FEE7FEE7FEE7FEE7FEE796
:10024000FEE7FEE704480549054A064B70470000F3
:10025000B9190008890100088801002088070020DA
:10026000880300208803002053EA020C00F0698014
:100270002DE9F04B4FF00006002B1FBFB3FA83F5BA
:1002800003FA05F424FA05F65E4012BF1643B2FAEB
:1002900082F502FA05F4C5F120051EBF22FA05FC1D
:1002A00044EA0C04203556EA044C4FEA144418BFC3
:1002B000641C4FF000084FF00009904271EB030CF2
:1002C00039D3002919BFB1FA81F701FA07F6B0FA5C
:1002D00080F700FA07F6C7F120071EBF20FA07FCD7
:1002E00046EA0C062037B6FBF4FCA7EB0507103FE7
:1002F00007F01F0BCBF120060CFA0BFB2CFA06F6CD
:1003000044BFB3460026202FA4BF5E464FF0000B2B
:100310005BEA060C08BF4FF0010B19EB0B09ABFBB6
:10032000027C48EB0608C01B06FB02CC0BFB03CC8F
:1003300071EB0C01C1E70B46024641464846BDE859
:10034000F08B13B54FF000004FF00001AFF30080C9
:10035000BDE81C4070474FF0000200B513469446BC
:100360009646203922BFA0E80C50A0E80C50B1F10D
:100370002001BFF4F7AF090728BFA0E80C5048BF21
:100380000CC05DF804EB890028BF40F8042B08BFBF
:10039000704748BF20F8022B11F0804F18BF00F8BB
:1003A000012B7047704770477047754600F02CF876
:1003B000AE4605006946534620F00700854618B052
:1003C00020B5FFF73FFFBDE820404FF000064FF09B
:1003D00000074FF000084FF0000B21F00701AC467A
:1003E000ACE8C009ACE8C009ACE8C009ACE8C00999
:1003F0008D46704710B50446AFF300802046BDE837
:100400001040FFF70ABF0000004870472401002099
:1004100001491820ABBEFEE726000200704700002D
:1004200006480168002908D0C868002805D0098A54
:10043000002902D0012200F06ABA70473000002083
:10044000002803D00249086000F04CB87047000053
:100450003000002010B5114C2268002A1CD038B1A1
:1004600001280FD0022817D1BDE8104000F03AB89B
:10047000D2E9000100F0C8FF206803C8BDE81040C1
:1004800000F072BED2E9000101F022F8206803C832
:10049000BDE8104000F008BE10BD00003000002094
:1004A0000F490968002910D0642800D964208A689F
:1004B0006423B2FBF3F24243486838B1042809D000
:1004C00008280868006809D0026470470868006856
:1004D000426370470868006882637047C263704770
:1004E0003000002010B5154C216800291BD0C868C9
:1004F000002818D0098A002915D0002200F007FA38
:10050000206803C800F0E4FF206803C800F02CFE58
:100510002068002142683AB1042A09D00068082AFC
:10052000006809D0016410BD00680068416310BD17
:1005300000680068816310BDC16310BD30000020F9
:10054000FEE7000007480168C90103D4016841F0D3
:1005500080710160044800214160016841F001019F
:1005600001607047FCED00E0001000E0704772B6DB
:10057000FEE7000030B5B3F5804F05D06FF0704155
:1005800040F82210002030BD8C690B688D68234331
:100590004C688989240144EA0524234343EA014144
:1005A00050F82230014C23401943E9E70000F0CF16
:1005B00010B50A6850F8223023F0010340F82230C9
:1005C0008C68082C23D000234A682243CC681C4343
:1005D0000B6922431A434B690E4C1A43CB691A43E9
:1005E0000B6A1A434B6A1A438B6A1A43CB6A1A4343
:1005F0000B6B1A438B691343CA6B09681A4350F893
:100600002130A343134340F82130002010BD402384
:10061000DAE700007FFF0F0030B5D1E9003443EA8C
:1006200004138C688D89240244EA054423430C8A10
:10063000074D00EB820005EB045423430C7D6D0154
:1006400005EB0464896923430B434360002030BDFC
:100650000000F0FF70B5044600F05EF90546601C2E
:1006600002D004480078044400F056F9401BA04230
:10067000FAD370BD1C000020F0B587B01421684685
:10068000FFF769FE1A48016800292FD10121016096
:1006900018480024016841F001010160006802254A
:1006A00000F00100059041F20100CDE9000502AA29
:1006B00003260C2782E8D00069460F4800F022F894
:1006C0004FF68070CDE9000502AA694682E8D000A5
:1006D0000A4800F017F84CF23370CDE9000502AA81
:1006E000694682E8D000064800F00CF807B0F0BD7B
:1006F0001400002038380240001802400010024068
:10070000000C02402DE9F84FDFF8BCA100220125C2
:1007100003264FF00F090AF1040BAAF1040E00BFE3
:100720000B6805FA02F42340A34270D10F7907F059
:100730000307012F01D0022F16D187684FEA420824
:1007400006FA08FC27EA0C07D1F80CC00CFA08FCE2
:100750004CEA070CC0F808C04768A7430C79C4F3FB
:10076000001494403C4344600C79E443A4070AD04D
:10077000C4684FEA420C06FA0CF7BC438F6807FACC
:100780000CF72743C7600C7904F00304022C12D144
:10079000D40800EB840CDCF820405707FF0E09FA60
:1007A00007F824EA0804D1F8108008FA07F848EAA4
:1007B0000408CCF8208004684FEA420C06FA0CF7D3
:1007C000BC430F7907F0030707FA0CF727430760CC
:1007D0004C6814F4403F70D03C4C276847F4804785
:1007E0002760246822F0030704F480440094384C06
:1007F00007EB040CDCF8084897074FEA177809FA6A
:1008000008F7BC43334FB84202D1002724E054E03C
:10081000314FB84201D101271EE0304FB84201D11B
:10082000022719E02E4FB84201D1032714E02D4FC3
:10083000B84201D104270FE02B4FB84201D1052760
:100840000AE02A4FB84201D1062705E0284FB842F6
:1008500001D1072700E0082707FA08F72743CCF85B
:100860000878DAF800405746D1F804C09C435FEAA4
:10087000CC2C00D51C433C60DBF800405F46D1F82F
:1008800004C09C435FEA8C2C00D51C433C60DEF81E
:1008900000407746D1F804C09C435FEA8C3C00D509
:1008A0001C433C60084F083F3C68D1F804C09C439F
:1008B0005FEACC3C00D51C433C60521C102AFFF47C
:1008C0002FAFBDE8F88F0000083C014044380240DB
:1008D00000300140000002400004024000080240D5
:1008E000000C0240001002400014024000180240B8
:1008F000001C02400069084000D001207047426996
:1009000021EA02030A4043EA0241816170470AB1C9
:10091000816170470904FBE7014880687047000067
:100920001C000020024881680278114481607047F1
:100930001C0000200B4810B5016841F400710160F3
:10094000016841F480610160016841F480710160D7
:10095000032000F061F80F2000F006F800F024F802
:10096000002010BD003C024070B50D4D04464FF410
:100970007A712878B1FBF0F00A490968B1FBF0F010
:1009800000F00CFB48B9102C07D200222146501E63
:1009900000F022F800206C6070BD012070BD0000E6
:1009A0001C000020280000200A4808B5016841F416
:1009B00080410160006800F4804000900548001FFD
:1009C000016841F080510160006800F080500090A3
:1009D00008BD000044380240F0B40E4B1B680C46C2
:1009E000C3F30223C3F10705042D00D90425191D03
:1009F000072901D2002300E0DB1E012606FA05F1DB
:100A0000491E214099409E40761E16403143F0BC5D
:100A100001F01FB90CED00E0064900F0070208687C
:100A20004FF6FF03184040EA0220034A10430860D3
:100A3000704700000CED00E00000FA052DE9F047DA
:100A40000E46050065D0DFF81481D8F80000F7B233
:100A500000F00700B04207D288F80070D8F8000014
:100A600000F00700B04254D128683D4C810712D5F0
:100A7000400703D5206840F4E05020602878000744
:100A800003D5206840F4604020602068A96820F009
:100A9000F000084320602878C0072DD030496868EE
:100AA0000839012812D0022813D0032811D0096870
:100AB000890700292DDA216821F003010143216013
:100AC000FFF72AFF814641F2883A0EE00968890360
:100AD000EFE709688901ECE7FFF71EFFA0EB0901CA
:100AE000514502D90320BDE8F0872068696800F00D
:100AF0000C00B0EB810FEFD1D8F80010404601F0A8
:100B00000701B14207D90770006800F00700B04242
:100B100001D00120E7E72878400705D52068E9687B
:100B200020F4E050084320602878000706D52068AC
:100B3000296920F4604040EAC100206000F018F804
:100B40002168084AC1F30311515CC8400649086096
:100B500006480068FFF708FF0020C4E7003C024099
:100B60000838024022510008280000202000002000
:100B7000154810B5006810F00C02144813D041104D
:100B8000042A0FD0082A0ED10F4C241F2268236894
:100B900002F03F025B0207D52068C0F38810A0FB7B
:100BA000010106E0084610BD2168C1F38811A1FBD0
:100BB00000010023FFF758FB2168C1F30141491CE4
:100BC0004900B0FBF1F010BD083802400024F400E9
:100BD0002DE9F84F04006ED02078DFF84C93C00761
:100BE000A9F104054AD009F104000168C1F38101AB
:100BF000012908D00068C0F3810002280AD1D9F881
:100C00000000400206D52868800337D560680028B8
:100C1000E1D033E06068B0F5803F10D0B0F5A02F90
:100C2000286810D020F480302860286820F48020C4
:100C300028606068A8B1FFF76FFE06460DE02868DF
:100C400040F48030F4E740F480202860F7E700BFEC
:100C5000FFF762FE801B642873D828688003F7D5ED
:100C60000CE0FFF759FE064605E000BFFFF754FE13
:100C7000801B6428F0D828688003F7D42078DFF838
:100C8000AC8280074FF0000A3ED5A748001D0168DE
:100C900011F00C0F08D00068C0F3810002280BD1BE
:100CA000D9F80000400207D42868800716D5E0680C
:100CB000012800D112E033E1E068B8B10120C8F8A2
:100CC0000000FFF729FE064605E000BFFFF724FEFF
:100CD000801B0228C0D828688007F7D528682169BA
:100CE00020F0F80040EAC10028600DE0C8F800A03C
:100CF000FFF712FE064604E0FFF70EFE801B0228F7
:100D00001FD828688007F7D42078000722D5864F9F
:100D100087486169703771B101210160FFF7FCFDFF
:100D2000064604E0FFF7F8FD801B022809D8386862
:100D30008007F7D50EE0C0F800A0FFF7EDFD0646EE
:100D400005E082E0FFF7E8FD801B02287DD83868C7
:100D50008007F7D42078400768D5DFF8CCB10027AA
:100D60000BF13C0BDBF80000C0000BD4DBF80010EB
:100D700041F08051CBF80010DBF80000012700F0B3
:100D8000805000906B4E3068C00510D4306840F43D
:100D900080703060FFF7C0FD009005E0FFF7BCFDFC
:100DA0000099401A022850D83068C005F6D55E4E2A
:100DB000A0686C3601280FD00528306810D020F0CC
:100DC00001003060306820F004003060A068B8B1E5
:100DD000FFF7A2FD00900FE0306840F00100F4E75B
:100DE00040F004003060F7E7FFF796FD0099411AE4
:100DF00041F28830814266D830688007F4D50EE031
:100E0000FFF78AFD009007E0FFF786FD0099411A81
:100E100041F28830814256D830688007F4D42FB12F
:100E2000DBF8001021F08051CBF80010A069C8B3A6
:100E30003D49091D0968C1F3810102294AD00228F0
:100E4000504607D0C8F8600000E03CE0FFF764FDC2
:100E500004463BE04746C8F86000FFF75DFD0646E4
:100E600005E000BFFFF758FD801B02282BD828683B
:100E70008001F7D4D4E907010843A16A2E4A490842
:100E800002EB0141626A41EA8211084394F82C1096
:100E900040EA0161C9F8001001203866FFF73CFD07
:100EA000044606E03EE000BFFFF736FD001B0228C7
:100EB00009D828688001F7D534E000BFFFF72CFD82
:100EC000001B022802D90320BDE8F88F28688001A2
:100ED000F4D427E00128F7D0D9F80000E26900F443
:100EE000800191421CD1226A00F03F01914217D14A
:100EF00047F6C071626A0140B1EB821F10D1A26A4D
:100F00004FF0FF3300F4403103EB5202B1EB024FDC
:100F100006D194F82C1000F07060B0EB016F01D096
:100F20000120D1E70020CFE704380240000047420B
:100F3000800E4742007000400000FFFF70B515466C
:100F40000E46040003D094F8490010B107E00120D8
:100F500070BD002084F84800204600F01DF804F120
:100F600008012068FFF724FB3146A2682068FFF7DC
:100F700053FBD4E901022946236BFFF7FBFA2168F2
:100F8000A06851F8202042F0010241F82020012001
:100F900084F84900002070BDFFF76EBB10B5401EFD
:100FA000B0F1807F01D3012010BD4FF0E0246061DB
:100FB0000F21601700F04DFE0020A0610720206186
:100FC000002010BD10B590F83C20012A22D001224B
:100FD00080F83C20CA688C6822F4407222434C6836
:100FE00022F4806222430C6822F4006222430C69DE
:100FF00022F4805222434C6922F400522243C969F0
:10100000002322F480420A4301684A6480F83C309D
:10101000002010BD022010BD70B590F83C20012AC0
:1010200032D0012480F83C40022280F83D20036841
:101030005A689D6822F070060A6832435A60134B62
:1010400002689A4214D0B2F1804F11D0104B9A42EC
:101050000ED0104B9A420BD00F4B9A4208D00F4B38
:101060009A4205D00E4B9A4202D00E4B9A4204D1BE
:10107000496825F080031943916080F83D400021C4
:1010800080F83C10084670BD022070BD0000014091
:101090000004004000080040000C00400004014033
:1010A000004001400018004010B50446022249B13A
:1010B00004290ED0082913D094F84500012816D031
:1010C000012010BD94F842000128F9D184F8422093
:1010D0000FE094F843000128F2D184F8432008E09F
:1010E00094F844000128EBD184F8442001E084F80E
:1010F00045200422206800F0DCFC2068416C41F4AB
:101100000041416411492068884214D0B0F1804FF9
:1011100011D00F4988420ED00E4988420BD00E499B
:10112000884208D00D49884205D00D49884202D036
:101130000C49884204D1816801F00701062903D0D7
:10114000016841F001010160002010BD0000014074
:101150000004004000080040000C00400004014072
:10116000004001400018004070B504460D4600687C
:10117000002200F09EFC2068036A41F211110B422C
:1011800040F2444206D1036A134203D1436C23F474
:10119000004343642068036A0B4206D1016A11428E
:1011A00003D1016821F00101016001203DB1042D4E
:1011B00008D0082D09D084F84500002070BD84F8BF
:1011C0004200FAE784F84300F7E784F84400F4E7C4
:1011D00070B586B0044614216846FFF7BCF8294B69
:1011E000226800242848591402259A4220D1026816
:1011F00042F002020260026802F0020205920268F6
:1012000042F00102026000680091CDE9015400F053
:1012100001000126CDE90460694603941B48FFF7ED
:1012200071FAE8010090CDE901546946184822E0BE
:10123000184B9A4223D1026842F080020260026891
:1012400002F080020592026842F480720260006837
:101250000091CDE9015400F480700326CDE90460CB
:10126000694603940C48FFF74DFA20200090CDE921
:1012700001540A486946CDE90346FFF743FA06B030
:1012800070BD000000000140303802400004024000
:101290000000024000040140001C02400020024007
:1012A00070B5044690F83C0000260D4601280FD08A
:1012B000012084F83C006AB1042A1DD0082A2FD0EE
:1012C0000C2A3FD00126002084F83C00304670BD37
:1012D000022070BD206800F0F9FB2068816941F0B0
:1012E000080181612068816921F004018161206821
:1012F00081692A69114311E0206800F017FC206819
:10130000816941F4006181612068816921F4806113
:101310008161206881692A6941EA02218161D2E7FD
:10132000206800F039FC2068C16941F00801C16102
:101330002068C16921F00401C1612068C1692A697E
:10134000114311E0206800F05BFC2068C16941F4A2
:101350000061C1612068C16921F48061C1612068B8
:10136000C1692A6941EA0221C161ACE710B50400F4
:1013700003D094F83D0010B107E0012010BD00201B
:1013800084F83C00204600F01FF8022084F83D005D
:10139000211D206800F018FB012084F8460084F825
:1013A0003E0084F83F0084F8400084F8410084F84F
:1013B000420084F8430084F8440084F8450084F82F
:1013C0003D00002010BD000008B50C4A01680C4823
:1013D000914207D1016841F001010160006800F00D
:1013E000010009E0074A914207D1016841F002017A
:1013F0000160006800F00200009008BD000001409C
:10140000443802400004014010B50446022249B1AC
:1014100004290ED0082913D094F84100012816D0D1
:10142000012010BD94F83E000128F9D184F83E2037
:101430000FE094F83F000128F2D184F83F2008E043
:1014400094F840000128EBD184F8402001E084F8B2
:1014500041200122206800F01FFB16492068164A2F
:10146000884201D0904203D1436C43F4004343646B
:101470002068884213D0B0F1804F10D00F498842C5
:101480000DD00F4988420AD00E49884207D09042B9
:1014900005D00D49884202D00C49884204D18168A8
:1014A00001F00701062903D0016841F00101016044
:1014B000002010BD00000140000401400004004075
:1014C00000080040000C00400040014000180040AF
:1014D00030B504460D460068002200F0DDFA194BD5
:1014E00041F2111120688A10984202D0164B98429E
:1014F00009D1036A0B4206D1036A134203D1436C3C
:1015000023F4004343642068036A0B4206D1016A56
:10151000114203D1016821F00101016001203DB1B8
:10152000042D08D0082D09D084F84100002030BDDA
:1015300084F83E00FAE784F83F00F7E784F84000BB
:10154000F4E700000000014000040140FEE7000055
:10155000054808B5016841F010010160006800F01D
:101560001000009008BD00003038024010B5214C3A
:1015700004212046FFF7BEF950B108212046FFF7AD
:10158000B9F9A8B110212046FFF7B4F900B327E05C
:101590000A20FFF75FF804212046FFF7ABF9F8B9FE
:1015A00004212046FFF7A6F90028F9D0012010BD3C
:1015B0000A20FFF74FF808212046FFF79BF978B97A
:1015C00008212046FFF796F90028F9D0022010BD27
:1015D0000A20FFF73FF810212046FFF78BF908B1EA
:1015E000042010BD10212046FFF784F90028F9D00F
:1015F000032010BD00100240054808B5016841F005
:1016000010010160006800F01000009008BD0000AB
:1016100030380240054A28B1012805D10221104680
:10162000FFF76DB90121FAE7704700000010024092
:1016300000B58FB01C216846FEF78DFE1C2107A85F
:10164000FEF789FE1B484FF02041102201601A4925
:101650004160062181600021C160C0E904128161FE
:10166000C16113020162C0E909139302C0E90B13BF
:10167000416381634164022000900F200523CDE97E
:1016800001030DF10C0C11238CE80E000691CDE93D
:1016900007100DF1240CFF208CE80F000D9107AA14
:1016A00069460448FFF74AFC002801D0FEF75FFFB7
:1016B0000FB000BD34000020040100A02DE9F04768
:1016C00086B014216846FEF746FE3F4800240168B4
:1016D00041F010010160016801F0100105910168FD
:1016E00041F020010160016801F0200105910168CD
:1016F00041F080010160016801F0800105910168FD
:1017000041F040010160016801F04001059101686C
:1017100041F002010160016801F0020105910168D8
:1017200041F008010160016801F0080105910168BC
:1017300041F001010160016801F0010105910168BA
:1017400041F4807101600068DFF8808000F48070EF
:1017500040F204460590002231464046FFF7D7F894
:10176000DFF86C904FF40077002239464846FFF7C7
:10177000CEF8DFF860A0012203215046FFF7C7F83A
:101780001C2001258DE8310069465046FEF7BAFF5E
:101790000096CDE90154694640460394FEF7B2FF36
:1017A0000097CDE90154694648460394FEF7AAFF25
:1017B00003200090CDE90154694650460394FEF79A
:1017C000A1FF06B0BDE8F0873038024000140240A7
:1017D000001C02400010024010B592B000240F948B
:1017E0001C2108A81094FEF7B6FD20216846FEF7DC
:1017F000B2FD20481E490160A721C0E9011440F252
:10180000E731C0E9031444618461FFF7AFFD08B11B
:10181000FEF7ADFE0F940FA916481094FFF7FCFBDE
:1018200008B1FEF7A4FE6020CDE908040A940B94E9
:101830000C940D94002208A90E480E94FFF730FD79
:1018400008B1FEF794FE00944FF40050CDE9044037
:10185000029401940394694606480794FFF7B2FB8B
:1018600008B1FEF784FE0348FFF7B2FC12B010BDCA
:10187000000001408400002010B592B000240F94B5
:101880001C2108A81094FEF766FD20216846FEF78B
:1018900062FD20481E490160A721C0E9011440F201
:1018A000E731C0E9031444618461FFF75FFD08B1CB
:1018B000FEF75DFE0F940FA916481094FFF7ACFBDE
:1018C00008B1FEF754FE6020CDE908040A940B9499
:1018D0000C940D94002208A90E480E94FFF7E0FC2A
:1018E00008B1FEF744FE00944FF40050CDE90440E7
:1018F000029401940394694606480794FFF762FB3B
:1019000008B1FEF734FE0348FFF762FC12B010BDC9
:1019100000040140CC000020FEE7FEE7704770475E
:10192000FFF700B830B593B030216846FEF713FDDD
:1019300014210CA8FEF70FFD1D480025016841F099
:1019400080510160006800F08050119019480168D2
:1019500041F4804101600068022400F4804011904D
:101960000120039010200490009406940820CDE9F3
:101970000750A820CDE9090404200B906846FFF722
:1019800027F908B172B6FEE70CA90F2081E83100F3
:101990004FF4A0500F904FF48050109005210CA8E8
:1019A000FFF74CF8002801D072B6FEE713B030BD47
:1019B00040380240007000400248016841F4700164
:1019C0000160704788ED00E0F0B50268274B284DB4
:1019D000284E294F294C4FF0804C984209D0604541
:1019E00007D0A84205D0B04203D0B84201D0A042EF
:1019F00004D122F0700E4A6842EA0E0298421BD0CF
:101A0000604519D0A84217D0B04215D0B84213D0C3
:101A1000A04211D01A4DA8420ED01A4DA8420BD0A8
:101A2000194DA84208D0194DA84205D0184DA8421A
:101A300002D0184DA84203D122F44075CA682A4347
:101A40004D6922F080022A438D68C5620D68856267
:101A5000984201D0A04201D109690163016841F0B7
:101A600004010160012141610260F0BD00000140FC
:101A70000004004000080040000C00400004014049
:101A8000004001400044014000480140001800406F
:101A9000001C00400020004010B501F01F03012190
:101AA000046A99408C430462016A9A4011430162BE
:101AB00010BD10B501F00F030421046A99408C4356
:101AC0000462016A9A401143016210BDF0B5036AD5
:101AD000026A22F00102026242688469124E24F016
:101AE00073050C682C4323F002058B682B430D4DC6
:101AF000A84201D0B04205D123F00807CB683B4390
:101B000023F00403A84201D0B04205D14D6922F46C
:101B1000407215438A692A4342608461496841637F
:101B20000362F0BD0000014000040140F0B5026A0C
:101B3000036A23F010030362436884690D6824F488
:101B4000E64444EA05248D6822F0200242EA0512A8
:101B50000F4D104EA84201D0B04206D1CF6822F0FE
:101B6000800242EA071222F04002A84201D0B042AD
:101B700007D14D6923F4406343EA85038D6943EA45
:101B8000850343608461496881630262F0BD00009F
:101B90000000014000040140F0B5026A036A23F42A
:101BA000807303624368C46922F4007224F07305F1
:101BB0000C68124E2C438D6842EA05220E4DA84255
:101BC00001D0B04206D1CF6822F4006242EA072277
:101BD00022F48062A84201D0B04207D14D6923F4BB
:101BE000405343EA05138D6943EA05134360C4611A
:101BF0004968C1630262F0BD000001400004014079
:101C000030B5046A026A22F4805202624268C369F3
:101C10000D6823F4E64343EA05238D6824F4005459
:101C200044EA0534084DA84202D0084DA84204D128
:101C30004D6922F4804242EA85124260C3614968DC
:101C40000164046230BD0000000001400004014056
:101C5000FEE70907090E002804DB00F1E02080F808
:101C60000014704700F00F0000F1E02080F8141D10
:101C700070470000074A10B553680749074C0968C8
:101C8000B1FBF4F1414300E000BF5068C01A884244
:101C9000FAD310BD001000E02800002040420F00E1
:101CA00070B509490646002408884D8821464543F9
:101CB000204602F08FFE03F019F8044801E0068088
:101CC000641CAC42FBD370BD140100200008006C02
:101CD0002DE9F04F38492C260A46887192884FF436
:101CE000305A4FF4285B41F6631E2B274FF02A0C25
:101CF0004FF0F00845F210594FF448754FF4A074B6
:101D00004FF4F07358B10C80A1F802804A4530D1ED
:101D1000A1F808A0A1F80AB03802888141E0A1F832
:101D200000804C804A4507D1A1F808A0A1F80AB06C
:101D30004FF42C50888105E072450E8105D14F810A
:101D4000A1F80CC00B804D8002E0A1F80AC08F8181
:101D5000A2F5A640103803D0A2F5EE40963801D186
:101D60000C804B80A2F5184006381FD10B804D80A7
:101D70001CE0724511D0A2F5184006380DD00E8136
:101D8000A1F80AC0A1F80C70A2F5A64010380BD03B
:101D9000A2F5EE40963807D008E00E81A1F80AC0FF
:101DA0008F810D804B80EFE70B804C80BDE8F04FBA
:101DB000032002F04DBD00001401002010B51446B0
:101DC00002F008FE02F092FF0148048010BD0000FE
:101DD0000008006C10B5CF2002F07CFF002002F05C
:101DE0006DFFC12002F06AFF302002F067FFED2096
:101DF00002F070FF642002F061FF032002F05EFF3A
:101E0000122002F05BFF812002F058FFE82002F070
:101E100061FF852002F052FF102002F04FFF7A2070
:101E200002F04CFFCB2002F055FF392002F046FFB4
:101E30002C2002F043FF002002F040FF342002F08B
:101E40003DFF022002F03AFFF72002F043FF20207E
:101E500002F034FFEA2002F03DFF002002F02EFFE6
:101E6000002002F02BFFC02002F034FF1B2002F004
:101E700025FFC12002F02EFF012002F01FFFC52028
:101E800002F028FF302002F019FF302002F016FF88
:101E9000C72002F01FFFB72002F010FF362002F02B
:101EA00019FF482002F00AFF3A2002F013FF5520E4
:101EB00002F004FFB12002F00DFF002002F0FEFE50
:101EC0001A2002F0FBFEB62002F004FF0A2002F006
:101ED000F5FEA22002F0F2FEF22002F0FBFE00204E
:101EE00002F0ECFE262002F0F5FE012002F0E6FEF4
:101EF000E02002F0EFFE0F2002F0E0FE2A2002F0C8
:101F0000DDFE282002F0DAFE082002F0D7FE0E20C7
:101F100002F0D4FE082002F0D1FE542002F0CEFEE2
:101F2000A92002F0CBFE432002F0C8FE0A2002F0F6
:101F3000C5FE0F2002F0C2FE002002F0BFFE00200E
:101F400002F0BCFE002002F0B9FE002002F0B6FE56
:101F5000E12002F0BFFE002002F0B0FE152002F0EA
:101F6000ADFE172002F0AAFE072002F0A7FE112006
:101F700002F0A4FE062002F0A1FE2B2002F09EFE3D
:101F8000562002F09BFE3C2002F098FE052002F055
:101F900095FE102002F092FE0F2002F08FFE3F20EF
:101FA00002F08CFE3F2002F089FE0F2002F086FE38
:101FB0002B2002F08FFE002002F080FE002002F0B5
:101FC0007DFE012002F07AFE3F2002F077FE2A20FB
:101FD00002F080FE002002F071FE002002F06EFE92
:101FE000002002F06BFEEF2002F068FE112002F0EC
:101FF00071FE7820FEF72EFBBDE81040292002F08C
:1020000069BE10B5FF2002F065FEFF2002F056FE0B
:10201000982002F053FE062002F050FEBC2002F091
:1020200059FE012002F04AFE0F2002F047FE612017
:1020300002F044FEFF2002F041FE012002F03EFECD
:10204000012002F03BFE0B2002F038FE102002F0CF
:1020500035FE372002F032FE632002F02FFEFF2013
:1020600002F02CFEFF2002F029FE012002F026FEE5
:10207000012002F023FE002002F020FE002002F0EA
:102080001DFEFF2002F01AFE522002F017FE012072
:1020900002F014FE002002F011FE402002F00EFEBD
:1020A000BD2002F017FE012002F008FE232002F0FE
:1020B00005FE452002F002FE672002F0FFFD012030
:1020C00002F0FCFD232002F0F9FD452002F0F6FDB0
:1020D000672002F0F3FDBE2002F0FCFD002002F0BC
:1020E000EDFD012002F0EAFDAB2002F0E7FD6020EB
:1020F00002F0E4FD222002F0E1FD222002F0DEFDEC
:10210000222002F0DBFD222002F0D8FD222002F086
:10211000D5FDC72002F0DEFD362002F0CFFDED2018
:1021200002F0D8FD7F2002F0C9FD0F2002F0C6FDAD
:10213000C02002F0CFFD0F2002F0C0FD0B2002F006
:10214000BDFD0A2002F0BAFDFC2002F0C3FD08200C
:1021500002F0B4FDDF2002F0BDFD002002F0AEFD74
:10216000002002F0ABFD002002F0A8FD002002F0EC
:10217000A5FD002002F0A2FD202002F09FFDF3202B
:1021800002F0A8FD742002F099FDB42002F0A2FD37
:10219000002002F093FD002002F090FD002002F0EC
:1021A0008DFDF72002F096FD822002F087FDB12020
:1021B00002F090FD002002F081FD132002F07EFD70
:1021C000132002F07BFDF22002F084FD802002F05B
:1021D00075FD042002F072FD402002F06FFD282002
:1021E00002F06CFDC12002F075FD172002F066FDC3
:1021F000882002F063FD882002F060FD202002F0BC
:102200005DFDE02002F066FD002002F057FD0A208F
:1022100002F054FD122002F051FD102002F04EFD9C
:102220000E2002F04BFD202002F048FDCC2002F0F1
:1022300045FD072002F042FD062002F03FFD0B2085
:1022400002F03CFD0E2002F039FD0F2002F036FDB9
:102250000D2002F033FD152002F030FD102002F0B9
:102260002DFD002002F02AFDE12002F033FD0020C8
:1022700002F024FD0B2002F021FD132002F01EFDD0
:102280000D2002F01BFD0E2002F018FD1B2002F0B5
:1022900015FD712002F012FD062002F00FFD062050
:1022A00002F00CFD0A2002F009FD0F2002F006FDED
:1022B0000E2002F003FD0F2002F000FD152002F0B9
:1022C000FDFC0C2002F0FAFC002002F0F7FC2A20B2
:1022D00002F000FD002002F0F1FC002002F0EEFC14
:1022E000012002F0EBFCDF2002F0E8FC2B2002F0E2
:1022F000F1FC002002F0E2FC002002F0DFFC0320F1
:1023000002F0DCFC1F2002F0D9FC3A2002F0E2FCD3
:10231000552002F0D3FC362002F0DCFC002002F055
:10232000CDFC112002F0D6FC7820FEF793F929208D
:1023300002F0D0FC1420FEF78DF9BDE810402C20EF
:1023400002F0C8BC10B5ED2002F0C4FC012002F080
:10235000B5FCFE2002F0B2FCEE2002F0BBFCDE2059
:1023600002F0ACFC212002F0A9FCF12002F0B2FC4A
:10237000012002F0A3FCDF2002F0ACFC102002F0F0
:102380009DFCC42002F0A6FC8F2002F097FCC62022
:1023900002F0A0FC002002F091FCE22002F08EFC92
:1023A000E22002F08BFCE22002F088FCBF2002F069
:1023B00091FCAA2002F082FCB02002F08BFC0D20E0
:1023C00002F07CFC002002F079FC0D2002F076FC8B
:1023D000002002F073FC112002F070FC002002F0DB
:1023E0006DFC192002F06AFC002002F067FC21203D
:1023F00002F064FC002002F061FC2D2002F05EFC83
:10240000002002F05BFC3D2002F058FC002002F0AE
:1024100055FC5D2002F052FC002002F04FFC5D20D4
:1024200002F04CFC002002F049FCB12002F052FC0A
:10243000802002F043FC002002F040FC8B2002F0E0
:102440003DFC002002F03AFC962002F037FC002010
:1024500002F034FCB22002F03DFC002002F02EFC21
:10246000002002F02BFC022002F028FC002002F0E9
:1024700025FC032002F022FC002002F01FFCB32008
:1024800002F028FC002002F019FC002002F016FCEB
:10249000002002F013FC002002F010FC002002F0EB
:1024A0000DFC002002F00AFC002002F007FC0020D6
:1024B00002F004FC002002F001FC002002F0FEFB10
:1024C000002002F0FBFB002002F0F8FB002002F0ED
:1024D000F5FB002002F0F2FB002002F0EFFB0020F1
:1024E00002F0ECFB002002F0E9FB002002F0E6FB2A
:1024F000002002F0E3FB002002F0E0FB002002F0ED
:10250000DDFB002002F0DAFB002002F0D7FB002008
:1025100002F0D4FBB42002F0DDFB8B2002F0CEFBF6
:10252000002002F0CBFB962002F0C8FB002002F056
:10253000C5FBA12002F0C2FB002002F0BFFBB520CA
:1025400002F0C8FB022002F0B9FB002002F0B6FB4B
:10255000032002F0B3FB002002F0B0FB042002F0E5
:10256000ADFB002002F0AAFBB62002F0B3FB002076
:1025700002F0A4FB002002F0A1FBB72002F0AAFBAE
:10258000002002F09BFB002002F098FB3F2002F0AD
:1025900095FB002002F092FB5E2002F08FFB0020F2
:1025A00002F08CFB642002F089FB002002F086FB25
:1025B0008C2002F083FB002002F080FBAC2002F0B4
:1025C0007DFB002002F07AFBDC2002F077FB00208C
:1025D00002F074FB702002F071FB002002F06EFB31
:1025E000902002F06BFB002002F068FBEB2002F071
:1025F00065FB002002F062FBDC2002F05FFB0020A4
:1026000002F05CFBB82002F065FB002002F056FBF4
:10261000002002F053FB002002F050FB002002F0EB
:102620004DFB002002F04AFB002002F047FB002097
:1026300002F044FB002002F041FBBA2002F04AFB0A
:10264000242002F03BFB002002F038FB002002F0C7
:1026500035FB002002F032FBC12002F03BFB2020C2
:1026600002F02CFB002002F029FB542002F026FB94
:10267000002002F023FBFF2002F020FB002002F0EC
:102680001DFBC22002F026FB0A2002F017FB0020EF
:1026900002F014FB042002F011FB002002F00EFBFC
:1026A000C32002F017FB3C2002F008FB002002F0E0
:1026B00005FB3A2002F002FB002002F0FFFA39206D
:1026C00002F0FCFA002002F0F9FA372002F0F6FAE4
:1026D000002002F0F3FA3C2002F0F0FA002002F0B1
:1026E000EDFA362002F0EAFA002002F0E7FA322092
:1026F00002F0E4FA002002F0E1FA2F2002F0DEFA04
:10270000002002F0DBFA2C2002F0D8FA002002F0C0
:10271000D5FA292002F0D2FA002002F0CFFA2620C2
:1027200002F0CCFA002002F0C9FA242002F0C6FA26
:10273000002002F0C3FA242002F0C0FA002002F0C8
:10274000BDFA232002F0BAFA002002F0B7FA3C20CA
:1027500002F0B4FA002002F0B1FA362002F0AEFA2C
:10276000002002F0ABFA322002F0A8FA002002F0BA
:10277000A5FA2F2002F0A2FA002002F09FFA2C20E6
:1027800002F09CFA002002F099FA292002F096FA51
:10279000002002F093FA262002F090FA002002F0C6
:1027A0008DFA242002F08AFA002002F087FA242011
:1027B00002F084FA002002F081FA232002F07EFA6F
:1027C000002002F07BFAC42002F084FA622002F0BA
:1027D00075FA002002F072FA052002F06FFA00206C
:1027E00002F06CFA842002F069FA002002F066FA26
:1027F000F02002F063FA002002F060FA182002F0E4
:102800005DFA002002F05AFAA42002F057FA0020E4
:1028100002F054FA182002F051FA002002F04EFAA9
:10282000502002F04BFA002002F048FA0C2002F08F
:1028300045FA002002F042FA172002F03FFA002089
:1028400002F03CFA952002F039FA002002F036FA44
:10285000F32002F033FA002002F030FAE62002F012
:102860002DFA002002F02AFAC52002F033FA3220B5
:1028700002F024FA002002F021FA442002F01EFAAD
:10288000002002F01BFA652002F018FA002002F086
:1028900015FA762002F012FA002002F00FFA8820D2
:1028A00002F00CFA002002F009FAC62002F012FA37
:1028B000202002F003FA002002F000FA172002F0B4
:1028C000FDF9002002F0FAF9012002F0F7F90020EA
:1028D00002F0F4F9C72002F0FDF9002002F0EEF951
:1028E000002002F0EBF9002002F0E8F9002002F0ED
:1028F000E5F9C82002F0EEF9002002F0DFF900202F
:1029000002F0DCF9002002F0D9F9002002F0D6F93B
:10291000C92002F0DFF9002002F0D0F9002002F017
:10292000CDF9002002F0CAF9002002F0C7F900201A
:1029300002F0C4F9002002F0C1F9002002F0BEF953
:10294000002002F0BBF9002002F0B8F9002002F0EC
:10295000B5F9002002F0B2F9002002F0AFF9002032
:1029600002F0ACF9002002F0A9F9002002F0A6F96B
:10297000002002F0A3F9E02002F0ACF9162002F0EA
:102980009DF9002002F09AF91C2002F097F900202E
:1029900002F094F9212002F091F9002002F08EF962
:1029A000362002F08BF9002002F088F9462002F070
:1029B00085F9002002F082F9522002F07FF9002010
:1029C00002F07CF9642002F079F9002002F076F937
:1029D0007A2002F073F9002002F070F98B2002F0E7
:1029E0006DF9002002F06AF9992002F067F90020E1
:1029F00002F064F9A82002F061F9002002F05EF90B
:102A0000B92002F05BF9002002F058F9C42002F06E
:102A100055F9002002F052F9CA2002F04FF90020C7
:102A200002F04CF9D22002F049F9002002F046F9F8
:102A3000D92002F043F9002002F040F9E02002F032
:102A40003DF9002002F03AF9F32002F037F90020B6
:102A500002F034F9E12002F03DF9162002F02EF9DF
:102A6000002002F02BF91C2002F028F9002002F0CF
:102A700025F9222002F022F9002002F01FF9362069
:102A800002F01CF9002002F019F9452002F016F9B5
:102A9000002002F013F9522002F010F9002002F099
:102AA0000DF9642002F00AF9002002F007F97A20FB
:102AB00002F004F9002002F001F98B2002F0FEF888
:102AC000002002F0FBF8992002F0F8F8002002F054
:102AD000F5F8A82002F0F2F8002002F0EFF8B92093
:102AE00002F0ECF8002002F0E9F8C42002F0E6F869
:102AF000002002F0E3F8CA2002F0E0F8002002F023
:102B0000DDF8D22002F0DAF8002002F0D7F8D82061
:102B100002F0D4F8002002F0D1F8E02002F0CEF864
:102B2000002002F0CBF8F32002F0C8F8002002F0F9
:102B3000C5F8E22002F0CEF8052002F0BFF8002030
:102B400002F0BCF80B2002F0B9F8002002F0B6F851
:102B50001B2002F0B3F8002002F0B0F8342002F09D
:102B6000ADF8002002F0AAF8442002F0A7F80020F7
:102B700002F0A4F84F2002F0A1F8002002F09EF825
:102B8000612002F09BF8002002F098F8792002F012
:102B900095F8002002F092F8882002F08FF80020CB
:102BA00002F08CF8972002F089F8002002F086F8F5
:102BB000A62002F083F8002002F080F8B72002F08F
:102BC0007DF8002002F07AF8C22002F077F80020A9
:102BD00002F074F8C72002F071F8002002F06EF8DD
:102BE000D12002F06BF8002002F068F8D62002F045
:102BF00065F8002002F062F8DD2002F05FF80020A6
:102C000002F05CF8F32002F059F8002002F056F8C8
:102C1000E32002F05FF8052002F050F8002002F0F7
:102C20004DF80A2002F04AF8002002F047F81C2074
:102C300002F044F8002002F041F8332002F03EF8A0
:102C4000002002F03BF8442002F038F8002002F0A7
:102C500035F8502002F032F8002002F02FF8622000
:102C600002F02CF8002002F029F8782002F026F873
:102C7000002002F023F8882002F020F8002002F063
:102C80001DF8972002F01AF8002002F017F8A6208D
:102C900002F014F8002002F011F8B72002F00EF84C
:102CA000002002F00BF8C22002F008F8002002F029
:102CB00005F8C72002F002F8002001F0FFFFD12044
:102CC00001F0FCFF002001F0F9FFD52001F0F6FF34
:102CD000002001F0F3FFDD2001F0F0FF002001F003
:102CE000EDFFF32001F0EAFF002001F0E7FFE42010
:102CF00001F0F0FF012001F0E1FF002001F0DEFF14
:102D0000012001F0DBFF002001F0D8FF022001F0DC
:102D1000D5FF002001F0D2FF2A2001F0CFFF0020D4
:102D200001F0CCFF3C2001F0C9FF002001F0C6FFFC
:102D30004B2001F0C3FF002001F0C0FF5D2001F037
:102D4000BDFF002001F0BAFF742001F0B7FF0020A2
:102D500001F0B4FF842001F0B1FF002001F0AEFFCC
:102D6000932001F0ABFF002001F0A8FFA22001F0AA
:102D7000A5FF002001F0A2FFB32001F09FFF00207B
:102D800001F09CFFBE2001F099FF002001F096FFAA
:102D9000C42001F093FF002001F090FFCD2001F04E
:102DA0008DFF002001F08AFFD32001F087FF002073
:102DB00001F084FFDD2001F081FF002001F07EFFA3
:102DC000F32001F07BFF002001F078FFE52001F007
:102DD00081FF002001F072FF002001F06FFF002052
:102DE00001F06CFF002001F069FF022001F066FF96
:102DF000002001F063FF292001F060FF002001F0B6
:102E00005DFF3C2001F05AFF002001F057FF4B20EE
:102E100001F054FF002001F051FF5D2001F04EFF52
:102E2000002001F04BFF742001F048FF002001F06A
:102E300045FF842001F042FF002001F03FFF932076
:102E400001F03CFF002001F039FFA22001F036FF25
:102E5000002001F033FFB32001F030FF002001F02B
:102E60002DFFBE2001F02AFF002001F027FFC42023
:102E700001F024FF002001F021FFCD2001F01EFF12
:102E8000002001F01BFFD32001F018FF002001F00B
:102E900015FFDC2001F012FF002001F00FFFF320EE
:102EA00001F00CFF002001F009FFE62001F012FF05
:102EB000112001F003FF002001F000FF342001F099
:102EC000FDFE002001F0FAFE562001F0F7FE002082
:102ED00001F0F4FE762001F0F1FE002001F0EEFE9C
:102EE000772001F0EBFE002001F0E8FE662001F003
:102EF000E5FE002001F0E2FE882001F0DFFE002068
:102F000001F0DCFE992001F0D9FE002001F0D6FE90
:102F1000BB2001F0D3FE002001F0D0FE992001F08B
:102F2000CDFE002001F0CAFE662001F0C7FE0020A1
:102F300001F0C4FE552001F0C1FE002001F0BEFEEC
:102F4000552001F0BBFE002001F0B8FE452001F045
:102F5000B5FE002001F0B2FE432001F0AFFE0020DC
:102F600001F0ACFE442001F0A9FE002001F0A6FE15
:102F7000E72001F0AFFE322001F0A0FE002001F0BA
:102F80009DFE552001F09AFE002001F097FE76206C
:102F900001F094FE002001F091FE662001F08EFE0B
:102FA000002001F08BFE672001F088FE002001F078
:102FB00085FE672001F082FE002001F07FFE872061
:102FC00001F07CFE002001F079FE992001F076FEF0
:102FD000002001F073FEBB2001F070FE002001F024
:102FE0006DFE992001F06AFE002001F067FE772057
:102FF00001F064FE002001F061FE442001F05EFE5D
:10300000002001F05BFE562001F058FE002001F088
:1030100055FE232001F052FE002001F04FFE332028
:1030200001F04CFE002001F049FE452001F046FE73
:10303000002001F043FEE82001F04CFE002001F0EA
:103040003DFE002001F03AFE992001F037FE0020FD
:1030500001F034FE872001F031FE002001F02EFE49
:10306000882001F02BFE002001F028FE772001F0DF
:1030700025FE002001F022FE662001F01FFE002048
:1030800001F01CFE882001F019FE002001F016FE60
:10309000AA2001F013FE002001F010FEBB2001F079
:1030A0000DFE002001F00AFE992001F007FE00202D
:1030B00001F004FE662001F001FE002001F0FEFD9B
:1030C000552001F0FBFD002001F0F8FD552001F036
:1030D000F5FD002001F0F2FD442001F0EFFD00209D
:1030E00001F0ECFD442001F0E9FD002001F0E6FDD7
:1030F000552001F0E3FD002001F0E0FDE92001F0A2
:10310000E9FDAA2001F0DAFD002001F0D7FD002042
:1031100001F0D4FD002001F0D1FD002001F0DAFD26
:10312000AA2001F0CBFDCF2001F0D4FD002001F05A
:10313000C5FD002001F0C2FD002001F0BFFD002010
:1031400001F0BCFD002001F0B9FD002001F0B6FD4A
:10315000002001F0B3FD002001F0B0FD002001F0DF
:10316000ADFD002001F0AAFD002001F0A7FD002028
:1031700001F0A4FD002001F0A1FD002001F09EFD62
:10318000002001F09BFD002001F098FD002001F0DF
:1031900095FDF02001F09EFD002001F08FFD5020F4
:1031A00001F08CFD002001F089FD002001F086FD7A
:1031B000002001F083FDF32001F08CFD002001F0E0
:1031C0007DFDF92001F086FD062001F077FD10203D
:1031D00001F074FD292001F071FD002001F06EFD69
:1031E0003A2001F077FD552001F068FD112001F033
:1031F00071FD6420FDF72EFA292001F06BFD3520CA
:1032000001F068FD002001F059FD512001F062FD40
:10321000FF2001F053FD532001F05CFD2C2001F054
:103220004DFD552001F056FD822001F047FDBDE81F
:1032300010402C2001F04EBD2DE9F05F4FF470439B
:103240005521184601F05CFD4FF20104AA212046E9
:1032500001F056FD651C5221284601F051FDA61CC7
:103260000821304601F04CFDE71C0121384601F0F1
:1032700047FD0D214FF4304001F042FD0D214BF28E
:10328000010001F03DFD0D214BF2020001F038FD7F
:103290004FF436483421404601F032FD34214BF2E0
:1032A000016001F02DFD34214BF2026001F028FD98
:1032B0004FF431490D21484601F022FD4BF2011A2D
:1032C0000D21504601F01CFD0D214BF2021001F0C2
:1032D00017FD4FF4374B3421584601F011FD3421CE
:1032E0004BF2017001F00CFD34214BF2027001F041
:1032F00007FD00214FF4324001F002FD00214BF2A6
:10330000012001F0FDFC00214BF2022001F0F8FC4D
:1033100024214FF4384001F0F3FC24214BF6010046
:1033200001F0EEFC24214BF6020001F0E9FC012142
:103330004FF43F4001F0E4FC0F214FF4334001F023
:10334000DFFC0F214BF2013001F0DAFC0F214BF2D0
:10335000023001F0D5FC34214FF4394001F0D0FCAB
:1033600034214BF6011001F0CBFC34214BF6021056
:1033700001F0C6FC08214FF4354001F0C1FC0821E2
:103380004BF2015001F0BCFC08214BF2025001F05D
:10339000B7FC03214FF4424001F0B2FC24214FF46A
:1033A0003A4001F0ADFC24214BF6012001F0A8FCCD
:1033B00024214BF6022001F0A3FC00214FF43C40F5
:1033C00001F09EFC78214BF6014001F099FC0021B0
:1033D0004BF6024001F094FC00214FF43D4001F017
:1033E0008FFC78214BF6015001F08AFC00214BF64E
:1033F000025001F085FC00214FF43E4001F080FCBA
:1034000064214BF6016001F07BFC00214FF4514038
:1034100001F076FC33214DF2011001F071FC002126
:103420004DF2021001F06CFC34214DF2031001F05A
:1034300067FC00214DF2041001F062FC3A214DF2CC
:10344000051001F05DFC00214DF2061001F058FC62
:103450004A214DF2071001F053FC00214DF20810F3
:1034600001F04EFC5C214DF2091001F049FC0021F5
:103470004DF20A1001F044FC81214DF20B1001F0D5
:103480003FFC00214DF20C1001F03AFCA6214DF258
:103490000D1001F035FC00214DF20E1001F030FC52
:1034A000E5214DF20F1001F02BFC01214DF210101F
:1034B00001F026FC13214DF2111001F021FC012135
:1034C0004DF2121001F01CFC54214DF2131001F0CA
:1034D00017FC01214DF2141001F012FC82214DF273
:1034E000151001F00DFC01214DF2161001F008FC41
:1034F000CA214DF2171001F003FC02214DF2181001
:1035000001F0FEFB00214DF2191001F0F9FB022140
:103510004DF21A1001F0F4FB01214DF21B1001F0E5
:10352000EFFB02214DF21C1001F0EAFB34214DF2B9
:103530001D1001F0E5FB02214DF21E1001F0E0FB31
:1035400067214DF21F1001F0DBFB02214DF220102C
:1035500001F0D6FB84214DF2211001F0D1FB0221B4
:103560004DF2221001F0CCFBA4214DF2231001F00A
:10357000C7FB02214DF2241001F0C2FBB7214DF22E
:10358000251001F0BDFB02214DF2261001F0B8FB21
:10359000CF214DF2271001F0B3FB02214DF228108C
:1035A00001F0AEFBDE214DF2291001F0A9FB022152
:1035B0004DF22A1001F0A4FBF2214DF22B1001F084
:1035C0009FFB02214DF22C1001F09AFBFE214DF2DF
:1035D0002D1001F095FB03214DF22E1001F090FB10
:1035E00010214DF22F1001F08BFB03214DF2301012
:1035F00001F086FB33214DF2311001F081FB0321F4
:103600004DF2321001F07CFB6D214DF2331001F0D0
:1036100077FB00214FF4524001F072FB33214DF251
:10362000012001F06DFB00214DF2022001F068FB4A
:1036300034214DF2032001F063FB00214DF2042000
:1036400001F05EFB3A214DF2052001F059FB00210B
:103650004DF2062001F054FB4A214DF2072001F003
:103660004FFB00214DF2082001F04AFB5C214DF296
:10367000092001F045FB00214DF20A2001F040FB3A
:1036800081214DF20B2001F03BFB00214DF20C207B
:1036900001F036FBA6214DF20D2001F031FB002197
:1036A0004DF20E2001F02CFBE5214DF20F2001F030
:1036B00027FB01214DF2102001F022FB13214DF2D6
:1036C000112001F01DFB01214DF2122001F018FB29
:1036D00054214DF2132001F013FB01214DF214206F
:1036E00001F00EFB82214DF2152001F009FB0121B2
:1036F0004DF2162001F004FBCA214DF2172001F013
:10370000FFFA02214DF2182001F0FAFA00214DF2E1
:10371000192001F0F5FA02214DF21A2001F0F0FA19
:1037200001214DF21B2001F0EBFA02214DF21C2089
:1037300001F0E6FA34214DF21D2001F0E1FA0221F8
:103740004DF21E2001F0DCFA67214DF21F2001F03E
:10375000D7FA02214DF2202001F0D2FA84214DF255
:10376000212001F0CDFA02214DF2222001F0C8FA09
:10377000A4214DF2232001F0C3FA02214DF22420AE
:1037800001F0BEFAB7214DF2252001F0B9FA02216D
:103790004DF2262001F0B4FACF214DF2272001F09E
:1037A000AFFA02214DF2282001F0AAFADE214DF2F3
:1037B000292001F0A5FA02214DF22A2001F0A0FAF9
:1037C000F2214DF22B2001F09BFA02214DF22C2028
:1037D00001F096FAFE214DF22D2001F091FA03211D
:1037E0004DF22E2001F08CFA10214DF22F2001F025
:1037F00087FA03214DF2302001F082FA33214DF295
:10380000312001F07DFA03214DF2322001F078FAE7
:103810006D214DF2332001F073FA00214FF4534033
:1038200001F06EFA33214DF2013001F069FA002106
:103830004DF2023001F064FA34214DF2033001F010
:103840005FFA00214DF2043001F05AFA3A214DF2AC
:10385000053001F055FA00214DF2063001F050FA22
:103860004A214DF2073001F04BFA00214DF20830A9
:1038700001F046FA5C214DF2093001F041FA0021D5
:103880004DF20A3001F03CFA81214DF20B3001F08B
:1038900037FA00214DF20C3001F032FAA6214DF238
:1038A0000D3001F02DFA00214DF20E3001F028FA12
:1038B000E5214DF20F3001F023FA01214DF21030D5
:1038C00001F01EFA13214DF2113001F019FA012115
:1038D0004DF2123001F014FA54214DF2133001F080
:1038E0000FFA01214DF2143001F00AFA82214DF253
:1038F000153001F005FA01214DF2163001F000FA01
:10390000CA214DF2173001F0FBF902214DF21830B7
:1039100001F0F6F900214DF2193001F0F1F9022120
:103920004DF21A3001F0ECF901214DF21B3001F09B
:10393000E7F902214DF21C3001F0E2F934214DF299
:103940001D3001F0DDF902214DF21E3001F0D8F9F1
:1039500067214DF21F3001F0D3F902214DF22030E2
:1039600001F0CEF984214DF2213001F0C9F9022194
:103970004DF2223001F0C4F9A4214DF2233001F0C0
:10398000BFF902214DF2243001F0BAF9B7214DF20E
:10399000253001F0B5F902214DF2263001F0B0F9E1
:1039A000CF214DF2273001F0ABF902214DF2283042
:1039B00001F0A6F9DE214DF2293001F0A1F9022132
:1039C0004DF22A3001F09CF9F2214DF22B3001F03A
:1039D00097F902214DF22C3001F092F9FE214DF2BF
:1039E0002D3001F08DF903214DF22E3001F088F9D0
:1039F00010214DF22F3001F083F903214DF23030C8
:103A000001F07EF933214DF2313001F079F90321D3
:103A10004DF2323001F074F96D214DF2333001F086
:103A20006FF900214FF4544001F06AF933214DF24F
:103A3000014001F065F900214DF2024001F060F90A
:103A400034214DF2034001F05BF900214DF20440B6
:103A500001F056F93A214DF2054001F051F90021EB
:103A60004DF2064001F04CF94A214DF2074001F0B9
:103A700047F900214DF2084001F042F95C214DF276
:103A8000094001F03DF900214DF20A4001F038F9FA
:103A900081214DF20B4001F033F900214DF20C4031
:103AA00001F02EF9A6214DF20D4001F029F9002177
:103AB0004DF20E4001F024F9E5214DF20F4001F0E6
:103AC0001FF901214DF2104001F01AF913214DF2B6
:103AD000114001F015F901214DF2124001F010F9E9
:103AE00054214DF2134001F00BF901214DF2144025
:103AF00001F006F982214DF2154001F001F9012192
:103B00004DF2164001F0FCF8CA214DF2174001F0C9
:103B1000F7F802214DF2184001F0F2F800214DF2C1
:103B2000194001F0EDF802214DF21A4001F0E8F8D9
:103B300001214DF21B4001F0E3F802214DF21C403F
:103B400001F0DEF834214DF21D4001F0D9F80221D8
:103B50004DF21E4001F0D4F867214DF21F4001F0F4
:103B6000CFF802214DF2204001F0CAF884214DF235
:103B7000214001F0C5F802214DF2224001F0C0F8C9
:103B8000A4214DF2234001F0BBF802214DF2244064
:103B900001F0B6F8B7214DF2254001F0B1F802214D
:103BA0004DF2264001F0ACF8CF214DF2274001F054
:103BB000A7F802214DF2284001F0A2F8DE214DF2D3
:103BC000294001F09DF802214DF22A4001F098F8B9
:103BD000F2214DF22B4001F093F802214DF22C40DE
:103BE00001F08EF8FE214DF22D4001F089F80321FD
:103BF0004DF22E4001F084F810214DF22F4001F0DB
:103C00007FF803214DF2304001F07AF833214DF274
:103C1000314001F075F803214DF2324001F070F8A7
:103C20006D214DF2334001F06BF800214FF4554007
:103C300001F066F833214DF2015001F061F80021E6
:103C40004DF2025001F05CF834214DF2035001F0C6
:103C500057F800214DF2045001F052F83A214DF28C
:103C6000055001F04DF800214DF2065001F048F8E2
:103C70004A214DF2075001F043F800214DF208505F
:103C800001F03EF85C214DF2095001F039F80021B5
:103C90004DF20A5001F034F881214DF20B5001F041
:103CA0002FF800214DF20C5001F02AF8A6214DF218
:103CB0000D5001F025F800214DF20E5001F020F8D2
:103CC000E5214DF20F5001F01BF801214DF210508B
:103CD00001F016F813214DF2115001F011F80121F5
:103CE0004DF2125001F00CF854214DF2135001F036
:103CF00007F801214DF2145001F002F882214DF233
:103D0000155000F0FDFF01214DF2165000F0F8FFB4
:103D1000CA214DF2175000F0F3FF02214DF2185066
:103D200000F0EEFF00214DF2195000F0E9FF0221F2
:103D30004DF21A5000F0E4FF01214DF21B5000F04B
:103D4000DFFF02214DF21C5000F0DAFF34214DF26A
:103D50001D5000F0D5FF02214DF21E5000F0D0FFA3
:103D600067214DF21F5000F0CBFF02214DF2205091
:103D700000F0C6FF84214DF2215000F0C1FF022166
:103D80004DF2225000F0BCFFA4214DF2235000F070
:103D9000B7FF02214DF2245000F0B2FFB7214DF2DF
:103DA000255000F0ADFF02214DF2265000F0A8FF93
:103DB000CF214DF2275000F0A3FF02214DF22850F1
:103DC00000F09EFFDE214DF2295000F099FF022104
:103DD0004DF22A5000F094FFF2214DF22B5000F0EA
:103DE0008FFF02214DF22C5000F08AFFFE214DF290
:103DF0002D5000F085FF03214DF22E5000F080FF82
:103E000010214DF22F5000F07BFF03214DF2305076
:103E100000F076FF33214DF2315000F071FF0321A5
:103E20004DF2325000F06CFF6D214DF2335000F036
:103E300067FF00214FF4564000F062FF33214DF23E
:103E4000016000F05DFF00214DF2026000F058FFBC
:103E500034214DF2036000F053FF00214DF2046065
:103E600000F04EFF3A214DF2056000F049FF0021BD
:103E70004DF2066000F044FF4A214DF2076000F069
:103E80003FFF00214DF2086000F03AFF5C214DF247
:103E9000096000F035FF00214DF20A6000F030FFAC
:103EA00081214DF20B6000F02BFF00214DF20C60E0
:103EB00000F026FFA6214DF20D6000F021FF002149
:103EC0004DF20E6000F01CFFE5214DF20F6000F096
:103ED00017FF01214DF2106000F012FF13214DF287
:103EE000116000F00DFF01214DF2126000F008FF9B
:103EF00054214DF2136000F003FF01214DF21460D4
:103F000000F0FEFE82214DF2156000F0F9FE012165
:103F10004DF2166000F0F4FECA214DF2176000F079
:103F2000EFFE02214DF2186000F0EAFE00214DF292
:103F3000196000F0E5FE02214DF21A6000F0E0FE8B
:103F400001214DF21B6000F0DBFE02214DF21C60EE
:103F500000F0D6FE34214DF21D6000F0D1FE0221AA
:103F60004DF21E6000F0CCFE67214DF21F6000F0A4
:103F7000C7FE02214DF2206000F0C2FE84214DF206
:103F8000216000F0BDFE02214DF2226000F0B8FE7B
:103F9000A4214DF2236000F0B3FE02214DF2246013
:103FA00000F0AEFEB7214DF2256000F0A9FE02211F
:103FB0004DF2266000F0A4FECF214DF2276000F004
:103FC0009FFE02214DF2286000F09AFEDE214DF2A4
:103FD000296000F095FE02214DF22A6000F090FE6B
:103FE000F2214DF22B6000F08BFE02214DF22C608D
:103FF00000F086FEFE214DF22D6000F081FE0321CF
:104000004DF22E6000F07CFE10214DF22F6000F08A
:1040100077FE03214DF2306000F072FE33214DF245
:10402000316000F06DFE03214DF2326000F068FE59
:104030006D214DF2336000F063FE5521184600F00B
:104040005FFEAA21204600F05BFE5221284600F0C8
:1040500057FE0821304600F053FE0021384600F09C
:104060004FFECC21484600F04BFE0021504600F0A8
:1040700047FE0521404600F043FE7021584600F0FF
:104080003FFE70214BF2017000F03AFE01214FF427
:10409000384000F035FE03214BF6010000F030FE01
:1040A00003214BF6020000F02BFE03214BF6030028
:1040B00000F026FE02214FF43C4000F021FE0021DA
:1040C0004BF6014000F01CFE00214BF6024000F0D0
:1040D00017FED0214FF4494000F012FE02214CF6A9
:1040E000011000F00DFE50214CF6021000F008FE09
:1040F00050214CF6031000F003FE50214CF6041042
:1041000000F0FEFD00214FF4545000F0F9FD552160
:104110004FF4685000F0F4FD4FF4885000F0DAFDE1
:104120007820FDF7A7FDBDE8F05F4FF4245000F0C4
:10413000D1BD10B5E22000F0CDFD1D2000F0BEFD88
:10414000022000F0BBFD042000F0B8FD6420FDF764
:1041500091FDE02000F0BEFD012000F0AFFD0A203F
:10416000FCF778FAE02000F0B5FD032000F0A6FD92
:104170000C20FCF76FFA012000F0ACFD0A20FCF7E0
:1041800069FAE62000F0A6FD2F2000F097FDFF2041
:1041900000F094FDFF2000F091FDB02000F09AFDAA
:1041A000202000F08BFD002000F088FD032000F0AF
:1041B00085FD40F21F3000F081FD012000F07EFD02
:1041C00040F2DF1000F07AFD002000F077FDB4200F
:1041D00000F080FD042000F071FD40F21F4000F06F
:1041E0006DFD002000F06AFD2E2000F067FD00202C
:1041F00000F064FD002000F061FD002000F05EFD95
:10420000002000F05BFDB62000F064FD022000F00D
:1042100055FD4FF4037000F051FD002000F04EFDFD
:10422000172000F04BFD152000F048FD002000F0A5
:1042300045FD002000F042FDF02000F04BFD032082
:1042400000F03CFD292000F045FDD02000F042FDAB
:10425000002000F033FDBE2000F03CFD052000F002
:104260002DFDFE2000F02AFD012000F027FD00209A
:1042700000F024FD002000F021FD002000F01EFDD4
:10428000B82000F027FD032000F018FD012000F009
:1042900015FDBA2000F01EFDBDE81040012000F021
:1042A0000DBD10B5112000F015FD7820FCF7D2F9F6
:1042B000362000F00FFD002000F000FD3A2000F055
:1042C00009FD052000F0FAFCB22000F003FD0C20EF
:1042D00000F0F4FC0C2000F0F1FC002000F0EEFCFB
:1042E000332000F0EBFC332000F0E8FCB72000F0B6
:1042F000F1FC352000F0E2FCBB2000F0EBFC3220AA
:1043000000F0DCFCC02000F0E5FC0C2000F0D6FC46
:10431000C22000F0DFFC012000F0D0FCC32000F040
:10432000D9FC102000F0CAFCC42000F0D3FC2020EF
:1043300000F0C4FCC62000F0CDFC0F2000F0BEFC55
:10434000D02000F0C7FCA42000F0B8FCA12000F0B1
:10435000B5FCE02000F0BEFCD02000F0AFFC002057
:1043600000F0ACFC022000F0A9FC072000F0A6FC45
:104370000A2000F0A3FC282000F0A0FC322000F06E
:104380009DFC442000F09AFC422000F097FC06209F
:1043900000F094FC0E2000F091FC122000F08EFC46
:1043A000142000F08BFC172000F088FCE12000F0C6
:1043B00091FCD02000F082FC002000F07FFC022065
:1043C00000F07CFC072000F079FC0A2000F076FC6D
:1043D000282000F073FC312000F070FC542000F025
:1043E0006DFC472000F06AFC0E2000F067FC1C20EA
:1043F00000F064FC172000F061FC1B2000F05EFC64
:104400001E2000F05BFC2A2000F064FC002000F07D
:1044100055FC002000F052FC002000F04FFCEF2083
:1044200000F04CFC2B2000F055FC002000F046FC76
:10443000002000F043FC012000F040FC3F2000F091
:104440003DFCBDE81040292000F044BC10B511200F
:1044500000F040FC7820FCF7FDF8362000F03AFC34
:10446000482000F02BFC3A2000F034FC552000F0EE
:1044700025FCF02000F02EFCC32000F01FFCF020F3
:1044800000F028FC962000F019FCB42000F022FC7B
:10449000012000F013FCB62000F01CFC0A2000F004
:1044A0000DFCA22000F00AFCB72000F013FCC6208F
:1044B00000F004FCB92000F00DFC022000F0FEFB2F
:1044C000E02000F0FBFBC02000F004FC802000F0A6
:1044D000F5FB162000F0F2FBC12000F0FBFB1920D9
:1044E00000F0ECFBC22000F0F5FBA72000F0E6FB9B
:1044F000C52000F0EFFB162000F0E0FBE82000F004
:10450000E9FB402000F0DAFB8A2000F0D7FB002016
:1045100000F0D4FB002000F0D1FB292000F0CEFBFE
:10452000192000F0CBFBA52000F0C8FB332000F0E1
:10453000C5FBE02000F0CEFBF02000F0BFFB072021
:1045400000F0BCFB0D2000F0B9FB042000F0B6FB2E
:10455000052000F0B3FB142000F0B0FB362000F083
:10456000ADFB542000F0AAFB4C2000F0A7FB382044
:1045700000F0A4FB132000F0A1FB142000F09EFB30
:104580002E2000F09BFB342000F098FBE12000F08F
:10459000A1FBF02000F092FB102000F08FFB142014
:1045A00000F08CFB0E2000F089FB0C2000F086FB55
:1045B000082000F083FB352000F080FB442000F051
:1045C0007DFB4C2000F07AFB262000F077FB1020CA
:1045D00000F074FB122000F071FB2C2000F06EFB49
:1045E000322000F06BFBF02000F074FB3C2000F068
:1045F00065FBF02000F06EFB692000F05FFB782087
:10460000FCF728F8BDE81040292000F063BB00004B
:104610002DE9F05FFDF70CF83220FCF71BF8D320F2
:1046200000F058FB00F006F97C4CA08000F002F985
:10463000A08000F0FFF84FF6FF7505EA0020A0808B
:1046400000F0F8F8A18849F241370843A08047F20A
:10465000897645F2103847F2967945F2105A49F6B4
:10466000060BB8427DD0042000F034FB00F0E2F8E5
:10467000A08000F0DFF8A08000F0DCF805EA002060
:10468000A08000F0D7F8A1880843A0F50541A080DC
:10469000523967D0B04264D0D42000F01BFB00F048
:1046A000C9F8A08000F0C6F8A08000F0C3F805EAC1
:1046B0000020A08000F0BEF8A1880843A0804045FB
:1046C00071D0D32000F006FB00F0B4F8A08000F019
:1046D000B1F8A08000F0AEF805EA0020A08000F05C
:1046E000A9F8A1880843A08048455CD055214FF423
:1046F000704000F005FBAA214FF2010000F000FB22
:1047000052214FF2020000F0FBFA08214FF20300A1
:1047100000F0F6FA01214FF2040000F0F1FA4FF434
:10472000454000F0D7FA00F085F805EA0020A080A7
:104730004CF2015000F0CEFA00F07CF8A18808435A
:10474000A0800520FBF786FFA18851452BD0D32000
:1047500000F0C0FA00F06EF8A08000F06BF8A080C6
:1047600001E020E025E000F065F805EA0020A080E7
:1047700000F060F8A1880843A080584513D0A1201C
:1047800000F0A8FA00F056F8A08000F053F805EA0F
:104790000020A08000F04EF8A1880843A0F5AE41AB
:1047A000A080613907D0A088B04208D1FFF779FD19
:1047B00027E0A680FAE741F66310A0801CE0B8422B
:1047C00002D1FDF707FB1CE0404502D1FDF7BAFD21
:1047D00017E0484502D1FFF739FE12E0504502D1FB
:1047E000FEF72AFD0DE0584502D1FDF70AFC08E06E
:1047F000A0F5C851633904D1FFF79BFC642000F099
:1048000035FA0120FDF764FA012251020448FCF751
:104810007EF82846BDE8F05FFDF742BA140100209B
:10482000001C02400246012000E05043491EC9B26C
:10483000FBD2704708B50220401EFDD20348008815
:10484000ADF80000BDF8000008BD00000008006CD5
:1048500070B55F4C00232146A279898841F6631622
:10486000012A01D01AB10CE0B14202D109E0B142F3
:1048700007D1082805D2DFE800F0161812140C1929
:10488000100E082812D2DFE800F0110406080A0C06
:104890000E1080230AE0402308E0C02306E0202316
:1048A00004E0602302E0A02300E0E023362045F28C
:1048B0001055A94200D10002A1F51342413A07D098
:1048C000A1F5EE42893A03D0A1F5EE42963A01D124
:1048D00043F00803194600F013FAA188B1420AD048
:1048E00098062088628802D5904202D303E0904265
:1048F00001D9228060806089A94240D100F0EAF9A4
:10490000002000F0DBF96089401C80B200F0E2F981
:10491000002000F0D3F96089801C80B200F0DAF941
:104920002088401EC0F30F2000F0C8F96089C01C29
:1049300080B200F0CFF92078401EC0B200F0BEF97E
:10494000A08900F0C7F9002000F0B8F9A089401C48
:1049500080B200F0BFF9002000F0B0F9A089801CFF
:1049600080B200F0B7F96088401EC0F30F2000F05D
:10497000A5F9A089C01C80B200F0ACF921E000F0DC
:10498000A9F9002000F09AF9002000F097F920889A
:10499000401EC0F30F2000F091F92078401EC0B2F5
:1049A00000F08CF9A08900F095F9002000F086F95C
:1049B000002000F083F96088401EC0F30F2000F053
:1049C0007DF9A078BDE87040401EC0B200F076B915
:1049D00014010020F0B53B4A0D460446060A9188B2
:1049E00010462F0A4089A1F5C853633B16D0A1F5A4
:1049F000AA43103B4CD000F06DF9304600F05EF950
:104A0000E0B200F05BF9908900F064F9384600F0FC
:104A100055F9E8B2BDE8F04000F050B9917931B3F2
:104A200000F058F9304600F049F9E0B200F046F9DC
:104A30001088401EC0F30F2000F040F91078401E8F
:104A40005FFA80F000F03AF9908900F043F93846B7
:104A500000F034F9E8B200F031F95088401EC0F39C
:104A60000F2000F02BF99078401EC0B2D2E71188D9
:104A7000091B491E8CB200F02DF9002000F01EF930
:104A8000002000F01BF9200A00F018F9E0B2D9E785
:104A900000F020F9304600F011F95089401C80B236
:104AA00000F018F9E0B200F009F9908900F012F96D
:104AB000384600F003F99089401C80B200F00AF9F2
:104AC000A7E70000140100202DE9FF4F1D460C460A
:104AD0008B46580700D0012000EBD500690810FB79
:104AE00001F0203A00F0FF0AD0B20C2D0AD0102DB0
:104AF0000CD0182D0ED0202D46D1244901EB801664
:104B000000203EE000EB4001214806E0214901EB96
:104B10000016F5E700EBC0011F4800EB8106EFE748
:104B200016F808704FF00009380601D50E9A03E018
:104B30000D9828B91948026821460098FDF73EF9FA
:104B40007806070E1648641CA4B24088A0421BD900
:104B5000A4EB0B00A8420AD100985C46401C80B22E
:104B600000900F480188009881420DD906E009F1B4
:104B7000010000F0FF09B9F1080FD5D308F10100D9
:104B8000C0B280465045CBD3BDE8FF8FF268000825
:104B900032510008A6550008965B00082C00002042
:104BA000140100202DE9FF4F83B00026DDE910BA83
:104BB0001D4681463446B0464FEA5B0726E0281B77
:104BC000401EC1B20A20FFF72DFE0599B1FBF0F09F
:104BD0000A21B0FBF1F201FB120026B9691E8C42DA
:104BE00001DA38B101263030C2B207FB049080B23E
:104BF0005B4604E007FB049080B25B462022CDE9CF
:104C0000008A0499FFF760FF641CE4B2AC42D6D37B
:104C100007B0BDE8F08F2DE9FC4F044600F0FF0916
:104C200010190D46DDE90BB61FFA80F8581987B246
:104C30004FF0000A13E0444503D305EB0B004C464C
:104C400085B2BD4210D20D985B46CDE900A0294641
:104C50002046FFF739FF04EB5B0084B2761C327804
:104C6000A2F120005E28E6D9BDE8FC8F10B502460F
:104C7000BE2000F02FF8052000F020F8104600F0CC
:104C80003AF99FED0C1B53EC112B00F047F900F0A3
:104C900005F980B200F012F8012000F00FF8FF20B3
:104CA00000F00CF8002000F009F8BDE810400020EA
:104CB00000F004B8666666666666044001B5BDF835
:104CC0000000ADF80000BDF800000149088008BDF3
:104CD0000008006C01B5BDF80000ADF80000BDF89B
:104CE00000000149088008BDFE07006C0248034926
:104CF000008908807047000014010020FE07006C46
:104D0000024A1080901C018070470000FE07006C72
:104D10000EB5FBF70FFEFCF705FEFCF7CFFCFCF72A
:104D200087FCFCF759FDFCF7A7FDFBF70BFCFCF734
:104D30000FFCFCF761FCFFF76BFC20204FF478427E
:104D40003DA18DE8070003464FF4967232210A20F8
:104D5000FFF761FF18261F253CA00096CDE901054D
:104D600033464FF4E17255210A20FFF754FF3E48C5
:104D7000FBF766FB00246FF0630700BFFCF7F6FB50
:104D8000012804D0022814D0032824D034E037A00E
:104D90000096CDE901051823C82273210A20FFF7E8
:104DA0003AFF0020FCF736FC0A34642C24DD64242E
:104DB00022E032A00096CDE901051823C822732114
:104DC0000A20FFF728FF0120FCF724FC0A3CBC4224
:104DD00012DA3C4610E02DA00096CDE9010518231B
:104DE000C82273210A20FFF716FF0020FCF712FCEF
:104DF0000120FCF70FFC0024CDE90065220000D55E
:104E00006242032396210A20FFF7CCFE002C07D034
:104E100009DA4FF00100FBF71DFB6042C0B206E06B
:104E2000FBF760FBAAE70020FBF714FBE0B2FBF7FF
:104E300037FBFBF7F5FAA1E747656E426F747465BF
:104E4000722D4D6F746F722D3100000043686170D8
:104E500030365F4C43445F4B45595F4C45445F548B
:104E6000656D7050726F0000000000206B65792046
:104E70003020707265737365642E00006B65792055
:104E80003120707265737365642E00006B65792044
:104E90003220707265737365642E00004FEA1153FF
:104EA000A3F58063D3F11E03A8BFD3F1200C08DB68
:104EB0004FF0004242EAC12252EA505232FA03F065
:104EC000704709420BD4102BC4BF0020704703F574
:104ED000787CBCF1FF3F05D04FF0FF3070474FF0BA
:104EE0000000704770B500F0C3F800BF49922480FD
:104EF00000207047F0E7B0FA80F310FA03F10AD00F
:104F0000C3F11D0303F580634FEA41504FEA03529A
:104F100002EBD12170474FF000007047DFF848C125
:104F200070B51CEA111E1EBF1CEA13159EEA0C0F79
:104F300095EA0C0F00F06F8081EA030423EA4C131A
:104F40004EEAD47E21EA4C1141F4801143F48013DF
:104F5000AE44A1FB024CA0FB0365AEF17F7E361987
:104F600055EB0C05A1FB034C4CF10003A0FB021C0C
:104F700016EB0C06654153F10003094218BF46F0D9
:104F8000010613F4007F0BD14FEA03314FEA0530DD
:104F9000340341EA155140EA16506FF003020AE06B
:104FA0004FEAC3214FEAC520F40241EA555140EAD5
:104FB00056506FF0020202EB2E4201EB025585EAD9
:104FC000CE710AD05FEA440C18BF24F0004450F1BF
:104FD000000041F1000120EAD47040F2FE7C6245FD
:104FE00000D270BDA84214BF4FF080444FF040443F
:104FF000002E08BF0024BEF1806FA8BFA1F1C04100
:10500000BDE8704080F282804FF0000001F1C041A5
:1050100001F0004170479EEA0C0F0CEA131518BF0F
:1050200095EA0C0F06D04FF0000081EA030E0EF057
:10503000004170BD00F01CF88900013E00F007B887
:1050400000F009B84FEA430C5FEA5C5C08D081EAE3
:10505000030100F05BB84FEA410C5FEA5C5CF6D1FB
:105060004FF00000014970470000FF070000F87F83
:105070000EF1020E2EF0030E5EF8046B364205D4DC
:10508000012A43EB030515F5001F12D8012841EB57
:10509000010C1CF5001F0CD80ED14FEAD17C15F580
:1050A000001F0CEB4C0C0CF1020C08BF4CEBD37C3A
:1050B00004E04FF0080C01E04FEAD37C0CEB4C0508
:1050C00026FA05F606F00706B6F1040C06D20EEB3A
:1050D000860CBDE870404CF0010C6047DFE80CF036
:1050E000090B02024FF000414FF00000A1F5002132
:1050F00070BD19461046012851EB010418BFD4F5C4
:10510000001484BF002001F0004170BD0808A0F524
:1051100000114FEA310170474FF04070E1EE100A84
:1051200070470000000000000000010203040607B1
:10513000080900000000000000000000000000005E
:1051400000003F4000000000000000003000400070
:1051500030004000000009000BC03D000BC03D00C6
:10516000090018C024407FE0224031800000180070
:1051700024C01B000D803240018003801C4027406A
:105180001C8007400040100060000000000000008C
:1051900000000000000000001F80204040200000B0
:1051A000402020401F8000000000090006001F80F2
:1051B000060009000000040004003F800400040011
:1051C000000000100060000000000000000004006B
:1051D000040004000400040000000000004000007F
:1051E000000000000000002001C006003800400060
:1051F00000001F802040204020401F800000000051
:1052000010403FC000400000000018C02140224074
:1052100024401840000010802040244024401B807F
:10522000000002000D0011003FC0014000003C8062
:10523000244024402440238000001F802440244038
:105240003440038000003000200027C038002000D8
:1052500000001B802440244024401B8000001C00D0
:1052600022C0224022401F800000000000000840B1
:1052700000000000000000000000046000000000CA
:105280000000000004000A001100208040400900D6
:1052900009000900090009000000000040402080CA
:1052A00011000A0004001800200023402400180008
:1052B00000001F802040274029401F400000004080
:1052C00007C039000F0001C0004020403FC024400B
:1052D00024401B8000001F80204020402040308060
:1052E000000020403FC0204020401F8000002040A0
:1052F0003FC024402E4030C0000020403FC024402A
:105300002E00300000000F0010802040224033802B
:10531000020020403FC0040004003FC02040204065
:1053200020403FC02040204000000060202020207E
:105330003FC02000200020403FC024400B0030C070
:10534000204020403FC020400040004000C03FC0FF
:105350003C0003C03C003FC0000020403FC00C4068
:1053600023003FC020001F802040204020401F809D
:10537000000020403FC024402400180000001F808F
:105380002140214020E01FA0000020403FC02440D9
:10539000260019C0004018C024402440224031801B
:1053A0000000300020403FC02040300000002000BE
:1053B0003F80004000403F80200020003E0001C0B0
:1053C000070038002000380007C03C0007C0380044
:1053D0000000204039C0060039C0204000002000F5
:1053E000384007C0384020000000304021C026402F
:1053F000384020C00000000000007FE04020402036
:105400000000000070000C0003800040000000005D
:10541000402040207FE0000000000000200040000D
:10542000200000000000001000100010001000100C
:10543000001000000000400000000000000000001C
:1054400002800540054003C0004020003FC00440EA
:105450000440038000000000038004400440064034
:10546000000000000380044024403FC000400000D2
:1054700003800540054003400000000004401FC0B9
:10548000244024402000000002E005500550065052
:10549000042020403FC00440040003C0004000003E
:1054A000044027C00040000000000010001004105D
:1054B00027E00000000020403FC00140070004C07A
:1054C0000440204020403FC000400040000007C092
:1054D000040007C0040003C00000044007C00440EB
:1054E000040003C000400000038004400440038027
:1054F0000000041007F00450044003800000000086
:1055000003800440045007F00010044007C002402C
:10551000040004000000000006400540054004C0EF
:105520000000000004001F80044000400000040050
:1055300007800040044007C000400400070004C08A
:10554000018006000400060001C0070001C006003B
:105550000000044006C0010006C004400000041022
:10556000071004E00180060004000000044005C0AC
:105570000640044000000000000004007BE04020E2
:105580000000000000000000FFF00000000000002C
:1055900040207BE00400000000004000800040004C
:1055A000200020004000000000000000000000007B
:1055B0000000000000000000000000001FCC000CF4
:1055C000000000000000000008003000600008003B
:1055D000300060000000022003FC1E20022003FCBB
:1055E0001E200220000000000E1811043FFF10844E
:1055F0000C78000000000F0010840F3800C00778FE
:1056000018840078000000780F8410C411240E98CC
:1056100000E400840008080068007000000000003A
:1056200000000000000000000000000007E0181863
:10563000200440020000000040022004181807E087
:105640000000000000000240024001800FF00180D5
:105650000240024000000080008000800FF80080BF
:105660000080008000000001000D000E000000001E
:10567000000000000000000000800080008000802A
:105680000080008000800000000C000C0000000082
:10569000000000000000000000060018006001800B
:1056A000060018002000000007F00808100410048D
:1056B000080807F000000000080408041FFC0004AC
:1056C00000040000000000000E0C10141024104410
:1056D00011840E0C000000000C18100411041104B9
:1056E00012880C700000000000E00320042408244D
:1056F0001FFC0024000000001F98108411041104F6
:10570000108810700000000007F0088811041104D0
:1057100018880070000000001C00100010FC13002E
:105720001C001000000000000E381144108410848A
:1057300011440E38000000000700088C104410448B
:10574000088807F00000000000000000030C030CB4
:105750000000000000000000000000010106000041
:105760000000000000000000008001400220041042
:10577000080810040000022002200220022002205B
:10578000022002200000000010040808041002207B
:1057900001400080000000000E001200100C106C90
:1057A00010800F00000003E00C1813E4142417C449
:1057B000082807D000000004003C03C41C40074038
:1057C00000E4001C000410041FFC11041104110467
:1057D0000E880070000003E00C1810041004100480
:1057E00010081C10000010041FFC1004100410040A
:1057F000080807F0000010041FFC1104110417C46E
:1058000010040818000010041FFC1104110017C038
:1058100010000800000003E00C18100410041044ED
:105820001C780040000010041FFC108400800080E1
:1058300010841FFC10040000100410041FFC10044E
:1058400010040000000000030001100110011FFE01
:1058500010001000000010041FFC110403801464E9
:10586000181C1004000010041FFC100400040004A5
:105870000004000C000010041FFC1F0000FC1F00AF
:105880001FFC1004000010041FFC0C04030000E0C7
:1058900010181FFC100007F0080810041004100472
:1058A000080807F0000010041FFC1084108010800E
:1058B00010800F00000007F0081810241024101C9E
:1058C000080A07F2000010041FFC1104110011C0A7
:1058D00011300E0C000400000E1C11041084108402
:1058E00010441C3800001800100010041FFC1004A5
:1058F00010001800000010001FF81004000400043D
:1059000010041FF8100010001E0011E0001C0070B1
:1059100013801C0010001FC0103C00E01F0000E0BE
:10592000103C1FC000001004180C163401C001C048
:105930001634180C100410001C00130400FC13048F
:105940001C00100000000804101C106410841304D4
:105950001C04101800000000000000007FFE400240
:10596000400240020000000030000C000380006094
:10597000001C0003000000004002400240027FFEC5
:105980000000000000000000000020004000400077
:1059900040002000000000010001000100010001A2
:1059A0000001000100010000400040002000000054
:1059B00000000000000000000098012401440144A0
:1059C000014400FC000410001FFC008801040104D5
:1059D00000880070000000000070008801040104CD
:1059E0000104008800000000007000880104010428
:1059F00011081FFC0004000000F8014401440144A8
:105A0000014400C800000000010401040FFC11045F
:105A1000110411001800000000D6012901290129F4
:105A200001C90106000010041FFC008401000100F0
:105A3000010400FC000400000104190419FC000426
:105A40000004000000000000000300010101190132
:105A500019FE0000000010041FFC0024004001B4E7
:105A6000010C010400000000100410041FFC0004DD
:105A7000000400000000010401FC0104010001FC1D
:105A80000104010000FC010401FC0084010001008C
:105A9000010400FC0004000000F8010401040104FA
:105AA000010400F80000010101FF00850104010468
:105AB00000880070000000000070008801040104EC
:105AC000010501FF00010104010401FC008401043F
:105AD000010001800000000000CC01240124012409
