:020000040800F2
:1000000080140020A1010008B33700082F32000837
:10001000B1370008C11100087D420008000000004F
:10002000000000000000000000000000B93A0008D5
:100030007512000800000000B73A0008553C00089F
:10004000BB010008BB010008BB010008BB010008A0
:10005000BB010008BB010008BB010008BB01000890
:10006000BB010008BB010008BB010008BB01000880
:10007000BB010008BB010008BB010008BB01000870
:10008000BB010008BB0100081D0D0008BB010008F2
:10009000BB010008BB010008BB010008BB01000850
:1000A000BB010008BB010008BB010008BB01000840
:1000B000BB010008FD3C0008BB010008BB010008B3
:1000C000BB010008BB010008BB010008BB01000820
:1000D000BB01000871420008BB010008BB01000819
:1000E000BB010008BB010008BB010008BB01000800
:1000F000BB010008BB010008BB010008BB010008F0
:10010000BB010008BB010008BB010008BB010008DF
:10011000BB010008BB010008093D0008BB01000845
:10012000C5110008BB010008BB010008BB010008A5
:10013000BB010008BB010008BB010008BB010008AF
:10014000BB010008BB010008BB010008BB0100089F
:10015000BB010008BB010008BB010008BB0100088F
:10016000BB010008BB010008BB010008BB0100087F
:10017000BB010008BB010008BB0100080000000033
:10018000BB010008BB010008DFF810D000F0ACFB99
:1001900000480047F17D0008AFF300808014002084
:1001A0000648804706480047FEE7FEE7FEE7FEE711
:1001B000FEE7FEE7FEE7FEE7FEE7FEE7ED3C0008B0
:1001C000890100082DE9F05F0546002092469B4614
:1001D00088460646814640241BE02846414647465D
:1001E000224600F049F953465A46C01A914110D3AD
:1001F00011461846224600F030F92D1A67EB010827
:100200004F4622460120002100F027F917EB000994
:100210004E41201EA4F10104DFDC484631462A4647
:100220004346BDE8F09F40EA01039B0703D009E085
:1002300008C9121F08C0042AFAD203E011F8013BD2
:1002400000F8013B521EF9D27047D2B201E000F82B
:10025000012B491EFBD270470022F6E710B513466A
:100260000A4604461946FFF7F0FF204610BD30B598
:1002700005462A460B4612F8010B13F8014B08B14C
:10028000A042F8D01CB1002802D06D1CF1E728462E
:1002900030BD421C10F8011B0029FBD1801A7047A9
:1002A0002DE9FE4F81EA030404F0004421F00041EF
:1002B00000944FF0000B23F0004350EA01045ED09D
:1002C00052EA03045BD0C3F30A54C1F30A552C4429
:1002D000A4F2F3340194A0FB0254C1F3130141F4DE
:1002E0008011C3F3130343F4801301FB024400FBAA
:1002F000034E840A970A44EA815447EA8357A4FBD1
:10030000076802958D0A05FB07854FEA932C04FBCD
:100310000C542705029D4FEA065847EA1637B5EBFD
:1003200008056EEB070C870E920E47EA811742EA2A
:100330008312A7FB0201B6EB0B0164EB00042B0D4B
:1003400043EA0C335E1844EB1C50DA465146E7FB97
:100350000201C5F313044FEA0B3343EA14534FEA87
:100360000432019C43EA0603A4F10C040294009CAD
:10037000CDE900B400F024F903B0BDE8F08F00200F
:100380000146F9E70EB540F2334102910021CDE973
:1003900000110A460B4600F013F903B000BDC1F38B
:1003A0000A5210B5C1F3130140F2FF3341F480113A
:1003B0009A4201DA002010BD40F233439A42A2F281
:1003C000334203DC524200F057F810BD904010BD9C
:1003D00000F0004230F000400AD0C10D01F560711C
:1003E000C0F3160042EA0151C208400711437047AA
:1003F00000200146704701F0004330B421F0004175
:1004000050EA010206D00A0DA2F56072C1F3130191
:10041000002A02DC30BC00207047440F44EAC104CB
:10042000C100E01830BC00EBC25000F083B830B51A
:100430000B46014600202022012409E021FA02F5A2
:100440009D4205D303FA02F5491B04FA02F528443C
:10045000151EA2F10102F1DC30BD202A04DB203A96
:1004600000FA02F1002070479140C2F1200320FA07
:1004700003F3194390407047202A04DB203A21FA05
:1004800002F00021704721FA02F3D040C2F12002AD
:1004900091400843194670470FB4002300B589B056
:1004A0000CA900910B996FF00042CB601E4B069394
:1004B0001E4B07930423CDE901321D4A08920246E0
:1004C0006B46002000F0CEFA09B05DF814FB70B561
:1004D00086B006464FF0FF300091CDE901010020C3
:1004E00015460C4604903246694604A8FFF7D4FF2F
:1004F00002460498211825B108B1084600E02046BC
:100500002860049800280DD0002A02DD0098884257
:1005100008D0081B0094CDE901043246694604A8BE
:10052000FFF7BAFF06B070BD9D0C0008BB0C0008B9
:10053000310900080029A8BF7047401C490008BFC6
:1005400020F00100704710B4B0FA80FC00FA0CF003
:1005500050EA010404BF10BC704749B1CCF120043B
:1005600021FA04F411FA0CF118BF012121430843C8
:10057000A3EB0C01CB1D4FEA00614FEA102042BFF4
:10058000002010BC704700EBC35010440029A4BFEA
:1005900010BC7047401C490008BF20F0010010BC8F
:1005A000704710B5141E73F1000408DA401C41F1C5
:1005B000000192185B411A4301D120F0010010BDE7
:1005C0002DE9F04D92469B4611B1B1FA81F202E05D
:1005D000B0FA80F220329046FFF73FFF04460F4604
:1005E00040EA0A0041EA0B0153465A46084313D039
:1005F000114653EA010019D0C8F140025046FFF7F6
:100600003BFF05460E46504659464246FFF725FF3A
:10061000084305D0012004E020463946BDE8F08DAE
:100620000020054346EAE0762C4337430A986305E9
:10063000E40AA0EB08000022FD0A44EA47540A300D
:1006400002D500200146E9E7010510196941DDE9FD
:10065000084500196941BDE8F04DA2E72DE9FE4FBC
:10066000804681EA0300C00F0C46009021F0004153
:1006700023F00045B8EB0200A94105D240462146CF
:1006800090461C460B46024623F00040104347D0DC
:10069000270DC7F30A00C3F30A510290401A0190D4
:1006A00040286BDAC3F3130040F4801B0098924695
:1006B00020B10023D2EB030A63EB0B0B01985946E0
:1006C000C0F140025046FFF7C8FE06460D465046B0
:1006D0005946019A00F01AF910EB08006141002414
:1006E00087EA115284EAE7731A4340D0009A62B352
:1006F000019A012A4FEA075215DC001B61EB020147
:100700004FF0004202EA0752CDE90042001C41F5D9
:10071000801132462B46FFF753FF03B0BDE8F08F40
:1007200040462146F9E7001B61EB0201001C41F540
:10073000801300185B412018A2F5001747EB030156
:1007400040EAD570B6196D4111E06D084FEA3606E2
:1007500045EAC0754FEA0752001B61EB0201001C1D
:1007600041F5801149084FEA3000001951413246E5
:100770002B4603B0BDE8F04FFFF713BF00980122EE
:1007800040000023D0EB020263EBE07300982146A7
:100790004FEAE074B8EB000061EB0401E9E783F095
:1007A00000435BE781F0004158E72DE9F04D81EA15
:1007B000030404F0004B21F0004514464FF0000AFA
:1007C00023F0004150EA050220D054EA01021DD076
:1007D000C5F30A570246C5F31303C1F31300C1F36F
:1007E0000A5640F4801543F48013A7EB0608101B4B
:1007F000D64608F2FD3873EB050002D308F1010874
:1008000001E092185B41B8F1000F03DA00200146C5
:10081000BDE8F08D00204FF48011064684460EE0BE
:10082000171B73EB050705D3121B63EB0503064388
:100830004CEA010C49084FEA300092185B4150EA3B
:100840000107EDD152EA030012D082EA040083EAE4
:100850000501084305D0101BAB4106D2012200233D
:1008600006E000224FF0004302E06FF00102531057
:100870001AEB06004CEB085110EB0A0041EB0B01A0
:10088000BDE8F04DFFF78DBEC1F30A52C1F313016D
:1008900040F2FF3341F480119A4202DA002001460F
:1008A000704740F233439A42A2F2334202DC524292
:1008B000FFF7E2BDFFF7D1BD30B5041E71F10004B2
:1008C00004DB4FF00044404264EB0101141E73F15D
:1008D000000405DB1C464FF00043524263EB040367
:1008E000994208BF904230BD064C074D06E0E068D3
:1008F00040F0010394E8070098471034AC42F6D367
:10090000FFF746FCECB100080CB20008202A06DB19
:10091000CB17203A41FA02F043EAE07306E041FACD
:1009200002F3D040C2F120029140084319467047BB
:10093000C0B24FF4F05100F0D1B900002DE9FF4FE3
:10094000087883B09946FF2805D0491C2D2804D08B
:100950000024002008E000200BE00124F9E700EB70
:10096000800003EB4000491C0B78FF2BF7D104B14A
:10097000404200230293147819461D462D2C01D0C5
:100980002B2C04D1521C2D2C13D000240294AA46E7
:100990001478FF2C0FD00A25A3FB057801FB0581F5
:1009A0004FF0000C03FB0C11521CE3194AEB010140
:1009B000EEE70124EAE7814453EA010002D019F589
:1009C000C87F06DA03980021C0E9001107B0BDE82E
:1009D000F08F0025AE4E2F46DFF8B882184600F0A3
:1009E00091F9CDE90001B9F1000002DAC9F1000482
:1009F00000E004460023A74A1AEB030B42EB045A1B
:100A000012E0E00707D02A46334638464146FFF752
:100A100047FC074688462A46334610461946FFF7E4
:100A20003FFC05460E466410002CEAD1DDE90001CA
:100A3000B9F1000F5A46534606DAFFF7B6FE3A46BA
:100A40004346FFF7B2FE05E0FFF72AFC3A4643466D
:100A5000FFF726FC029A0AB181F00041039AC2E92D
:100A60000001B3E72DE9FF4F1F468DB0D7E90146DE
:100A70004FF0FF382E2045464FF000090B90B96922
:100A80006D1C0E988847396A824688470028F6D13F
:100A9000BAF1FF3F0AD024F4D064002E11DDBAF180
:100AA0002B0F08D0BAF12D0F0BD102E0404611B048
:100AB0008DE744F48064B9696D1C0E9888478246BE
:100AC000761E6946600501D52D2000E02B208DF8AB
:100AD000000001F1010B0DF1200809E0B9696D1C5E
:100AE0000E98884782460F9844F40074761E05607D
:100AF000002E02DDBAF1300FF0D00B998A453ED1BD
:100B000044F0800406E00F99681CA9F1010944F43F
:100B100000740860B9696D1C761E0E98884782467D
:100B20003028F0D02BE00B998A4505D1200603D45C
:100B300044F08004761E18E0504603F053FD08B3DD
:100B40000DF11301761E44F400748B4508D2AAF10E
:100B500030000BF8010B200607D5A9F1010003E0D6
:100B6000200602D409F101008146A00502D50F99A3
:100B7000681C0860B9696D1C0E9888478246002E73
:100B8000D1DC53E0002E51DDBAF1650F02D0BAF18D
:100B9000450F4BD1A00549D5B9696D1C24F44074AB
:100BA000761E0E9888478246002E0CDD2B2804D036
:100BB000BAF12D0F07D144F48074B9696D1C0E98F9
:100BC00088478246761EE00501D52D2100E02B21C5
:100BD00008F8011BCDF82C8021E00DF12901761ECB
:100BE00044F4007488450CD2AAF1300010F0FF00E4
:100BF00088F8000002D10B99884509D908F101084D
:100C000006E0E00501D5244801E042F20F7081467C
:100C1000B9696D1C0E98884782460F980560002EB2
:100C200004DD504603F0DEFC0028D6D1F9690E98A9
:100C30008847FF208BF8000088F80000002006900D
:100C400007904B466A4608A906A8FFF777FEA0055D
:100C500002D46FF001002AE714F0240F0AD0E00755
:100C600014D1DDE906123868031D3B600068C0E955
:100C700000120BE0DDE90601FFF7BDFB0146E007CE
:100C800004D13868021D3A600068016028460EE70A
:100C9000000014400000F03FF1D8FFFF426842B16D
:100CA000016811F8013B23B1521EC0E90012184639
:100CB00070470121C160881E704742685AB1C368FD
:100CC000016843B983688B4205D0491E521CC0E9B4
:100CD0000012002070474FF0FF3070477F2801D985
:100CE000002208E0064A02EB5002C007127800D149
:100CF000120902F00F0201209040084070470000E6
:100D0000ACB100080EB540F2334202920022CDE9A8
:100D100000221346FFF754FC03B000BD014800F069
:100D2000D2BB0000400C0020464910B54A6822F4AE
:100D300040324A604A6843681A434A6001684A6818
:100D400022F480724A6001684A68036942EA032219
:100D50004A6001684A6822F040724A6001684A6845
:100D600083681A434A6001688A6822F400628A60D4
:100D700001688A68C3681A438A60816A6FF070628A
:100D8000D14201688A6822F070628A6001688A68CC
:100D90000CD0836A1A438A6001688A6822F0405244
:100DA0008A6001688A68C36A1A4301E022F04052EF
:100DB0008A6001688A6822F002028A6001688A6893
:100DC000037E42EA43028A6090F8201000290168FD
:100DD0004A680FD042F400624A6001684A6822F40F
:100DE00060424A6001684A68174C436A04EB433327
:100DF0001A4301E022F400624A600168CA6A22F4E0
:100E00007002CA620168CA6A838B104C04EB0353F8
:100E10001A43CA6201688A6822F400728A60016813
:100E20008A6890F8303042EA43228A6001688A6812
:100E300022F480628A6001688A68406942EA802000
:100E4000886010BD0023014000E0FFFF0000F0FFBC
:100E500070B50E4D00242DED028B9FED0B8A012005
:100E600000F0F0FD95ED000A641CE4B230EE088A53
:100E70000A2CF4D3B2EE040A0548C8EE000AC0ED0D
:100E8000000ABDEC028B70BD00000000340C002095
:100E90004800002005489FED040A80ED000A80ED1F
:100EA000010AFFF7D5BF0000000000004800002045
:100EB000012812D80A4900EB400201EBC200437C32
:100EC0005BB1037C3BB140690068406A31F8321085
:100ED00000EB0140704780687047002070470000B9
:100EE000400F00209FED090A01280DD800EB4001BA
:100EF000074800EBC100D0ED030AF5EEC00AF1EEA1
:100F000010FA01D0B1EE600A704700000000000046
:100F1000400F002030B51349002200BF02EB42030E
:100F200001EBC304657CBDB1257CADB16469056886
:100F30002468AC4210D102EB420001EBC0004069D2
:100F400000680068C00651F8330001D5401E00E07B
:100F5000401C41F8330030BD521CD2B2012ADDD909
:100F600030BD0000400F002070B5114C0F482DED32
:100F7000028B606102F05CF9607400252574A56045
:100F800065609FED0C8A256084ED038A0A48E06263
:100F900002F04EF984F8290084F828502562E561B2
:100FA000A56184ED098ABDEC028B70BD800D002027
:100FB000400F002000000000F80E002010B50128AE
:100FC00018D800EB40010C4800EBC104607C0028FD
:100FD00010D0207C00280DD13C21606901F030FC4C
:100FE000002807D160690068C16841F00101C16053
:100FF0000120207410BD0000400F002070B5164E77
:101000009FED160A002400BF04EB440006EBC00568
:10101000687CD0B1287CC0B12046FFF749FF6968E1
:10102000411A0ED000EE901A9FED0D1AF8EEE00A6C
:1010300060EE810A9FED0B1AC0EE811AC5ED031A0E
:1010400001E085ED030A686001E085ED030A641C98
:10105000E4B2012CD8D970BD400F00200000000080
:10106000000016440000C34406489FED050A002115
:1010700080ED010A80ED020A80ED030A01807047CD
:10108000000000005800002004489FED030A80ED96
:10109000000A80ED010A70470000000050000020A7
:1010A00006480168002908D0C868002805D0098AC8
:1010B000002902D0012200F01ABE7047440000202F
:1010C000002803D00249086000F04CB870470000C7
:1010D0004400002010B5114C2268002A1CD038B101
:1010E00001280FD0022817D1BDE8104000F03AB80F
:1010F000D2E9000101F0A2FD206803C8BDE810405C
:1011000001F052BAD2E9000101F0FCFD206803C8E9
:10111000BDE8104001F0E8B910BD00004400002017
:101120000F490968002910D0642800D964208A6812
:101130006423B2FBF3F24243486838B1042809D073
:1011400008280868006809D00264704708680068C9
:10115000426370470868006882637047C2637047E3
:101160004400002010B5154C216800291BD0C86828
:10117000002818D0098A002915D0002200F0B7FDF8
:10118000206803C801F0BEFD206803C801F00CFA16
:101190002068002142683AB1042A09D00068082A70
:1011A000006809D0016410BD00680068416310BD8B
:1011B00000680068816310BDC16310BD4400002059
:1011C000FEE70000014800F003BB0000880C00208F
:1011D00001681823CAB2103AB2FBF3F2054B6FF361
:1011E0000901032A9B5CC36500D9091D8165084676
:1011F00070470000F481000810B5014600208B699B
:101200008A6A4FF0C07453B1B3F5005F15D072B164
:10121000012A0CD0022A0AD0032A09D104E01AB10B
:10122000012A06D0022A03D1C96AC90100D50120CA
:1012300010BDC96AA142FAD010BD002AF7D0012A18
:10124000F2D0022AF3D0032AF3D010BD0748016878
:10125000C90103D4016841F0807101600448002194
:101260004160016841F0010101607047FCED00E060
:10127000001000E0704772B6FEE7000030B5B3F52D
:10128000804F05D06FF0704140F82210002030BD33
:101290008C690B688D6823434C688989240144EA72
:1012A0000524234343EA014150F82230014C2340F6
:1012B0001943E9E70000F0CF10B50A6850F8223072
:1012C00023F0010340F822308C68082C23D000233F
:1012D0004A682243CC681C430B6922431A434B697A
:1012E0000E4C1A43CB691A430B6A1A434B6A1A43D2
:1012F0008B6A1A43CB6A1A430B6B1A438B691343ED
:10130000CA6B09681A4350F82130A343134340F8CD
:101310002130002010BD4023DAE700007FFF0F00DE
:1013200030B5D1E9003443EA04138C688D89240276
:1013300044EA054423430C8A074D00EB820005EB89
:10134000045423430C7D6D0105EB04648969234338
:101350000B434360002030BD0000F0FF70470000E9
:1013600078B50024009490F83C20012A19D001227D
:1013700080F83C200A6807230568092A13D9EE681B
:101380000A3A02EB420293409E43EE600B788A6871
:101390000A3B03EB43039A400368DD682A43DA60A3
:1013A00010E0022078BD2E6902EB420293409E437A
:1013B0002E610B788A6803EB43039A4003681D692A
:1013C0002A431A614A681F23072A13D205686E6BE5
:1013D000521E02EB820293409E436E630B790A8891
:1013E0005B1E92B203EB83039A4003685D6B2A4352
:1013F0005A6327E005680D2A12D22E6BD21F02EB2A
:10140000820293409E432E630B790A88DB1F92B2BF
:1014100003EB83039A4003681D6B2A431A6311E0B0
:10142000EE6A0D3A02EB820293409E43EE620B7924
:101430000A880D3B92B203EB83039A400368DD6A8E
:101440002A43DA62164B0568144A9D4206D10D689C
:10145000122D03D1556845F48005556005689D42FD
:1014600018D10B68102B01D0112B13D1536843F402
:1014700000035360096810290CD10A490A4A096817
:10148000B1FBF2F101EB8101490000E0491E00913E
:101490000029FBD180F83C40002078BD00230140AA
:1014A000002001403C00002040420F00006803493A
:1014B000884202D1024803F04BBC70470020014033
:1014C000340C0020704770B5044600680668456813
:1014D00016F0020F05F020012AD049B3216CC9068D
:1014E00003D4216C41F400712164816811F0405FE4
:1014F00017D1217EA9B9C16A11F4700F02D0816899
:1015000049050ED4416821F020014160206C20F48F
:1015100080702064206CC00403D4206C40F0010073
:1015200020642046FFF7C2FF21686FF012000860B8
:1015300016F0040F05F0800132D089B3206CC0068C
:1015400003D4206C40F4005020642068816811F4BA
:10155000401F1ED1816B11F4401F02D081684905E4
:1015600017D44168490514D4816811F0405F10D147
:10157000217E71B9416821F080014160206C20F426
:1015800080502064206CC00503D4206C40F0010022
:1015900020642046FFF7E2FE21686FF00C0008602F
:1015A00016F0010F05F040010FD071B120680068FE
:1015B000C0070AD0206C40F480302064204600F040
:1015C00043F821686FF00100086016F0200F05F065
:1015D00080610ED000290CD0606C40F00200606485
:1015E00020686FF0200505602046FFF76BFF20683C
:1015F000056070BD70B504004FF0000503D0206C8D
:10160000002610B107E0012070BD204600F01EF852
:10161000666484F83C60206CC00610D4206C20F412
:10162000885040F0020020642046FFF77DFB66648E
:10163000206C20F0020040F00100206400E0012551
:1016400084F83C60284670BD7047000070B586B0D5
:10165000064614216846FEF7FFFD29493068884296
:101660004BD128480025016841F480710160006871
:10167000244900F4807014390590086840F0010096
:101680000860086800F001000590086840F002005A
:1016900008600868032400F00200059001208DE82E
:1016A00031006946184800F025FA00946946174849
:1016B000CDE9014500F01EFA164C1548C4E90005B5
:1016C0000015A560C4E90350400060618000A0617E
:1016D0004011E0610002C4E90805204600F048F925
:1016E00008B1FFF7C8FDB463002202211220A663EF
:1016F00000F070FB122000F05FFB06B070BD000030
:101700000020014044380240000002400004024032
:1017100010640240880C00202DE9F0410446876DDA
:1017200000F0EAFA064694F835000025022806D0B3
:101730008020606584F834500120BDE8F081206885
:10174000016821F0160101602068416921F08001E3
:101750004161206C08B9A06C20B12068016821F0BB
:10176000080101602068016821F0010101600CE0BE
:1017700000F0C2FA801B052807D9202060650320ED
:1017800084F8350084F83450D7E720680068C00733
:10179000EED194F85C103F208840B860012084F8B6
:1017A000350084F834500020C7E790F8351002293E
:1017B00003D08021416501207047052180F8351054
:1017C0000068016821F001010160002070470000FD
:1017D0002DE9F84304464FF00009CDF80090634826
:1017E0004FF41651A56D0068B0FBF1F72E6894F820
:1017F0005C10082000FA01F131420FD021680A681C
:1018000052070BD50A6822F004020A6094F85C10B3
:101810008840A860606D40F00100606594F85C103D
:101820004FF0010808FA01F0304208D021684969F8
:10183000090604D5A860606D40F00200606594F868
:101840005C1004208840304208D02168096889076C
:1018500004D5A860606D40F00400606594F85C10E9
:1018600010208840304218D021680968090714D533
:10187000A86020680168490304D50068000308D502
:10188000A16C07E00168C90503D4016821F00801D3
:101890000160216C09B12046884794F85C10202033
:1018A0008840304231D021680968C9062DD5A8602A
:1018B00094F8350005282068016806D0490347D50B
:1018C000006800031DD4616C1CE021F0160101606A
:1018D0002068416921F080014161206C08B9A06C49
:1018E00020B12068016821F00801016094F85C10C3
:1018F0003F208840A86084F8358084F83490216DBA
:101900001FE0E16B09B120468847606D00282BD0AD
:10191000606DC00714D0052084F835002068016888
:1019200021F0010101600098401C0090B84203D8EA
:1019300020680068C007F6D184F8358084F83490B8
:10194000E16C002910D001B02046BDE8F043084703
:101950000168C905D5D4016821F01001016084F83F
:10196000358084F83490CCE7BDE8F8833C00002053
:101970002DE9F041044600F0BFF906465CB10220B3
:1019800084F83500002584F834502068016821F07F
:10199000010101600DE00120BDE8F08100F0ACF92B
:1019A000801B052805D920206065032084F83500B8
:1019B000F2E720680068C007F0D12268116820486B
:1019C0000140D4E901031843D4E9033633431843F3
:1019D00063691843A3691843E3691843236A1843EA
:1019E0000843616A042903D1D4E90B13194308435E
:1019F000106020684069666A20F0070130460E4397
:101A0000012704280CD1A06A0643E06A40B12046B1
:101A1000FFF7F2FB20B14020606584F83570BAE72B
:101A2000206846612046FFF7D3FB94F85C203F21F5
:101A300091408160656584F835700020ACE7000056
:101A40003F8010F070B5044600F056F90546601C62
:101A500002D004480078044400F04EF9401BA04234
:101A6000FAD370BD30000020F0B587B0142168466D
:101A7000FEF7F2FB1A48016800292FD1012101600D
:101A800018480024016841F0010101600068022546
:101A900000F00100059041F20100CDE9000502AA25
:101AA00003260C2782E8D00069460F4800F022F890
:101AB0004FF68070CDE9000502AA694682E8D000A1
:101AC0000A4800F017F84CF23370CDE9000502AA7D
:101AD000694682E8D000064800F00CF807B0F0BD77
:101AE0002400002038380240001802400010024054
:101AF000000C02402DE9F84FDFF8BCA100220125BF
:101B000003264FF00F090AF1040BAAF1040E00BFDF
:101B10000B6805FA02F42340A34270D10F7907F055
:101B20000307012F01D0022F16D187684FEA420820
:101B300006FA08FC27EA0C07D1F80CC00CFA08FCDE
:101B40004CEA070CC0F808C04768A7430C79C4F3F7
:101B5000001494403C4344600C79E443A4070AD049
:101B6000C4684FEA420C06FA0CF7BC438F6807FAC8
:101B70000CF72743C7600C7904F00304022C12D140
:101B8000D40800EB840CDCF820405707FF0E09FA5C
:101B900007F824EA0804D1F8108008FA07F848EAA0
:101BA0000408CCF8208004684FEA420C06FA0CF7CF
:101BB000BC430F7907F0030707FA0CF727430760C8
:101BC0004C6814F4403F70D03C4C276847F4804781
:101BD0002760246822F0030704F480440094384C02
:101BE00007EB040CDCF8084897074FEA177809FA66
:101BF00008F7BC43334FB84202D1002724E054E039
:101C0000314FB84201D101271EE0304FB84201D117
:101C1000022719E02E4FB84201D1032714E02D4FBF
:101C2000B84201D104270FE02B4FB84201D105275C
:101C30000AE02A4FB84201D1062705E0284FB842F2
:101C400001D1072700E0082707FA08F72743CCF857
:101C50000878DAF800405746D1F804C09C435FEAA0
:101C6000CC2C00D51C433C60DBF800405F46D1F82B
:101C700004C09C435FEA8C2C00D51C433C60DEF81A
:101C800000407746D1F804C09C435FEA8C3C00D505
:101C90001C433C60084F083F3C68D1F804C09C439B
:101CA0005FEACC3C00D51C433C60521C102AFFF478
:101CB0002FAFBDE8F88F0000083C014044380240D7
:101CC00000300140000002400004024000080240D1
:101CD000000C0240001002400014024000180240B4
:101CE000001C02400069084000D0012070470AB182
:101CF000816170470904FBE7014880687047000074
:101D000030000020024881680278114481607047E9
:101D1000300000200B4810B5016841F400710160EB
:101D2000016841F480610160016841F480710160E3
:101D3000032000F06FF80F2000F006F800F024F800
:101D4000002010BD003C024070B50D4D04464FF41C
:101D50007A712878B1FBF0F00A490968B1FBF0F01C
:101D600000F03AFB48B9102C07D200222146501E41
:101D700000F030F800206C6070BD012070BD0000E4
:101D8000300000203C0000200A4808B5016841F4FA
:101D900080410160006800F4804000900548001F09
:101DA000016841F080510160006800F080500090AF
:101DB00008BD000044380240002809DB00F01F0283
:101DC000012191404009800000F1E020C0F800119D
:101DD00070470000F0B40E4B1B680C46C3F302239F
:101DE000C3F10705042D00D90425191D072901D2C7
:101DF000002300E0DB1E012606FA05F1491E214002
:101E000099409E40761E16403143F0BC02F0DFBA86
:101E10000CED00E0064900F0070208684FF6FF03EA
:101E2000184040EA0220034A10430860704700004F
:101E30000CED00E00000FA052DE9F0470E46050024
:101E400065D0DFF81481D8F80000F7B200F0070081
:101E5000B04207D288F80070D8F8000000F0070000
:101E6000B04254D128683D4C810712D5400703D5B4
:101E7000206840F4E05020602878000703D52068EF
:101E800040F4604020602068A96820F0F00008431A
:101E900020602878C0072DD03049686808390128AB
:101EA00012D0022813D0032811D00968890700290D
:101EB0002DDA216821F0030101432160FFF71CFFA7
:101EC000814641F2883A0EE009688903EFE7096824
:101ED0008901ECE7FFF710FFA0EB0901514502D99A
:101EE0000320BDE8F0872068696800F00C00B0EBC3
:101EF000810FEFD1D8F80010404601F00701B14240
:101F000007D90770006800F00700B04201D0012037
:101F1000E7E72878400705D52068E96820F4E05015
:101F2000084320602878000706D52068296920F436
:101F3000604040EAC100206000F038F82168084A9B
:101F4000C1F30311515CC8400649086006480068A7
:101F5000FFF7FAFE0020C4E7003C024008380240C8
:101F6000FC8100083C0000203400002004480549A2
:101F700000680968044AC1F38221515CC840704777
:101F80003C000020083802400C8200080448054943
:101F900000680968044AC1F34231515CC840704787
:101FA0003C000020083802400C820008154810B59B
:101FB000006810F00C02144813D04110042A0FD00E
:101FC000082A0ED10F4C241F2268236802F03F021A
:101FD0005B0207D52068C0F38810A0FB010106E072
:101FE000084610BD2168C1F38811A1FB0001002340
:101FF000FEF7E8F82168C1F30141491C4900B0FB34
:10200000F1F010BD083802400024F4002DE9F84F2B
:1020100004006ED02078DFF84C93C007A9F10405C6
:102020004AD009F104000168C1F38101012908D0F7
:102030000068C0F3810002280AD1D9F800004002EC
:1020400006D52868800337D560680028E1D033E0E2
:102050006068B0F5803F10D0B0F5A02F286810D090
:1020600020F480302860286820F480202860606890
:10207000A8B1FFF741FE06460DE0286840F4803025
:10208000F4E740F480202860F7E700BFFFF734FE54
:10209000801B642873D828688003F7D50CE0FFF70D
:1020A0002BFE064605E000BFFFF726FE801B6428D6
:1020B000F0D828688003F7D42078DFF8AC82800756
:1020C0004FF0000A3ED5A748001D016811F00C0F23
:1020D00008D00068C0F3810002280BD1D9F80000B5
:1020E000400207D42868800716D5E068012800D18F
:1020F00012E033E1E068B8B10120C8F80000FFF752
:10210000FBFD064605E000BFFFF7F6FD801B022839
:10211000C0D828688007F7D52868216920F0F80022
:1021200040EAC10028600DE0C8F800A0FFF7E4FD18
:10213000064604E0FFF7E0FD801B02281FD8286850
:102140008007F7D42078000722D5864F8748616939
:10215000703771B101210160FFF7CEFD064604E042
:10216000FFF7CAFD801B022809D838688007F7D519
:102170000EE0C0F800A0FFF7BFFD064605E082E0D4
:10218000FFF7BAFD801B02287DD838688007F7D496
:102190002078400768D5DFF8CCB100270BF13C0B65
:1021A000DBF80000C0000BD4DBF8001041F08051D8
:1021B000CBF80010DBF80000012700F08050009001
:1021C0006B4E3068C00510D4306840F480703060C9
:1021D000FFF792FD009005E0FFF78EFD0099401A91
:1021E000022850D83068C005F6D55E4EA0686C361F
:1021F00001280FD00528306810D020F00100306091
:10220000306820F004003060A068B8B1FFF774FDBA
:1022100000900FE0306840F00100F4E740F0040067
:102220003060F7E7FFF768FD0099411A41F2883006
:10223000814266D830688007F4D50EE0FFF75CFD78
:10224000009007E0FFF758FD0099411A41F28830ED
:10225000814256D830688007F4D42FB1DBF80010E3
:1022600021F08051CBF80010A069C8B33D49091D89
:102270000968C1F3810102294AD00228504607D0DB
:10228000C8F8600000E03CE0FFF736FD04463BE0A4
:102290004746C8F86000FFF72FFD064605E000BF7F
:1022A000FFF72AFD801B02282BD828688001F7D46D
:1022B000D4E907010843A16A2E4A490802EB01410B
:1022C000626A41EA8211084394F82C1040EA0161E5
:1022D000C9F8001001203866FFF70EFD044606E03D
:1022E0003EE000BFFFF708FD001B022809D8286860
:1022F0008001F7D534E000BFFFF7FEFC001B022889
:1023000002D90320BDE8F88F28688001F4D427E0C3
:102310000128F7D0D9F80000E26900F48001914269
:102320001CD1226A00F03F01914217D147F6C071DB
:10233000626A0140B1EB821F10D1A26A4FF0FF33F5
:1023400000F4403103EB5202B1EB024F06D194F896
:102350002C1000F07060B0EB016F01D00120D1E7CC
:102360000020CFE70438024000004742800E474279
:10237000007000400000FFFF70B515460E460400D7
:1023800003D094F8490010B107E0012070BD00208F
:1023900084F84800204600F01DF804F10801206888
:1023A000FEF78AFF3146A2682068FEF7B9FFD4E93C
:1023B00001022946236BFEF761FF2168A06851F8EE
:1023C000202042F0010241F82020012084F8490039
:1023D000002070BDFFF748BB10B5401EB0F1807FF4
:1023E00001D3012010BD4FF0E02460610F21601780
:1023F00001F0EDFF0020A06107202061002010BD4A
:102400007047704710B590F83C20012A22D0012275
:1024100080F83C20CA688C6822F4407222434C68E1
:1024200022F4806222430C6822F4006222430C6989
:1024300022F4805222434C6922F400522243C9699B
:10244000002322F480420A4301684A6480F83C3049
:10245000002010BD022010BD70B590F83C20012A6C
:1024600032D0012480F83C40022280F83D200368ED
:102470005A689D6822F070060A6832435A60134B0E
:1024800002689A4214D0B2F1804F11D0104B9A4298
:102490000ED0104B9A420BD00F4B9A4208D00F4BE4
:1024A0009A4205D00E4B9A4202D00E4B9A4204D16A
:1024B000496825F080031943916080F83D40002170
:1024C00080F83C10084670BD022070BD000001403D
:1024D0000004004000080040000C004000040140DF
:1024E000004001400018004010B50446022249B1E6
:1024F00004290ED0082913D094F84500012816D0DD
:10250000012010BD94F842000128F9D184F842203E
:102510000FE094F843000128F2D184F8432008E04A
:1025200094F844000128EBD184F8442001E084F8B9
:1025300045200422206801F062FC2068416C41F4CF
:102540000041416411492068884214D0B0F1804FA5
:1025500011D00F4988420ED00E4988420BD00E4947
:10256000884208D00D49884205D00D49884202D0E2
:102570000C49884204D1816801F00701062903D083
:10258000016841F001010160002010BD0000014020
:102590000004004000080040000C0040000401401E
:1025A000004001400018004070B504460D46006828
:1025B000002201F024FC2068036A41F211110B4251
:1025C00040F2444206D1036A134203D1436C23F420
:1025D000004343642068036A0B4206D1016A11423A
:1025E00003D1016821F00101016001203DB1042DFA
:1025F00008D0082D09D084F84500002070BD84F86B
:102600004200FAE784F84300F7E784F84400F4E76F
:1026100010B5040003D094F83D0010B107E001208C
:1026200010BD002084F83C00204600F01FF8022076
:1026300084F83D00211D206801F06CFB012084F826
:10264000460084F83E0084F83F0084F8400084F897
:10265000410084F8420084F8430084F8440084F880
:10266000450084F83D00002010BD000008B500685A
:102670000B49884212D10B48016841F010010160FA
:102680000068002200F01000009003213620FFF7C0
:10269000A1FBBDE808403620FFF78EBB08BD000057
:1026A000001000404038024090F83D10012901D050
:1026B00001207047022180F83D100168CA6842F08D
:1026C0000102CA6000681149884214D0B0F1804FFD
:1026D00011D00F4988420ED00E4988420BD00E49C6
:1026E000884208D00D49884205D00D49884202D061
:1026F0000C49884204D1816801F00701062903D002
:10270000016841F0010101600020704700000140B4
:102710000004004000080040000C0040000401409C
:1027200000400140001800402DE9F0410D46040032
:1027300003D094F83D0018B108E00120BDE8F08115
:10274000002084F83C00204600F040F8022084F885
:102750003D002068816844F2070291438160211D99
:10276000206801F0D7FA226890689169166A2B6890
:10277000AF69034340F20330814341EA0721A8686F
:10278000EF6908434FF6FC418843E96840EA0720B7
:10279000014328692F6A000140EA0730084369684D
:1027A0006D6926F0AA0646EA05152943936022685A
:1027B000906154F8460B0162012004F81F09E0758E
:1027C0002076E0762077A0750020B7E710B586B0B8
:1027D000044614216846FDF73FFD164920688842EB
:1027E00026D115480021026842F00202026000680A
:1027F00000F00200059010481038026842F0040210
:102800000260006800F004000590C02000900220E3
:10281000CDE901010390049069460848FFF76AF981
:10282000002202211D20FFF7D5FA1D20FFF7C4FA70
:1028300006B010BD000400404038024000080240CD
:1028400070B590F83E60044690F83F5090F84230E2
:1028500090F84320022021B104290ED0012E1BD173
:1028600014E0012E18D1012B16D184F83E0084F813
:10287000420001220021206820E0012D0CD1012A14
:102880000AD184F83F0084F8430014E0012D03D1FD
:10289000012B01D1012A01D0012070BD84F83E0036
:1028A00084F83F0084F8420084F8430001220021AC
:1028B000206801F097FA01220421206801F092FAC1
:1028C0002068016841F001010160002070BD70477F
:1028D0002DE9F04104460068C66805694FF000071D
:1028E000A90713D5B10711D5F91E01610120207781
:1028F000206880698007204602D0FFF7E8FF04E0E7
:1029000000F0E6F8204600F097F92777680716D51B
:10291000700714D521686FF0040008610220207749
:102920002068806910F4407F204602D0FFF7CFFF77
:1029300004E000F0CDF8204600F07EF92777280764
:1029400015D5300713D521686FF008000861042001
:1029500020772068C0698007204602D0FFF7B7FFC4
:1029600004E000F0B5F8204600F066F92777E806A5
:1029700016D5F00614D521686FF010000861082004
:1029800020772068C06910F4407F204602D0FFF70E
:102990009EFF04E000F09CF8204600F04DF92777F8
:1029A000E80708D0F00706D021686FF00100086141
:1029B000204600F0E5F9280608D5300606D521683E
:1029C0006FF0800008612046FFF71AFD680608D501
:1029D000700606D521686FF040000861204600F0BF
:1029E000FBF9A8060AD5B00608D521686FF02000CB
:1029F00008612046BDE8F041FFF703BDBDE8F08166
:102A000070B586B0044614216846FDF725FC294BB5
:102A1000226800242848591402259A4220D10268CD
:102A200042F002020260026802F0020205920268AD
:102A300042F00102026000680091CDE9015400F00B
:102A400001000126CDE90460694603941B48FFF7A5
:102A500051F8E8010090CDE901546946184822E098
:102A6000184B9A4223D1026842F080020260026849
:102A700002F080020592026842F4807202600068EF
:102A80000091CDE9015400F480700326CDE9046083
:102A9000694603940C48FFF72DF820200090CDE9FB
:102AA00001540A486946CDE90346FFF723F806B00A
:102AB00070BD0000000001403038024000040240B8
:102AC0000000024000040140001C024000200240BF
:102AD000704770B5044690F83C0000260D4601286A
:102AE0000FD0012084F83C006AB1042A1DD0082AC6
:102AF0002FD00C2A3FD00126002084F83C0030461D
:102B000070BD022070BD206801F086F920688169DF
:102B100041F0080181612068816921F0040181612F
:102B2000206881692A69114311E0206801F0A4F945
:102B30002068816941F4006181612068816921F424
:102B400080618161206881692A6941EA022181618D
:102B5000D2E7206801F0C6F92068C16941F0080198
:102B6000C1612068C16921F00401C1612068C169A7
:102B70002A69114311E0206801F0E8F92068C16971
:102B800041F40061C1612068C16921F48061C161C3
:102B90002068C1692A6941EA0221C161ACE710B528
:102BA000040003D094F83D0010B107E0012010BDEF
:102BB000002084F83C00204600F01EF8022084F833
:102BC0003D00211D206801F0A5F8012084F8460091
:102BD00084F83E0084F83F0084F8400084F8410007
:102BE00084F8420084F8430084F8440084F84500E7
:102BF00084F83D00002010BD08B50C4A01680C485F
:102C0000914207D1016841F001010160006800F0C4
:102C1000010009E0074A914207D1016841F0020131
:102C20000160006800F00200009008BD0000014053
:102C300044380240000401407047000010B50446CB
:102C4000022249B104290ED0082913D094F841007A
:102C5000012816D0012010BD94F83E000128F9D1BA
:102C600084F83E200FE094F83F000128F2D184F868
:102C70003F2008E094F840000128EBD184F8402080
:102C800001E084F841200122206801F0ABF81649E8
:102C90002068164A884201D0904203D1436C43F425
:102CA000004343642068884213D0B0F1804F10D0B5
:102CB0000F4988420DD00F4988420AD00E498842F8
:102CC00007D0904205D00D49884202D00C49884275
:102CD00004D1816801F00701062903D0016841F0A1
:102CE00001010160002010BD00000140000401400E
:102CF0000004004000080040000C0040004001407B
:102D00000018004030B504460D460068002201F06E
:102D100069F8194B41F2111120688A10984202D0CB
:102D2000164B984209D1036A0B4206D1036A13423B
:102D300003D1436C23F4004343642068036A0B42CD
:102D400006D1016A114203D1016821F0010101603D
:102D500001203DB1042D08D0082D09D084F8410090
:102D6000002030BD84F83E00FAE784F83F00F7E722
:102D700084F84000F4E70000000001400004014036
:102D800010B5124A016891420CD0B1F1804F09D0C0
:102D90000F48814218D1FEF731F90E4C20780128F6
:102DA00004D005E0BDE81040FEF7B4B800F0CAFE5C
:102DB0006088401C0004000C608005D0002060800A
:102DC000BDE8104001F0ACBA10BD000000040040A6
:102DD000001000400000002070477047704700005E
:102DE000F8B5016804460868CA684B6910F00F0F0F
:102DF0004FF0000559D003F0010602F490773743F5
:102E000065D0C10705D0D10503D5616C41F0010142
:102E10006164410705D5D90703D0616C41F0020117
:102E20006164810705D5D90703D0616C41F00401C5
:102E30006164010707D502F02001314303D0616CC2
:102E400041F008016164616C00293AD0800604D524
:102E5000900602D5204601F0CFF820684069616CE9
:102E6000C0F38010090700D460B3204601F09DF83C
:102E700020684069400621D52068143050E8001FC2
:102E800021F0400140E80012002AF5D1E06BA8B122
:102E900072490165E06BFEF788FC002811D0E06BF9
:102EA000016D01B0BDE8F040084783060FD59306D9
:102EB0000DD52046BDE8F84001F09EB82046FFF74A
:102EC0008DFFF8BD2046FFF789FF6564F8BD266BCE
:102ED0002023012E7ED1C6067CD5D6067AD5086879
:102EE0004868009048694FF0020640064DD5E26BF5
:102EF000106840684FF480770004000C3AD0A18D30
:102F0000814237D9E085D069B8422DD020680C3095
:102F100050E8001F21F4807140E80012002AF5D12A
:102F20002068143050E8001F21F0010140E8001231
:102F3000002AF5D12068143050E8001F21F040012C
:102F400040E80012002AF5D184F842302563206859
:102F50000C3050E8001F21F0100140E80012002A58
:102F6000F5D1E06BFEF7D8FB6663A08DE18D401ACA
:102F700081B206E0A18D8142A8D1D069B842A5D125
:102F800066632046FFF729FFF8BDA08DE18D401A4A
:102F900081B2E08D0028F7D00029F5D020680C30F0
:102FA00050E8002F22F4907240E80027002FF5D15E
:102FB0002068143050E8002F22F0010240E800277A
:102FC000002FF5D184F84230256320680C3050E89A
:102FD000002F00E006E022F0100240E80023002B62
:102FE000F3D1CDE705062BD5150629D594F8410078
:102FF0002128C9D1A068B0F5805F01D12069B0B1A6
:10300000206A411C2162216800784860E08C401EE3
:103010000004000CE084B7D12068C16821F0800171
:10302000C1602068C16841F04001C160F8BD206AFC
:103030000088C0F308004860206A801C2062E5E731
:103040004006F3D55006F1D5CA68204622F040026A
:10305000CA6084F8413000F0E9F8F8BD9D3F0008EF
:1030600070B5040004D094F84100002510B106E0CA
:10307000012070BD84F84050204600F023F8242041
:1030800084F841002068C16821F40051C1602046E5
:1030900001F014F82068016921F490410161206871
:1030A000416921F02A0141612068C16841F4005161
:1030B000C1606564202084F8410084F842006563A3
:1030C000002070BD10B586B0044614216846FDF797
:1030D000C3F817492068884228D1164800210268A1
:1030E00042F010020260006800F0100005901148E4
:1030F0001438026842F002020260006800F0020028
:103100000590C02000900220CDE90101032003902A
:103110000720049069460848FEF7ECFC002211469F
:103120002520FEF757FE2520FEF746FE06B010BD0F
:1031300000100140443802400004024090F8423040
:10314000202B01D00220704721B11AB10023036364
:1031500001F03AB80120704710B50068074988426D
:103160000BD107480178074800F056FCBDE8104035
:10317000012203490448FFF7E1BF10BD00100140E0
:103180002C000020A40F0020580E00202DE9F84349
:10319000044690F84100984616460D46202802D075
:1031A0000220BDE8F88385B17EB100206064212053
:1031B00084F84100FEF7A0FDA6848146E684A0685D
:1031C0002027B0F5805F02D003E00120E9E7206905
:1031D00010B12E4600250EE000260CE0802120468E
:1031E00001F00DF8A8B9C6B116F8010B21684860C6
:1031F000E08C401EE084E08C4B464FF00002CDF89E
:1032000000800028EAD14FF04001204600F0F7FF8F
:1032100040B184F841700320C3E735F8020BC0F3D6
:103220000800E3E784F841700020BAE77047FEE742
:1032300018B1006808B101207047002070470000F5
:10324000054808B5016841F010010160006800F010
:103250001000009008BD00003038024010B5214C2D
:1032600004212046FEF73EFD50B108212046FEF71E
:1032700039FDA8B110212046FEF734FD00B327E048
:103280000A20FEF7DFFB04212046FEF72BFDF8B9EC
:1032900004212046FEF726FD0028F9D0012010BDAC
:1032A0000A20FEF7CFFB08212046FEF71BFD78B968
:1032B00008212046FEF716FD0028F9D0022010BD97
:1032C0000A20FEF7BFFB10212046FEF70BFD08B1D8
:1032D000042010BD10212046FEF704FD0028F9D07F
:1032E000032010BD00100240054808B5016841F0F8
:1032F00010010160006800F01000009008BD00009F
:10330000303802407FB50025204800950195029590
:103310001D490395016001244FF480310461C0E927
:103320000115047680F820501949C0E90A150326D2
:10333000C661C56080F830404461FEF75BF908B1B2
:10334000FDF799FF0820CDE90004072002906946A7
:103350000E48FEF705F808B1FDF78DFF0920009033
:103360000220019069460948FDF7FAFF08B1FDF710
:1033700082FFCDE9005669460448FDF7F1FF0028B9
:1033800001D0FDF778FF7FBD00200140400C0020F8
:103390000100000F094808B5016841F4800101608F
:1033A0000068002200F48000009011463820FEF7EB
:1033B00011FDBDE808403820FEF7FEBC3038024061
:1033C00000B58FB01C216846FCF746FF1C2107A8FA
:1033D000FCF742FF1B484FF02041102201601A49C0
:1033E0004160062181600021C160C0E90412816151
:1033F000C16113020162C0E909139302C0E90B1312
:10340000416381634164022000900F200523CDE9D0
:1034100001030DF10C0C11238CE80E000691CDE98F
:1034200007100DF1240CFF208CE80F000D9107AA66
:1034300069460448FEF7A0FF002801D0FDF71BFFF6
:103440000FB000BDE80C0020040100A02DE9F047FA
:1034500086B014216846FCF7FFFE4348002401684B
:1034600041F010010160016801F01001059101684F
:1034700041F020010160016801F02001059101681F
:1034800041F080010160016801F08001059101684F
:1034900041F001010160016801F00101059101683D
:1034A00041F002010160016801F00201059101682B
:1034B00041F040010160016801F04001059101689F
:1034C00041F008010160016801F0080105910168FF
:1034D00041F004010160016801F0040105910168F7
:1034E00041F4807101600068DFF8808000F4807032
:1034F00040F204460590002231464046FEF7F7FBB5
:10350000DFF86C904FF40077002239464846FEF70A
:10351000EEFBDFF860A0012203215046FEF7E7FB37
:103520001C2001258DE8310069465046FEF7E2FA7D
:103530000096CDE90154694640460394FEF7DAFA55
:103540000097CDE90154694648460394FEF7D2FA44
:1035500003200090CDE90154694650460394FEF7DC
:10356000C9FA06B0BDE8F0873038024000140240C6
:10357000001C02400010024010B592B000240F94CD
:103580001C2108A81094FCF767FE20216846FCF770
:1035900063FE20481E490160A721C0E9011440F2E2
:1035A000E731C0E9031444618461FFF7F8FA08B118
:1035B000FDF761FE0F940FA916481094FEF74CFF1B
:1035C00008B1FDF758FE6020CDE908040A940B9479
:1035D0000C940D94002208A90E480E94FFF779FA76
:1035E00008B1FDF748FE00944FF40050CDE90440C7
:1035F000029401940394694606480794FEF702FF7B
:1036000008B1FDF738FE0348FFF7FAF912B010BD14
:1036100000000140380D002010B58CB02421684610
:10362000FCF71AFE00241648099414490A94C0E9CC
:1036300000144FF6FF71C0E9024104618461032068
:10364000CDE900040120CDE902040494CDE9054050
:10365000079469460A480894FFF766F808B1FDF731
:103660000AFE099409A906480A94FEF7F5FE002807
:1036700001D0FDF700FE0CB010BD000000040040BA
:10368000800D00201CB500240F4800940D490194C2
:10369000016042F2CF01C0E9011440F2E7318461D8
:1036A000C160FEF7B5FF08B1FDF7E5FD009469467E
:1036B00005480194FEF7D0FE002801D0FDF7DBFDA0
:1036C0001CBD000000100040C80D002010B592B0D5
:1036D00000240F941C2108A81094FCF7BDFD2021A4
:1036E0006846FCF7B9FD20481E490160A721C0E9E2
:1036F000011440F2E731C0E9031444618461FFF72B
:103700004EFA08B1FDF7B7FD0F940FA916481094B3
:10371000FEF7A2FE08B1FDF7AEFD6020CDE908047A
:103720000A940B940C940D94002208A90E480E9450
:10373000FFF7CFF908B1FDF79EFD00944FF400505C
:10374000CDE9044002940194039469460648079425
:10375000FEF758FE08B1FDF78EFD0348FFF750F95C
:1037600012B010BD00040140100E00200E4810B52C
:103770000C4901604FF4E1314160002181600C226D
:10378000C160C0E904128161C161FFF769FC08B141
:10379000FDF771FDBDE81040012204490248FFF722
:1037A000CDBC000000100140580E00202C0000206D
:1037B000FEE7FEE780ED050A30EE600AC0ED060A7E
:1037C00080ED080A90ED091A11B1012938D059E0AD
:1037D000D0ED001AB0EEC02A12EE101A61EE801A77
:1037E000364A914215DA90ED0B2A72EE002AC0EDAE
:1037F0000B2A90ED012A22EE823AD0ED042AB4EE93
:10380000E23AF1EE10FA08DD82EE823A80ED0B3AF0
:1038100003E09FED2B2A80ED0B2A90ED012AD0EDDD
:103820000B2A90ED023A62EE222A90ED072A30EE42
:10383000C22A71EEA21A22EE032A71EEC21A1FE00A
:1038400070EE411A90ED002AB0EE003A61EE822A45
:10385000B0EE402AD0ED011A01EE432A90ED0A3A6B
:1038600061EE801A32EE032A90ED023A72EEA11A4E
:1038700022EE032A71EE821A90ED0C2A72EE211AC2
:10388000C0ED0C1A90ED0C2AD0ED031AB4EEE12A2B
:10389000F1EE10FA06DCF1EE611AB4EEE12AF1EE77
:1038A00010FA01D2C0ED0C1AC0ED070A80ED0A1A19
:1038B00080ED090A90ED0C0A704700000000F0410D
:1038C0000000000080EC050A00F0D8B810B586B002
:1038D00004464FF0180229B106B08431BDE810400B
:1038E000FCF7A1BC05496846FCF79DFC1822694617
:1038F0002046FCF798FC06B010BD000094B100080B
:1039000070B5040094F8820064D0022862D134A11A
:103910002046FCF7ACFC032538B1264632A12046F0
:10392000FCF7A5FC20B100200AE084F8825054E0A6
:103930002FA13046FCF79BFC08B1012000E00220DB
:10394000214684F88400022845D02CA1204600F0AE
:1039500051FE204684ED220A29A100F04BFE2046AC
:1039600084ED230A27A100F045FE204684ED240AB9
:1039700025A100F03FFE204684ED250A24A100F099
:1039800039FE84ED260AD4F8880000F01AFD0028DC
:10399000CBD1D4F8880000F00BFD0028C5D1D4F8B5
:1039A0008C0000F00EFD0028BFD1D4F88C0000F090
:1039B000FFFC0028B9D1D4F8900000F002FD0028E7
:1039C000B3D1D4F8900000F0F3FC0028ADD184F816
:1039D0008200022070BD81F88250032070BD00007B
:1039E0005049443A0000000053504545440000004F
:1039F000504F534954494F4E000000004B500000B7
:103A00004B4900004B4400004D41585F4F55540056
:103A10004D41585F494E540018B1B0F880207F2ABC
:103A200001D300F018B80A290DD00D290AD0202999
:103A300008D37E2906D8531CA0F880308154012178
:103A400080F88210704700218154022280F8822081
:103A5000A0F88010704710B504000ED08021FCF74C
:103A6000FBFB0020A4F8800084F8820004F18400AD
:103A7000BDE810401821FCF7EFBB10BD9FED090A0F
:103A800080ED050A80ED060A80ED070A80ED080A40
:103A900080ED090A80ED0A0A80ED0B0A80ED0C0A20
:103AA0007047000000000000002803D072B680ECD0
:103AB000050A62B67047704770470000054890EDF0
:103AC000050AD0ED060A90ED0C1A0348D0ED021A53
:103AD00070470000700F00206800002010B59FEDB7
:103AE0000E2ADFED0E1A9FED0E1ADFED0E0A9FED86
:103AF0000E0A0E482DED028BFFF7E4FE0D4C9FEDF4
:103B00000C8A84ED008AFDF72DFB84ED018A84ED9B
:103B1000028ABDEC028B10BD0000B4420000C84216
:103B20008FC2753DCDCCCC3D9A99193F700F0020C6
:103B30000000000068000020014880ED050A704781
:103B4000700F002010B586B03748FFF7D9FE022865
:103B500010D135496846FFF7B9FE9DF8000030B92D
:103B600001A9314891EC050A3438FFF79DFF2E4832
:103B7000FFF771FF0020FDF7B5F9DFED2C0A2C4CA3
:103B80009FED2C1A60EE200A94ED000A26480021D1
:103B900040EE010A3438C4ED000A90ED050AFFF743
:103BA00009FEF0EEC00A10EE900A2349F1EE040A75
:103BB000884202DD30EE200A09E010EE100A1F49AB
:103BC000884202D930EE600A01E09FED1D0A1D49CE
:103BD00010EE100A84ED020A884202DD9FED1A0AF7
:103BE00004E01A49884203D99FED190A84ED020ABC
:103BF000B5EEC00AF1EE10FA05DB0020FDF76AFA17
:103C000094ED020A06E00120FDF764FA94ED020A41
:103C1000B1EE400A06B0BCEEC00ABDE8104010EE9E
:103C2000100AC0B2FDF77CBAA40F0020CDCC4C3EE8
:103C300068000020CDCC4C3FCDCCCC3DCDCCCCBD14
:103C4000000000000000C8420000C8420000C8C2D6
:103C50000000C8C2FEF756B830B593B030216846B0
:103C6000FCF7FAFA14210CA8FCF7F6FA1D48002517
:103C7000016841F080510160006800F080501190AF
:103C80001948016841F4804101600068022400F491
:103C9000804011900120039010200490009406941D
:103CA0000820CDE90750A820CDE9090404200B9095
:103CB0006846FEF7ABF908B172B6FEE70CA90F2013
:103CC00081E831004FF4A0500F904FF480501090D5
:103CD00005210CA8FEF7B0F8002801D072B6FEE767
:103CE00013B030BD40380240007000400248016807
:103CF00041F470010160704788ED00E00148FEF773
:103D0000E7BD0000800D00200148FEF7E1BD000086
:103D1000C80D0020F0B50268274B284D284E294FCA
:103D2000294C4FF0804C984209D0604507D0A842FA
:103D300005D0B04203D0B84201D0A04204D122F055
:103D4000700E4A6842EA0E0298421BD0604519D0B4
:103D5000A84217D0B04215D0B84213D0A04211D01B
:103D60001A4DA8420ED01A4DA8420BD0194DA842A8
:103D700008D0194DA84205D0184DA84202D0184DC0
:103D8000A84203D122F44075CA682A434D6922F043
:103D900080022A438D68C5620D688562984201D011
:103DA000A04201D109690163016841F00401016089
:103DB000012141610260F0BD0000014000040040AB
:103DC00000080040000C0040000401400040014099
:103DD000004401400048014000180040001C004021
:103DE0000020004010B501F01F030121046A994032
:103DF0008C430462016A9A401143016210BD10B500
:103E000001F00F030421046A99408C430462016AA3
:103E10009A401143016210BDF0B5036A026A22F0B4
:103E20000102026242688469124E24F073050C6834
:103E30002C4323F002058B682B430D4DA84201D083
:103E4000B04205D123F00807CB683B4323F00403BD
:103E5000A84201D0B04205D14D6922F44072154309
:103E60008A692A4342608461496841630362F0BD04
:103E70000000014000040140F0B5026A036A23F02B
:103E800010030362436884690D6824F4E64444EA3D
:103E900005248D6822F0200242EA05120F4D104ED3
:103EA000A84201D0B04206D1CF6822F0800242EA97
:103EB000071222F04002A84201D0B04207D14D695A
:103EC00023F4406343EA85038D6943EA8503436035
:103ED0008461496881630262F0BD00000000014016
:103EE00000040140F0B5026A036A23F480730362A0
:103EF0004368C46922F4007224F073050C68124E02
:103F00002C438D6842EA05220E4DA84201D0B042F2
:103F100006D1CF6822F4006242EA072222F48062CE
:103F2000A84201D0B04207D14D6923F4405343EA7F
:103F300005138D6943EA05134360C4614968C16391
:103F40000262F0BD000001400004014030B5046A87
:103F5000026A22F4805202624268C3690D6823F447
:103F6000E64343EA05238D6824F4005444EA05340B
:103F7000084DA84202D0084DA84204D14D6922F450
:103F8000804242EA85124260C3614968016404626A
:103F900030BD0000000001400004014010B5806BFE
:103FA0000021C185FEF71AFF10BD01680C3151E8F0
:103FB000002F22F4907241E80023002BF5D1016814
:103FC000143151E8002F22F0010241E80023002BB8
:103FD000F5D1016B012909D101680C3151E8002F9D
:103FE00022F0100241E80023002BF5D1202180F8B7
:103FF000421000210163704708B590F84210222951
:1040000001D0022008BD82684FF480539A4201D14A
:10401000016921B1816A9A421BD04AB10AE0026863
:10402000816A5268C2F308020A80816A891C08E02A
:10403000026972B10268526802F07F020A70816AF6
:10404000491C8162C18D491E0904090CC18503D038
:104050001BE002685268F1E70168CA6822F020029A
:10406000CA600168CA6822F48072CA6001684A693D
:1040700022F001024A61202180F8421000214163B0
:10408000026B012A03D0FFF767F8002008BD016327
:1040900001680C3151E8002F22F0100241E80023A2
:1040A000002BF5D101680A68D20602D50A68496872
:1040B0000091818DFEF791FEE7E7000070B50446A0
:1040C00000680169E26821F44051114301612169EE
:1040D000A068E26908436169114308432168CA681E
:1040E00049F20C639A430243CA6020684169A2699D
:1040F00021F440711143416131492068884202D066
:104100003049884202D1FDF741FF01E0FDF72EFF63
:10411000E2690023192164253226B2F5004F626856
:1041200028D0A0FB0101930F9200FCF74BF8014649
:10413000B0FBF5F06FF01802504301EB800006EB86
:104140000010B0FBF5F000F0F002B1FBF5F002EB6F
:104150000012B1FBF5F06FF01803584301EB80003B
:1041600006EB0010B0FBF5F000F00F0021681044E2
:10417000886070BDA0FB010192185B41FCF722F83A
:104180000146B0FBF5F00201B1FBF5F06FF018034A
:10419000584301EB800006EBC000B0FBF5F000F0E7
:1041A000F80002EB4002B1FBF5F0584301EB800050
:1041B00006EBC000B0FBF5F000F00700D6E700000A
:1041C000001001400014014081628285C2850021F7
:1041D0004164222180F84210016921B10168CA6856
:1041E00042F48072CA6001684A6942F001024A6181
:1041F0000068C16841F02001C160002070472DE9CE
:10420000F843984617460D460446089E24E0701C65
:1042100022D0FDF771FDA0EB0800B0421AD8CEB154
:104220002068C168490717D5802D15D0402D13D0BF
:104230000168C94309070FD4016800254068009050
:104240002046FFF7B2FE0820606484F84050012049
:10425000BDE8F8830320FBE72068006835EA00002A
:1042600004D00020B842D2D00020F1E70120F9E7C5
:104270000148FEF7B5BD0000580E0020FEE7000023
:104280002DE9F74F88B093460646102A02D3BBF1BA
:10429000200F03D200200BB0BDE8F08FF068FCF7D0
:1042A00097F807468846B068FCF792F804460D4632
:1042B0007068FCF78DF881468A463068FCF788F80C
:1042C00002460B468DE80C0604A804A280E8B00163
:1042D0005946099800F03EF880B2DCE7252E316699
:1042E0002C252E31662C252E31662C252E31660D7F
:1042F0000A00000010B500280CD040220649FFF744
:10430000BFFF020006D0BDE810400A23024903485F
:10431000FEF73CBF10BD000040100020580E0020EA
:104320001FB5FFF7CBFB68468DEC040AFFF7E2FFF1
:104330001FBD00000FB4054B10B503A9044A029835
:1043400000F072F910BC5DF814FB0000E94D0008A4
:10435000740000200FB47CB50C0009AD01D0611EC3
:1043600000E00021CDE90001064B6A462946089885
:1043700000F05AF9002C02D0009A002111707CBC88
:104380005DF814FB2F4D00080FB4084B10B504A9BD
:1043900002AA039800F048F9044602A9002000F0A0
:1043A000D1FC204610BC5DF814FB0000454D000810
:1043B0004FF07F41B1EB400F01D101207047002049
:1043C000704720F00040C0F1FF40C00F7047090760
:1043D000090E002804DB00F1E02080F8001470478B
:1043E00000F00F0000F1E02080F8141D704700007D
:1043F00030B583B0044600F017F89FED090B054671
:104400008DED000B002221466846FCF760F8284637
:1044100000F020F89DED000B03B030BD000000005F
:104420000000000000000000014800687047000024
:104430007800002002E008C8121F08C1002AFAD143
:1044400070477047002001E001C1121F002AFBD114
:1044500070470000014908607047000078000020A4
:104460002DE9FF5F82B00021DDE90430020DDDF8A7
:1044700040B0034318D044F61050A2F2FF3242433A
:104480001514119801281FD0A5EB0B00401C5FEA02
:10449000000A4FF000064E4FDFF83891B046504604
:1044A00015D5CAF1000413E0119801244AA301288C
:1044B00001D16FEA0B010298119AC0E90031C0E9FD
:1044C000024206B0BDE8F09FCBF10000DFE70446F2
:1044D0000021404A491842EB0450CDE9001012E097
:1044E000E00707D032463B4640464946FBF7D8FE38
:1044F0008046894632463B4610461946FBF7D0FEB9
:1045000006460F466410002CEAD1DDE90401DDE91E
:104510000023BAF1000F06DAFBF7C2FE42464B4613
:10452000FBF7BEFE05E0FCF740F942464B46FCF7C0
:104530003CF904460E460022284BFCF7BDF903D88F
:104540004FF0FF30014607E00022254B2046314660
:10455000FCF784F8FCF798F9102409E0002C0ADB3A
:104560000A220023FBF72EFE039B30321A55641EED
:1045700050EA0102F2D1641C039AC4F111031444FD
:10458000119A012A03D0012208430DD10AE0084301
:1045900004D000204FF0110B119072E7A3EB0B0534
:1045A0006D1E0DE05B4504DD4FF0000205F10105D5
:1045B00004E003DA4FF00002A5F10105002AECD077
:1045C00002981199C0E90231C0E9004579E700007D
:1045D000000014400000F03F300000000000F043F5
:1045E0000000E03F30380A2801D201207047002047
:1045F0007047000070B50D46FBF739FE04000DD082
:104600002846FBF746FE2044401CFFF7F1FE51EC24
:10461000100BFBF7F0FE00EE100A70BD9FED010AD3
:1046200070BD0000000000002DE9FF4F95B09A46D4
:10463000884606460025EEE1252877D10024274646
:10464000F94A0121039400E0044316F8013F203B9E
:1046500001FA03F01042F7D130782A2811D06FF018
:104660002F033078A0F13002092A16D8039A44F0BB
:10467000020402EB820203EB42021044761C039018
:10468000EFE758F8042B0392002A03DA504244F46F
:104690000054039044F00204761C30782E2816D182
:1046A00016F8010F44F004042A280DD06FF02F02F1
:1046B0003078A0F13003092B09D807EB870302EB10
:1046C0004303C718761CF3E758F8047B761C307850
:1046D0006C280FD006DC4C2817D068280DD06A282B
:1046E00014D104E0742810D07A280FD10DE044F4DE
:1046F00000140AE044F4801401E044F44014727899
:10470000824202D104F58014761C761C307866282B
:104710000BD013DC582877D009DC002875D0452849
:10472000F6D04628F4D047281AD193E118E0632840
:1047300035D0642879D0652812D18BE1702873D0E8
:1047400008DC6728F1D069286FD06E280DD06F285B
:1047500006D1ACE073282CD0752874D0782853D0BB
:104760005246179990476D1C54E1C4F30250022839
:1047700009D003280DD0D8F8001004280DD00D6002
:1047800008F1040846E1D8F80010EA17C1E9005220
:10479000F6E7D8F800100D80F2E70D70F0E718F892
:1047A000041B8DF8001000208DF80100EB4601205D
:1047B00003E058F804BB4FF0FF3061074FF00001F1
:1047C00002D40DE009F101018946B9420FDA8145B1
:1047D000F8DB1BF809100029F4D108E009F1010108
:1047E00089468142FADB1BF809100029F6D10398AB
:1047F0005346A0EB090721463846179A00F080FA85
:10480000284400EB090507E044E008E10DE01BF84F
:10481000010B524617999047B9F10109F7D2534657
:1048200021463846179AF2E039E00A21C4F30252D1
:104830004FF0000B0091022A06D058F8040BC11764
:10484000032A09D00AE023E008F1070020F007025C
:10485000F2E80201904605E000B2C117042A01D136
:1048600040B2C117002906DA0A460021404261EB36
:1048700002012D2202E0220504D52B228DF804200E
:10488000012203E0E20701D02022F7E7914657E03A
:104890000A2100E010214FF0000B00910BE01021E5
:1048A0004FF0000B44F004040827009103E00820B7
:1048B0004FF0000B0090C4F30252022A05D058F8C2
:1048C000040B0021032A08D008E008F1070020F0BB
:1048D0000702F2E80201904603E080B2042A00D108
:1048E000C0B24FF0000922072AD53278702A07D0CB
:1048F000DDF800C08CF0100C5CEA0B0C05D00EE06B
:1049000040228DF80420012208E050EA010306D07D
:1049100030238DF804308DF8052002229146009B4B
:1049200083F0080353EA0B030AD150EA010201D1D4
:10493000620705D530228DF804204FF001097F1E53
:104940003278582A04D039A20C920CAA02920BE0B9
:104950003BA2F9E75B46009AFBF734FC0C9B9B5C9F
:10496000029A521E0292137050EA0102F2D102988A
:1049700004A9081A00F1200B600702D524F4803442
:1049800000E001275F4502DDA7EB0B0000E00020FF
:1049900000EB0B01009003984944401A0390E00398
:1049A00006D453462146179A039800F0A9F9054406
:1049B000002706E001A85246C05D179990476D1C7C
:1049C0007F1C4F45F6DBE0030CD553462146179A72
:1049D000039800F095F9054404E0302052461799F9
:1049E00090476D1C0099481E00900029F5DC08E0F6
:1049F0000298029952460078491C029117999047F3
:104A00006D1CBBF10001ABF1010BF1DC5BE100F0CF
:104A100065F90544761C307800287FF40DAE19B096
:104A20002846BDE8F08F00000928010030313233FC
:104A300034353637383961626364656600000000DA
:104A400030313233343536373839414243444546C4
:104A500000000000600700D4062708F1070020F0DE
:104A60000700F0E80223804603F0004C5FEA0C00E8
:104A700001D097A009E0200501D596A005E0E00748
:104A800001D095A001E0AFF24C001390307823F0F4
:104A9000004365280CD006DC452809D046281DD0E7
:104AA00047287FD13BE0662818D067287AD136E0C6
:104AB0000021112F01DB112000E0781CCDE900015D
:104AC00004A90CA8FFF7CCFCDDE90D010C9A4FF00E
:104AD000000B07F10109109200914EE04FF00040E9
:104AE0000097CDE9011004A90CA8FFF7B9FCDDE996
:104AF0000D020C9B0F994FF0000B91461093009202
:104B000011B9791C00EB0109B7EB090003D4C0F11E
:104B1000FF3B07F10109A9EB0700019042E0012FDB
:104B200000DA01270021112F01DD112000E03846B5
:104B3000CDE9000104A90CA8FFF792FCDDE90D0105
:104B40000C9A00914FF0000BB946109221070FD438
:104B5000009A4A4503DA914601E0A9F10109B9F149
:104B6000010F05DD109AA9F10101515C3029F4D043
:104B7000B84202DA10F1040F03DA0121CDE9011085
:104B800010E0002803DC8344A9EB000102E0411C93
:104B9000494500DD8946A0EB0B00401C01904FF019
:104BA00000400290200705D40198484502DB4FF0F1
:104BB000FF30019000208DF84B0002980DF14B075B
:104BC000B0F1004F25D002200C902B200D900298C0
:104BD00000280CDA404202902D200D9007E00A21B7
:104BE0000298FBF724FC3031029007F8011D0C9964
:104BF000481E0C900029F2DC02980028EFD1791EA3
:104C00000D980870307800F0200040F0450007F85B
:104C1000020D11A8C01BC01D02901398007800B1AE
:104C2000012000EB0901019801EBE07102980144B9
:104C30000398401A401E0390E00306D453462146D1
:104C4000179A039800F05CF805441398007818B19F
:104C50005246179990476D1CE00323D553462146D1
:104C6000179A039800F04CF805441BE0BBF1000FC5
:104C700007DB0098584504DD1098179910F80B00D1
:104C800001E0179930205246904701980BF1010B33
:104C9000401E05F10105019004D12E2052461799BE
:104CA00090476D1CB9F10001A9F10109DEDC05E0B6
:104CB00017F8010B5246179990476D1C0299481E30
:104CC00002900029F4DC53462146179A03989EE689
:104CD0002D0000002B000000200000002DE9F04115
:104CE000044600251E461746880404D405E03946CC
:104CF0002020B0476D1C641EF9D52846BDE8F08120
:104D00002DE9F041044600251E469046C80301D512
:104D1000302700E02027880404D505E041463846C6
:104D2000B0476D1C641EF9D52846BDE8F0814A687D
:104D3000002A06D00A68531C0B6010704868401E99
:104D4000486070470A68531C0B6010707047000081
:104D5000F0B50024174D2346224621464FF4FA773A
:104D600001EB4106491C35F816C005EB46066444C4
:104D7000B6F802C0B68863443244B942F0DB00EEB4
:104D8000104AF8EE400A9FED0C0A80EE801A00EE01
:104D9000903AF8EE600A80ED001A80EE801A00EE7C
:104DA000902AF8EE600A80ED011A80EE801A80EDFC
:104DB000021AF0BD7C0000200000FA43074A10B53B
:104DC00053680749074C0968B1FBF4F1414300E01F
:104DD00000BF5068C01A8842FAD310BD001000E02E
:104DE0003C00002040420F0013B54FF6FF73012234
:104DF00069460248FEF7CAF900981CBD580E00200B
:104E000070B509490646002408884D882146454367
:104E1000204602F087FE02F0D9FF044801E0068038
:104E2000641CAC42FBD370BDA00E00200008006CD7
:104E30002DE9F04F38492C260A46887192884FF4A4
:104E4000305A4FF4285B41F6631E2B274FF02A0C93
:104E50004FF0F00845F210594FF448754FF4A07424
:104E60004FF4F07358B10C80A1F802804A4530D15C
:104E7000A1F808A0A1F80AB03802888141E0A1F8A1
:104E800000804C804A4507D1A1F808A0A1F80AB0DB
:104E90004FF42C50888105E072450E8105D14F8179
:104EA000A1F80CC00B804D8002E0A1F80AC08F81F0
:104EB000A2F5A640103803D0A2F5EE40963801D1F5
:104EC0000C804B80A2F5184006381FD10B804D8016
:104ED0001CE0724511D0A2F5184006380DD00E81A5
:104EE000A1F80AC0A1F80C70A2F5A64010380BD0AA
:104EF000A2F5EE40963807D008E00E81A1F80AC06E
:104F00008F810D804B80EFE70B804C80BDE8F04F28
:104F1000032002F045BD0000A00E002010B514468D
:104F200002F000FE02F052FF0148048010BD0000B4
:104F30000008006C10B5CF2002F03CFF002002F00A
:104F40002DFFC12002F02AFF302002F027FFED20C4
:104F500002F030FF642002F021FF032002F01EFF68
:104F6000122002F01BFF812002F018FFE82002F05F
:104F700021FF852002F012FF102002F00FFF7A209F
:104F800002F00CFFCB2002F015FF392002F006FFE3
:104F90002C2002F003FF002002F000FF342002F07A
:104FA000FDFE022002F0FAFEF72002F003FF2020AF
:104FB00002F0F4FEEA2002F0FDFE002002F0EEFE18
:104FC000002002F0EBFEC02002F0F4FE1B2002F0F5
:104FD000E5FEC12002F0EEFE012002F0DFFEC5205A
:104FE00002F0E8FE302002F0D9FE302002F0D6FEBA
:104FF000C72002F0DFFEB72002F0D0FE362002F01C
:10500000D9FE482002F0CAFE3A2002F0D3FE552015
:1050100002F0C4FEB12002F0CDFE002002F0BEFE80
:105020001A2002F0BBFEB62002F0C4FE0A2002F0F5
:10503000B5FEA22002F0B2FEF22002F0BBFE00207C
:1050400002F0ACFE262002F0B5FE012002F0A6FE22
:10505000E02002F0AFFE0F2002F0A0FE2A2002F0B6
:105060009DFE282002F09AFE082002F097FE0E20F6
:1050700002F094FE082002F091FE542002F08EFE11
:10508000A92002F08BFE432002F088FE0A2002F0E5
:1050900085FE0F2002F082FE002002F07FFE00203D
:1050A00002F07CFE002002F079FE002002F076FE85
:1050B000E12002F07FFE002002F070FE152002F0D9
:1050C0006DFE172002F06AFE072002F067FE112035
:1050D00002F064FE062002F061FE2B2002F05EFE6C
:1050E000562002F05BFE3C2002F058FE052002F044
:1050F00055FE102002F052FE0F2002F04FFE3F201E
:1051000002F04CFE3F2002F049FE0F2002F046FE66
:105110002B2002F04FFE002002F040FE002002F0A3
:105120003DFE012002F03AFE3F2002F037FE2A2029
:1051300002F040FE002002F031FE002002F02EFEC0
:10514000002002F02BFEEF2002F028FE112002F0DA
:1051500031FE7820FCF776FCBDE81040292002F0F3
:1051600029BE10B5FF2002F025FEFF2002F016FE3A
:10517000982002F013FE062002F010FEBC2002F080
:1051800019FE012002F00AFE0F2002F007FE612046
:1051900002F004FEFF2002F001FE012002F0FEFDFD
:1051A000012002F0FBFD0B2002F0F8FD102002F0C0
:1051B000F5FD372002F0F2FD632002F0EFFDFF2045
:1051C00002F0ECFDFF2002F0E9FD012002F0E6FD17
:1051D000012002F0E3FD002002F0E0FD002002F0DB
:1051E000DDFDFF2002F0DAFD522002F0D7FD0120A4
:1051F00002F0D4FD002002F0D1FD402002F0CEFDEF
:10520000BD2002F0D7FD012002F0C8FD232002F0EE
:10521000C5FD452002F0C2FD672002F0BFFD012060
:1052200002F0BCFD232002F0B9FD452002F0B6FDDE
:10523000672002F0B3FDBE2002F0BCFD002002F0AA
:10524000ADFD012002F0AAFDAB2002F0A7FD602019
:1052500002F0A4FD222002F0A1FD222002F09EFD1A
:10526000222002F09BFD222002F098FD222002F075
:1052700095FDC72002F09EFD362002F08FFDED2047
:1052800002F098FD7F2002F089FD0F2002F086FDDC
:10529000C02002F08FFD0F2002F080FD0B2002F0F5
:1052A0007DFD0A2002F07AFDFC2002F083FD08203B
:1052B00002F074FDDF2002F07DFD002002F06EFDA3
:1052C000002002F06BFD002002F068FD002002F0DB
:1052D00065FD002002F062FD202002F05FFDF3205A
:1052E00002F068FD742002F059FDB42002F062FD66
:1052F000002002F053FD002002F050FD002002F0DB
:105300004DFDF72002F056FD822002F047FDB1204E
:1053100002F050FD002002F041FD132002F03EFD9E
:10532000132002F03BFDF22002F044FD802002F049
:1053300035FD042002F032FD402002F02FFD282030
:1053400002F02CFDC12002F035FD172002F026FDF1
:10535000882002F023FD882002F020FD202002F0AA
:105360001DFDE02002F026FD002002F017FD0A20BE
:1053700002F014FD122002F011FD102002F00EFDCB
:105380000E2002F00BFD202002F008FDCC2002F0E0
:1053900005FD072002F002FD062002F0FFFC0B20B5
:1053A00002F0FCFC0E2002F0F9FC0F2002F0F6FCEB
:1053B0000D2002F0F3FC152002F0F0FC102002F0AA
:1053C000EDFC002002F0EAFCE12002F0F3FC0020FA
:1053D00002F0E4FC0B2002F0E1FC132002F0DEFC02
:1053E0000D2002F0DBFC0E2002F0D8FC1B2002F0A6
:1053F000D5FC712002F0D2FC062002F0CFFC062082
:1054000002F0CCFC0A2002F0C9FC0F2002F0C6FC1E
:105410000E2002F0C3FC0F2002F0C0FC152002F0A9
:10542000BDFC0C2002F0BAFC002002F0B7FC2A20E0
:1054300002F0C0FC002002F0B1FC002002F0AEFC43
:10544000012002F0ABFCDF2002F0A8FC2B2002F0D0
:10545000B1FC002002F0A2FC002002F09FFC03201F
:1054600002F09CFC1F2002F099FC3A2002F0A2FC02
:10547000552002F093FC362002F09CFC002002F044
:105480008DFC112002F096FC7820FCF7DBFA292035
:1054900002F090FC1420FCF7D5FABDE810402C2057
:1054A00002F088BC10B5ED2002F084FC012002F06F
:1054B00075FCFE2002F072FCEE2002F07BFCDE2088
:1054C00002F06CFC212002F069FCF12002F072FC79
:1054D000012002F063FCDF2002F06CFC102002F0DF
:1054E0005DFCC42002F066FC8F2002F057FCC62051
:1054F00002F060FC002002F051FCE22002F04EFCC1
:10550000E22002F04BFCE22002F048FCBF2002F057
:1055100051FCAA2002F042FCB02002F04BFC0D200E
:1055200002F03CFC002002F039FC0D2002F036FCB9
:10553000002002F033FC112002F030FC002002F0C9
:105540002DFC192002F02AFC002002F027FC21206B
:1055500002F024FC002002F021FC2D2002F01EFCB1
:10556000002002F01BFC3D2002F018FC002002F09D
:1055700015FC5D2002F012FC002002F00FFC5D2003
:1055800002F00CFC002002F009FCB12002F012FC39
:10559000802002F003FC002002F000FC8B2002F0CF
:1055A000FDFB002002F0FAFB962002F0F7FB002042
:1055B00002F0F4FBB22002F0FDFB002002F0EEFB53
:1055C000002002F0EBFB022002F0E8FB002002F0DA
:1055D000E5FB032002F0E2FB002002F0DFFBB3203A
:1055E00002F0E8FB002002F0D9FB002002F0D6FB1D
:1055F000002002F0D3FB002002F0D0FB002002F0DC
:10560000CDFB002002F0CAFB002002F0C7FB002007
:1056100002F0C4FB002002F0C1FB002002F0BEFB40
:10562000002002F0BBFB002002F0B8FB002002F0DB
:10563000B5FB002002F0B2FB002002F0AFFB00201F
:1056400002F0ACFB002002F0A9FB002002F0A6FB58
:10565000002002F0A3FB002002F0A0FB002002F0DB
:105660009DFB002002F09AFB002002F097FB002037
:1056700002F094FBB42002F09DFB8B2002F08EFB25
:10568000002002F08BFB962002F088FB002002F045
:1056900085FBA12002F082FB002002F07FFBB520F9
:1056A00002F088FB022002F079FB002002F076FB7A
:1056B000032002F073FB002002F070FB042002F0D4
:1056C0006DFB002002F06AFBB62002F073FB0020A5
:1056D00002F064FB002002F061FBB72002F06AFBDD
:1056E000002002F05BFB002002F058FB3F2002F09C
:1056F00055FB002002F052FB5E2002F04FFB002021
:1057000002F04CFB642002F049FB002002F046FB53
:105710008C2002F043FB002002F040FBAC2002F0A2
:105720003DFB002002F03AFBDC2002F037FB0020BA
:1057300002F034FB702002F031FB002002F02EFB5F
:10574000902002F02BFB002002F028FBEB2002F05F
:1057500025FB002002F022FBDC2002F01FFB0020D2
:1057600002F01CFBB82002F025FB002002F016FB23
:10577000002002F013FB002002F010FB002002F0DA
:105780000DFB002002F00AFB002002F007FB0020C6
:1057900002F004FB002002F001FBBA2002F00AFB39
:1057A000242002F0FBFA002002F0F8FA002002F0B8
:1057B000F5FA002002F0F2FAC12002F0FBFA2020F4
:1057C00002F0ECFA002002F0E9FA542002F0E6FAC6
:1057D000002002F0E3FAFF2002F0E0FA002002F0DD
:1057E000DDFAC22002F0E6FA0A2002F0D7FA002021
:1057F00002F0D4FA042002F0D1FA002002F0CEFA2E
:10580000C32002F0D7FA3C2002F0C8FA002002F0D0
:10581000C5FA3A2002F0C2FA002002F0BFFA39209D
:1058200002F0BCFA002002F0B9FA372002F0B6FA12
:10583000002002F0B3FA3C2002F0B0FA002002F09F
:10584000ADFA362002F0AAFA002002F0A7FA3220C0
:1058500002F0A4FA002002F0A1FA2F2002F09EFA32
:10586000002002F09BFA2C2002F098FA002002F0AF
:1058700095FA292002F092FA002002F08FFA2620F1
:1058800002F08CFA002002F089FA242002F086FA55
:10589000002002F083FA242002F080FA002002F0B7
:1058A0007DFA232002F07AFA002002F077FA3C20F9
:1058B00002F074FA002002F071FA362002F06EFA5B
:1058C000002002F06BFA322002F068FA002002F0A9
:1058D00065FA2F2002F062FA002002F05FFA2C2015
:1058E00002F05CFA002002F059FA292002F056FA80
:1058F000002002F053FA262002F050FA002002F0B5
:105900004DFA242002F04AFA002002F047FA24203F
:1059100002F044FA002002F041FA232002F03EFA9D
:10592000002002F03BFAC42002F044FA622002F0A8
:1059300035FA002002F032FA052002F02FFA00209A
:1059400002F02CFA842002F029FA002002F026FA54
:10595000F02002F023FA002002F020FA182002F0D2
:105960001DFA002002F01AFAA42002F017FA002013
:1059700002F014FA182002F011FA002002F00EFAD8
:10598000502002F00BFA002002F008FA0C2002F07E
:1059900005FA002002F002FA172002F0FFF90020B9
:1059A00002F0FCF9952002F0F9F9002002F0F6F976
:1059B000F32002F0F3F9002002F0F0F9E62002F003
:1059C000EDF9002002F0EAF9C52002F0F3F93220E7
:1059D00002F0E4F9002002F0E1F9442002F0DEF9DF
:1059E000002002F0DBF9652002F0D8F9002002F077
:1059F000D5F9762002F0D2F9002002F0CFF9882004
:105A000002F0CCF9002002F0C9F9C62002F0D2F968
:105A1000202002F0C3F9002002F0C0F9172002F0A4
:105A2000BDF9002002F0BAF9012002F0B7F9002018
:105A300002F0B4F9C72002F0BDF9002002F0AEF97F
:105A4000002002F0ABF9002002F0A8F9002002F0DB
:105A5000A5F9C82002F0AEF9002002F09FF900205D
:105A600002F09CF9002002F099F9002002F096F96A
:105A7000C92002F09FF9002002F090F9002002F006
:105A80008DF9002002F08AF9002002F087F9002049
:105A900002F084F9002002F081F9002002F07EF982
:105AA000002002F07BF9002002F078F9002002F0DB
:105AB00075F9002002F072F9002002F06FF9002061
:105AC00002F06CF9002002F069F9002002F066F99A
:105AD000002002F063F9E02002F06CF9162002F0D9
