:020000040800F2
:10000000A8050020A1010008FB1F0008951C00089E
:10001000F91F00089D08000897250008000000004F
:10002000000000000000000000000000FF1F0008AA
:10003000C908000800000000FD1F0008A5200008F6
:10004000BB010008BB010008BB010008BB010008A0
:10005000BB010008BB010008BB010008BB01000890
:10006000BB010008BB010008BB010008BB01000880
:10007000BB010008BB010008BB010008BB01000870
:10008000BB010008BB010008BB010008BB01000860
:10009000BB010008BB010008BB010008BB01000850
:1000A000BB010008BB010008BB010008BB01000840
:1000B000BB010008BB010008BB010008BB01000830
:1000C000BB010008BB010008BB010008BB01000820
:1000D000BB010008BB010008BB010008BB01000810
:1000E000BB010008BB010008BB010008BB01000800
:1000F000BB010008BB0100084D210008BB0100083E
:10010000BB010008BB010008BB010008BB010008DF
:10011000BB010008BB010008BB010008BB010008CF
:10012000BB010008BB010008BB010008BB010008BF
:10013000BB010008BB010008BB010008BB010008AF
:10014000BB010008BB010008BB010008BB0100089F
:10015000BB010008BB010008BB010008BB0100088F
:10016000BB010008BB010008BB010008BB0100087F
:10017000BB010008BB010008BB0100080000000033
:10018000BB010008BB010008DFF810D000F062FBE3
:1001900000480047D5610008AFF30080A8050020A3
:1001A0000648804706480047FEE7FEE7FEE7FEE711
:1001B000FEE7FEE7FEE7FEE7FEE7FEE73D2100087B
:1001C000890100082DE9F05F0546002092469B4614
:1001D00088460646814640241BE02846414647465D
:1001E000224600F0A1F953465A46C01A914110D355
:1001F00011461846224600F088F92D1A67EB0108CF
:100200004F4622460120002100F07FF917EB00093C
:100210004E41201EA4F10104DFDC484631462A4647
:100220004346BDE8F09FD2B201E000F8012B491E21
:10023000FBD270470022F6E710B513460A46044683
:100240001946FFF7F0FF204610BD2DE9FE4F81EA69
:10025000030404F0004421F0004100944FF0000B2F
:1002600023F0004350EA01045ED052EA03045BD05D
:10027000C3F30A54C1F30A552C44A4F2F334019495
:10028000A0FB0254C1F3130141F48011C3F3130323
:1002900043F4801301FB024400FB034E840A970AD7
:1002A00044EA815447EA8357A4FB076802958D0A04
:1002B00005FB07854FEA932C04FB0C542705029D90
:1002C0004FEA065847EA1637B5EB08056EEB070C00
:1002D000870E920E47EA811742EA8312A7FB0201BA
:1002E000B6EB0B0164EB00042B0D43EA0C335E18F4
:1002F00044EB1C50DA465146E7FB0201C5F31304F8
:100300004FEA0B3343EA14534FEA0432019C43EAA9
:100310000603A4F10C040294009CCDE900B400F0A3
:1003200022F903B0BDE8F08F00200146F9E72DE97E
:10033000F04D81EA030404F0004B21F0004514461F
:100340004FF0000A23F0004150EA050220D054EAA1
:1003500001021DD0C5F30A570246C5F31303C1F3CA
:100360001300C1F30A5640F4801543F48013A7EB41
:100370000608101BD64608F2FD3873EB050002D3C1
:1003800008F1010801E092185B41B8F1000F03DAAF
:1003900000200146BDE8F08D00204FF48011064694
:1003A00084460EE0171B73EB050705D3121B63EBA6
:1003B000050306434CEA010C49084FEA3000921845
:1003C0005B4150EA0107EDD152EA030012D082EA04
:1003D000040083EA0501084305D0101BAB4106D297
:1003E0000122002306E000224FF0004302E06FF0FC
:1003F000010253101AEB06004CEB085110EB0A00F7
:1004000041EB0B01BDE8F04D00F09EB80EB5C10FF9
:1004100080EAE0700844CA07002140F233438DE8C7
:100420000E000A460B4600F09EF803B000BD0EB564
:1004300040F2334102910021CDE900110A460B46FA
:1004400000F091F803B000BD70B5C1F30A5201F09D
:1004500000450024C1F3130140F2FF3341F4801141
:100460009A4201DA002070BD40F233439A42A2F270
:10047000334203DC524200F057F800E090402C4336
:10048000F1D0404270BDC1F30A5210B5C1F313015F
:1004900040F2FF3341F480119A4201DA002010BD8E
:1004A00040F233439A42A2F2334203DC524200F05C
:1004B0003BF810BD904010BD00F0004230F000400D
:1004C0000AD0C10D01F56071C0F3160042EA015176
:1004D000C20840071143704700200146704730B5FD
:1004E0000B46014600202022012409E021FA02F5F2
:1004F0009D4205D303FA02F5491B04FA02F528448C
:10050000151EA2F10102F1DC30BD202A04DB203AE5
:1005100000FA02F1002070479140C2F1200320FA56
:1005200003F3194390407047202A04DB203A21FA54
:1005300002F00021704721FA02F3D040C2F12002FC
:10054000914008431946704710B5141E73F100041A
:1005500008DA401C41F1000192185B411A4301D1B5
:1005600020F0010010BD2DE9F04D92469B4611B1DF
:10057000B1FA81F202E0B0FA80F220329046FFF741
:10058000C4FF04460F4640EA0A0041EA0B01534605
:100590005A46084313D0114653EA010019D0C8F156
:1005A00040025046FFF7C0FF05460E4650465946EA
:1005B0004246FFF7AAFF084305D0012004E0204689
:1005C0003946BDE8F08D0020054346EAE0762C432D
:1005D00037430A986305E40AA0EB08000022FD0AED
:1005E00044EA47540A3002D500200146E9E70105F4
:1005F00010196941DDE9084500196941BDE8F04D70
:10060000A2E72DE9FE4F804681EA0300C00F0C46A9
:10061000009021F0004123F00045B8EB0200A94111
:1006200005D24046214690461C460B46024623F022
:100630000040104347D0270DC7F30A00C3F30A5107
:100640000290401A019040286BDAC3F3130040F483
:10065000801B0098924620B10023D2EB030A63EB83
:100660000B0B01985946C0F140025046FFF74DFF71
:1006700006460D4650465946019A00F0FDF810EB2B
:1006800008006141002487EA115284EAE7731A43A3
:1006900040D0009A62B3019A012A4FEA075215DC52
:1006A000001B61EB02014FF0004202EA0752CDE964
:1006B0000042001C41F5801132462B46FFF753FFE4
:1006C00003B0BDE8F08F40462146F9E7001B61EB1F
:1006D0000201001C41F5801300185B412018A2F5AF
:1006E000001747EB030140EAD570B6196D4111E0E0
:1006F0006D084FEA360645EAC0754FEA0752001BFF
:1007000061EB0201001C41F5801149084FEA3000FD
:100710000019514132462B4603B0BDE8F04FFFF7B8
:1007200013BF0098012240000023D0EB020263EBCC
:10073000E073009821464FEAE074B8EB000061EBEB
:100740000401E9E783F000435BE781F0004158E7EB
:100750002DE9F04D00231A461B1A8A4103DB0020C5
:100760000146BDE8F08DC1F30A52C1F3130141F413
:1007700080154FF0000BD10702D100186D41521EB9
:100780000027044640F2FF11384601EB620A3E465C
:100790008046024600204FF48011FFF7C5FEC219C3
:1007A0007141BB1846EB0100B4EB030C75EB000C78
:1007B00004D3E41A65EB000517460E46241908F128
:1007C00001006D4180463428E3DDF91946EB06004F
:1007D000091BA84103D24FF0FF32134601E000226B
:1007E00013461BEB070046EB0A51BDE8F04DFFF73F
:1007F000ABBEC1F30A52C1F3130140F2FF3341F41F
:1008000080119A4202DA00200146704740F23343D9
:100810009A42A2F2334202DC5242FFF785BEFFF752
:1008200074BE000030B5041E71F1000404DB4FF00B
:100830000044404264EB0101141E73F1000405DB27
:100840001C464FF00043524263EB0403994208BF39
:10085000904230BD064C074D06E0E06840F00103D1
:1008600094E8070098471034AC42F6D3FFF790FCA9
:100870004894000868940008202A06DBCB17203A29
:1008800041FA02F043EAE07306E041FA02F3D04095
:10089000C2F120029140084319467047FEE700006C
:1008A00007480168C90103D4016841F08071016003
:1008B000044800214160016841F001010160704776
:1008C000FCED00E0001000E0704772B6FEE70000AB
:1008D00030B5B3F5804F05D06FF0704140F822106D
:1008E000002030BD8C690B688D6823434C68898972
:1008F000240144EA0524234343EA014150F822300D
:10090000014C23401943E9E70000F0CF10B50A6815
:1009100050F8223023F0010340F822308C68082C74
:1009200023D000234A682243CC681C430B6922432E
:100930001A434B690E4C1A43CB691A430B6A1A438C
:100940004B6A1A438B6A1A43CB6A1A430B6B1A43DE
:100950008B691343CA6B09681A4350F82130A343CB
:10096000134340F82130002010BD4023DAE7000097
:100970007FFF0F0030B5D1E9003443EA04138C68DF
:100980008D89240244EA054423430C8A074D00EB79
:10099000820005EB045423430C7D6D0105EB0464D8
:1009A000896923430B434360002030BD0000F0FF02
:1009B00070B5044600F05EF90546601C02D004489C
:1009C0000078044400F056F9401BA042FAD370BDF1
:1009D00018000020F0B587B014216846FFF72AFC04
:1009E0001A48016800292FD101210160184800240C
:1009F000016841F0010101600068022500F001007A
:100A0000059041F20100CDE9000502AA03260C275A
:100A100082E8D00069460F4800F022F84FF6807057
:100A2000CDE9000502AA694682E8D0000A4800F034
:100A300017F84CF23370CDE9000502AA694682E846
:100A4000D000064800F00CF807B0F0BD1000002000
:100A5000383802400018024000100240000C0240EA
:100A60002DE9F84FDFF8BCA10022012503264FF045
:100A70000F090AF1040BAAF1040E00BF0B6805FA76
:100A800002F42340A34270D10F7907F00307012F2E
:100A900001D0022F16D187684FEA420806FA08FCF7
:100AA00027EA0C07D1F80CC00CFA08FC4CEA070C3A
:100AB000C0F808C04768A7430C79C4F300149440F9
:100AC0003C4344600C79E443A4070AD0C4684FEA6D
:100AD000420C06FA0CF7BC438F6807FA0CF7274361
:100AE000C7600C7904F00304022C12D1D40800EB87
:100AF000840CDCF820405707FF0E09FA07F824EAB7
:100B00000804D1F8108008FA07F848EA0408CCF87D
:100B1000208004684FEA420C06FA0CF7BC430F79B8
:100B200007F0030707FA0CF7274307604C6814F433
:100B3000403F70D03C4C276847F4804727602468CA
:100B400022F0030704F480440094384C07EB040CB3
:100B5000DCF8084897074FEA177809FA08F7BC430A
:100B6000334FB84202D1002724E054E0314FB8425D
:100B700001D101271EE0304FB84201D1022719E010
:100B80002E4FB84201D1032714E02D4FB84201D1B6
:100B900004270FE02B4FB84201D105270AE02A4F66
:100BA000B84201D1062705E0284FB84201D10727F6
:100BB00000E0082707FA08F72743CCF80878DAF8A6
:100BC00000405746D1F804C09C435FEACC2C00D5C6
:100BD0001C433C60DBF800405F46D1F804C09C43F6
:100BE0005FEA8C2C00D51C433C60DEF80040774661
:100BF000D1F804C09C435FEA8C3C00D51C433C60A8
:100C0000084F083F3C68D1F804C09C435FEACC3CE5
:100C100000D51C433C60521C102AFFF42FAFBDE8E6
:100C2000F88F0000083C0140443802400030014089
:100C3000000002400004024000080240000C024094
:100C4000001002400014024000180240001C024044
:100C50000069084000D001207047426921EA020380
:100C60000A4043EA0241816170470AB181617047DD
:100C70000904FBE701488068704700001800002065
:100C80000248816802781144816070471800002092
:100C90000B4810B5016841F400710160016841F42E
:100CA00080610160016841F480710160032000F0FF
:100CB0006FF80F2000F006F800F024F8002010BDB7
:100CC000003C024070B50D4D04464FF47A7128780F
:100CD000B1FBF0F00A490968B1FBF0F000F03AFB13
:100CE00048B9102C07D200222146501E00F030F8DF
:100CF00000206C6070BD012070BD00001800002055
:100D0000240000200A4808B5016841F480410160D0
:100D1000006800F4804000900548001F016841F021
:100D200080510160006800F08050009008BD000014
:100D300044380240002809DB00F01F0201219140E5
:100D40004009800000F1E020C0F800117047000069
:100D5000F0B40E4B1B680C46C3F30223C3F1070526
:100D6000042D00D90425191D072901D2002300E014
:100D7000DB1E012606FA05F1491E214099409E40DE
:100D8000761E16403143F0BC01F02ABC0CED00E0A9
:100D9000064900F0070208684FF6FF03184040EAD2
:100DA0000220034A10430860704700000CED00E089
:100DB0000000FA052DE9F0470E46050065D0DFF882
:100DC0001481D8F80000F7B200F00700B04207D253
:100DD00088F80070D8F8000000F00700B04254D145
:100DE00028683D4C810712D5400703D5206840F4A0
:100DF000E05020602878000703D5206840F4604068
:100E000020602068A96820F0F0000843206028785E
:100E1000C0072DD0304968680839012812D002284F
:100E200013D0032811D00968890700292DDA216819
:100E300021F0030101432160FFF71CFF814641F2CD
:100E4000883A0EE009688903EFE709688901ECE751
:100E5000FFF710FFA0EB0901514502D90320BDE8BF
:100E6000F0872068696800F00C00B0EB810FEFD1CB
:100E7000D8F80010404601F00701B14207D90770C9
:100E8000006800F00700B04201D00120E7E72878B1
:100E9000400705D52068E96820F4E0500843206049
:100EA0002878000706D52068296920F4604040EAC8
:100EB000C100206000F038F82168084AC1F303112E
:100EC000515CC8400649086006480068FFF7FAFE12
:100ED0000020C4E7003C024008380240A863000834
:100EE000240000201C00002004480549006809680F
:100EF000044AC1F38221515CC8407047240000209D
:100F000008380240B86300080448054900680968C9
:100F1000044AC1F34231515CC840704724000020AC
:100F200008380240B8630008154810B5006810F092
:100F30000C02144813D04110042A0FD0082A0ED1F5
:100F40000F4C241F2268236802F03F025B0207D582
:100F50002068C0F38810A0FB010106E0084610BD20
:100F60002168C1F38811A1FB00010023FFF72AF9D2
:100F70002168C1F30141491C4900B0FBF1F010BDEB
:100F8000083802400024F4002DE9F84F04006ED028
:100F90002078DFF84C93C007A9F104054AD009F185
:100FA00004000168C1F38101012908D00068C0F381
:100FB000810002280AD1D9F80000400206D528682D
:100FC000800337D560680028E1D033E06068B0F571
:100FD000803F10D0B0F5A02F286810D020F48030CA
:100FE0002860286820F4802028606068A8B1FFF796
:100FF00041FE06460DE0286840F48030F4E740F4F6
:1010000080202860F7E700BFFFF734FE801B6428CC
:1010100073D828688003F7D50CE0FFF72BFE06464F
:1010200005E000BFFFF726FE801B6428F0D8286883
:101030008003F7D42078DFF8AC8280074FF0000AF5
:101040003ED5A748001D016811F00C0F08D00068BC
:10105000C0F3810002280BD1D9F80000400207D468
:101060002868800716D5E068012800D112E033E136
:10107000E068B8B10120C8F80000FFF7FBFD0646A4
:1010800005E000BFFFF7F6FD801B0228C0D82868E6
:101090008007F7D52868216920F0F80040EAC100F0
:1010A00028600DE0C8F800A0FFF7E4FD064604E064
:1010B000FFF7E0FD801B02281FD828688007F7D4BF
:1010C0002078000722D5864F87486169703771B153
:1010D00001210160FFF7CEFD064604E0FFF7CAFDDF
:1010E000801B022809D838688007F7D50EE0C0F8C1
:1010F00000A0FFF7BFFD064605E082E0FFF7BAFD5E
:10110000801B02287DD838688007F7D420784007F4
:1011100068D5DFF8CCB100270BF13C0BDBF8000001
:10112000C0000BD4DBF8001041F08051CBF8001068
:10113000DBF80000012700F0805000906B4E306813
:10114000C00510D4306840F480703060FFF792FD25
:10115000009005E0FFF78EFD0099401A022850D854
:101160003068C005F6D55E4EA0686C3601280FD0F9
:101170000528306810D020F001003060306820F081
:1011800004003060A068B8B1FFF774FD00900FE074
:10119000306840F00100F4E740F004003060F7E709
:1011A000FFF768FD0099411A41F28830814266D804
:1011B00030688007F4D50EE0FFF75CFD009007E093
:1011C000FFF758FD0099411A41F28830814256D804
:1011D00030688007F4D42FB1DBF8001021F0805183
:1011E000CBF80010A069C8B33D49091D0968C1F3D7
:1011F000810102294AD00228504607D0C8F8600071
:1012000000E03CE0FFF736FD04463BE04746C8F807
:101210006000FFF72FFD064605E000BFFFF72AFD3F
:10122000801B02282BD828688001F7D4D4E9070155
:101230000843A16A2E4A490802EB0141626A41EA69
:101240008211084394F82C1040EA0161C9F800109B
:1012500001203866FFF70EFD044606E03EE000BFC1
:10126000FFF708FD001B022809D828688001F7D580
:1012700034E000BFFFF7FEFC001B022802D9032068
:10128000BDE8F88F28688001F4D427E00128F7D062
:10129000D9F80000E26900F4800191421CD1226A71
:1012A00000F03F01914217D147F6C071626A0140D8
:1012B000B1EB821F10D1A26A4FF0FF3300F440312E
:1012C00003EB5202B1EB024F06D194F82C1000F060
:1012D0007060B0EB016F01D00120D1E70020CFE7B3
:1012E0000438024000004742800E47420070004030
:1012F0000000FFFF70B515460E46040003D094F8B9
:10130000490010B107E0012070BD002084F84800BA
:10131000204600F01DF804F108012068FFF7F6FAF6
:101320003146A2682068FFF725FBD4E9010229466F
:10133000236BFFF7CDFA2168A06851F8202042F016
:10134000010241F82020012084F84900002070BDEE
:10135000FFF740BB10B5401EB0F1807F01D30120E4
:1013600010BD4FF0E02460610F21601701F038F9E3
:101370000020A06107202061002010BD7047704749
:1013800010B590F83C20012A22D0012280F83C20A0
:10139000CA688C6822F4407222434C6822F480624E
:1013A00022430C6822F4006222430C6922F480522A
:1013B00022434C6922F400522243C969002322F4DB
:1013C00080420A4301684A6480F83C30002010BD26
:1013D000022010BD70B590F83C20012A32D00124C3
:1013E00080F83C40022280F83D2003685A689D68DE
:1013F00022F070060A6832435A60134B02689A4220
:1014000014D0B2F1804F11D0104B9A420ED0104B35
:101410009A420BD00F4B9A4208D00F4B9A4205D0FC
:101420000E4B9A4202D00E4B9A4204D1496825F0E5
:1014300080031943916080F83D40002180F83C1002
:10144000084670BD022070BD00000140000400404D
:1014500000080040000C0040000401400040014032
:101460000018004070472DE9F04104460068C66846
:1014700005694FF00007A90713D5B10711D5F91E6B
:10148000016101202077206880698007204602D012
:10149000FFF7E8FF04E000F0D3F8204600F0B6FACA
:1014A0002777680716D5700714D521686FF00400F8
:1014B0000861022020772068806910F4407F204670
:1014C00002D0FFF7CFFF04E000F0BAF8204600F0AA
:1014D0009DFA2777280715D5300713D521686FF0B7
:1014E00008000861042020772068C0698007204632
:1014F00002D0FFF7B7FF04E000F0A2F8204600F0AA
:1015000085FA2777E80616D5F00614D521686FF01E
:1015100010000861082020772068C06910F4407F1F
:10152000204602D0FFF79EFF04E000F089F8204635
:1015300000F06CFA2777E80708D0F00706D021689A
:101540006FF001000861204600F0A0FA280608D5D7
:10155000300606D521686FF0800008612046FFF74D
:101560000DFF680608D5700606D521686FF04000AB
:101570000861204600F0D6FAA8060AD5B00608D5BC
:1015800021686FF0200008612046BDE8F041FFF7B8
:10159000F6BEBDE8F081000010B586B00446142107
:1015A0006846FEF747FE0E492068884215D10D486F
:1015B0000021026842F480720260006800F48070CA
:1015C0000590202000900220CDE901010320CDE903
:1015D000031069460448FFF743FA06B010BD000047
:1015E00000040140303802400020024070B504463B
:1015F00090F83C00002501280FD0012084F83C0021
:101600006AB1042A0FD0082A11D00C2A13D0012560
:10161000002084F83C00284670BD022070BD206880
:1016200000F010FEF4E7206800F03CFEF0E72068D0
:1016300000F06EFEECE7206800F09EFEE8E7000098
:101640002DE9FF4101460027009709685A4A594889
:101650003C4691427AD101684A6A584E00927268BB
:10166000009B02EBD27203EB620200924A63544D7C
:10167000A978491CA970A978022967D1AF7031787F
:1016800041B10120022301290FD0022961D0032991
:101690000AD144E02F616F61002100F059F9002167
:1016A000084600F0D1FC6F707EE0E968491CE960F3
:1016B0002969491C296171780029A96823D0491E2C
:1016C000A9607169491C716171686A6902EB410125
:1016D000726900EB820291FBF2F17268511A8CB2CE
:1016E00071686A6902EB4101726900EB820091FB4B
:1016F000F0F200FB12106861B0682969884204D8D2
:10170000F068706120E0491CDAE73069A0424BDBE9
:10171000AC8030696F6184B20320307044E0E868C7
:10172000401CE8602869401C286170780028A8687F
:101730000DD0401EA860306984B2B0682969884223
:1017400032D8F0687061AC8833702DE02DE0401C19
:10175000F0E72969491C2961E968491CE960717849
:101760000029A96823D0491EA9607169491C7161CB
:1017700071686A6902EB4101726900EB820291FBB8
:10178000F2F17268511A8CB271686A6902EB410118
:10179000726900EB820091FBF0F200FB12106861AD
:1017A0007069002800DB37707460BDE8FF81491C58
:1017B000DAE700009C000020000401408C010020BA
:1017C0002C00002010B5040003D094F83D0010B1A7
:1017D00007E0012010BD002084F83C00204600F006
:1017E0001FF8022084F83D00211D206800F0B4FCA1
:1017F000012084F8460084F83E0084F83F0084F815
:10180000400084F8410084F8420084F8430084F8E2
:10181000440084F8450084F83D00002010BD00001D
:1018200008B500680B49884212D10B48016841F0A5
:10183000020101600068002200F0020000901146E1
:101840002E20FFF785FABDE808402E20FFF772BA78
:1018500008BD0000000401404438024030B50025B6
:101860000446022249B1042912D008294CD094F828
:101870004100012853D0012030BD94F83E000128DA
:10188000F9D184F83E202068C26842F0020209E0E3
:1018900094F83F000128EED184F83F202068C26808
:1018A00042F00402C2600122206800F0BDFC214920
:1018B0002068214A884201D0904203D1436C43F40E
:1018C000004343642068884213D0B0F1804F10D0A9
:1018D0001A4988420DD01A4988420AD019498842CB
:1018E00007D0904205D01849884202D01749884253
:1018F00004D1816801F00701062903D0016841F095
:1019000001010160284630BD94F840000128B2D1A1
:1019100084F840202068C26842F00802C2E784F8D8
:1019200041200C2901D00125ECE72068C26842F073
:101930001002B7E70000014000040140000400402D
:1019400000080040000C004000400140001800402A
:1019500070B50D0004464FF0000607D0042D0AD0E4
:10196000082D0DD00C2D10D001263FE02068C16855
:1019700021F002010DE02068C16821F0040108E0B7
:101980002068C16821F0080103E02068C16821F0E7
:101990001001C16000222946206800F045FC194B67
:1019A00041F2111120688A10984202D0164B9842D9
:1019B00009D1036A0B4206D1036A134203D1436C77
:1019C00023F4004343642068036A0B4206D1016A92
:1019D000114203D1016821F00101016001203DB1F4
:1019E000042D08D0082D09D084F84100304670BD80
:1019F00084F83E00FAE784F83F00F7E784F84000F7
:101A0000F4E70000000001400004014070470000BE
:101A100030B504460D460068002200F005FC194B65
:101A200041F2111120688A10984202D0164B984258
:101A300009D1036A0B4206D1036A134203D1436CF6
:101A400023F4004343642068036A0B4206D1016A11
:101A5000114203D1016821F00101016001203DB173
:101A6000042D08D0082D09D084F84100002030BD95
:101A700084F83E00FAE784F83F00F7E784F8400076
:101A8000F4E70000000001400004014070B5006868
:101A90001549884225D1154D154C01202870E06864
:101AA000401EE0606078002820691BD0401E206145
:101AB000E068002815D10021084600F0C5FA206929
:101AC000FEF7A4FC9FED0B1B53EC112BFEF7BDFBA7
:101AD000FEF7BAFC2269014608A000F05DFD002077
:101AE000287070BD401CE2E7000401402C0000207B
:101AF0003C010020CDCCCCCCCCCCBC3F616C6C206C
:101B0000646F6E652C20616E676C653A25642C20CD
:101B100070756C73655F636F756E743A25640D0A3A
:101B200000000000704770B5040004D094F8410034
:101B3000002510B106E0012070BD84F84050204619
:101B400000F024F8242084F841002068C16821F4C2
:101B50000051C160204600F05FFC2068016921F45B
:101B6000904101612068416921F02A0141612068AA
:101B7000C16841F40051C1606564202084F84100CF
:101B800084F842006563002070BD000010B586B087
:101B9000044614216846FEF74DFB1349206888422D
:101BA00020D112480021026842F010020260006851
:101BB00000F0100005900D481438026842F002024F
:101BC0000260006800F002000590C0200090022032
:101BD000CDE90101032003900720049069460448E1
:101BE000FEF73EFF06B010BD001001404438024031
:101BF000000402402DE9F843044690F8410098465D
:101C000016460D46202802D00220BDE8F88385B193
:101C10007EB100206064212084F84100FFF72AF89B
:101C2000A6848146E684A0682027B0F5805F02D0B4
:101C300003E00120E9E7206910B12E4600250EE0FF
:101C400000260CE08021204600F06CFCA8B9C6B14B
:101C500016F8010B21684860E08C401EE084E08C9F
:101C60004B464FF00002CDF800800028EAD14FF03B
:101C70004001204600F056FC40B184F8417003203A
:101C8000C3E735F8020BC0F30800E3E784F84170BE
:101C90000020BAE7FEE70000054808B5016841F0FA
:101CA00010010160006800F01000009008BD000005
:101CB0003038024010B5214C04212046FEF7C8FF01
:101CC00050B108212046FEF7C3FFA8B110212046DD
:101CD000FEF7BEFF00B327E00A20FEF769FE0421ED
:101CE0002046FEF7B5FFF8B904212046FEF7B0FF05
:101CF0000028F9D0012010BD0A20FEF759FE082166
:101D00002046FEF7A5FF78B908212046FEF7A0FF80
:101D10000028F9D0022010BD0A20FEF749FE10214C
:101D20002046FEF795FF08B1042010BD1021204683
:101D3000FEF78EFF0028F9D0032010BD00100240EE
:101D4000054808B5016841F010010160006800F025
:101D50001000009008BD000030380240054A28B14C
:101D6000012805D102211046FEF777BF0121FAE7CD
:101D7000704700000010024000B58FB01C2168467B
:101D8000FEF758FA1C2107A8FEF754FA1B484FF03B
:101D90002041102201601A49416006218160002122
:101DA000C160C0E904128161C16113020162C0E92E
:101DB00009139302C0E90B1341638163416402205C
:101DC00000900F200523CDE901030DF10C0C112328
:101DD0008CE80E000691CDE907100DF1240CFF20D0
:101DE0008CE80F000D9107AA69460448FFF782FAB4
:101DF000002801D0FEF769FD0FB000BD4C000020A7
:101E0000040100A02DE9F04786B014216846FEF7D2
:101E100011FA3F480024016841F010010160016897
:101E200001F010010591016841F080010160016835
:101E300001F080010591016841F020010160016815
:101E400001F020010591016841F040010160016845
:101E500001F040010591016841F00801016001684D
:101E600001F008010591016841F00101016001687C
:101E700001F001010591016841F002010160016872
:101E800001F002010591016841F480710160006870
:101E9000DFF8808000F480704FF440460590012206
:101EA00031464046FEF7E1FEDFF86C904FF40077D4
:101EB000002239464846FEF7D8FEDFF860A001222E
:101EC00003215046FEF7D1FE1C2001258DE831008C
:101ED00069465046FEF7C4FD0096CDE901546946B7
:101EE00040460394FEF7BCFD0097CDE901546946D6
:101EF00048460394FEF7B4FD03200090CDE9015459
:101F0000694650460394FEF7ABFD06B0BDE8F08786
:101F10003038024000140240001C02400010024011
:101F200010B592B000240F941C2108A81094FEF75D
:101F300081F920216846FEF77DF920481E4901609D
:101F40005321C0E901144FF6FF71C0E90314446145
:101F50008461FFF737FC08B1FEF7B7FC0F940FA9B7
:101F600016481094FFF736FA08B1FEF7AEFC3020A1
:101F7000CDE908040A940B940C940D94002208A94E
:101F80000E480E94FFF732FB08B1FEF79EFC00945A
:101F90004FF40050CDE90440029401940394694643
:101FA00006480794FFF7ECF908B1FEF78EFC0348EA
:101FB000FFF7F2FA12B010BD000401409C000020AF
:101FC0000C4810B50A4901604FF4E131416000212D
:101FD00081600C22C160C0E904128161C161FFF718
:101FE000A2FD002803D0BDE81040FEF76EBC10BD76
:101FF00000100140E4000020FEE7FEE77047704754
:1020000070B50C46042801D3022070BD0C4A00EBC9
:1020100080010C4B02EB401003EB810524B1012C35
:1020200006D00320287270BD81898068002202E0FA
:10203000818980680122FEF718FE6C70002070BD57
:10204000409300083C0100202DE9F0410D46042892
:1020500002D30220BDE8F0811049114F00EB800649
:1020600001EB401435B1012D0ED007EB86010320A2
:102070000872EFE7A18801222068FEF7F6FDD4E997
:102080000601FFF7C5FC04E0A18800222068FEF7E6
:10209000ECFD07F826500020DCE700004093000824
:1020A0003C010020FEF7ECBD30B593B0302168460E
:1020B000FEF7C0F814210CA8FEF7BCF81D48002557
:1020C000016841F080510160006800F0805011907B
:1020D0001948016841F4804101600068022400F45D
:1020E00080401190012003901020049000940694E9
:1020F0000820CDE90750A820CDE9090404200B9061
:102100006846FEF741FF08B172B6FEE70CA90F2042
:1021100081E831004FF4A0500F904FF480501090A0
:1021200005210CA8FEF746FE002801D072B6FEE796
:1021300013B030BD403802400070004002480168D2
:1021400041F470010160704788ED00E00148FFF73D
:102150008AB900009C000020F0B50268274B284D8A
:10216000284E294F294C4FF0804C984209D06045A9
:1021700007D0A84205D0B04203D0B84201D0A04257
:1021800004D122F0700E4A6842EA0E0298421BD037
:10219000604519D0A84217D0B04215D0B84213D02C
:1021A000A04211D01A4DA8420ED01A4DA8420BD011
:1021B000194DA84208D0194DA84205D0184DA84283
:1021C00002D0184DA84203D122F44075CA682A43B0
:1021D0004D6922F080022A438D68C5620D688562D0
:1021E000984201D0A04201D109690163016841F020
:1021F00004010160012141610260F0BD0000014065
:102200000004004000080040000C004000040140B1
:1022100000400140004401400048014000180040D7
:10222000001C00400020004010B501F01F030121F8
:10223000046A99408C430462016A9A401143016226
:1022400010BD0000F0B5036A026A22F001020262CA
:1022500042688469124E24F073050C682C4323F005
:1022600002058B682B430D4DA84201D0B04205D129
:1022700023F00807CB683B4323F00403A84201D0B6
:10228000B04205D14D6922F4407215438A692A4350
:1022900042608461496841630362F0BD000001400F
:1022A00000040140F0B5026A036A23F010030362E0
:1022B000436884690D6824F4E64444EA05248D6883
:1022C00022F0200242EA05120F4D104EA84201D022
:1022D000B04206D1CF6822F0800242EA071222F013
:1022E0004002A84201D0B04207D14D6923F44063B7
:1022F00043EA85038D6943EA850343608461496845
:1023000081630262F0BD0000000001400004014052
:10231000F0B5026A036A23F4807303624368C469F8
:1023200022F4007224F073050C68124E2C438D6861
:1023300042EA05220E4DA84201D0B04206D1CF6834
:1023400022F4006242EA072222F48062A84201D00D
:10235000B04207D14D6923F4405343EA05138D6918
:1023600043EA05134360C4614968C1630262F0BD7A
:10237000000001400004014030B5046A026A22F402
:10238000805202624268C3690D6823F4E64343EA5F
:1023900005238D6824F4005444EA0534084DA8420E
:1023A00002D0084DA84204D14D6922F4804242EA8D
:1023B00085124260C36149680164046230BD000057
:1023C000000001400004014001680C3151E8002F79
:1023D00022F4907241E80023002BF5D101681431FA
:1023E00051E8002F22F0010241E80023002BF5D133
:1023F000016B012909D101680C3151E8002F22F04D
:10240000100241E80023002BF5D1202180F8421072
:10241000002101637047000070B50446006801693F
:10242000E26821F44051114301612169A068E26929
:1024300008436169114308432168CA6849F20C6383
:102440009A430243CA6020684169A26921F440713D
:102450001143416131492068884202D030498842A5
:1024600002D1FEF751FD01E0FEF73EFDE2690023D7
:10247000192164253226B2F5004F626828D0A0FBEE
:102480000101930F9200FDF79DFE0146B0FBF5F0B0
:102490006FF01802504301EB800006EB0010B0FB18
:1024A000F5F000F0F002B1FBF5F002EB0012B1FB29
:1024B000F5F06FF01803584301EB800006EB0010B5
:1024C000B0FBF5F000F00F0021681044886070BD8B
:1024D000A0FB010192185B41FDF774FE0146B0FBC1
:1024E000F5F00201B1FBF5F06FF01803584301EB72
:1024F000800006EBC000B0FBF5F000F0F80002EB46
:102500004002B1FBF5F0584301EB800006EBC00040
:10251000B0FBF5F000F00700D6E700000010014026
:10252000001401402DE9F843984617460D4604462D
:10253000089E24E0701C22D0FEF79CFBA0EB080054
:10254000B0421AD8CEB12068C168490717D5802D8E
:1025500015D0402D13D00168C94309070FD4016875
:102560000025406800902046FFF72EFF0820606499
:1025700084F840500120BDE8F8830320FBE7206881
:10258000006835EA000004D00020B842D2D0002014
:10259000F1E70120F9E7FEE70FB4054B10B503A9F9
:1025A000044A029800F040F910BC5DF814FB0000EA
:1025B0004D310008440000200FB4084B10B504A9A9
:1025C00002AA039800F030F9044602A9002000F0A6
:1025D000AEFC204610BC5DF814FB00002F2F000855
:1025E0000907090E002804DB00F1E02080F8001440
:1025F000704700F00F0000F1E02080F8141D7047D4
:1026000000B52DED048BB0EE409AF0EE609A83B0E9
:1026100051EC190BFEF79CF841EC180B18EE100A60
:1026200018EE901A8DED008B002818BF012008438A
:1026300020F00040C0F17F6000F1E040C00F14D0F6
:1026400019EE101A19EE900A8DED009B002918BFA3
:102650000121084320F00040C0F17F6000F1E0401C
:10266000C00F04BF012000F017F8B0EE480A03B015
:10267000F0EE680ABDEC048B00BD02E008C8121F32
:1026800008C1002AFAD170477047002001E001C15B
:10269000121F002AFBD170470149086070470000F3
:1026A000480000202DE9FF5F82B00021DDE9043001
:1026B000020DDDF840B0034318D044F61050A2F2EA
:1026C000FF3242431514119801281FD0A5EB0B00CF
:1026D000401C5FEA000A4FF000064E4FDFF83891C9
:1026E000B046504615D5CAF1000413E011980124F4
:1026F0004AA3012801D16FEA0B010298119AC0E99F
:102700000031C0E9024206B0BDE8F09FCBF1000005
:10271000DFE704460021404A491842EB0450CDE966
:10272000001012E0E00707D032463B4640464946DB
:10273000FDF78BFD8046894632463B4610461946DA
:10274000FDF783FD06460F466410002CEAD1DDE953
:102750000401DDE90023BAF1000F06DAFDF775FD8B
:1027600042464B46FDF771FD05E0FDF7E0FD4246B0
:102770004B46FDF7DCFD04460E460022284BFEF7D3
:1027800051F803D84FF0FF30014607E00022254BF7
:1027900020463146FDF735FFFEF72BF8102409E0FF
:1027A000002C0ADB0A220023FDF70CFD039B3032CC
:1027B0001A55641E50EA0102F2D1641C039AC4F156
:1027C00011031444119A012A03D0012208430DD1A8
:1027D0000AE0084304D000204FF0110B119072E77B
:1027E000A3EB0B056D1E0DE05B4504DD4FF0000211
:1027F00005F1010504E003DA4FF00002A5F101053F
:10280000002AECD002981199C0E90231C0E90045D4
:1028100079E70000000014400000F03F30000000A5
:102820000000F0430000E03F2DE9FF4F95B09A46CD
:10283000884606460025EEE1252877D10024274664
:10284000F94A0121039400E0044316F8013F203BBC
:1028500001FA03F01042F7D130782A2811D06FF036
:102860002F033078A0F13002092A16D8039A44F0D9
:10287000020402EB820203EB42021044761C039036
:10288000EFE758F8042B0392002A03DA504244F48D
:102890000054039044F00204761C30782E2816D1A0
:1028A00016F8010F44F004042A280DD06FF02F020F
:1028B0003078A0F13003092B09D807EB870302EB2E
:1028C0004303C718761CF3E758F8047B761C30786E
:1028D0006C280FD006DC4C2817D068280DD06A2849
:1028E00014D104E0742810D07A280FD10DE044F4FC
:1028F00000140AE044F4801401E044F440147278B7
:10290000824202D104F58014761C761C3078662849
:102910000BD013DC582877D009DC002875D0452867
:10292000F6D04628F4D047281AD193E118E063285E
:1029300035D0642879D0652812D18BE1702873D006
:1029400008DC6728F1D069286FD06E280DD06F2879
:1029500006D1ACE073282CD0752874D0782853D0D9
:102960005246179990476D1C54E1C4F30250022857
:1029700009D003280DD0D8F8001004280DD00D6020
:1029800008F1040846E1D8F80010EA17C1E900523E
:10299000F6E7D8F800100D80F2E70D70F0E718F8B0
:1029A000041B8DF8001000208DF80100EB4601207B
:1029B00003E058F804BB4FF0FF3061074FF000010F
:1029C00002D40DE009F101018946B9420FDA8145CF
:1029D000F8DB1BF809100029F4D108E009F1010126
:1029E00089468142FADB1BF809100029F6D10398C9
:1029F0005346A0EB090721463846179A00F080FAA3
:102A0000284400EB090507E044E008E10DE01BF86D
:102A1000010B524617999047B9F10109F7D2534675
:102A200021463846179AF2E039E00A21C4F30252EF
:102A30004FF0000B0091022A06D058F8040BC11782
:102A4000032A09D00AE023E008F1070020F007027A
:102A5000F2E80201904605E000B2C117042A01D154
:102A600040B2C117002906DA0A460021404261EB54
:102A700002012D2202E0220504D52B228DF804202C
:102A8000012203E0E20701D02022F7E7914657E058
:102A90000A2100E010214FF0000B00910BE0102103
:102AA0004FF0000B44F004040827009103E00820D5
:102AB0004FF0000B0090C4F30252022A05D058F8E0
:102AC000040B0021032A08D008E008F1070020F0D9
:102AD0000702F2E80201904603E080B2042A00D126
:102AE000C0B24FF0000922072AD53278702A07D0E9
:102AF000DDF800C08CF0100C5CEA0B0C05D00EE089
:102B000040228DF80420012208E050EA010306D09B
:102B100030238DF804308DF8052002229146009B69
:102B200083F0080353EA0B030AD150EA010201D1F2
:102B3000620705D530228DF804204FF001097F1E71
:102B40003278582A04D039A20C920CAA02920BE0D7
:102B50003BA2F9E75B46009AFDF734FB0C9B9B5CBC
:102B6000029A521E0292137050EA0102F2D10298A8
:102B700004A9081A00F1200B600702D524F4803460
:102B800000E001275F4502DDA7EB0B0000E000201D
:102B900000EB0B01009003984944401A0390E003B6
:102BA00006D453462146179A039800F0A9F9054424
:102BB000002706E001A85246C05D179990476D1C9A
:102BC0007F1C4F45F6DBE0030CD553462146179A90
:102BD000039800F095F9054404E030205246179917
:102BE00090476D1C0099481E00900029F5DC08E014
:102BF0000298029952460078491C02911799904711
:102C00006D1CBBF10001ABF1010BF1DC5BE100F0ED
:102C100065F90544761C307800287FF40DAE19B0B4
:102C20002846BDE8F08F000009280100303132331A
:102C300034353637383961626364656600000000F8
:102C400030313233343536373839414243444546E2
:102C500000000000600700D4062708F1070020F0FC
:102C60000700F0E80223804603F0004C5FEA0C0006
:102C700001D097A009E0200501D596A005E0E00766
:102C800001D095A001E0AFF24C001390307823F012
:102C9000004365280CD006DC452809D046281DD005
:102CA00047287FD13BE0662818D067287AD136E0E4
:102CB0000021112F01DB112000E0781CCDE900017B
:102CC00004A90CA8FFF7EEFCDDE90D010C9A4FF00A
:102CD000000B07F10109109200914EE04FF0004007
:102CE0000097CDE9011004A90CA8FFF7DBFCDDE992
:102CF0000D020C9B0F994FF0000B91461093009220
:102D000011B9791C00EB0109B7EB090003D4C0F13C
:102D1000FF3B07F10109A9EB0700019042E0012FF9
:102D200000DA01270021112F01DD112000E03846D3
:102D3000CDE9000104A90CA8FFF7B4FCDDE90D0101
:102D40000C9A00914FF0000BB946109221070FD456
:102D5000009A4A4503DA914601E0A9F10109B9F167
:102D6000010F05DD109AA9F10101515C3029F4D061
:102D7000B84202DA10F1040F03DA0121CDE90110A3
:102D800010E0002803DC8344A9EB000102E0411CB1
:102D9000494500DD8946A0EB0B00401C01904FF037
:102DA00000400290200705D40198484502DB4FF00F
:102DB000FF30019000208DF84B0002980DF14B0779
:102DC000B0F1004F25D002200C902B200D900298DE
:102DD00000280CDA404202902D200D9007E00A21D5
:102DE0000298FDF77CFB3031029007F8011D0C9929
:102DF000481E0C900029F2DC02980028EFD1791EC1
:102E00000D980870307800F0200040F0450007F879
:102E1000020D11A8C01BC01D02901398007800B1CC
:102E2000012000EB0901019801EBE07102980144D7
:102E30000398401A401E0390E00306D453462146EF
:102E4000179A039800F05CF805441398007818B1BD
:102E50005246179990476D1CE00323D553462146EF
:102E6000179A039800F04CF805441BE0BBF1000FE3
:102E700007DB0098584504DD1098179910F80B00EF
:102E800001E0179930205246904701980BF1010B51
:102E9000401E05F10105019004D12E2052461799DC
:102EA00090476D1CB9F10001A9F10109DEDC05E0D4
:102EB00017F8010B5246179990476D1C0299481E4E
:102EC00002900029F4DC53462146179A03989EE6A7
:102ED0002D0000002B000000200000002DE9F04133
:102EE000044600251E461746880404D405E03946EA
:102EF0002020B0476D1C641EF9D52846BDE8F0813E
:102F00002DE9F041044600251E469046C80301D530
:102F1000302700E02027880404D505E041463846E4
:102F2000B0476D1C641EF9D52846BDE8F0810A68DB
:102F3000531C0B60107070472DE9F04F054669482F
:102F4000DFF89C8185B040789A4691460F4600286C
:102F500076D10126644C002D05DA66700121FFF759
:102F60004FF86D4204E0002060700146FFF748F81A
:102F70004FF0FF3B012D4BD0002D7BD000EE10AA6F
:102F8000B8EE400ADFED590A80EE801ABDEEC10AA4
:102F900010EE100A206100EE107AF8EE400A9FED64
:102FA000541A81EE200A10EE100AFDF785FA41EC62
:102FB000100BFFF725FB9FED4F1B51EC100B53EC53
:102FC000112BFDF742F99FED4D1B53EC112BFDF733
:102FD000AEF9FDF739FA606000EE107AB8EE400AFB
:102FE000DFED480AB2EE041A0AFB0AF020EE200ACE
:102FF000C0EE010A00EE100AB8EE400A80EE201A78
:10300000BCEEC10A10EE100A8DED000A40B108E0D6
:10301000C4F814B0022020704FF47A70606029E088
:10302000009605FB09F007EB0901B0FBF1F00190F8
:1030300000B90196DDE90010884202D8401B05E086
:103040004AE001FB07F0B0FBF9F04042E060E068C5
:1030500008B9C4F80CB0E0682844A0606068216931
:10306000884204DC206960600320207000E0267044
:10307000002060611B48467001210020FEF7E4FF3C
:10308000D8F80000406AADF8100063692269E16871
:10309000A0688DE80F006368627821781A48FFF70E
:1030A0007BFA6068BDF8101000EBD07001EB600196
:1030B00016A0FFF771FA6068BDF8101000EBD07031
:1030C00001EB6001D8F80000416305B04046BDE85F
:1030D000F04F0021FEF7C2BB05B0BDE8F08F000045
:1030E0009C0000202C0000208C010020E86519477E
:1030F0007B59C4430000000080D80041000000005C
:1031000000002440DA0FC93EC0930008666972735C
:103110007420636F756E7465723A25640A0000004E
:10312000074A10B553680749074C0968B1FBF4F129
:10313000414300E000BF5068C01A8842FAD310BD76
:10314000001000E02400002040420F0013B54FF6AD
:10315000FF73012269460248FEF74CFD00981CBD32
:10316000E400002070B509490646002408884D880F
:1031700021464543204602F08FFE03F019F804482B
:1031800001E00680641CAC42FBD370BD2C01002022
:103190000008006C2DE9F04F38492C260A4688714A
:1031A00092884FF4305A4FF4285B41F6631E2B2768
:1031B0004FF02A0C4FF0F00845F210594FF44875C3
:1031C0004FF4A0744FF4F07358B10C80A1F8028052
:1031D0004A4530D1A1F808A0A1F80AB03802888188
:1031E00041E0A1F800804C804A4507D1A1F808A031
:1031F000A1F80AB04FF42C50888105E072450E8189
:1032000005D14F81A1F80CC00B804D8002E0A1F8E0
:103210000AC08F81A2F5A640103803D0A2F5EE4077
:10322000963801D10C804B80A2F5184006381FD18A
:103230000B804D801CE0724511D0A2F51840063875
:103240000DD00E81A1F80AC0A1F80C70A2F5A6401D
:1032500010380BD0A2F5EE40963807D008E00E816A
:10326000A1F80AC08F810D804B80EFE70B804C8066
:10327000BDE8F04F032002F04DBD00002C010020FE
:1032800010B5144602F008FE02F092FF01480480D7
:1032900010BD00000008006C10B5CF2002F07CFFCC
:1032A000002002F06DFFC12002F06AFF302002F022
:1032B00067FFED2002F070FF642002F061FF032041
:1032C00002F05EFF122002F05BFF812002F058FF47
:1032D000E82002F061FF852002F052FF102002F08A
:1032E0004FFF7A2002F04CFFCB2002F055FF39202F
:1032F00002F046FF2C2002F043FF002002F040FFC6
:10330000342002F03DFF022002F03AFFF72002F0E5
:1033100043FF202002F034FFEA2002F03DFF0020AE
:1033200002F02EFF002002F02BFFC02002F034FF3D
:103330001B2002F025FFC12002F02EFF012002F029
:103340001FFFC52002F028FF302002F019FF3020B7
:1033500002F016FFC72002F01FFFB72002F010FF97
:10336000362002F019FF482002F00AFF3A2002F04E
:1033700013FF552002F004FFB12002F00DFF0020E2
:1033800002F0FEFE1A2002F0FBFEB62002F004FF5F
:103390000A2002F0F5FEA22002F0F2FEF22002F076
:1033A000FBFE002002F0ECFE262002F0F5FE0120DC
:1033B00002F0E6FEE02002F0EFFE0F2002F0E0FE59
:1033C0002A2002F0DDFE282002F0DAFE082002F0BA
:1033D000D7FE0E2002F0D4FE082002F0D1FE5420C9
:1033E00002F0CEFEA92002F0CBFE432002F0C8FE80
:1033F0000A2002F0C5FE0F2002F0C2FE002002F0FB
:10340000BFFE002002F0BCFE002002F0B9FE00204A
:1034100002F0B6FEE12002F0BFFE002002F0B0FE96
:10342000152002F0ADFE172002F0AAFE072002F0E0
:10343000A7FE112002F0A4FE062002F0A1FE2B2020
:1034400002F09EFE562002F09BFE3C2002F098FE09
:10345000052002F095FE102002F092FE0F2002F0EF
:103460008FFE3F2002F08CFE3F2002F089FE0F20ED
:1034700002F086FE2B2002F08FFE002002F080FE7C
:10348000002002F07DFE012002F07AFE3F2002F0D3
:1034900077FE2A2002F080FE002002F071FE00205C
:1034A00002F06EFE002002F06BFEEF2002F068FEDC
:1034B000112002F071FE7820FDF77AFABDE8104085
:1034C000292002F069BE10B5FF2002F065FEFF2042
:1034D00002F056FE982002F053FE062002F050FE45
:1034E000BC2002F059FE012002F04AFE0F2002F03B
:1034F00047FE612002F044FEFF2002F041FE012061
:1035000002F03EFE012002F03BFE0B2002F038FEEE
:10351000102002F035FE372002F032FE632002F068
:103520002FFEFF2002F02CFEFF2002F029FE0120DA
:1035300002F026FE012002F023FE002002F020FE11
:10354000002002F01DFEFF2002F01AFE522002F0C1
:1035500017FE012002F014FE002002F011FE4020B0
:1035600002F00EFEBD2002F017FE012002F008FE60
:10357000232002F005FE452002F002FE672002F043
:10358000FFFD012002F0FCFD232002F0F9FD4520A3
:1035900002F0F6FD672002F0F3FDBE2002F0FCFD14
:1035A000002002F0EDFD012002F0EAFDAB2002F068
:1035B000E7FD602002F0E4FD222002F0E1FD222080
:1035C00002F0DEFD222002F0DBFD222002F0D8FD19
:1035D000222002F0D5FDC72002F0DEFD362002F0E9
:1035E000CFFDED2002F0D8FD7F2002F0C9FD0F20B5
:1035F00002F0C6FDC02002F0CFFD0F2002F0C0FD9A
:103600000B2002F0BDFD0A2002F0BAFDFC2002F002
:10361000C3FD082002F0B4FDDF2002F0BDFD002054
:1036200002F0AEFD002002F0ABFD002002F0A8FD8C
:10363000002002F0A5FD002002F0A2FD202002F0F3
:103640009FFDF32002F0A8FD742002F099FDB42044
:1036500002F0A2FD002002F093FD002002F090FD98
:10366000002002F08DFDF72002F096FD822002F08E
:1036700087FDB12002F090FD002002F081FD1320B3
:1036800002F07EFD132002F07BFDF22002F084FDAB
:10369000802002F075FD042002F072FD402002F04F
:1036A0006FFD282002F06CFDC12002F075FD17208F
:1036B00002F066FD882002F063FD882002F060FDC4
:1036C000202002F05DFDE02002F066FD002002F007
:1036D00057FD0A2002F054FD122002F051FD102087
:1036E00002F04EFD0E2002F04BFD202002F048FDBE
:1036F000CC2002F045FD072002F042FD062002F03A
:103700003FFD0B2002F03CFD0E2002F039FD0F20A2
:1037100002F036FD0D2002F033FD152002F030FDE1
:10372000102002F02DFD002002F02AFDE12002F021
:1037300033FD002002F024FD0B2002F021FD1320B8
:1037400002F01EFD0D2002F01BFD0E2002F018FD00
:103750001B2002F015FD712002F012FD062002F080
:103760000FFD062002F00CFD0A2002F009FD0F20DB
:1037700002F006FD0E2002F003FD0F2002F000FD16
:10378000152002F0FDFC0C2002F0FAFC002002F0F3
:10379000F7FC2A2002F000FD002002F0F1FC0020DE
:1037A00002F0EEFC012002F0EBFCDF2002F0E8FC6E
:1037B0002B2002F0F1FC002002F0E2FC002002F0DD
:1037C000DFFC032002F0DCFC1F2002F0D9FC3A20D1
:1037D00002F0E2FC552002F0D3FC362002F0DCFCC3
:1037E000002002F0CDFC112002F0D6FC7820FDF77D
:1037F000DFF8292002F0D0FC1420FDF7D9F8BDE84D
:1038000010402C2002F0C8BC10B5ED2002F0C4FC22
:10381000012002F0B5FCFE2002F0B2FCEE2002F026
:10382000BBFCDE2002F0ACFC212002F0A9FCF12060
:1038300002F0B2FC012002F0A3FCDF2002F0ACFC9D
:10384000102002F09DFCC42002F0A6FC8F2002F0A4
:1038500097FCC62002F0A0FC002002F091FCE220C0
:1038600002F08EFCE22002F08BFCE22002F088FCE9
:10387000BF2002F091FCAA2002F082FCB02002F0EE
:103880008BFC0D2002F07CFC002002F079FC0D2066
:1038900002F076FC002002F073FC112002F070FCB4
:1038A000002002F06DFC192002F06AFC002002F0FA
:1038B00067FC212002F064FC002002F061FC2D2056
:1038C00002F05EFC002002F05BFC3D2002F058FCA0
:1038D000002002F055FC5D2002F052FC002002F0B6
:1038E0004FFC5D2002F04CFC002002F049FCB120AE
:1038F00002F052FC802002F043FC002002F040FC69
:103900008B2002F03DFC002002F03AFC962002F0F1
:1039100037FC002002F034FCB22002F03DFC002015
:1039200002F02EFC002002F02BFC022002F028FC0A
:10393000002002F025FC032002F022FC002002F00F
:103940001FFCB32002F028FC002002F019FC00202C
:1039500002F016FC002002F013FC002002F010FC24
:10396000002002F00DFC002002F00AFC002002F012
:1039700007FC002002F004FC002002F001FC002003
:1039800002F0FEFB002002F0FBFB002002F0F8FB3F
:10399000002002F0F5FB002002F0F2FB002002F014
:1039A000EFFB002002F0ECFB002002F0E9FB00201E
:1039B00002F0E6FB002002F0E3FB002002F0E0FB57
:1039C000002002F0DDFB002002F0DAFB002002F014
:1039D000D7FB002002F0D4FBB42002F0DDFB8B20EB
:1039E00002F0CEFB002002F0CBFB962002F0C8FBD9
:1039F000002002F0C5FBA12002F0C2FB002002F073
:103A0000BFFBB52002F0C8FB022002F0B9FB00208A
:103A100002F0B6FB032002F0B3FB002002F0B0FB83
:103A2000042002F0ADFB002002F0AAFBB62002F059
:103A3000B3FB002002F0A4FB002002F0A1FBB720A2
:103A400002F0AAFB002002F09BFB002002F098FB92
:103A50003F2002F095FB002002F092FB5E2002F076
:103A60008FFB002002F08CFB642002F089FB002019
:103A700002F086FB8C2002F083FB002002F080FB2A
:103A8000AC2002F07DFB002002F07AFBDC2002F08B
:103A900077FB002002F074FB702002F071FB002025
:103AA00002F06EFB902002F06BFB002002F068FB3E
:103AB000EB2002F065FB002002F062FBDC2002F04C
:103AC0005FFB002002F05CFBB82002F065FB0020E9
:103AD00002F056FB002002F053FB002002F050FBE6
:103AE000002002F04DFB002002F04AFB002002F013
:103AF00047FB002002F044FB002002F041FBBA200B
:103B000002F04AFB242002F03BFB002002F038FBCD
:103B1000002002F035FB002002F032FBC12002F051
:103B20003BFB202002F02CFB002002F029FB54205C
:103B300002F026FB002002F023FBFF2002F020FB16
:103B4000002002F01DFBC22002F026FB0A2002F03A
:103B500017FB002002F014FB042002F011FB0020F0
:103B600002F00EFBC32002F017FB3C2002F008FB22
:103B7000002002F005FB3A2002F002FB002002F0D8
:103B8000FFFA392002F0FCFA002002F0F9FA37209F
:103B900002F0F6FA002002F0F3FA3C2002F0F0FA0C
:103BA000002002F0EDFA362002F0EAFA002002F0DE
:103BB000E7FA322002F0E4FA002002F0E1FA2F20C6
:103BC00002F0DEFA002002F0DBFA2C2002F0D8FA34
:103BD000002002F0D5FA292002F0D2FA002002F0EB
:103BE000CFFA262002F0CCFA002002F0C9FA2420F5
:103BF00002F0C6FA002002F0C3FA242002F0C0FA54
:103C0000002002F0BDFA232002F0BAFA002002F0F0
:103C1000B7FA3C2002F0B4FA002002F0B1FA3620E4
:103C200002F0AEFA002002F0ABFA322002F0A8FA5D
:103C3000002002F0A5FA2F2002F0A2FA002002F0E4
:103C40009FFA2C2002F09CFA002002F099FA292019
:103C500002F096FA002002F093FA262002F090FA81
:103C6000002002F08DFA242002F08AFA002002F0EF
:103C700087FA242002F084FA002002F081FA23203F
:103C800002F07EFA002002F07BFAC42002F084FAEF
:103C9000622002F075FA002002F072FA052002F0AC
:103CA0006FFA002002F06CFA842002F069FA00201A
:103CB00002F066FAF02002F063FA002002F060FAE7
:103CC000182002F05DFA002002F05AFAA42002F057
:103CD00057FA002002F054FA182002F051FA00209E
:103CE00002F04EFA502002F04BFA002002F048FA9F
:103CF0000C2002F045FA002002F042FA172002F0F0
:103D00003FFA002002F03CFA952002F039FA002038
:103D100002F036FAF32002F033FA002002F030FA13
:103D2000E62002F02DFA002002F02AFAC52002F067
:103D300033FA322002F024FA002002F021FA442063
:103D400002F01EFA002002F01BFA652002F018FAB9
:103D5000002002F015FA762002F012FA002002F09C
:103D60000FFA882002F00CFA002002F009FAC620AF
:103D700002F012FA202002F003FA002002F000FA0A
:103D8000172002F0FDF9002002F0FAF9012002F0FC
:103D9000F7F9002002F0F4F9C72002F0FDF9002045
:103DA00002F0EEF9002002F0EBF9002002F0E8F951
:103DB000002002F0E5F9C82002F0EEF9002002F040
:103DC000DFF9002002F0DCF9002002F0D9F9002030
:103DD00002F0D6F9C92002F0DFF9002002F0D0F994
:103DE000002002F0CDF9002002F0CAF9002002F014
:103DF000C7F9002002F0C4F9002002F0C1F9002048
:103E000002F0BEF9002002F0BBF9002002F0B8F980
:103E1000002002F0B5F9002002F0B2F9002002F013
:103E2000AFF9002002F0ACF9002002F0A9F900205F
:103E300002F0A6F9002002F0A3F9E02002F0ACF9AC
:103E4000162002F09DF9002002F09AF91C2002F0E1
:103E500097F9002002F094F9212002F091F9002056
:103E600002F08EF9362002F08BF9002002F088F97A
:103E7000462002F085F9002002F082F9522002F07B
:103E80007FF9002002F07CF9642002F079F900202B
:103E900002F076F97A2002F073F9002002F070F94E
:103EA0008B2002F06DF9002002F06AF9992002F0EF
:103EB00067F9002002F064F9A82002F061F90020FF
:103EC00002F05EF9B92002F05BF9002002F058F927
:103ED000C42002F055F9002002F052F9CA2002F085
:103EE0004FF9002002F04CF9D22002F049F90020ED
:103EF00002F046F9D92002F043F9002002F040F91F
:103F0000E02002F03DF9002002F03AF9F32002F03F
:103F100037F9002002F034F9E12002F03DF91620D3
:103F200002F02EF9002002F02BF91C2002F028F9F3
:103F3000002002F025F9222002F022F9002002F0F0
:103F40001FF9362002F01CF9002002F019F9452073
:103F500002F016F9002002F013F9522002F010F9D5
:103F6000002002F00DF9642002F00AF9002002F0AE
:103F700007F97A2002F004F9002002F001F98B2001
:103F800002F0FEF8002002F0FBF8992002F0F8F8A9
:103F9000002002F0F5F8A82002F0F2F8002002F06C
:103FA000EFF8B92002F0ECF8002002F0E9F8C420A4
:103FB00002F0E6F8002002F0E3F8CA2002F0E0F890
:103FC000002002F0DDF8D22002F0DAF8002002F042
:103FD000D7F8D82002F0D4F8002002F0D1F8E02081
:103FE00002F0CEF8002002F0CBF8F32002F0C8F87F
:103FF000002002F0C5F8E22002F0CEF8052002F021
:10400000BFF8002002F0BCF80B2002F0B9F8002045
:1040100002F0B6F81B2002F0B3F8002002F0B0F86E
:10402000342002F0ADF8002002F0AAF8442002F09B
:10403000A7F8002002F0A4F84F2002F0A1F8002019
:1040400002F09EF8612002F09BF8002002F098F840
:10405000792002F095F8002002F092F8882002F012
:104060008FF8002002F08CF8972002F089F80020E9
:1040700002F086F8A62002F083F8002002F080F813
:10408000B72002F07DF8002002F07AF8C22002F09A
:1040900077F8002002F074F8C72002F071F80020D1
:1040A00002F06EF8D12002F06BF8002002F068F800
:1040B000D62002F065F8002002F062F8DD2002F060
:1040C0005FF8002002F05CF8F32002F059F80020BD
:1040D00002F056F8E32002F05FF8052002F050F8F5
:1040E000002002F04DF80A2002F04AF8002002F009
:1040F00047F81C2002F044F8002002F041F8332079
:1041000002F03EF8002002F03BF8442002F038F8BC
:10411000002002F035F8502002F032F8002002F0C2
:104120002FF8622002F02CF8002002F029F8782005
:1041300002F026F8002002F023F8882002F020F890
:10414000002002F01DF8972002F01AF8002002F07B
:1041500017F8A62002F014F8002002F011F8B7209A
:1041600002F00EF8002002F00BF8C22002F008F86E
:10417000002002F005F8C72002F002F8002001F04C
:10418000FFFFD12001F0FCFF002001F0F9FFD52056
:1041900001F0F6FF002001F0F3FFDD2001F0F0FF59
:1041A000002001F0EDFFF32001F0EAFF002001F014
:1041B000E7FFE42001F0F0FF012001F0E1FF002023
:1041C00001F0DEFF012001F0DBFF002001F0D8FF4D
:1041D000022001F0D5FF002001F0D2FF2A2001F0DB
:1041E000CFFF002001F0CCFF3C2001F0C9FF0020F0
:1041F00001F0C6FF4B2001F0C3FF002001F0C0FF1B
:104200005D2001F0BDFF002001F0BAFF742001F035
:10421000B7FF002001F0B4FF842001F0B1FF0020BF
:1042200001F0AEFF932001F0ABFF002001F0A8FFEA
:10423000A22001F0A5FF002001F0A2FFB32001F0B1
:104240009FFF002001F09CFFBE2001F099FF00209D
:1042500001F096FFC42001F093FF002001F090FFD1
:10426000CD2001F08DFF002001F08AFFD32001F066
:1042700087FF002001F084FFDD2001F081FF002096
:1042800001F07EFFF32001F07BFF002001F078FFBA
:10429000E52001F081FF002001F072FF002001F015
:1042A0006FFF002001F06CFF002001F069FF022089
:1042B00001F066FF002001F063FF292001F060FF9C
:1042C000002001F05DFF3C2001F05AFF002001F0CA
:1042D00057FF4B2001F054FF002001F051FF5D20FB
:1042E00001F04EFF002001F04BFF742001F048FF69
:1042F000002001F045FF842001F042FF002001F082
:104300003FFF932001F03CFF002001F039FFA22085
:1043100001F036FF002001F033FFB32001F030FF41
:10432000002001F02DFFBE2001F02AFF002001F047
:1043300027FFC42001F024FF002001F021FFCD2041
:1043400001F01EFF002001F01BFFD32001F018FF39
:10435000002001F015FFDC2001F012FF002001F029
:104360000FFFF32001F00CFF002001F009FFE62011
:1043700001F012FF112001F003FF002001F000FF07
:10438000342001F0FDFE002001F0FAFE562001F07D
:10439000F7FE002001F0F4FE762001F0F1FE00208F
:1043A00001F0EEFE772001F0EBFE002001F0E8FEC8
:1043B000662001F0E5FE002001F0E2FE882001F019
:1043C000DFFE002001F0DCFE992001F0D9FE002084
:1043D00001F0D6FEBB2001F0D3FE002001F0D0FE9C
:1043E000992001F0CDFE002001F0CAFE662001F008
:1043F000C7FE002001F0C4FE552001F0C1FE0020E0
:1044000001F0BEFE552001F0BBFE002001F0B8FE19
:10441000452001F0B5FE002001F0B2FE432001F07E
:10442000AFFE002001F0ACFE442001F0A9FE002008
:1044300001F0A6FEE72001F0AFFE322001F0A0FE61
:10444000002001F09DFE552001F09AFE002001F0B1
:1044500097FE762001F094FE002001F091FE662088
:1044600001F08EFE002001F08BFE672001F088FE37
:10447000002001F085FE672001F082FE002001F09F
:104480007FFE872001F07CFE002001F079FE99205C
:1044900001F076FE002001F073FEBB2001F070FEFB
:1044A000002001F06DFE992001F06AFE002001F06D
:1044B00067FE772001F064FE002001F061FE4420D9
:1044C00001F05EFE002001F05BFE562001F058FE78
:1044D000002001F055FE232001F052FE002001F0E3
:1044E0004FFE332001F04CFE002001F049FE452034
:1044F00001F046FE002001F043FEE82001F04CFEF2
:10450000002001F03DFE002001F03AFE992001F06C
:1045100037FE002001F034FE872001F031FE00203C
:1045200001F02EFE882001F02BFE002001F028FE75
:10453000772001F025FE002001F022FE662001F028
:104540001FFE002001F01CFE882001F019FE002053
:1045500001F016FEAA2001F013FE002001F010FE6B
:10456000BB2001F00DFE002001F00AFE992001F0B1
:1045700007FE002001F004FE662001F001FE00208D
:1045800001F0FEFD552001F0FBFD002001F0F8FDDB
:10459000552001F0F5FD002001F0F2FD442001F06E
:1045A000EFFD002001F0ECFD442001F0E9FD0020CA
:1045B00001F0E6FD552001F0E3FD002001F0E0FDF3
:1045C000E92001F0E9FDAA2001F0DAFD002001F068
:1045D000D7FD002001F0D4FD002001F0D1FD002026
:1045E00001F0DAFDAA2001F0CBFDCF2001F0D4FDCF
:1045F000002001F0C5FD002001F0C2FD002001F007
:10460000BFFD002001F0BCFD002001F0B9FD00203D
:1046100001F0B6FD002001F0B3FD002001F0B0FD77
:10462000002001F0ADFD002001F0AAFD002001F006
:10463000A7FD002001F0A4FD002001F0A1FD002055
:1046400001F09EFD002001F09BFD002001F098FD8F
:10465000002001F095FDF02001F09EFD002001F00A
:104660008FFD502001F08CFD002001F089FD00201D
:1046700001F086FD002001F083FDF32001F08CFDA8
:10468000002001F07DFDF92001F086FD062001F0FB
:1046900077FD102001F074FD292001F071FD00204C
:1046A00001F06EFD3A2001F077FD552001F068FD24
:1046B000112001F071FD6420FCF77AF9292001F046
:1046C0006BFD352001F068FD002001F059FD5120FF
:1046D00001F062FDFF2001F053FD532001F05CFD6D
:1046E0002C2001F04DFD552001F056FD822001F0F7
:1046F00047FDBDE810402C2001F04EBD2DE9F05FD4
:104700004FF470435521184601F05CFD4FF201044F
:10471000AA21204601F056FD651C5221284601F0D1
:1047200051FDA61C0821304601F04CFDE71C01217B
:10473000384601F047FD0D214FF4304001F042FDB5
:104740000D214BF2010001F03DFD0D214BF2020065
:1047500001F038FD4FF436483421404601F032FD77
:1047600034214BF2016001F02DFD34214BF2026047
:1047700001F028FD4FF431490D21484601F022FD9A
:104780004BF2011A0D21504601F01CFD0D214BF298
:10479000021001F017FD4FF4374B3421584601F059
:1047A00011FD34214BF2017001F00CFD34214BF26C
:1047B000027001F007FD00214FF4324001F002FDCC
:1047C00000214BF2012001F0FDFC00214BF2022000
:1047D00001F0F8FC24214FF4384001F0F3FC2421CF
:1047E0004BF6010001F0EEFC24214BF6020001F033
:1047F000E9FC01214FF43F4001F0E4FC0F214FF4AC
:10480000334001F0DFFC0F214BF2013001F0DAFC04
:104810000F214BF2023001F0D5FC34214FF4394026
:1048200001F0D0FC34214BF6011001F0CBFC342117
:104830004BF6021001F0C6FC08214FF4354001F0A0
:10484000C1FC08214BF2015001F0BCFC08214BF2E5
:10485000025001F0B7FC03214FF4424001F0B2FCDA
:1048600024214FF43A4001F0ADFC24214BF6012005
:1048700001F0A8FC24214BF6022001F0A3FC00214A
:104880004FF43C4001F09EFC78214BF6014001F0D2
:1048900099FC00214BF6024001F094FC00214FF4FA
:1048A0003D4001F08FFC78214BF6015001F08AFC6D
:1048B00000214BF6025001F085FC00214FF43E40F0
:1048C00001F080FC64214BF6016001F07BFC0021CB
:1048D0004FF4514001F076FC33214DF2011001F00C
:1048E00071FC00214DF2021001F06CFC34214DF2FC
:1048F000031001F067FC00214DF2041001F062FC8E
:104900003A214DF2051001F05DFC00214DF2061038
:1049100001F058FC4A214DF2071001F053FC002130
:104920004DF2081001F04EFC5C214DF2091001F02F
:1049300049FC00214DF20A1001F044FC81214DF2A6
:104940000B1001F03FFC00214DF20C1001F03AFC7D
:10495000A6214DF20D1001F035FC00214DF20E1094
:1049600001F030FCE5214DF20F1001F02BFC01218C
:104970004DF2101001F026FC13214DF2111001F040
:1049800021FC01214DF2121001F01CFC54214DF2CA
:10499000131001F017FC01214DF2141001F012FC6C
:1049A00082214DF2151001F00DFC01214DF216107F
:1049B00001F008FCCA214DF2171001F003FC02219E
:1049C0004DF2181001F0FEFB00214DF2191001F01C
:1049D000F9FB02214DF21A1001F0F4FB01214DF216
:1049E0001B1001F0EFFB02214DF21C1001F0EAFB5D
:1049F00034214DF21D1001F0E5FB02214DF21E1095
:104A000001F0E0FB67214DF21F1001F0DBFB0221FA
:104A10004DF2201001F0D6FB84214DF2211001F05F
:104A2000D1FB02214DF2221001F0CCFBA4214DF26A
:104A3000231001F0C7FB02214DF2241001F0C2FB4C
:104A4000B7214DF2251001F0BDFB02214DF22610D9
:104A500001F0B8FBCF214DF2271001F0B3FB02218A
:104A60004DF2281001F0AEFBDE214DF2291001F0CD
:104A7000A9FB02214DF22A1001F0A4FBF2214DF214
:104A80002B1001F09FFB02214DF22C1001F09AFB3C
:104A9000FE214DF22D1001F095FB03214DF22E1059
:104AA00001F090FB10214DF22F1001F08BFB032140
:104AB0004DF2301001F086FB33214DF2311001F040
:104AC00081FB03214DF2321001F07CFB6D214DF290
:104AD000331001F077FB00214FF4524001F072FBDC
:104AE00033214DF2012001F06DFB00214DF2022037
:104AF00001F068FB34214DF2032001F063FB00213B
:104B00004DF2042001F05EFB3A214DF2052001F048
:104B100059FB00214DF2062001F054FB4A214DF2D1
:104B2000072001F04FFB00214DF2082001F04AFB65
:104B30005C214DF2092001F045FB00214DF20A20D5
:104B400001F040FB81214DF20B2001F03BFB0021E5
:104B50004DF20C2001F036FBA6214DF20D2001F0A4
:104B600031FB00214DF20E2001F02CFBE5214DF22E
:104B70000F2001F027FB01214DF2102001F022FB54
:104B800013214DF2112001F01DFB01214DF21220E5
:104B900001F018FB54214DF2132001F013FB012109
:104BA0004DF2142001F00EFB82214DF2152001F090
:104BB00009FB01214DF2162001F004FBCA214DF240
:104BC000172001F0FFFA02214DF2182001F0FAFA45
:104BD00000214DF2192001F0F5FA02214DF21A20C0
:104BE00001F0F0FA01214DF21B2001F0EBFA022155
:104BF0004DF21C2001F0E6FA34214DF21D2001F0A7
:104C0000E1FA02214DF21E2001F0DCFA67214DF29B
:104C10001F2001F0D7FA02214DF2202001F0D2FA34
:104C200084214DF2212001F0CDFA02214DF2222003
:104C300001F0C8FAA4214DF2232001F0C3FA0221A9
:104C40004DF2242001F0BEFAB7214DF2252001F0EB
:104C5000B9FA02214DF2262001F0B4FACF214DF22B
:104C6000272001F0AFFA02214DF2282001F0AAFA24
:104C7000DE214DF2292001F0A5FA02214DF22A2071
:104C800001F0A0FAF2214DF22B2001F09BFA022153
:104C90004DF22C2001F096FAFE214DF22D2001F06C
:104CA00091FA03214DF22E2001F08CFA10214DF2E1
:104CB0002F2001F087FA03214DF2302001F082FA13
:104CC00033214DF2312001F07DFA03214DF23220E3
:104CD00001F078FA6D214DF2332001F073FA0021D2
:104CE0004FF4534001F06EFA33214DF2013001F0E0
:104CF00069FA00214DF2023001F064FA34214DF2DC
:104D0000033001F05FFA00214DF2043001F05AFA4D
:104D10003A214DF2053001F055FA00214DF20630EE
:104D200001F050FA4A214DF2073001F04BFA002110
:104D30004DF2083001F046FA5C214DF2093001F0E5
:104D400041FA00214DF20A3001F03CFA81214DF286
:104D50000B3001F037FA00214DF20C3001F032FA3D
:104D6000A6214DF20D3001F02DFA00214DF20E304A
:104D700001F028FAE5214DF20F3001F023FA01216C
:104D80004DF2103001F01EFA13214DF2113001F0F6
:104D900019FA01214DF2123001F014FA54214DF2AA
:104DA000133001F00FFA01214DF2143001F00AFA2C
:104DB00082214DF2153001F005FA01214DF2163035
:104DC00001F000FACA214DF2173001F0FBF902217F
:104DD0004DF2183001F0F6F900214DF2193001F0D2
:104DE000F1F902214DF21A3001F0ECF901214DF2F6
:104DF0001B3001F0E7F902214DF21C3001F0E2F91D
:104E000034214DF21D3001F0DDF902214DF21E304A
:104E100001F0D8F967214DF21F3001F0D3F90221DA
:104E20004DF2203001F0CEF984214DF2213001F015
:104E3000C9F902214DF2223001F0C4F9A4214DF24A
:104E4000233001F0BFF902214DF2243001F0BAF90C
:104E5000B7214DF2253001F0B5F902214DF226308F
:104E600001F0B0F9CF214DF2273001F0ABF902216A
:104E70004DF2283001F0A6F9DE214DF2293001F083
:104E8000A1F902214DF22A3001F09CF9F2214DF2F4
:104E90002B3001F097F902214DF22C3001F092F9FC
:104EA000FE214DF22D3001F08DF903214DF22E300F
:104EB00001F088F910214DF22F3001F083F9032120
:104EC0004DF2303001F07EF933214DF2313001F0F6
:104ED00079F903214DF2323001F074F96D214DF270
:104EE000333001F06FF900214FF4544001F06AF9BA
:104EF00033214DF2014001F065F900214DF20240ED
:104F000001F060F934214DF2034001F05BF900211A
:104F10004DF2044001F056F93A214DF2054001F0FE
:104F200051F900214DF2064001F04CF94A214DF2B1
:104F3000074001F047F900214DF2084001F042F925
:104F40005C214DF2094001F03DF900214DF20A408B
:104F500001F038F981214DF20B4001F033F90021C5
:104F60004DF20C4001F02EF9A6214DF20D4001F05A
:104F700029F900214DF20E4001F024F9E5214DF20E
:104F80000F4001F01FF901214DF2104001F01AF914
:104F900013214DF2114001F015F901214DF212409B
:104FA00001F010F954214DF2134001F00BF90121E9
:104FB0004DF2144001F006F982214DF2154001F046
:104FC00001F901214DF2164001F0FCF8CA214DF221
:104FD000174001F0F7F802214DF2184001F0F2F805
:104FE00000214DF2194001F0EDF802214DF21A4076
:104FF00001F0E8F801214DF21B4001F0E3F8022135
:105000004DF21C4001F0DEF834214DF21D4001F05C
:10501000D9F802214DF21E4001F0D4F867214DF27B
:105020001F4001F0CFF802214DF2204001F0CAF8F4
:1050300084214DF2214001F0C5F802214DF22240B9
:1050400001F0C0F8A4214DF2234001F0BBF8022189
:105050004DF2244001F0B6F8B7214DF2254001F0A1
:10506000B1F802214DF2264001F0ACF8CF214DF20B
:10507000274001F0A7F802214DF2284001F0A2F8E4
:10508000DE214DF2294001F09DF802214DF22A4027
:1050900001F098F8F2214DF22B4001F093F8022133
:1050A0004DF22C4001F08EF8FE214DF22D4001F022
:1050B00089F803214DF22E4001F084F810214DF2C1
:1050C0002F4001F07FF803214DF2304001F07AF8D3
:1050D00033214DF2314001F075F803214DF2324099
:1050E00001F070F86D214DF2334001F06BF80021B2
:1050F0004FF4554001F066F833214DF2015001F0B4
:1051000061F800214DF2025001F05CF834214DF2BB
:10511000035001F057F800214DF2045001F052F80D
:105120003A214DF2055001F04DF800214DF20650A4
:1051300001F048F84A214DF2075001F043F80021F0
:105140004DF2085001F03EF85C214DF2095001F09B
:1051500039F800214DF20A5001F034F881214DF266
:105160000B5001F02FF800214DF20C5001F02AF8FD
:10517000A6214DF20D5001F025F800214DF20E5000
:1051800001F020F8E5214DF20F5001F01BF801214C
:105190004DF2105001F016F813214DF2115001F0AC
:1051A00011F801214DF2125001F00CF854214DF28A
:1051B000135001F007F801214DF2145001F002F8EC
:1051C00082214DF2155000F0FDFF01214DF21650E5
:1051D00000F0F8FFCA214DF2175000F0F3FF022152
:1051E0004DF2185000F0EEFF00214DF2195000F082
:1051F000E9FF02214DF21A5000F0E4FF01214DF2C7
:105200001B5000F0DFFF02214DF21C5000F0DAFFCE
:1052100034214DF21D5000F0D5FF02214DF21E50F9
:1052200000F0D0FF67214DF21F5000F0CBFF0221AC
:105230004DF2205000F0C6FF84214DF2215000F0C5
:10524000C1FF02214DF2225000F0BCFFA4214DF21B
:10525000235000F0B7FF02214DF2245000F0B2FFBE
:10526000B7214DF2255000F0ADFF02214DF226503E
:1052700000F0A8FFCF214DF2275000F0A3FF02213C
:105280004DF2285000F09EFFDE214DF2295000F033
:1052900099FF02214DF22A5000F094FFF2214DF2C5
:1052A0002B5000F08FFF02214DF22C5000F08AFFAE
:1052B000FE214DF22D5000F085FF03214DF22E50BE
:1052C00000F080FF10214DF22F5000F07BFF0321F2
:1052D0004DF2305000F076FF33214DF2315000F0A6
:1052E00071FF03214DF2325000F06CFF6D214DF241
:1052F000335000F067FF00214FF4564000F062FF8A
:1053000033214DF2016000F05DFF00214DF202609B
:1053100000F058FF34214DF2036000F053FF0021EC
:105320004DF2046000F04EFF3A214DF2056000F0AE
:1053300049FF00214DF2066000F044FF4A214DF282
:10534000076000F03FFF00214DF2086000F03AFFD7
:105350005C214DF2096000F035FF00214DF20A603A
:1053600000F030FF81214DF20B6000F02BFF002197
:105370004DF20C6000F026FFA6214DF20D6000F00A
:1053800021FF00214DF20E6000F01CFFE5214DF2DF
:105390000F6000F017FF01214DF2106000F012FFC6
:1053A00013214DF2116000F00DFF01214DF212604A
:1053B00000F008FF54214DF2136000F003FF0121BB
:1053C0004DF2146000F0FEFE82214DF2156000F0F7
:1053D000F9FE01214DF2166000F0F4FECA214DF2F3
:1053E000176000F0EFFE02214DF2186000F0EAFEB7
:1053F00000214DF2196000F0E5FE02214DF21A6025
:1054000000F0E0FE01214DF21B6000F0DBFE022106
:105410004DF21C6000F0D6FE34214DF21D6000F00C
:10542000D1FE02214DF21E6000F0CCFE67214DF24C
:105430001F6000F0C7FE02214DF2206000F0C2FEA6
:1054400084214DF2216000F0BDFE02214DF2226068
:1054500000F0B8FEA4214DF2236000F0B3FE02215B
:105460004DF2246000F0AEFEB7214DF2256000F051
:10547000A9FE02214DF2266000F0A4FECF214DF2DC
:10548000276000F09FFE02214DF2286000F09AFE96
:10549000DE214DF2296000F095FE02214DF22A60D6
:1054A00000F090FEF2214DF22B6000F08BFE022105
:1054B0004DF22C6000F086FEFE214DF22D6000F0D2
:1054C00081FE03214DF22E6000F07CFE10214DF292
:1054D0002F6000F077FE03214DF2306000F072FE85
:1054E00033214DF2316000F06DFE03214DF2326048
:1054F00000F068FE6D214DF2336000F063FE55212F
:10550000184600F05FFEAA21204600F05BFE522103
:10551000284600F057FE0821304600F053FE0021D7
:10552000384600F04FFECC21484600F04BFE0021EB
:10553000504600F047FE0521404600F043FE702132
:10554000584600F03FFE70214BF2017000F03AFE29
:1055500001214FF4384000F035FE03214BF60100E5
:1055600000F030FE03214BF6020000F02BFE032179
:105570004BF6030000F026FE02214FF43C4000F001
:1055800021FE00214BF6014000F01CFE00214BF6ED
:10559000024000F017FED0214FF4494000F012FE07
:1055A00002214CF6011000F00DFE50214CF60210C5
:1055B00000F008FE50214CF6031000F003FE5021CD
:1055C0004CF6041000F0FEFD00214FF4545000F0A2
:1055D000F9FD55214FF4685000F0F4FD4FF4885068
:1055E00000F0DAFD7820FDF79BFDBDE8F05F4FF499
:1055F000245000F0D1BD10B5E22000F0CDFD1D20FB
:1056000000F0BEFD022000F0BBFD042000F0B8FD5C
:105610006420FDF785FDE02000F0BEFD012000F0D4
:10562000AFFD0A20FBF7C4F9E02000F0B5FD032030
:1056300000F0A6FD0C20FBF7BBF9012000F0ACFD4B
:105640000A20FBF7B5F9E62000F0A6FD2F2000F0B8
:1056500097FDFF2000F094FDFF2000F091FDB020A9
:1056600000F09AFD202000F08BFD002000F088FD66
:10567000032000F085FD40F21F3000F081FD012085
:1056800000F07EFD40F2DF1000F07AFD002000F017
:1056900077FDB42000F080FD042000F071FD40F2A1
:1056A0001F4000F06DFD002000F06AFD2E2000F08C
:1056B00067FD002000F064FD002000F061FD002087
:1056C00000F05EFD002000F05BFDB62000F064FD00
:1056D000022000F055FD4FF4037000F051FD002052
:1056E00000F04EFD172000F04BFD152000F048FDA6
:1056F000002000F045FD002000F042FDF02000F009
:105700004BFD032000F03CFD292000F045FDD0209A
:1057100000F042FD002000F033FDBE2000F03CFD13
:10572000052000F02DFDFE2000F02AFD012000F0F4
:1057300027FD002000F024FD002000F021FD0020C6
:1057400000F01EFDB82000F027FD032000F018FD3A
:10575000012000F015FDBA2000F01EFDBDE810404C
:10576000012000F00DBD10B5112000F015FD7820CE
:10577000FBF71EF9362000F00FFD002000F000FDC1
:105780003A2000F009FD052000F0FAFCB22000F0FC
:1057900003FD0C2000F0F4FC0C2000F0F1FC0020D4
:1057A00000F0EEFC332000F0EBFC332000F0E8FCCE
:1057B000B72000F0F1FC352000F0E2FCBB2000F047
:1057C000EBFC322000F0DCFCC02000F0E5FC0C20FB
:1057D00000F0D6FCC22000F0DFFC012000F0D0FC7D
:1057E000C32000F0D9FC102000F0CAFCC42000F057
:1057F000D3FC202000F0C4FCC62000F0CDFC0F201C
:1058000000F0BEFCD02000F0C7FCA42000F0B8FCE3
:10581000A12000F0B5FCE02000F0BEFCD02000F09C
:10582000AFFC002000F0ACFC022000F0A9FC072037
:1058300000F0A6FC0A2000F0A3FC282000F0A0FC49
:10584000322000F09DFC442000F09AFC422000F041
:1058500097FC062000F094FC0E2000F091FC122032
:1058600000F08EFC142000F08BFC172000F088FC68
:10587000E12000F091FCD02000F082FC002000F03C
:105880007FFC022000F07CFC072000F079FC0A205D
:1058900000F076FC282000F073FC312000F070FC52
:1058A000542000F06DFC472000F06AFC0E2000F050
:1058B00067FC1C2000F064FC172000F061FC1B203A
:1058C00000F05EFC1E2000F05BFC2A2000F064FC6F
:1058D000002000F055FC002000F052FC002000F0F9
:1058E0004FFCEF2000F04CFC2B2000F055FC00207A
:1058F00000F046FC002000F043FC012000F040FCDA
:105900003F2000F03DFCBDE81040292000F044BCE1
:1059100010B5112000F040FC7820FBF749F8362044
:1059200000F03AFC482000F02BFC3A2000F034FC58
:10593000552000F025FCF02000F02EFCC32000F0E4
:105940001FFCF02000F028FC962000F019FCB42089
:1059500000F022FC012000F013FCB62000F01CFC3B
:105960000A2000F00DFCA22000F00AFCB72000F095
:1059700013FCC62000F004FCB92000F00DFC02204E
:1059800000F0FEFBE02000F0FBFBC02000F004FC78
:10599000802000F0F5FB162000F0F2FBC12000F0A3
:1059A000FBFB192000F0ECFBC22000F0F5FBA72068
:1059B00000F0E6FBC52000F0EFFB162000F0E0FB56
:1059C000E82000F0E9FB402000F0DAFB8A2000F03C
:1059D000D7FB002000F0D4FB002000F0D1FB2920F1
:1059E00000F0CEFB192000F0CBFBA52000F0C8FB97
:1059F000332000F0C5FBE02000F0CEFBF02000F0EB
:105A0000BFFB072000F0BCFB0D2000F0B9FB042019
:105A100000F0B6FB052000F0B3FB142000F0B0FB53
:105A2000362000F0ADFB542000F0AAFB4C2000F023
:105A3000A7FB382000F0A4FB132000F0A1FB1420EA
:105A400000F09EFB2E2000F09BFB342000F098FB22
:105A5000E12000F0A1FBF02000F092FB102000F00C
:105A60008FFB142000F08CFB0E2000F089FB0C2033
:105A700000F086FB082000F083FB352000F080FB5F
:105A8000442000F07DFB4C2000F07AFB262000F043
:105A900077FB102000F074FB122000F071FB2C202B
:105AA00000F06EFB322000F06BFBF02000F074FB86
:105AB0003C2000F065FBF02000F06EFB692000F058
:105AC0005FFB7820FAF774FFBDE81040292000F052
:105AD00063BB00002DE9F05FFCF74EF93220FAF7C6
